{
  "_format": "hh-sol-artifact-1",
  "contractName": "NFT",
  "sourceName": "contracts/NFT.sol",
  "abi": [
    {
      "inputs": [
        {
          "internalType": "string",
          "name": "name_",
          "type": "string"
        },
        {
          "internalType": "string",
          "name": "symbol_",
          "type": "string"
        },
        {
          "internalType": "address",
          "name": "_bidExecutor",
          "type": "address"
        }
      ],
      "stateMutability": "nonpayable",
      "type": "constructor"
    },
    {
      "anonymous": false,
      "inputs": [
        {
          "indexed": true,
          "internalType": "address",
          "name": "owner",
          "type": "address"
        },
        {
          "indexed": true,
          "internalType": "address",
          "name": "approved",
          "type": "address"
        },
        {
          "indexed": true,
          "internalType": "uint256",
          "name": "tokenId",
          "type": "uint256"
        }
      ],
      "name": "Approval",
      "type": "event"
    },
    {
      "anonymous": false,
      "inputs": [
        {
          "indexed": true,
          "internalType": "address",
          "name": "owner",
          "type": "address"
        },
        {
          "indexed": true,
          "internalType": "address",
          "name": "operator",
          "type": "address"
        },
        {
          "indexed": false,
          "internalType": "bool",
          "name": "approved",
          "type": "bool"
        }
      ],
      "name": "ApprovalForAll",
      "type": "event"
    },
    {
      "anonymous": false,
      "inputs": [
        {
          "indexed": true,
          "internalType": "uint256",
          "name": "tokenID",
          "type": "uint256"
        },
        {
          "indexed": true,
          "internalType": "address",
          "name": "owner",
          "type": "address"
        },
        {
          "indexed": true,
          "internalType": "address",
          "name": "bidder",
          "type": "address"
        },
        {
          "indexed": false,
          "internalType": "uint256",
          "name": "bidValue",
          "type": "uint256"
        }
      ],
      "name": "BidAccepted",
      "type": "event"
    },
    {
      "anonymous": false,
      "inputs": [
        {
          "indexed": true,
          "internalType": "uint256",
          "name": "tokenID",
          "type": "uint256"
        },
        {
          "indexed": true,
          "internalType": "address",
          "name": "bidder",
          "type": "address"
        },
        {
          "indexed": false,
          "internalType": "uint256",
          "name": "bidValue",
          "type": "uint256"
        }
      ],
      "name": "NewBid",
      "type": "event"
    },
    {
      "anonymous": false,
      "inputs": [
        {
          "indexed": false,
          "internalType": "address",
          "name": "account",
          "type": "address"
        }
      ],
      "name": "Paused",
      "type": "event"
    },
    {
      "anonymous": false,
      "inputs": [
        {
          "indexed": true,
          "internalType": "bytes32",
          "name": "role",
          "type": "bytes32"
        },
        {
          "indexed": true,
          "internalType": "bytes32",
          "name": "previousAdminRole",
          "type": "bytes32"
        },
        {
          "indexed": true,
          "internalType": "bytes32",
          "name": "newAdminRole",
          "type": "bytes32"
        }
      ],
      "name": "RoleAdminChanged",
      "type": "event"
    },
    {
      "anonymous": false,
      "inputs": [
        {
          "indexed": true,
          "internalType": "bytes32",
          "name": "role",
          "type": "bytes32"
        },
        {
          "indexed": true,
          "internalType": "address",
          "name": "account",
          "type": "address"
        },
        {
          "indexed": true,
          "internalType": "address",
          "name": "sender",
          "type": "address"
        }
      ],
      "name": "RoleGranted",
      "type": "event"
    },
    {
      "anonymous": false,
      "inputs": [
        {
          "indexed": true,
          "internalType": "bytes32",
          "name": "role",
          "type": "bytes32"
        },
        {
          "indexed": true,
          "internalType": "address",
          "name": "account",
          "type": "address"
        },
        {
          "indexed": true,
          "internalType": "address",
          "name": "sender",
          "type": "address"
        }
      ],
      "name": "RoleRevoked",
      "type": "event"
    },
    {
      "anonymous": false,
      "inputs": [
        {
          "indexed": true,
          "internalType": "address",
          "name": "from",
          "type": "address"
        },
        {
          "indexed": true,
          "internalType": "address",
          "name": "to",
          "type": "address"
        },
        {
          "indexed": true,
          "internalType": "uint256",
          "name": "tokenId",
          "type": "uint256"
        }
      ],
      "name": "Transfer",
      "type": "event"
    },
    {
      "anonymous": false,
      "inputs": [
        {
          "indexed": false,
          "internalType": "address",
          "name": "account",
          "type": "address"
        }
      ],
      "name": "Unpaused",
      "type": "event"
    },
    {
      "inputs": [],
      "name": "DEFAULT_ADMIN_ROLE",
      "outputs": [
        {
          "internalType": "bytes32",
          "name": "",
          "type": "bytes32"
        }
      ],
      "stateMutability": "view",
      "type": "function"
    },
    {
      "inputs": [],
      "name": "MINTER_ROLE",
      "outputs": [
        {
          "internalType": "bytes32",
          "name": "",
          "type": "bytes32"
        }
      ],
      "stateMutability": "view",
      "type": "function"
    },
    {
      "inputs": [],
      "name": "PAUSER_ROLE",
      "outputs": [
        {
          "internalType": "bytes32",
          "name": "",
          "type": "bytes32"
        }
      ],
      "stateMutability": "view",
      "type": "function"
    },
    {
      "inputs": [
        {
          "internalType": "uint256",
          "name": "",
          "type": "uint256"
        }
      ],
      "name": "URI",
      "outputs": [
        {
          "internalType": "string",
          "name": "",
          "type": "string"
        }
      ],
      "stateMutability": "view",
      "type": "function"
    },
    {
      "inputs": [
        {
          "internalType": "uint256",
          "name": "_tokenId",
          "type": "uint256"
        }
      ],
      "name": "acceptBid",
      "outputs": [],
      "stateMutability": "payable",
      "type": "function"
    },
    {
      "inputs": [
        {
          "internalType": "address",
          "name": "to",
          "type": "address"
        },
        {
          "internalType": "uint256",
          "name": "tokenId",
          "type": "uint256"
        }
      ],
      "name": "approve",
      "outputs": [],
      "stateMutability": "nonpayable",
      "type": "function"
    },
    {
      "inputs": [
        {
          "internalType": "address",
          "name": "owner",
          "type": "address"
        }
      ],
      "name": "balanceOf",
      "outputs": [
        {
          "internalType": "uint256",
          "name": "",
          "type": "uint256"
        }
      ],
      "stateMutability": "view",
      "type": "function"
    },
    {
      "inputs": [],
      "name": "bidExecutor",
      "outputs": [
        {
          "internalType": "address",
          "name": "",
          "type": "address"
        }
      ],
      "stateMutability": "view",
      "type": "function"
    },
    {
      "inputs": [
        {
          "internalType": "uint256",
          "name": "",
          "type": "uint256"
        }
      ],
      "name": "bids",
      "outputs": [
        {
          "internalType": "address",
          "name": "bidder",
          "type": "address"
        },
        {
          "internalType": "uint256",
          "name": "bidValue",
          "type": "uint256"
        }
      ],
      "stateMutability": "view",
      "type": "function"
    },
    {
      "inputs": [
        {
          "internalType": "uint256",
          "name": "tokenId",
          "type": "uint256"
        }
      ],
      "name": "burn",
      "outputs": [],
      "stateMutability": "nonpayable",
      "type": "function"
    },
    {
      "inputs": [
        {
          "internalType": "uint256",
          "name": "tokenId",
          "type": "uint256"
        }
      ],
      "name": "getApproved",
      "outputs": [
        {
          "internalType": "address",
          "name": "",
          "type": "address"
        }
      ],
      "stateMutability": "view",
      "type": "function"
    },
    {
      "inputs": [
        {
          "internalType": "uint256",
          "name": "_tokenId",
          "type": "uint256"
        }
      ],
      "name": "getCurrentBidValue",
      "outputs": [
        {
          "internalType": "uint256",
          "name": "",
          "type": "uint256"
        }
      ],
      "stateMutability": "view",
      "type": "function"
    },
    {
      "inputs": [
        {
          "internalType": "uint256",
          "name": "_tokenId",
          "type": "uint256"
        }
      ],
      "name": "getCurrentBidder",
      "outputs": [
        {
          "internalType": "address",
          "name": "",
          "type": "address"
        }
      ],
      "stateMutability": "view",
      "type": "function"
    },
    {
      "inputs": [
        {
          "internalType": "bytes32",
          "name": "role",
          "type": "bytes32"
        }
      ],
      "name": "getRoleAdmin",
      "outputs": [
        {
          "internalType": "bytes32",
          "name": "",
          "type": "bytes32"
        }
      ],
      "stateMutability": "view",
      "type": "function"
    },
    {
      "inputs": [
        {
          "internalType": "bytes32",
          "name": "role",
          "type": "bytes32"
        },
        {
          "internalType": "uint256",
          "name": "index",
          "type": "uint256"
        }
      ],
      "name": "getRoleMember",
      "outputs": [
        {
          "internalType": "address",
          "name": "",
          "type": "address"
        }
      ],
      "stateMutability": "view",
      "type": "function"
    },
    {
      "inputs": [
        {
          "internalType": "bytes32",
          "name": "role",
          "type": "bytes32"
        }
      ],
      "name": "getRoleMemberCount",
      "outputs": [
        {
          "internalType": "uint256",
          "name": "",
          "type": "uint256"
        }
      ],
      "stateMutability": "view",
      "type": "function"
    },
    {
      "inputs": [
        {
          "internalType": "uint256",
          "name": "_tokenId",
          "type": "uint256"
        }
      ],
      "name": "getThresholdStatus",
      "outputs": [
        {
          "internalType": "bool",
          "name": "",
          "type": "bool"
        }
      ],
      "stateMutability": "view",
      "type": "function"
    },
    {
      "inputs": [
        {
          "internalType": "uint256",
          "name": "_tokenId",
          "type": "uint256"
        }
      ],
      "name": "getThresholdValue",
      "outputs": [
        {
          "internalType": "uint256",
          "name": "",
          "type": "uint256"
        }
      ],
      "stateMutability": "view",
      "type": "function"
    },
    {
      "inputs": [
        {
          "internalType": "bytes32",
          "name": "role",
          "type": "bytes32"
        },
        {
          "internalType": "address",
          "name": "account",
          "type": "address"
        }
      ],
      "name": "grantRole",
      "outputs": [],
      "stateMutability": "nonpayable",
      "type": "function"
    },
    {
      "inputs": [
        {
          "internalType": "bytes32",
          "name": "role",
          "type": "bytes32"
        },
        {
          "internalType": "address",
          "name": "account",
          "type": "address"
        }
      ],
      "name": "hasRole",
      "outputs": [
        {
          "internalType": "bool",
          "name": "",
          "type": "bool"
        }
      ],
      "stateMutability": "view",
      "type": "function"
    },
    {
      "inputs": [
        {
          "internalType": "address",
          "name": "owner",
          "type": "address"
        },
        {
          "internalType": "address",
          "name": "operator",
          "type": "address"
        }
      ],
      "name": "isApprovedForAll",
      "outputs": [
        {
          "internalType": "bool",
          "name": "",
          "type": "bool"
        }
      ],
      "stateMutability": "view",
      "type": "function"
    },
    {
      "inputs": [
        {
          "internalType": "uint256",
          "name": "_tokenId",
          "type": "uint256"
        },
        {
          "internalType": "uint256",
          "name": "_bidValue",
          "type": "uint256"
        }
      ],
      "name": "makeBid",
      "outputs": [],
      "stateMutability": "payable",
      "type": "function"
    },
    {
      "inputs": [
        {
          "internalType": "address",
          "name": "_to",
          "type": "address"
        },
        {
          "internalType": "string",
          "name": "_URI",
          "type": "string"
        }
      ],
      "name": "mint",
      "outputs": [],
      "stateMutability": "nonpayable",
      "type": "function"
    },
    {
      "inputs": [],
      "name": "name",
      "outputs": [
        {
          "internalType": "string",
          "name": "",
          "type": "string"
        }
      ],
      "stateMutability": "view",
      "type": "function"
    },
    {
      "inputs": [
        {
          "internalType": "uint256",
          "name": "tokenId",
          "type": "uint256"
        }
      ],
      "name": "ownerOf",
      "outputs": [
        {
          "internalType": "address",
          "name": "",
          "type": "address"
        }
      ],
      "stateMutability": "view",
      "type": "function"
    },
    {
      "inputs": [],
      "name": "pause",
      "outputs": [],
      "stateMutability": "nonpayable",
      "type": "function"
    },
    {
      "inputs": [],
      "name": "paused",
      "outputs": [
        {
          "internalType": "bool",
          "name": "",
          "type": "bool"
        }
      ],
      "stateMutability": "view",
      "type": "function"
    },
    {
      "inputs": [
        {
          "internalType": "bytes32",
          "name": "role",
          "type": "bytes32"
        },
        {
          "internalType": "address",
          "name": "account",
          "type": "address"
        }
      ],
      "name": "renounceRole",
      "outputs": [],
      "stateMutability": "nonpayable",
      "type": "function"
    },
    {
      "inputs": [
        {
          "internalType": "bytes32",
          "name": "role",
          "type": "bytes32"
        },
        {
          "internalType": "address",
          "name": "account",
          "type": "address"
        }
      ],
      "name": "revokeRole",
      "outputs": [],
      "stateMutability": "nonpayable",
      "type": "function"
    },
    {
      "inputs": [
        {
          "internalType": "address",
          "name": "from",
          "type": "address"
        },
        {
          "internalType": "address",
          "name": "to",
          "type": "address"
        },
        {
          "internalType": "uint256",
          "name": "tokenId",
          "type": "uint256"
        }
      ],
      "name": "safeTransferFrom",
      "outputs": [],
      "stateMutability": "nonpayable",
      "type": "function"
    },
    {
      "inputs": [
        {
          "internalType": "address",
          "name": "from",
          "type": "address"
        },
        {
          "internalType": "address",
          "name": "to",
          "type": "address"
        },
        {
          "internalType": "uint256",
          "name": "tokenId",
          "type": "uint256"
        },
        {
          "internalType": "bytes",
          "name": "_data",
          "type": "bytes"
        }
      ],
      "name": "safeTransferFrom",
      "outputs": [],
      "stateMutability": "nonpayable",
      "type": "function"
    },
    {
      "inputs": [
        {
          "internalType": "address",
          "name": "operator",
          "type": "address"
        },
        {
          "internalType": "bool",
          "name": "approved",
          "type": "bool"
        }
      ],
      "name": "setApprovalForAll",
      "outputs": [],
      "stateMutability": "nonpayable",
      "type": "function"
    },
    {
      "inputs": [
        {
          "internalType": "uint256",
          "name": "_tokenId",
          "type": "uint256"
        },
        {
          "internalType": "uint256",
          "name": "_value",
          "type": "uint256"
        },
        {
          "internalType": "bool",
          "name": "_active",
          "type": "bool"
        }
      ],
      "name": "setThreshold",
      "outputs": [],
      "stateMutability": "nonpayable",
      "type": "function"
    },
    {
      "inputs": [
        {
          "internalType": "bytes4",
          "name": "interfaceId",
          "type": "bytes4"
        }
      ],
      "name": "supportsInterface",
      "outputs": [
        {
          "internalType": "bool",
          "name": "",
          "type": "bool"
        }
      ],
      "stateMutability": "view",
      "type": "function"
    },
    {
      "inputs": [],
      "name": "symbol",
      "outputs": [
        {
          "internalType": "string",
          "name": "",
          "type": "string"
        }
      ],
      "stateMutability": "view",
      "type": "function"
    },
    {
      "inputs": [
        {
          "internalType": "uint256",
          "name": "",
          "type": "uint256"
        }
      ],
      "name": "threshold",
      "outputs": [
        {
          "internalType": "uint256",
          "name": "value",
          "type": "uint256"
        },
        {
          "internalType": "bool",
          "name": "active",
          "type": "bool"
        }
      ],
      "stateMutability": "view",
      "type": "function"
    },
    {
      "inputs": [
        {
          "internalType": "uint256",
          "name": "index",
          "type": "uint256"
        }
      ],
      "name": "tokenByIndex",
      "outputs": [
        {
          "internalType": "uint256",
          "name": "",
          "type": "uint256"
        }
      ],
      "stateMutability": "view",
      "type": "function"
    },
    {
      "inputs": [
        {
          "internalType": "address",
          "name": "owner",
          "type": "address"
        },
        {
          "internalType": "uint256",
          "name": "index",
          "type": "uint256"
        }
      ],
      "name": "tokenOfOwnerByIndex",
      "outputs": [
        {
          "internalType": "uint256",
          "name": "",
          "type": "uint256"
        }
      ],
      "stateMutability": "view",
      "type": "function"
    },
    {
      "inputs": [
        {
          "internalType": "uint256",
          "name": "_tokenId",
          "type": "uint256"
        }
      ],
      "name": "tokenURI",
      "outputs": [
        {
          "internalType": "string",
          "name": "",
          "type": "string"
        }
      ],
      "stateMutability": "view",
      "type": "function"
    },
    {
      "inputs": [],
      "name": "totalSupply",
      "outputs": [
        {
          "internalType": "uint256",
          "name": "",
          "type": "uint256"
        }
      ],
      "stateMutability": "view",
      "type": "function"
    },
    {
      "inputs": [],
      "name": "totalTokensMinted",
      "outputs": [
        {
          "internalType": "uint256",
          "name": "",
          "type": "uint256"
        }
      ],
      "stateMutability": "view",
      "type": "function"
    },
    {
      "inputs": [
        {
          "internalType": "address",
          "name": "from",
          "type": "address"
        },
        {
          "internalType": "address",
          "name": "to",
          "type": "address"
        },
        {
          "internalType": "uint256",
          "name": "tokenId",
          "type": "uint256"
        }
      ],
      "name": "transferFrom",
      "outputs": [],
      "stateMutability": "nonpayable",
      "type": "function"
    },
    {
      "inputs": [],
      "name": "unpause",
      "outputs": [],
      "stateMutability": "nonpayable",
      "type": "function"
    }
  ],
  "bytecode": "0x60806040523480156200001157600080fd5b50604051620064b0380380620064b0833981810160405281019062000037919062000575565b82826040518060200160405280600081525082828160029080519060200190620000639291906200043c565b5080600390805190602001906200007c9291906200043c565b5050506000600c60006101000a81548160ff02191690831515021790555080600e9080519060200190620000b29291906200043c565b50620000d76000801b620000cb620001a660201b60201c565b620001ae60201b60201c565b620001187f9f2df0fed2c77648de5860a4cc508cd0818c85b8b8a1ab4ceeef8d981c8956a66200010c620001a660201b60201c565b620001ae60201b60201c565b620001597f65d7a28e3265b37a6474929f336521b332c1681b933f6cb9f3376673440d862a6200014d620001a660201b60201c565b620001ae60201b60201c565b50505080601060006101000a81548173ffffffffffffffffffffffffffffffffffffffff021916908373ffffffffffffffffffffffffffffffffffffffff160217905550505050620007bb565b600033905090565b620001c58282620001f660201b6200257e1760201c565b620001f181600160008581526020019081526020016000206200020c60201b6200258c1790919060201c565b505050565b6200020882826200024460201b60201c565b5050565b60006200023c836000018373ffffffffffffffffffffffffffffffffffffffff1660001b6200033560201b60201c565b905092915050565b620002568282620003af60201b60201c565b6200033157600160008084815260200190815260200160002060000160008373ffffffffffffffffffffffffffffffffffffffff1673ffffffffffffffffffffffffffffffffffffffff16815260200190815260200160002060006101000a81548160ff021916908315150217905550620002d6620001a660201b60201c565b73ffffffffffffffffffffffffffffffffffffffff168173ffffffffffffffffffffffffffffffffffffffff16837f2f8788117e7eff1d82e926ec794901d17c78024a50270940304540a733656f0d60405160405180910390a45b5050565b60006200034983836200041960201b60201c565b620003a4578260000182908060018154018082558091505060019003906000526020600020016000909190919091505582600001805490508360010160008481526020019081526020016000208190555060019050620003a9565b600090505b92915050565b600080600084815260200190815260200160002060000160008373ffffffffffffffffffffffffffffffffffffffff1673ffffffffffffffffffffffffffffffffffffffff16815260200190815260200160002060009054906101000a900460ff16905092915050565b600080836001016000848152602001908152602001600020541415905092915050565b8280546200044a90620006c6565b90600052602060002090601f0160209004810192826200046e5760008555620004ba565b82601f106200048957805160ff1916838001178555620004ba565b82800160010185558215620004ba579182015b82811115620004b95782518255916020019190600101906200049c565b5b509050620004c99190620004cd565b5090565b5b80821115620004e8576000816000905550600101620004ce565b5090565b600062000503620004fd8462000626565b620005fd565b9050828152602081018484840111156200051c57600080fd5b6200052984828562000690565b509392505050565b6000815190506200054281620007a1565b92915050565b600082601f8301126200055a57600080fd5b81516200056c848260208601620004ec565b91505092915050565b6000806000606084860312156200058b57600080fd5b600084015167ffffffffffffffff811115620005a657600080fd5b620005b48682870162000548565b935050602084015167ffffffffffffffff811115620005d257600080fd5b620005e08682870162000548565b9250506040620005f38682870162000531565b9150509250925092565b6000620006096200061c565b9050620006178282620006fc565b919050565b6000604051905090565b600067ffffffffffffffff82111562000644576200064362000761565b5b6200064f8262000790565b9050602081019050919050565b6000620006698262000670565b9050919050565b600073ffffffffffffffffffffffffffffffffffffffff82169050919050565b60005b83811015620006b057808201518184015260208101905062000693565b83811115620006c0576000848401525b50505050565b60006002820490506001821680620006df57607f821691505b60208210811415620006f657620006f562000732565b5b50919050565b620007078262000790565b810181811067ffffffffffffffff8211171562000729576200072862000761565b5b80604052505050565b7f4e487b7100000000000000000000000000000000000000000000000000000000600052602260045260246000fd5b7f4e487b7100000000000000000000000000000000000000000000000000000000600052604160045260246000fd5b6000601f19601f8301169050919050565b620007ac816200065c565b8114620007b857600080fd5b50565b615ce580620007cb6000396000f3fe60806040526004361061025c5760003560e01c80637d549e9911610144578063bb50aa3a116100b6578063d53913931161007a578063d539139314610960578063d547741f1461098b578063dbd56ef7146109b4578063e63ab1e9146109f1578063e985e9c514610a1c578063e9a4d93114610a595761025c565b8063bb50aa3a14610855578063bd6dbecc14610892578063c87b56dd146108bd578063ca15c873146108fa578063d0def521146109375761025c565b806391d148541161010857806391d148541461075457806395d89b4114610791578063a217fddf146107bc578063a22cb465146107e7578063adfcdc1114610810578063b88d4fde1461082c5761025c565b80637d549e991461066f578063844f4af61461069a5780638456cb59146106c35780639010d07c146106da578063901e1c01146107175761025c565b80632f745c59116101dd57806342966c68116101a157806342966c68146105265780634423c5f11461054f5780634f6ccce71461058d5780635c975abb146105ca5780636352211e146105f557806370a08231146106325761025c565b80632f745c591461044257806331eb7a1a1461047f57806336568abe146104bd5780633f4ba83a146104e657806342842e0e146104fd5761025c565b806323b872dd1161022457806323b872dd1461035a578063248a9ca3146103835780632b05ff1d146103c05780632b1fd58a146103fd5780632f2ff15d146104195761025c565b806301ffc9a71461026157806306fdde031461029e578063081812fc146102c9578063095ea7b31461030657806318160ddd1461032f575b600080fd5b34801561026d57600080fd5b506102886004803603810190610283919061436e565b610a96565b6040516102959190614a90565b60405180910390f35b3480156102aa57600080fd5b506102b3610aa8565b6040516102c09190614ac6565b60405180910390f35b3480156102d557600080fd5b506102f060048036038101906102eb91906143c0565b610b3a565b6040516102fd9190614a00565b60405180910390f35b34801561031257600080fd5b5061032d60048036038101906103289190614291565b610bbf565b005b34801561033b57600080fd5b50610344610cd7565b6040516103519190614f28565b60405180910390f35b34801561036657600080fd5b50610381600480360381019061037c9190614133565b610ce4565b005b34801561038f57600080fd5b506103aa60048036038101906103a591906142cd565b610d44565b6040516103b79190614aab565b60405180910390f35b3480156103cc57600080fd5b506103e760048036038101906103e291906143c0565b610d63565b6040516103f49190614f28565b60405180910390f35b610417600480360381019061041291906143c0565b610dcb565b005b34801561042557600080fd5b50610440600480360381019061043b91906142f6565b61116d565b005b34801561044e57600080fd5b5061046960048036038101906104649190614291565b6111a1565b6040516104769190614f28565b60405180910390f35b34801561048b57600080fd5b506104a660048036038101906104a191906143c0565b611246565b6040516104b4929190614f6c565b60405180910390f35b3480156104c957600080fd5b506104e460048036038101906104df91906142f6565b611277565b005b3480156104f257600080fd5b506104fb6112ab565b005b34801561050957600080fd5b50610524600480360381019061051f9190614133565b611325565b005b34801561053257600080fd5b5061054d600480360381019061054891906143c0565b611345565b005b34801561055b57600080fd5b50610576600480360381019061057191906143c0565b6113a1565b604051610584929190614a67565b60405180910390f35b34801561059957600080fd5b506105b460048036038101906105af91906143c0565b6113e5565b6040516105c19190614f28565b60405180910390f35b3480156105d657600080fd5b506105df61147c565b6040516105ec9190614a90565b60405180910390f35b34801561060157600080fd5b5061061c600480360381019061061791906143c0565b611493565b6040516106299190614a00565b60405180910390f35b34801561063e57600080fd5b50610659600480360381019061065491906140ce565b611545565b6040516106669190614f28565b60405180910390f35b34801561067b57600080fd5b506106846115fd565b6040516106919190614f28565b60405180910390f35b3480156106a657600080fd5b506106c160048036038101906106bc9190614425565b611603565b005b3480156106cf57600080fd5b506106d861170f565b005b3480156106e657600080fd5b5061070160048036038101906106fc9190614332565b611789565b60405161070e9190614a00565b60405180910390f35b34801561072357600080fd5b5061073e600480360381019061073991906143c0565b6117b8565b60405161074b9190614ac6565b60405180910390f35b34801561076057600080fd5b5061077b600480360381019061077691906142f6565b611858565b6040516107889190614a90565b60405180910390f35b34801561079d57600080fd5b506107a66118c2565b6040516107b39190614ac6565b60405180910390f35b3480156107c857600080fd5b506107d1611954565b6040516107de9190614aab565b60405180910390f35b3480156107f357600080fd5b5061080e600480360381019061080991906141fd565b61195b565b005b61082a600480360381019061082591906143e9565b611adc565b005b34801561083857600080fd5b50610853600480360381019061084e9190614182565b6120d5565b005b34801561086157600080fd5b5061087c600480360381019061087791906143c0565b612137565b6040516108899190614a00565b60405180910390f35b34801561089e57600080fd5b506108a76121bf565b6040516108b49190614a00565b60405180910390f35b3480156108c957600080fd5b506108e460048036038101906108df91906143c0565b6121e5565b6040516108f19190614ac6565b60405180910390f35b34801561090657600080fd5b50610921600480360381019061091c91906142cd565b6122d2565b60405161092e9190614f28565b60405180910390f35b34801561094357600080fd5b5061095e60048036038101906109599190614239565b6122f6565b005b34801561096c57600080fd5b50610975612391565b6040516109829190614aab565b60405180910390f35b34801561099757600080fd5b506109b260048036038101906109ad91906142f6565b6123b5565b005b3480156109c057600080fd5b506109db60048036038101906109d691906143c0565b6123e9565b6040516109e89190614f28565b60405180910390f35b3480156109fd57600080fd5b50610a06612451565b604051610a139190614aab565b60405180910390f35b348015610a2857600080fd5b50610a436004803603810190610a3e91906140f7565b612475565b604051610a509190614a90565b60405180910390f35b348015610a6557600080fd5b50610a806004803603810190610a7b91906143c0565b612509565b604051610a8d9190614a90565b60405180910390f35b6000610aa1826125bc565b9050919050565b606060028054610ab790615178565b80601f0160208091040260200160405190810160405280929190818152602001828054610ae390615178565b8015610b305780601f10610b0557610100808354040283529160200191610b30565b820191906000526020600020905b815481529060010190602001808311610b1357829003601f168201915b5050505050905090565b6000610b4582612636565b610b84576040517f08c379a0000000000000000000000000000000000000000000000000000000008152600401610b7b90614d88565b60405180910390fd5b6006600083815260200190815260200160002060009054906101000a900473ffffffffffffffffffffffffffffffffffffffff169050919050565b6000610bca82611493565b90508073ffffffffffffffffffffffffffffffffffffffff168373ffffffffffffffffffffffffffffffffffffffff161415610c3b576040517f08c379a0000000000000000000000000000000000000000000000000000000008152600401610c3290614de8565b60405180910390fd5b8073ffffffffffffffffffffffffffffffffffffffff16610c5a6126a2565b73ffffffffffffffffffffffffffffffffffffffff161480610c895750610c8881610c836126a2565b612475565b5b610cc8576040517f08c379a0000000000000000000000000000000000000000000000000000000008152600401610cbf90614ce8565b60405180910390fd5b610cd283836126aa565b505050565b6000600a80549050905090565b610cf5610cef6126a2565b82612763565b610d34576040517f08c379a0000000000000000000000000000000000000000000000000000000008152600401610d2b90614e28565b60405180910390fd5b610d3f838383612841565b505050565b6000806000838152602001908152602001600020600101549050919050565b6000610d6e82612636565b610dad576040517f08c379a0000000000000000000000000000000000000000000000000000000008152600401610da490614ae8565b60405180910390fd5b60116000838152602001908152602001600020600101549050919050565b6000601160008381526020019081526020016000206040518060400160405290816000820160009054906101000a900473ffffffffffffffffffffffffffffffffffffffff1673ffffffffffffffffffffffffffffffffffffffff1673ffffffffffffffffffffffffffffffffffffffff1681526020016001820154815250509050610e5682612636565b610e95576040517f08c379a0000000000000000000000000000000000000000000000000000000008152600401610e8c90614ae8565b60405180910390fd5b610e9e82611493565b73ffffffffffffffffffffffffffffffffffffffff163373ffffffffffffffffffffffffffffffffffffffff1614610f0b576040517f08c379a0000000000000000000000000000000000000000000000000000000008152600401610f0290614e08565b60405180910390fd5b600073ffffffffffffffffffffffffffffffffffffffff16816000015173ffffffffffffffffffffffffffffffffffffffff161415610f7f576040517f08c379a0000000000000000000000000000000000000000000000000000000008152600401610f7690614e68565b60405180910390fd5b60003373ffffffffffffffffffffffffffffffffffffffff168260200151604051610fa9906149eb565b60006040518083038185875af1925050503d8060008114610fe6576040519150601f19603f3d011682016040523d82523d6000602084013e610feb565b606091505b505090508061102f576040517f08c379a000000000000000000000000000000000000000000000000000000000815260040161102690614d48565b60405180910390fd5b61104e33836000015185604051806020016040528060008152506120d5565b816000015173ffffffffffffffffffffffffffffffffffffffff163373ffffffffffffffffffffffffffffffffffffffff16847fe6d56779a392535d3a591e92b65ba36f2ecc424bbf5220d0176a7da29385b50485602001516040516110b49190614f28565b60405180910390a46000826000019073ffffffffffffffffffffffffffffffffffffffff16908173ffffffffffffffffffffffffffffffffffffffff16815250506000826020018181525050816011600085815260200190815260200160002060008201518160000160006101000a81548173ffffffffffffffffffffffffffffffffffffffff021916908373ffffffffffffffffffffffffffffffffffffffff16021790555060208201518160010155905050505050565b6111778282612a9d565b61119c816001600085815260200190815260200160002061258c90919063ffffffff16565b505050565b60006111ac83611545565b82106111ed576040517f08c379a00000000000000000000000000000000000000000000000000000000081526004016111e490614bc8565b60405180910390fd5b600860008473ffffffffffffffffffffffffffffffffffffffff1673ffffffffffffffffffffffffffffffffffffffff168152602001908152602001600020600083815260200190815260200160002054905092915050565b60126020528060005260406000206000915090508060000154908060010160009054906101000a900460ff16905082565b6112818282612b03565b6112a68160016000858152602001908152602001600020612b8690919063ffffffff16565b505050565b6112dc7f65d7a28e3265b37a6474929f336521b332c1681b933f6cb9f3376673440d862a6112d76126a2565b611858565b61131b576040517f08c379a000000000000000000000000000000000000000000000000000000000815260040161131290614ee8565b60405180910390fd5b611323612bb6565b565b611340838383604051806020016040528060008152506120d5565b505050565b6113566113506126a2565b82612763565b611395576040517f08c379a000000000000000000000000000000000000000000000000000000000815260040161138c90614ec8565b60405180910390fd5b61139e81612c58565b50565b60116020528060005260406000206000915090508060000160009054906101000a900473ffffffffffffffffffffffffffffffffffffffff16908060010154905082565b60006113ef610cd7565b8210611430576040517f08c379a000000000000000000000000000000000000000000000000000000000815260040161142790614e48565b60405180910390fd5b600a828154811061146a577f4e487b7100000000000000000000000000000000000000000000000000000000600052603260045260246000fd5b90600052602060002001549050919050565b6000600c60009054906101000a900460ff16905090565b6000806004600084815260200190815260200160002060009054906101000a900473ffffffffffffffffffffffffffffffffffffffff169050600073ffffffffffffffffffffffffffffffffffffffff168173ffffffffffffffffffffffffffffffffffffffff16141561153c576040517f08c379a000000000000000000000000000000000000000000000000000000000815260040161153390614d28565b60405180910390fd5b80915050919050565b60008073ffffffffffffffffffffffffffffffffffffffff168273ffffffffffffffffffffffffffffffffffffffff1614156115b6576040517f08c379a00000000000000000000000000000000000000000000000000000000081526004016115ad90614d08565b60405180910390fd5b600560008373ffffffffffffffffffffffffffffffffffffffff1673ffffffffffffffffffffffffffffffffffffffff168152602001908152602001600020549050919050565b600f5481565b61160c83612636565b61164b576040517f08c379a000000000000000000000000000000000000000000000000000000000815260040161164290614ae8565b60405180910390fd5b61165483611493565b73ffffffffffffffffffffffffffffffffffffffff163373ffffffffffffffffffffffffffffffffffffffff16146116c1576040517f08c379a00000000000000000000000000000000000000000000000000000000081526004016116b890614e08565b60405180910390fd5b816012600085815260200190815260200160002060000181905550806012600085815260200190815260200160002060010160006101000a81548160ff021916908315150217905550505050565b6117407f65d7a28e3265b37a6474929f336521b332c1681b933f6cb9f3376673440d862a61173b6126a2565b611858565b61177f576040517f08c379a000000000000000000000000000000000000000000000000000000000815260040161177690614c28565b60405180910390fd5b611787612d69565b565b60006117b08260016000868152602001908152602001600020612e0c90919063ffffffff16565b905092915050565b601360205280600052604060002060009150905080546117d790615178565b80601f016020809104026020016040519081016040528092919081815260200182805461180390615178565b80156118505780601f1061182557610100808354040283529160200191611850565b820191906000526020600020905b81548152906001019060200180831161183357829003601f168201915b505050505081565b600080600084815260200190815260200160002060000160008373ffffffffffffffffffffffffffffffffffffffff1673ffffffffffffffffffffffffffffffffffffffff16815260200190815260200160002060009054906101000a900460ff16905092915050565b6060600380546118d190615178565b80601f01602080910402602001604051908101604052809291908181526020018280546118fd90615178565b801561194a5780601f1061191f5761010080835404028352916020019161194a565b820191906000526020600020905b81548152906001019060200180831161192d57829003601f168201915b5050505050905090565b6000801b81565b6119636126a2565b73ffffffffffffffffffffffffffffffffffffffff168273ffffffffffffffffffffffffffffffffffffffff1614156119d1576040517f08c379a00000000000000000000000000000000000000000000000000000000081526004016119c890614c68565b60405180910390fd5b80600760006119de6126a2565b73ffffffffffffffffffffffffffffffffffffffff1673ffffffffffffffffffffffffffffffffffffffff16815260200190815260200160002060008473ffffffffffffffffffffffffffffffffffffffff1673ffffffffffffffffffffffffffffffffffffffff16815260200190815260200160002060006101000a81548160ff0219169083151502179055508173ffffffffffffffffffffffffffffffffffffffff16611a8b6126a2565b73ffffffffffffffffffffffffffffffffffffffff167f17307eab39ab6107e8899845ad3d59bd9653f200f220920489ca2b5937696c3183604051611ad09190614a90565b60405180910390a35050565b6000601160008481526020019081526020016000206040518060400160405290816000820160009054906101000a900473ffffffffffffffffffffffffffffffffffffffff1673ffffffffffffffffffffffffffffffffffffffff1673ffffffffffffffffffffffffffffffffffffffff1681526020016001820154815250509050611b6783612636565b611ba6576040517f08c379a0000000000000000000000000000000000000000000000000000000008152600401611b9d90614ae8565b60405180910390fd5b348214611be8576040517f08c379a0000000000000000000000000000000000000000000000000000000008152600401611bdf90614e88565b60405180910390fd5b80602001518211611c2e576040517f08c379a0000000000000000000000000000000000000000000000000000000008152600401611c2590614b28565b60405180910390fd5b600073ffffffffffffffffffffffffffffffffffffffff16816000015173ffffffffffffffffffffffffffffffffffffffff1614611d1c576000816000015173ffffffffffffffffffffffffffffffffffffffff168260200151604051611c94906149eb565b60006040518083038185875af1925050503d8060008114611cd1576040519150601f19603f3d011682016040523d82523d6000602084013e611cd6565b606091505b5050905080611d1a576040517f08c379a0000000000000000000000000000000000000000000000000000000008152600401611d1190614ba8565b60405180910390fd5b505b6012600084815260200190815260200160002060010160009054906101000a900460ff168015611d62575060126000848152602001908152602001600020600001543410155b15611fce576000611d7284611493565b73ffffffffffffffffffffffffffffffffffffffff1634604051611d95906149eb565b60006040518083038185875af1925050503d8060008114611dd2576040519150601f19603f3d011682016040523d82523d6000602084013e611dd7565b606091505b5050905080611e1b576040517f08c379a0000000000000000000000000000000000000000000000000000000008152600401611e1290614d48565b60405180910390fd5b601060009054906101000a900473ffffffffffffffffffffffffffffffffffffffff1673ffffffffffffffffffffffffffffffffffffffff16635c02f41985336040518363ffffffff1660e01b8152600401611e78929190614f43565b600060405180830381600087803b158015611e9257600080fd5b505af1158015611ea6573d6000803e3d6000fd5b505050506000826000019073ffffffffffffffffffffffffffffffffffffffff16908173ffffffffffffffffffffffffffffffffffffffff16815250506000826020018181525050816011600086815260200190815260200160002060008201518160000160006101000a81548173ffffffffffffffffffffffffffffffffffffffff021916908373ffffffffffffffffffffffffffffffffffffffff160217905550602082015181600101559050503373ffffffffffffffffffffffffffffffffffffffff16611f7685611493565b73ffffffffffffffffffffffffffffffffffffffff16857fe6d56779a392535d3a591e92b65ba36f2ecc424bbf5220d0176a7da29385b5048560200151604051611fc09190614f28565b60405180910390a4506120d0565b33816000019073ffffffffffffffffffffffffffffffffffffffff16908173ffffffffffffffffffffffffffffffffffffffff168152505081816020018181525050806011600085815260200190815260200160002060008201518160000160006101000a81548173ffffffffffffffffffffffffffffffffffffffff021916908373ffffffffffffffffffffffffffffffffffffffff16021790555060208201518160010155905050806000015173ffffffffffffffffffffffffffffffffffffffff16837f558a0d5d5468d74b0db24c74eb348b42271c2ebb4c9e953ced38aaed95fa436183602001516040516120c79190614f28565b60405180910390a35b505050565b6120e66120e06126a2565b83612763565b612125576040517f08c379a000000000000000000000000000000000000000000000000000000000815260040161211c90614e28565b60405180910390fd5b61213184848484612e26565b50505050565b600061214282612636565b612181576040517f08c379a000000000000000000000000000000000000000000000000000000000815260040161217890614ae8565b60405180910390fd5b6011600083815260200190815260200160002060000160009054906101000a900473ffffffffffffffffffffffffffffffffffffffff169050919050565b601060009054906101000a900473ffffffffffffffffffffffffffffffffffffffff1681565b60606121f082612636565b61222f576040517f08c379a000000000000000000000000000000000000000000000000000000000815260040161222690614dc8565b60405180910390fd5b60136000838152602001908152602001600020805461224d90615178565b80601f016020809104026020016040519081016040528092919081815260200182805461227990615178565b80156122c65780601f1061229b576101008083540402835291602001916122c6565b820191906000526020600020905b8154815290600101906020018083116122a957829003601f168201915b50505050509050919050565b60006122ef60016000848152602001908152602001600020612e82565b9050919050565b61232233601060009054906101000a900473ffffffffffffffffffffffffffffffffffffffff16612475565b61235457612353601060009054906101000a900473ffffffffffffffffffffffffffffffffffffffff16600161195b565b5b600061235f84612e97565b905080600f81905550828260136000848152602001908152602001600020919061238a929190613efb565b5050505050565b7f9f2df0fed2c77648de5860a4cc508cd0818c85b8b8a1ab4ceeef8d981c8956a681565b6123bf8282612f37565b6123e48160016000858152602001908152602001600020612b8690919063ffffffff16565b505050565b60006123f482612636565b612433576040517f08c379a000000000000000000000000000000000000000000000000000000000815260040161242a90614ae8565b60405180910390fd5b60126000838152602001908152602001600020600001549050919050565b7f65d7a28e3265b37a6474929f336521b332c1681b933f6cb9f3376673440d862a81565b6000600760008473ffffffffffffffffffffffffffffffffffffffff1673ffffffffffffffffffffffffffffffffffffffff16815260200190815260200160002060008373ffffffffffffffffffffffffffffffffffffffff1673ffffffffffffffffffffffffffffffffffffffff16815260200190815260200160002060009054906101000a900460ff16905092915050565b600061251482612636565b612553576040517f08c379a000000000000000000000000000000000000000000000000000000000815260040161254a90614ae8565b60405180910390fd5b6012600083815260200190815260200160002060010160009054906101000a900460ff169050919050565b6125888282612f9d565b5050565b60006125b4836000018373ffffffffffffffffffffffffffffffffffffffff1660001b61307d565b905092915050565b60007f780e9d63000000000000000000000000000000000000000000000000000000007bffffffffffffffffffffffffffffffffffffffffffffffffffffffff1916827bffffffffffffffffffffffffffffffffffffffffffffffffffffffff1916148061262f575061262e826130ed565b5b9050919050565b60008073ffffffffffffffffffffffffffffffffffffffff166004600084815260200190815260200160002060009054906101000a900473ffffffffffffffffffffffffffffffffffffffff1673ffffffffffffffffffffffffffffffffffffffff1614159050919050565b600033905090565b816006600083815260200190815260200160002060006101000a81548173ffffffffffffffffffffffffffffffffffffffff021916908373ffffffffffffffffffffffffffffffffffffffff160217905550808273ffffffffffffffffffffffffffffffffffffffff1661271d83611493565b73ffffffffffffffffffffffffffffffffffffffff167f8c5be1e5ebec7d5bd14f71427d1e84f3dd0314c0f7b2291e5b200ac8c7c3b92560405160405180910390a45050565b600061276e82612636565b6127ad576040517f08c379a00000000000000000000000000000000000000000000000000000000081526004016127a490614c88565b60405180910390fd5b60006127b883611493565b90508073ffffffffffffffffffffffffffffffffffffffff168473ffffffffffffffffffffffffffffffffffffffff16148061282757508373ffffffffffffffffffffffffffffffffffffffff1661280f84610b3a565b73ffffffffffffffffffffffffffffffffffffffff16145b8061283857506128378185612475565b5b91505092915050565b8273ffffffffffffffffffffffffffffffffffffffff1661286182611493565b73ffffffffffffffffffffffffffffffffffffffff16146128b7576040517f08c379a00000000000000000000000000000000000000000000000000000000081526004016128ae90614da8565b60405180910390fd5b600073ffffffffffffffffffffffffffffffffffffffff168273ffffffffffffffffffffffffffffffffffffffff161415612927576040517f08c379a000000000000000000000000000000000000000000000000000000000815260040161291e90614c48565b60405180910390fd5b6129328383836131cf565b61293d6000826126aa565b6001600560008573ffffffffffffffffffffffffffffffffffffffff1673ffffffffffffffffffffffffffffffffffffffff168152602001908152602001600020600082825461298d9190615084565b925050819055506001600560008473ffffffffffffffffffffffffffffffffffffffff1673ffffffffffffffffffffffffffffffffffffffff16815260200190815260200160002060008282546129e4919061502e565b92505081905550816004600083815260200190815260200160002060006101000a81548173ffffffffffffffffffffffffffffffffffffffff021916908373ffffffffffffffffffffffffffffffffffffffff160217905550808273ffffffffffffffffffffffffffffffffffffffff168473ffffffffffffffffffffffffffffffffffffffff167fddf252ad1be2c89b69c2b068fc378daa952ba7f163c4a11628f55a4df523b3ef60405160405180910390a4505050565b612ab6612aa983610d44565b612ab16126a2565b611858565b612af5576040517f08c379a0000000000000000000000000000000000000000000000000000000008152600401612aec90614b68565b60405180910390fd5b612aff8282612f9d565b5050565b612b0b6126a2565b73ffffffffffffffffffffffffffffffffffffffff168173ffffffffffffffffffffffffffffffffffffffff1614612b78576040517f08c379a0000000000000000000000000000000000000000000000000000000008152600401612b6f90614f08565b60405180910390fd5b612b8282826131df565b5050565b6000612bae836000018373ffffffffffffffffffffffffffffffffffffffff1660001b6132c0565b905092915050565b612bbe61147c565b612bfd576040517f08c379a0000000000000000000000000000000000000000000000000000000008152600401612bf490614b88565b60405180910390fd5b6000600c60006101000a81548160ff0219169083151502179055507f5db9ee0a495bf2e6ff9c91a7834c1ba4fdd244a5e8aa4e537bd38aeae4b073aa612c416126a2565b604051612c4e9190614a00565b60405180910390a1565b6000612c6382611493565b9050612c71816000846131cf565b612c7c6000836126aa565b6001600560008373ffffffffffffffffffffffffffffffffffffffff1673ffffffffffffffffffffffffffffffffffffffff1681526020019081526020016000206000828254612ccc9190615084565b925050819055506004600083815260200190815260200160002060006101000a81549073ffffffffffffffffffffffffffffffffffffffff021916905581600073ffffffffffffffffffffffffffffffffffffffff168273ffffffffffffffffffffffffffffffffffffffff167fddf252ad1be2c89b69c2b068fc378daa952ba7f163c4a11628f55a4df523b3ef60405160405180910390a45050565b612d7161147c565b15612db1576040517f08c379a0000000000000000000000000000000000000000000000000000000008152600401612da890614cc8565b60405180910390fd5b6001600c60006101000a81548160ff0219169083151502179055507f62e78cea01bee320cd4e420270b5ea74000d11b0c9f74754ebdbfc544b05a258612df56126a2565b604051612e029190614a00565b60405180910390a1565b6000612e1b836000018361344a565b60001c905092915050565b612e31848484612841565b612e3d848484846134e4565b612e7c576040517f08c379a0000000000000000000000000000000000000000000000000000000008152600401612e7390614be8565b60405180910390fd5b50505050565b6000612e908260000161367b565b9050919050565b6000612eca7f9f2df0fed2c77648de5860a4cc508cd0818c85b8b8a1ab4ceeef8d981c8956a6612ec56126a2565b611858565b612f09576040517f08c379a0000000000000000000000000000000000000000000000000000000008152600401612f0090614ea8565b60405180910390fd5b612f13600d61368c565b612f2682612f21600d6136a2565b6136b0565b612f30600d6136a2565b9050919050565b612f50612f4383610d44565b612f4b6126a2565b611858565b612f8f576040517f08c379a0000000000000000000000000000000000000000000000000000000008152600401612f8690614ca8565b60405180910390fd5b612f9982826131df565b5050565b612fa78282611858565b61307957600160008084815260200190815260200160002060000160008373ffffffffffffffffffffffffffffffffffffffff1673ffffffffffffffffffffffffffffffffffffffff16815260200190815260200160002060006101000a81548160ff02191690831515021790555061301e6126a2565b73ffffffffffffffffffffffffffffffffffffffff168173ffffffffffffffffffffffffffffffffffffffff16837f2f8788117e7eff1d82e926ec794901d17c78024a50270940304540a733656f0d60405160405180910390a45b5050565b6000613089838361387e565b6130e25782600001829080600181540180825580915050600190039060005260206000200160009091909190915055826000018054905083600101600084815260200190815260200160002081905550600190506130e7565b600090505b92915050565b60007f80ac58cd000000000000000000000000000000000000000000000000000000007bffffffffffffffffffffffffffffffffffffffffffffffffffffffff1916827bffffffffffffffffffffffffffffffffffffffffffffffffffffffff191614806131b857507f5b5e139f000000000000000000000000000000000000000000000000000000007bffffffffffffffffffffffffffffffffffffffffffffffffffffffff1916827bffffffffffffffffffffffffffffffffffffffffffffffffffffffff1916145b806131c857506131c7826138a1565b5b9050919050565b6131da83838361391b565b505050565b6131e98282611858565b156132bc57600080600084815260200190815260200160002060000160008373ffffffffffffffffffffffffffffffffffffffff1673ffffffffffffffffffffffffffffffffffffffff16815260200190815260200160002060006101000a81548160ff0219169083151502179055506132616126a2565b73ffffffffffffffffffffffffffffffffffffffff168173ffffffffffffffffffffffffffffffffffffffff16837ff6391f5c32d9c69d2a47ea670b442974b53935d1edc7fd64eb21e047a839171b60405160405180910390a45b5050565b6000808360010160008481526020019081526020016000205490506000811461343e5760006001826132f29190615084565b905060006001866000018054905061330a9190615084565b9050600086600001828154811061334a577f4e487b7100000000000000000000000000000000000000000000000000000000600052603260045260246000fd5b9060005260206000200154905080876000018481548110613394577f4e487b7100000000000000000000000000000000000000000000000000000000600052603260045260246000fd5b90600052602060002001819055506001836133af919061502e565b8760010160008381526020019081526020016000208190555086600001805480613402577f4e487b7100000000000000000000000000000000000000000000000000000000600052603160045260246000fd5b60019003818190600052602060002001600090559055866001016000878152602001908152602001600020600090556001945050505050613444565b60009150505b92915050565b600081836000018054905011613495576040517f08c379a000000000000000000000000000000000000000000000000000000000815260040161348c90614b08565b60405180910390fd5b8260000182815481106134d1577f4e487b7100000000000000000000000000000000000000000000000000000000600052603260045260246000fd5b9060005260206000200154905092915050565b60006135058473ffffffffffffffffffffffffffffffffffffffff16613973565b1561366e578373ffffffffffffffffffffffffffffffffffffffff1663150b7a0261352e6126a2565b8786866040518563ffffffff1660e01b81526004016135509493929190614a1b565b602060405180830381600087803b15801561356a57600080fd5b505af192505050801561359b57506040513d601f19601f820116820180604052508101906135989190614397565b60015b61361e573d80600081146135cb576040519150601f19603f3d011682016040523d82523d6000602084013e6135d0565b606091505b50600081511415613616576040517f08c379a000000000000000000000000000000000000000000000000000000000815260040161360d90614be8565b60405180910390fd5b805181602001fd5b63150b7a0260e01b7bffffffffffffffffffffffffffffffffffffffffffffffffffffffff1916817bffffffffffffffffffffffffffffffffffffffffffffffffffffffff191614915050613673565b600190505b949350505050565b600081600001805490509050919050565b6001816000016000828254019250508190555050565b600081600001549050919050565b600073ffffffffffffffffffffffffffffffffffffffff168273ffffffffffffffffffffffffffffffffffffffff161415613720576040517f08c379a000000000000000000000000000000000000000000000000000000000815260040161371790614d68565b60405180910390fd5b61372981612636565b15613769576040517f08c379a000000000000000000000000000000000000000000000000000000000815260040161376090614c08565b60405180910390fd5b613775600083836131cf565b6001600560008473ffffffffffffffffffffffffffffffffffffffff1673ffffffffffffffffffffffffffffffffffffffff16815260200190815260200160002060008282546137c5919061502e565b92505081905550816004600083815260200190815260200160002060006101000a81548173ffffffffffffffffffffffffffffffffffffffff021916908373ffffffffffffffffffffffffffffffffffffffff160217905550808273ffffffffffffffffffffffffffffffffffffffff16600073ffffffffffffffffffffffffffffffffffffffff167fddf252ad1be2c89b69c2b068fc378daa952ba7f163c4a11628f55a4df523b3ef60405160405180910390a45050565b600080836001016000848152602001908152602001600020541415905092915050565b60007f5a05180f000000000000000000000000000000000000000000000000000000007bffffffffffffffffffffffffffffffffffffffffffffffffffffffff1916827bffffffffffffffffffffffffffffffffffffffffffffffffffffffff19161480613914575061391382613986565b5b9050919050565b613926838383613a00565b61392e61147c565b1561396e576040517f08c379a000000000000000000000000000000000000000000000000000000000815260040161396590614b48565b60405180910390fd5b505050565b600080823b905060008111915050919050565b60007f7965db0b000000000000000000000000000000000000000000000000000000007bffffffffffffffffffffffffffffffffffffffffffffffffffffffff1916827bffffffffffffffffffffffffffffffffffffffffffffffffffffffff191614806139f957506139f882613b14565b5b9050919050565b613a0b838383613b7e565b600073ffffffffffffffffffffffffffffffffffffffff168373ffffffffffffffffffffffffffffffffffffffff161415613a4e57613a4981613b83565b613a8d565b8173ffffffffffffffffffffffffffffffffffffffff168373ffffffffffffffffffffffffffffffffffffffff1614613a8c57613a8b8382613bcc565b5b5b600073ffffffffffffffffffffffffffffffffffffffff168273ffffffffffffffffffffffffffffffffffffffff161415613ad057613acb81613d39565b613b0f565b8273ffffffffffffffffffffffffffffffffffffffff168273ffffffffffffffffffffffffffffffffffffffff1614613b0e57613b0d8282613e7c565b5b5b505050565b60007f01ffc9a7000000000000000000000000000000000000000000000000000000007bffffffffffffffffffffffffffffffffffffffffffffffffffffffff1916827bffffffffffffffffffffffffffffffffffffffffffffffffffffffff1916149050919050565b505050565b600a80549050600b600083815260200190815260200160002081905550600a81908060018154018082558091505060019003906000526020600020016000909190919091505550565b60006001613bd984611545565b613be39190615084565b9050600060096000848152602001908152602001600020549050818114613cc8576000600860008673ffffffffffffffffffffffffffffffffffffffff1673ffffffffffffffffffffffffffffffffffffffff168152602001908152602001600020600084815260200190815260200160002054905080600860008773ffffffffffffffffffffffffffffffffffffffff1673ffffffffffffffffffffffffffffffffffffffff168152602001908152602001600020600084815260200190815260200160002081905550816009600083815260200190815260200160002081905550505b6009600084815260200190815260200160002060009055600860008573ffffffffffffffffffffffffffffffffffffffff1673ffffffffffffffffffffffffffffffffffffffff16815260200190815260200160002060008381526020019081526020016000206000905550505050565b60006001600a80549050613d4d9190615084565b90506000600b60008481526020019081526020016000205490506000600a8381548110613da3577f4e487b7100000000000000000000000000000000000000000000000000000000600052603260045260246000fd5b9060005260206000200154905080600a8381548110613deb577f4e487b7100000000000000000000000000000000000000000000000000000000600052603260045260246000fd5b906000526020600020018190555081600b600083815260200190815260200160002081905550600b600085815260200190815260200160002060009055600a805480613e60577f4e487b7100000000000000000000000000000000000000000000000000000000600052603160045260246000fd5b6001900381819060005260206000200160009055905550505050565b6000613e8783611545565b905081600860008573ffffffffffffffffffffffffffffffffffffffff1673ffffffffffffffffffffffffffffffffffffffff168152602001908152602001600020600083815260200190815260200160002081905550806009600084815260200190815260200160002081905550505050565b828054613f0790615178565b90600052602060002090601f016020900481019282613f295760008555613f70565b82601f10613f4257803560ff1916838001178555613f70565b82800160010185558215613f70579182015b82811115613f6f578235825591602001919060010190613f54565b5b509050613f7d9190613f81565b5090565b5b80821115613f9a576000816000905550600101613f82565b5090565b6000613fb1613fac84614fba565b614f95565b905082815260208101848484011115613fc957600080fd5b613fd4848285615136565b509392505050565b600081359050613feb81615c3c565b92915050565b60008135905061400081615c53565b92915050565b60008135905061401581615c6a565b92915050565b60008135905061402a81615c81565b92915050565b60008151905061403f81615c81565b92915050565b600082601f83011261405657600080fd5b8135614066848260208601613f9e565b91505092915050565b60008083601f84011261408157600080fd5b8235905067ffffffffffffffff81111561409a57600080fd5b6020830191508360018202830111156140b257600080fd5b9250929050565b6000813590506140c881615c98565b92915050565b6000602082840312156140e057600080fd5b60006140ee84828501613fdc565b91505092915050565b6000806040838503121561410a57600080fd5b600061411885828601613fdc565b925050602061412985828601613fdc565b9150509250929050565b60008060006060848603121561414857600080fd5b600061415686828701613fdc565b935050602061416786828701613fdc565b9250506040614178868287016140b9565b9150509250925092565b6000806000806080858703121561419857600080fd5b60006141a687828801613fdc565b94505060206141b787828801613fdc565b93505060406141c8878288016140b9565b925050606085013567ffffffffffffffff8111156141e557600080fd5b6141f187828801614045565b91505092959194509250565b6000806040838503121561421057600080fd5b600061421e85828601613fdc565b925050602061422f85828601613ff1565b9150509250929050565b60008060006040848603121561424e57600080fd5b600061425c86828701613fdc565b935050602084013567ffffffffffffffff81111561427957600080fd5b6142858682870161406f565b92509250509250925092565b600080604083850312156142a457600080fd5b60006142b285828601613fdc565b92505060206142c3858286016140b9565b9150509250929050565b6000602082840312156142df57600080fd5b60006142ed84828501614006565b91505092915050565b6000806040838503121561430957600080fd5b600061431785828601614006565b925050602061432885828601613fdc565b9150509250929050565b6000806040838503121561434557600080fd5b600061435385828601614006565b9250506020614364858286016140b9565b9150509250929050565b60006020828403121561438057600080fd5b600061438e8482850161401b565b91505092915050565b6000602082840312156143a957600080fd5b60006143b784828501614030565b91505092915050565b6000602082840312156143d257600080fd5b60006143e0848285016140b9565b91505092915050565b600080604083850312156143fc57600080fd5b600061440a858286016140b9565b925050602061441b858286016140b9565b9150509250929050565b60008060006060848603121561443a57600080fd5b6000614448868287016140b9565b9350506020614459868287016140b9565b925050604061446a86828701613ff1565b9150509250925092565b61447d816150b8565b82525050565b61448c816150ca565b82525050565b61449b816150d6565b82525050565b60006144ac82614feb565b6144b68185615001565b93506144c6818560208601615145565b6144cf81615268565b840191505092915050565b60006144e582614ff6565b6144ef818561501d565b93506144ff818560208601615145565b61450881615268565b840191505092915050565b600061452060228361501d565b915061452b82615279565b604082019050919050565b600061454360228361501d565b915061454e826152c8565b604082019050919050565b600061456660348361501d565b915061457182615317565b604082019050919050565b6000614589602b8361501d565b915061459482615366565b604082019050919050565b60006145ac602f8361501d565b91506145b7826153b5565b604082019050919050565b60006145cf60148361501d565b91506145da82615404565b602082019050919050565b60006145f260258361501d565b91506145fd8261542d565b604082019050919050565b6000614615602b8361501d565b91506146208261547c565b604082019050919050565b600061463860328361501d565b9150614643826154cb565b604082019050919050565b600061465b601c8361501d565b91506146668261551a565b602082019050919050565b600061467e603e8361501d565b915061468982615543565b604082019050919050565b60006146a160248361501d565b91506146ac82615592565b604082019050919050565b60006146c460198361501d565b91506146cf826155e1565b602082019050919050565b60006146e7602c8361501d565b91506146f28261560a565b604082019050919050565b600061470a60308361501d565b915061471582615659565b604082019050919050565b600061472d60108361501d565b9150614738826156a8565b602082019050919050565b600061475060388361501d565b915061475b826156d1565b604082019050919050565b6000614773602a8361501d565b915061477e82615720565b604082019050919050565b600061479660298361501d565b91506147a18261576f565b604082019050919050565b60006147b960248361501d565b91506147c4826157be565b604082019050919050565b60006147dc60208361501d565b91506147e78261580d565b602082019050919050565b60006147ff602c8361501d565b915061480a82615836565b604082019050919050565b600061482260298361501d565b915061482d82615885565b604082019050919050565b6000614845602f8361501d565b9150614850826158d4565b604082019050919050565b600061486860218361501d565b915061487382615923565b604082019050919050565b600061488b60288361501d565b915061489682615972565b604082019050919050565b60006148ae600083615012565b91506148b9826159c1565b600082019050919050565b60006148d160318361501d565b91506148dc826159c4565b604082019050919050565b60006148f4602c8361501d565b91506148ff82615a13565b604082019050919050565b600061491760398361501d565b915061492282615a62565b604082019050919050565b600061493a602c8361501d565b915061494582615ab1565b604082019050919050565b600061495d603d8361501d565b915061496882615b00565b604082019050919050565b600061498060308361501d565b915061498b82615b4f565b604082019050919050565b60006149a360408361501d565b91506149ae82615b9e565b604082019050919050565b60006149c6602f8361501d565b91506149d182615bed565b604082019050919050565b6149e58161512c565b82525050565b60006149f6826148a1565b9150819050919050565b6000602082019050614a156000830184614474565b92915050565b6000608082019050614a306000830187614474565b614a3d6020830186614474565b614a4a60408301856149dc565b8181036060830152614a5c81846144a1565b905095945050505050565b6000604082019050614a7c6000830185614474565b614a8960208301846149dc565b9392505050565b6000602082019050614aa56000830184614483565b92915050565b6000602082019050614ac06000830184614492565b92915050565b60006020820190508181036000830152614ae081846144da565b905092915050565b60006020820190508181036000830152614b0181614513565b9050919050565b60006020820190508181036000830152614b2181614536565b9050919050565b60006020820190508181036000830152614b4181614559565b9050919050565b60006020820190508181036000830152614b618161457c565b9050919050565b60006020820190508181036000830152614b818161459f565b9050919050565b60006020820190508181036000830152614ba1816145c2565b9050919050565b60006020820190508181036000830152614bc1816145e5565b9050919050565b60006020820190508181036000830152614be181614608565b9050919050565b60006020820190508181036000830152614c018161462b565b9050919050565b60006020820190508181036000830152614c218161464e565b9050919050565b60006020820190508181036000830152614c4181614671565b9050919050565b60006020820190508181036000830152614c6181614694565b9050919050565b60006020820190508181036000830152614c81816146b7565b9050919050565b60006020820190508181036000830152614ca1816146da565b9050919050565b60006020820190508181036000830152614cc1816146fd565b9050919050565b60006020820190508181036000830152614ce181614720565b9050919050565b60006020820190508181036000830152614d0181614743565b9050919050565b60006020820190508181036000830152614d2181614766565b9050919050565b60006020820190508181036000830152614d4181614789565b9050919050565b60006020820190508181036000830152614d61816147ac565b9050919050565b60006020820190508181036000830152614d81816147cf565b9050919050565b60006020820190508181036000830152614da1816147f2565b9050919050565b60006020820190508181036000830152614dc181614815565b9050919050565b60006020820190508181036000830152614de181614838565b9050919050565b60006020820190508181036000830152614e018161485b565b9050919050565b60006020820190508181036000830152614e218161487e565b9050919050565b60006020820190508181036000830152614e41816148c4565b9050919050565b60006020820190508181036000830152614e61816148e7565b9050919050565b60006020820190508181036000830152614e818161490a565b9050919050565b60006020820190508181036000830152614ea18161492d565b9050919050565b60006020820190508181036000830152614ec181614950565b9050919050565b60006020820190508181036000830152614ee181614973565b9050919050565b60006020820190508181036000830152614f0181614996565b9050919050565b60006020820190508181036000830152614f21816149b9565b9050919050565b6000602082019050614f3d60008301846149dc565b92915050565b6000604082019050614f5860008301856149dc565b614f656020830184614474565b9392505050565b6000604082019050614f8160008301856149dc565b614f8e6020830184614483565b9392505050565b6000614f9f614fb0565b9050614fab82826151aa565b919050565b6000604051905090565b600067ffffffffffffffff821115614fd557614fd4615239565b5b614fde82615268565b9050602081019050919050565b600081519050919050565b600081519050919050565b600082825260208201905092915050565b600081905092915050565b600082825260208201905092915050565b60006150398261512c565b91506150448361512c565b9250827fffffffffffffffffffffffffffffffffffffffffffffffffffffffffffffffff03821115615079576150786151db565b5b828201905092915050565b600061508f8261512c565b915061509a8361512c565b9250828210156150ad576150ac6151db565b5b828203905092915050565b60006150c38261510c565b9050919050565b60008115159050919050565b6000819050919050565b60007fffffffff0000000000000000000000000000000000000000000000000000000082169050919050565b600073ffffffffffffffffffffffffffffffffffffffff82169050919050565b6000819050919050565b82818337600083830152505050565b60005b83811015615163578082015181840152602081019050615148565b83811115615172576000848401525b50505050565b6000600282049050600182168061519057607f821691505b602082108114156151a4576151a361520a565b5b50919050565b6151b382615268565b810181811067ffffffffffffffff821117156151d2576151d1615239565b5b80604052505050565b7f4e487b7100000000000000000000000000000000000000000000000000000000600052601160045260246000fd5b7f4e487b7100000000000000000000000000000000000000000000000000000000600052602260045260246000fd5b7f4e487b7100000000000000000000000000000000000000000000000000000000600052604160045260246000fd5b6000601f19601f8301169050919050565b7f4552433732313a20746f6b656e20686173206e6f74206265656e206d696e746560008201527f642e000000000000000000000000000000000000000000000000000000000000602082015250565b7f456e756d657261626c655365743a20696e646578206f7574206f6620626f756e60008201527f6473000000000000000000000000000000000000000000000000000000000000602082015250565b7f546865206e6577206269642076616c7565206d7573742065786365656420746860008201527f652063757272656e74206269642076616c75652e000000000000000000000000602082015250565b7f4552433732315061757361626c653a20746f6b656e207472616e73666572207760008201527f68696c6520706175736564000000000000000000000000000000000000000000602082015250565b7f416363657373436f6e74726f6c3a2073656e646572206d75737420626520616e60008201527f2061646d696e20746f206772616e740000000000000000000000000000000000602082015250565b7f5061757361626c653a206e6f7420706175736564000000000000000000000000600082015250565b7f4574686572206e6f742073656e7420746f207468652070726576696f7573206260008201527f6964646572000000000000000000000000000000000000000000000000000000602082015250565b7f455243373231456e756d657261626c653a206f776e657220696e646578206f7560008201527f74206f6620626f756e6473000000000000000000000000000000000000000000602082015250565b7f4552433732313a207472616e7366657220746f206e6f6e20455243373231526560008201527f63656976657220696d706c656d656e7465720000000000000000000000000000602082015250565b7f4552433732313a20746f6b656e20616c7265616479206d696e74656400000000600082015250565b7f4552433732315072657365744d696e7465725061757365724175746f49643a2060008201527f6d75737420686176652070617573657220726f6c6520746f2070617573650000602082015250565b7f4552433732313a207472616e7366657220746f20746865207a65726f2061646460008201527f7265737300000000000000000000000000000000000000000000000000000000602082015250565b7f4552433732313a20617070726f766520746f2063616c6c657200000000000000600082015250565b7f4552433732313a206f70657261746f7220717565727920666f72206e6f6e657860008201527f697374656e7420746f6b656e0000000000000000000000000000000000000000602082015250565b7f416363657373436f6e74726f6c3a2073656e646572206d75737420626520616e60008201527f2061646d696e20746f207265766f6b6500000000000000000000000000000000602082015250565b7f5061757361626c653a2070617573656400000000000000000000000000000000600082015250565b7f4552433732313a20617070726f76652063616c6c6572206973206e6f74206f7760008201527f6e6572206e6f7220617070726f76656420666f7220616c6c0000000000000000602082015250565b7f4552433732313a2062616c616e636520717565727920666f7220746865207a6560008201527f726f206164647265737300000000000000000000000000000000000000000000602082015250565b7f4552433732313a206f776e657220717565727920666f72206e6f6e657869737460008201527f656e7420746f6b656e0000000000000000000000000000000000000000000000602082015250565b7f4574686572206e6f742073656e7420746f20746865206f776e6572206f66207460008201527f6f6b656e00000000000000000000000000000000000000000000000000000000602082015250565b7f4552433732313a206d696e7420746f20746865207a65726f2061646472657373600082015250565b7f4552433732313a20617070726f76656420717565727920666f72206e6f6e657860008201527f697374656e7420746f6b656e0000000000000000000000000000000000000000602082015250565b7f4552433732313a207472616e73666572206f6620746f6b656e2074686174206960008201527f73206e6f74206f776e0000000000000000000000000000000000000000000000602082015250565b7f4552433732314d657461646174613a2055524920717565727920666f72206e6f60008201527f6e6578697374656e7420746f6b656e0000000000000000000000000000000000602082015250565b7f4552433732313a20617070726f76616c20746f2063757272656e74206f776e6560008201527f7200000000000000000000000000000000000000000000000000000000000000602082015250565b7f4f6e6c792074686520746f6b656e206f776e65722063616e206163636570742060008201527f746865206269642e000000000000000000000000000000000000000000000000602082015250565b50565b7f4552433732313a207472616e736665722063616c6c6572206973206e6f74206f60008201527f776e6572206e6f7220617070726f766564000000000000000000000000000000602082015250565b7f455243373231456e756d657261626c653a20676c6f62616c20696e646578206f60008201527f7574206f6620626f756e64730000000000000000000000000000000000000000602082015250565b7f506c65617365207761697420666f7220736f6d656f6e6520746f206d616b652060008201527f74686520626964206265666f726520616363657074696e672e00000000000000602082015250565b7f4d757374206c6f636b207570207468652062696420616d6f756e7420696e207460008201527f686520636f6e74726163742e0000000000000000000000000000000000000000602082015250565b7f4552433732315072657365744d696e7465725061757365724175746f49643a2060008201527f6d7573742068617665206d696e74657220726f6c6520746f206d696e74000000602082015250565b7f4552433732314275726e61626c653a2063616c6c6572206973206e6f74206f7760008201527f6e6572206e6f7220617070726f76656400000000000000000000000000000000602082015250565b7f4552433732315072657365744d696e7465725061757365724175746f49643a2060008201527f6d75737420686176652070617573657220726f6c6520746f20756e7061757365602082015250565b7f416363657373436f6e74726f6c3a2063616e206f6e6c792072656e6f756e636560008201527f20726f6c657320666f722073656c660000000000000000000000000000000000602082015250565b615c45816150b8565b8114615c5057600080fd5b50565b615c5c816150ca565b8114615c6757600080fd5b50565b615c73816150d6565b8114615c7e57600080fd5b50565b615c8a816150e0565b8114615c9557600080fd5b50565b615ca18161512c565b8114615cac57600080fd5b5056fea264697066735822122002e66d574ef145806f469610858a7f9cd5c13731f90c17326f47713512a8077d64736f6c63430008030033",
  "linkReferences": {},
  "deployedLinkReferences": {}
}