{
  "_format": "hh-sol-artifact-1",
  "contractName": "NFT",
  "sourceName": "contracts/NFT.sol",
  "abi": [
    {
      "inputs": [
        {
          "internalType": "string",
          "name": "name_",
          "type": "string"
        },
        {
          "internalType": "string",
          "name": "symbol_",
          "type": "string"
        },
        {
          "internalType": "address",
          "name": "_bidExecutor",
          "type": "address"
        }
      ],
      "stateMutability": "nonpayable",
      "type": "constructor"
    },
    {
      "anonymous": false,
      "inputs": [
        {
          "indexed": true,
          "internalType": "address",
          "name": "owner",
          "type": "address"
        },
        {
          "indexed": true,
          "internalType": "address",
          "name": "approved",
          "type": "address"
        },
        {
          "indexed": true,
          "internalType": "uint256",
          "name": "tokenId",
          "type": "uint256"
        }
      ],
      "name": "Approval",
      "type": "event"
    },
    {
      "anonymous": false,
      "inputs": [
        {
          "indexed": true,
          "internalType": "address",
          "name": "owner",
          "type": "address"
        },
        {
          "indexed": true,
          "internalType": "address",
          "name": "operator",
          "type": "address"
        },
        {
          "indexed": false,
          "internalType": "bool",
          "name": "approved",
          "type": "bool"
        }
      ],
      "name": "ApprovalForAll",
      "type": "event"
    },
    {
      "anonymous": false,
      "inputs": [
        {
          "indexed": true,
          "internalType": "uint256",
          "name": "tokenID",
          "type": "uint256"
        },
        {
          "indexed": true,
          "internalType": "address",
          "name": "owner",
          "type": "address"
        },
        {
          "indexed": true,
          "internalType": "address",
          "name": "bidder",
          "type": "address"
        },
        {
          "indexed": false,
          "internalType": "uint256",
          "name": "bidValue",
          "type": "uint256"
        }
      ],
      "name": "BidAccepted",
      "type": "event"
    },
    {
      "anonymous": false,
      "inputs": [
        {
          "indexed": true,
          "internalType": "uint256",
          "name": "tokenID",
          "type": "uint256"
        },
        {
          "indexed": true,
          "internalType": "address",
          "name": "bidder",
          "type": "address"
        },
        {
          "indexed": false,
          "internalType": "uint256",
          "name": "bidValue",
          "type": "uint256"
        }
      ],
      "name": "NewBid",
      "type": "event"
    },
    {
      "anonymous": false,
      "inputs": [
        {
          "indexed": false,
          "internalType": "address",
          "name": "account",
          "type": "address"
        }
      ],
      "name": "Paused",
      "type": "event"
    },
    {
      "anonymous": false,
      "inputs": [
        {
          "indexed": true,
          "internalType": "bytes32",
          "name": "role",
          "type": "bytes32"
        },
        {
          "indexed": true,
          "internalType": "bytes32",
          "name": "previousAdminRole",
          "type": "bytes32"
        },
        {
          "indexed": true,
          "internalType": "bytes32",
          "name": "newAdminRole",
          "type": "bytes32"
        }
      ],
      "name": "RoleAdminChanged",
      "type": "event"
    },
    {
      "anonymous": false,
      "inputs": [
        {
          "indexed": true,
          "internalType": "bytes32",
          "name": "role",
          "type": "bytes32"
        },
        {
          "indexed": true,
          "internalType": "address",
          "name": "account",
          "type": "address"
        },
        {
          "indexed": true,
          "internalType": "address",
          "name": "sender",
          "type": "address"
        }
      ],
      "name": "RoleGranted",
      "type": "event"
    },
    {
      "anonymous": false,
      "inputs": [
        {
          "indexed": true,
          "internalType": "bytes32",
          "name": "role",
          "type": "bytes32"
        },
        {
          "indexed": true,
          "internalType": "address",
          "name": "account",
          "type": "address"
        },
        {
          "indexed": true,
          "internalType": "address",
          "name": "sender",
          "type": "address"
        }
      ],
      "name": "RoleRevoked",
      "type": "event"
    },
    {
      "anonymous": false,
      "inputs": [
        {
          "indexed": true,
          "internalType": "address",
          "name": "from",
          "type": "address"
        },
        {
          "indexed": true,
          "internalType": "address",
          "name": "to",
          "type": "address"
        },
        {
          "indexed": true,
          "internalType": "uint256",
          "name": "tokenId",
          "type": "uint256"
        }
      ],
      "name": "Transfer",
      "type": "event"
    },
    {
      "anonymous": false,
      "inputs": [
        {
          "indexed": false,
          "internalType": "address",
          "name": "account",
          "type": "address"
        }
      ],
      "name": "Unpaused",
      "type": "event"
    },
    {
      "inputs": [],
      "name": "DEFAULT_ADMIN_ROLE",
      "outputs": [
        {
          "internalType": "bytes32",
          "name": "",
          "type": "bytes32"
        }
      ],
      "stateMutability": "view",
      "type": "function"
    },
    {
      "inputs": [],
      "name": "MINTER_ROLE",
      "outputs": [
        {
          "internalType": "bytes32",
          "name": "",
          "type": "bytes32"
        }
      ],
      "stateMutability": "view",
      "type": "function"
    },
    {
      "inputs": [],
      "name": "PAUSER_ROLE",
      "outputs": [
        {
          "internalType": "bytes32",
          "name": "",
          "type": "bytes32"
        }
      ],
      "stateMutability": "view",
      "type": "function"
    },
    {
      "inputs": [
        {
          "internalType": "uint256",
          "name": "",
          "type": "uint256"
        }
      ],
      "name": "URI",
      "outputs": [
        {
          "internalType": "string",
          "name": "",
          "type": "string"
        }
      ],
      "stateMutability": "view",
      "type": "function"
    },
    {
      "inputs": [
        {
          "internalType": "uint256",
          "name": "_tokenId",
          "type": "uint256"
        }
      ],
      "name": "acceptBid",
      "outputs": [],
      "stateMutability": "payable",
      "type": "function"
    },
    {
      "inputs": [
        {
          "internalType": "address",
          "name": "to",
          "type": "address"
        },
        {
          "internalType": "uint256",
          "name": "tokenId",
          "type": "uint256"
        }
      ],
      "name": "approve",
      "outputs": [],
      "stateMutability": "nonpayable",
      "type": "function"
    },
    {
      "inputs": [
        {
          "internalType": "address",
          "name": "owner",
          "type": "address"
        }
      ],
      "name": "balanceOf",
      "outputs": [
        {
          "internalType": "uint256",
          "name": "",
          "type": "uint256"
        }
      ],
      "stateMutability": "view",
      "type": "function"
    },
    {
      "inputs": [],
      "name": "bidExecutor",
      "outputs": [
        {
          "internalType": "address",
          "name": "",
          "type": "address"
        }
      ],
      "stateMutability": "view",
      "type": "function"
    },
    {
      "inputs": [
        {
          "internalType": "uint256",
          "name": "",
          "type": "uint256"
        }
      ],
      "name": "bids",
      "outputs": [
        {
          "internalType": "address",
          "name": "bidder",
          "type": "address"
        },
        {
          "internalType": "uint256",
          "name": "bidValue",
          "type": "uint256"
        }
      ],
      "stateMutability": "view",
      "type": "function"
    },
    {
      "inputs": [
        {
          "internalType": "uint256",
          "name": "tokenId",
          "type": "uint256"
        }
      ],
      "name": "burn",
      "outputs": [],
      "stateMutability": "nonpayable",
      "type": "function"
    },
    {
      "inputs": [
        {
          "internalType": "uint256",
          "name": "tokenId",
          "type": "uint256"
        }
      ],
      "name": "getApproved",
      "outputs": [
        {
          "internalType": "address",
          "name": "",
          "type": "address"
        }
      ],
      "stateMutability": "view",
      "type": "function"
    },
    {
      "inputs": [
        {
          "internalType": "uint256",
          "name": "_tokenId",
          "type": "uint256"
        }
      ],
      "name": "getCurrentBidValue",
      "outputs": [
        {
          "internalType": "uint256",
          "name": "",
          "type": "uint256"
        }
      ],
      "stateMutability": "view",
      "type": "function"
    },
    {
      "inputs": [
        {
          "internalType": "uint256",
          "name": "_tokenId",
          "type": "uint256"
        }
      ],
      "name": "getCurrentBidder",
      "outputs": [
        {
          "internalType": "address",
          "name": "",
          "type": "address"
        }
      ],
      "stateMutability": "view",
      "type": "function"
    },
    {
      "inputs": [
        {
          "internalType": "bytes32",
          "name": "role",
          "type": "bytes32"
        }
      ],
      "name": "getRoleAdmin",
      "outputs": [
        {
          "internalType": "bytes32",
          "name": "",
          "type": "bytes32"
        }
      ],
      "stateMutability": "view",
      "type": "function"
    },
    {
      "inputs": [
        {
          "internalType": "bytes32",
          "name": "role",
          "type": "bytes32"
        },
        {
          "internalType": "uint256",
          "name": "index",
          "type": "uint256"
        }
      ],
      "name": "getRoleMember",
      "outputs": [
        {
          "internalType": "address",
          "name": "",
          "type": "address"
        }
      ],
      "stateMutability": "view",
      "type": "function"
    },
    {
      "inputs": [
        {
          "internalType": "bytes32",
          "name": "role",
          "type": "bytes32"
        }
      ],
      "name": "getRoleMemberCount",
      "outputs": [
        {
          "internalType": "uint256",
          "name": "",
          "type": "uint256"
        }
      ],
      "stateMutability": "view",
      "type": "function"
    },
    {
      "inputs": [
        {
          "internalType": "uint256",
          "name": "_tokenId",
          "type": "uint256"
        }
      ],
      "name": "getThresholdStatus",
      "outputs": [
        {
          "internalType": "bool",
          "name": "",
          "type": "bool"
        }
      ],
      "stateMutability": "view",
      "type": "function"
    },
    {
      "inputs": [
        {
          "internalType": "uint256",
          "name": "_tokenId",
          "type": "uint256"
        }
      ],
      "name": "getThresholdValue",
      "outputs": [
        {
          "internalType": "uint256",
          "name": "",
          "type": "uint256"
        }
      ],
      "stateMutability": "view",
      "type": "function"
    },
    {
      "inputs": [
        {
          "internalType": "address",
          "name": "_addr",
          "type": "address"
        }
      ],
      "name": "grantMinterRole",
      "outputs": [],
      "stateMutability": "nonpayable",
      "type": "function"
    },
    {
      "inputs": [
        {
          "internalType": "bytes32",
          "name": "role",
          "type": "bytes32"
        },
        {
          "internalType": "address",
          "name": "account",
          "type": "address"
        }
      ],
      "name": "grantRole",
      "outputs": [],
      "stateMutability": "nonpayable",
      "type": "function"
    },
    {
      "inputs": [
        {
          "internalType": "bytes32",
          "name": "role",
          "type": "bytes32"
        },
        {
          "internalType": "address",
          "name": "account",
          "type": "address"
        }
      ],
      "name": "hasRole",
      "outputs": [
        {
          "internalType": "bool",
          "name": "",
          "type": "bool"
        }
      ],
      "stateMutability": "view",
      "type": "function"
    },
    {
      "inputs": [
        {
          "internalType": "address",
          "name": "owner",
          "type": "address"
        },
        {
          "internalType": "address",
          "name": "operator",
          "type": "address"
        }
      ],
      "name": "isApprovedForAll",
      "outputs": [
        {
          "internalType": "bool",
          "name": "",
          "type": "bool"
        }
      ],
      "stateMutability": "view",
      "type": "function"
    },
    {
      "inputs": [
        {
          "internalType": "uint256",
          "name": "_tokenId",
          "type": "uint256"
        },
        {
          "internalType": "uint256",
          "name": "_bidValue",
          "type": "uint256"
        }
      ],
      "name": "makeBid",
      "outputs": [],
      "stateMutability": "payable",
      "type": "function"
    },
    {
      "inputs": [
        {
          "internalType": "address",
          "name": "_to",
          "type": "address"
        },
        {
          "internalType": "string",
          "name": "_URI",
          "type": "string"
        }
      ],
      "name": "mint",
      "outputs": [],
      "stateMutability": "nonpayable",
      "type": "function"
    },
    {
      "inputs": [],
      "name": "name",
      "outputs": [
        {
          "internalType": "string",
          "name": "",
          "type": "string"
        }
      ],
      "stateMutability": "view",
      "type": "function"
    },
    {
      "inputs": [
        {
          "internalType": "uint256",
          "name": "tokenId",
          "type": "uint256"
        }
      ],
      "name": "ownerOf",
      "outputs": [
        {
          "internalType": "address",
          "name": "",
          "type": "address"
        }
      ],
      "stateMutability": "view",
      "type": "function"
    },
    {
      "inputs": [],
      "name": "pause",
      "outputs": [],
      "stateMutability": "nonpayable",
      "type": "function"
    },
    {
      "inputs": [],
      "name": "paused",
      "outputs": [
        {
          "internalType": "bool",
          "name": "",
          "type": "bool"
        }
      ],
      "stateMutability": "view",
      "type": "function"
    },
    {
      "inputs": [
        {
          "internalType": "bytes32",
          "name": "role",
          "type": "bytes32"
        },
        {
          "internalType": "address",
          "name": "account",
          "type": "address"
        }
      ],
      "name": "renounceRole",
      "outputs": [],
      "stateMutability": "nonpayable",
      "type": "function"
    },
    {
      "inputs": [
        {
          "internalType": "bytes32",
          "name": "role",
          "type": "bytes32"
        },
        {
          "internalType": "address",
          "name": "account",
          "type": "address"
        }
      ],
      "name": "revokeRole",
      "outputs": [],
      "stateMutability": "nonpayable",
      "type": "function"
    },
    {
      "inputs": [
        {
          "internalType": "address",
          "name": "from",
          "type": "address"
        },
        {
          "internalType": "address",
          "name": "to",
          "type": "address"
        },
        {
          "internalType": "uint256",
          "name": "tokenId",
          "type": "uint256"
        }
      ],
      "name": "safeTransferFrom",
      "outputs": [],
      "stateMutability": "nonpayable",
      "type": "function"
    },
    {
      "inputs": [
        {
          "internalType": "address",
          "name": "from",
          "type": "address"
        },
        {
          "internalType": "address",
          "name": "to",
          "type": "address"
        },
        {
          "internalType": "uint256",
          "name": "tokenId",
          "type": "uint256"
        },
        {
          "internalType": "bytes",
          "name": "_data",
          "type": "bytes"
        }
      ],
      "name": "safeTransferFrom",
      "outputs": [],
      "stateMutability": "nonpayable",
      "type": "function"
    },
    {
      "inputs": [
        {
          "internalType": "address",
          "name": "operator",
          "type": "address"
        },
        {
          "internalType": "bool",
          "name": "approved",
          "type": "bool"
        }
      ],
      "name": "setApprovalForAll",
      "outputs": [],
      "stateMutability": "nonpayable",
      "type": "function"
    },
    {
      "inputs": [
        {
          "internalType": "uint256",
          "name": "_tokenId",
          "type": "uint256"
        },
        {
          "internalType": "uint256",
          "name": "_value",
          "type": "uint256"
        },
        {
          "internalType": "bool",
          "name": "_active",
          "type": "bool"
        }
      ],
      "name": "setThreshold",
      "outputs": [],
      "stateMutability": "nonpayable",
      "type": "function"
    },
    {
      "inputs": [
        {
          "internalType": "bytes4",
          "name": "interfaceId",
          "type": "bytes4"
        }
      ],
      "name": "supportsInterface",
      "outputs": [
        {
          "internalType": "bool",
          "name": "",
          "type": "bool"
        }
      ],
      "stateMutability": "view",
      "type": "function"
    },
    {
      "inputs": [],
      "name": "symbol",
      "outputs": [
        {
          "internalType": "string",
          "name": "",
          "type": "string"
        }
      ],
      "stateMutability": "view",
      "type": "function"
    },
    {
      "inputs": [
        {
          "internalType": "uint256",
          "name": "",
          "type": "uint256"
        }
      ],
      "name": "threshold",
      "outputs": [
        {
          "internalType": "uint256",
          "name": "value",
          "type": "uint256"
        },
        {
          "internalType": "bool",
          "name": "active",
          "type": "bool"
        }
      ],
      "stateMutability": "view",
      "type": "function"
    },
    {
      "inputs": [
        {
          "internalType": "uint256",
          "name": "index",
          "type": "uint256"
        }
      ],
      "name": "tokenByIndex",
      "outputs": [
        {
          "internalType": "uint256",
          "name": "",
          "type": "uint256"
        }
      ],
      "stateMutability": "view",
      "type": "function"
    },
    {
      "inputs": [
        {
          "internalType": "address",
          "name": "owner",
          "type": "address"
        },
        {
          "internalType": "uint256",
          "name": "index",
          "type": "uint256"
        }
      ],
      "name": "tokenOfOwnerByIndex",
      "outputs": [
        {
          "internalType": "uint256",
          "name": "",
          "type": "uint256"
        }
      ],
      "stateMutability": "view",
      "type": "function"
    },
    {
      "inputs": [
        {
          "internalType": "uint256",
          "name": "_tokenId",
          "type": "uint256"
        }
      ],
      "name": "tokenURI",
      "outputs": [
        {
          "internalType": "string",
          "name": "",
          "type": "string"
        }
      ],
      "stateMutability": "view",
      "type": "function"
    },
    {
      "inputs": [],
      "name": "totalSupply",
      "outputs": [
        {
          "internalType": "uint256",
          "name": "",
          "type": "uint256"
        }
      ],
      "stateMutability": "view",
      "type": "function"
    },
    {
      "inputs": [],
      "name": "totalTokensMinted",
      "outputs": [
        {
          "internalType": "uint256",
          "name": "",
          "type": "uint256"
        }
      ],
      "stateMutability": "view",
      "type": "function"
    },
    {
      "inputs": [
        {
          "internalType": "address",
          "name": "from",
          "type": "address"
        },
        {
          "internalType": "address",
          "name": "to",
          "type": "address"
        },
        {
          "internalType": "uint256",
          "name": "tokenId",
          "type": "uint256"
        }
      ],
      "name": "transferFrom",
      "outputs": [],
      "stateMutability": "nonpayable",
      "type": "function"
    },
    {
      "inputs": [],
      "name": "unpause",
      "outputs": [],
      "stateMutability": "nonpayable",
      "type": "function"
    }
  ],
  "bytecode": "0x60806040523480156200001157600080fd5b506040516200630838038062006308833981810160405281019062000037919062000575565b82826040518060200160405280600081525082828160029080519060200190620000639291906200043c565b5080600390805190602001906200007c9291906200043c565b5050506000600c60006101000a81548160ff02191690831515021790555080600e9080519060200190620000b29291906200043c565b50620000d76000801b620000cb620001a660201b60201c565b620001ae60201b60201c565b620001187f9f2df0fed2c77648de5860a4cc508cd0818c85b8b8a1ab4ceeef8d981c8956a66200010c620001a660201b60201c565b620001ae60201b60201c565b620001597f65d7a28e3265b37a6474929f336521b332c1681b933f6cb9f3376673440d862a6200014d620001a660201b60201c565b620001ae60201b60201c565b50505080601060006101000a81548173ffffffffffffffffffffffffffffffffffffffff021916908373ffffffffffffffffffffffffffffffffffffffff1602179055505050506200077c565b600033905090565b620001c58282620001f660201b620025df1760201c565b620001f181600160008581526020019081526020016000206200020c60201b620025ed1790919060201c565b505050565b6200020882826200024460201b60201c565b5050565b60006200023c836000018373ffffffffffffffffffffffffffffffffffffffff1660001b6200033560201b60201c565b905092915050565b620002568282620003af60201b60201c565b6200033157600160008084815260200190815260200160002060000160008373ffffffffffffffffffffffffffffffffffffffff1673ffffffffffffffffffffffffffffffffffffffff16815260200190815260200160002060006101000a81548160ff021916908315150217905550620002d6620001a660201b60201c565b73ffffffffffffffffffffffffffffffffffffffff168173ffffffffffffffffffffffffffffffffffffffff16837f2f8788117e7eff1d82e926ec794901d17c78024a50270940304540a733656f0d60405160405180910390a45b5050565b60006200034983836200041960201b60201c565b620003a4578260000182908060018154018082558091505060019003906000526020600020016000909190919091505582600001805490508360010160008481526020019081526020016000208190555060019050620003a9565b600090505b92915050565b600080600084815260200190815260200160002060000160008373ffffffffffffffffffffffffffffffffffffffff1673ffffffffffffffffffffffffffffffffffffffff16815260200190815260200160002060009054906101000a900460ff16905092915050565b600080836001016000848152602001908152602001600020541415905092915050565b8280546200044a90620006ce565b90600052602060002090601f0160209004810192826200046e5760008555620004ba565b82601f106200048957805160ff1916838001178555620004ba565b82800160010185558215620004ba579182015b82811115620004b95782518255916020019190600101906200049c565b5b509050620004c99190620004cd565b5090565b5b80821115620004e8576000816000905550600101620004ce565b5090565b600062000503620004fd8462000631565b620005fd565b9050828152602081018484840111156200051c57600080fd5b6200052984828562000698565b509392505050565b600081519050620005428162000762565b92915050565b600082601f8301126200055a57600080fd5b81516200056c848260208601620004ec565b91505092915050565b6000806000606084860312156200058b57600080fd5b600084015167ffffffffffffffff811115620005a657600080fd5b620005b48682870162000548565b935050602084015167ffffffffffffffff811115620005d257600080fd5b620005e08682870162000548565b9250506040620005f38682870162000531565b9150509250925092565b6000604051905081810181811067ffffffffffffffff8211171562000627576200062662000733565b5b8060405250919050565b600067ffffffffffffffff8211156200064f576200064e62000733565b5b601f19601f8301169050602081019050919050565b6000620006718262000678565b9050919050565b600073ffffffffffffffffffffffffffffffffffffffff82169050919050565b60005b83811015620006b85780820151818401526020810190506200069b565b83811115620006c8576000848401525b50505050565b60006002820490506001821680620006e757607f821691505b60208210811415620006fe57620006fd62000704565b5b50919050565b7f4e487b7100000000000000000000000000000000000000000000000000000000600052602260045260246000fd5b7f4e487b7100000000000000000000000000000000000000000000000000000000600052604160045260246000fd5b6200076d8162000664565b81146200077957600080fd5b50565b615b7c806200078c6000396000f3fe6080604052600436106102675760003560e01c80637d549e9911610144578063bb50aa3a116100b6578063d53913931161007a578063d539139314610994578063d547741f146109bf578063dbd56ef7146109e8578063e63ab1e914610a25578063e985e9c514610a50578063e9a4d93114610a8d57610267565b8063bb50aa3a14610889578063bd6dbecc146108c6578063c87b56dd146108f1578063ca15c8731461092e578063d0def5211461096b57610267565b806391d148541161010857806391d148541461078857806395d89b41146107c5578063a217fddf146107f0578063a22cb4651461081b578063adfcdc1114610844578063b88d4fde1461086057610267565b80637d549e99146106a3578063844f4af6146106ce5780638456cb59146106f75780639010d07c1461070e578063901e1c011461074b57610267565b806331eb7a1a116101dd57806342966c68116101a157806342966c681461055a5780634423c5f1146105835780634f6ccce7146105c15780635c975abb146105fe5780636352211e1461062957806370a082311461066657610267565b806331eb7a1a1461048a57806336568abe146104c85780633dd1eb61146104f15780633f4ba83a1461051a57806342842e0e1461053157610267565b806323b872dd1161022f57806323b872dd14610365578063248a9ca31461038e5780632b05ff1d146103cb5780632b1fd58a146104085780632f2ff15d146104245780632f745c591461044d57610267565b806301ffc9a71461026c57806306fdde03146102a9578063081812fc146102d4578063095ea7b31461031157806318160ddd1461033a575b600080fd5b34801561027857600080fd5b50610293600480360381019061028e91906143cf565b610aca565b6040516102a09190615310565b60405180910390f35b3480156102b557600080fd5b506102be610adc565b6040516102cb9190615346565b60405180910390f35b3480156102e057600080fd5b506102fb60048036038101906102f69190614421565b610b6e565b6040516103089190615280565b60405180910390f35b34801561031d57600080fd5b50610338600480360381019061033391906142f2565b610bf3565b005b34801561034657600080fd5b5061034f610d0b565b60405161035c91906157a8565b60405180910390f35b34801561037157600080fd5b5061038c60048036038101906103879190614194565b610d18565b005b34801561039a57600080fd5b506103b560048036038101906103b0919061432e565b610d78565b6040516103c2919061532b565b60405180910390f35b3480156103d757600080fd5b506103f260048036038101906103ed9190614421565b610d97565b6040516103ff91906157a8565b60405180910390f35b610422600480360381019061041d9190614421565b610dff565b005b34801561043057600080fd5b5061044b60048036038101906104469190614357565b6111a1565b005b34801561045957600080fd5b50610474600480360381019061046f91906142f2565b6111d5565b60405161048191906157a8565b60405180910390f35b34801561049657600080fd5b506104b160048036038101906104ac9190614421565b61127a565b6040516104bf9291906157ec565b60405180910390f35b3480156104d457600080fd5b506104ef60048036038101906104ea9190614357565b6112ab565b005b3480156104fd57600080fd5b506105186004803603810190610513919061412f565b6112df565b005b34801561052657600080fd5b5061052f61130c565b005b34801561053d57600080fd5b5061055860048036038101906105539190614194565b611386565b005b34801561056657600080fd5b50610581600480360381019061057c9190614421565b6113a6565b005b34801561058f57600080fd5b506105aa60048036038101906105a59190614421565b611402565b6040516105b89291906152e7565b60405180910390f35b3480156105cd57600080fd5b506105e860048036038101906105e39190614421565b611446565b6040516105f591906157a8565b60405180910390f35b34801561060a57600080fd5b506106136114dd565b6040516106209190615310565b60405180910390f35b34801561063557600080fd5b50610650600480360381019061064b9190614421565b6114f4565b60405161065d9190615280565b60405180910390f35b34801561067257600080fd5b5061068d6004803603810190610688919061412f565b6115a6565b60405161069a91906157a8565b60405180910390f35b3480156106af57600080fd5b506106b861165e565b6040516106c591906157a8565b60405180910390f35b3480156106da57600080fd5b506106f560048036038101906106f09190614486565b611664565b005b34801561070357600080fd5b5061070c611770565b005b34801561071a57600080fd5b5061073560048036038101906107309190614393565b6117ea565b6040516107429190615280565b60405180910390f35b34801561075757600080fd5b50610772600480360381019061076d9190614421565b611819565b60405161077f9190615346565b60405180910390f35b34801561079457600080fd5b506107af60048036038101906107aa9190614357565b6118b9565b6040516107bc9190615310565b60405180910390f35b3480156107d157600080fd5b506107da611923565b6040516107e79190615346565b60405180910390f35b3480156107fc57600080fd5b506108056119b5565b604051610812919061532b565b60405180910390f35b34801561082757600080fd5b50610842600480360381019061083d919061425e565b6119bc565b005b61085e6004803603810190610859919061444a565b611b3d565b005b34801561086c57600080fd5b50610887600480360381019061088291906141e3565b612136565b005b34801561089557600080fd5b506108b060048036038101906108ab9190614421565b612198565b6040516108bd9190615280565b60405180910390f35b3480156108d257600080fd5b506108db612220565b6040516108e89190615280565b60405180910390f35b3480156108fd57600080fd5b5061091860048036038101906109139190614421565b612246565b6040516109259190615346565b60405180910390f35b34801561093a57600080fd5b506109556004803603810190610950919061432e565b612333565b60405161096291906157a8565b60405180910390f35b34801561097757600080fd5b50610992600480360381019061098d919061429a565b612357565b005b3480156109a057600080fd5b506109a96123f2565b6040516109b6919061532b565b60405180910390f35b3480156109cb57600080fd5b506109e660048036038101906109e19190614357565b612416565b005b3480156109f457600080fd5b50610a0f6004803603810190610a0a9190614421565b61244a565b604051610a1c91906157a8565b60405180910390f35b348015610a3157600080fd5b50610a3a6124b2565b604051610a47919061532b565b60405180910390f35b348015610a5c57600080fd5b50610a776004803603810190610a729190614158565b6124d6565b604051610a849190615310565b60405180910390f35b348015610a9957600080fd5b50610ab46004803603810190610aaf9190614421565b61256a565b604051610ac19190615310565b60405180910390f35b6000610ad58261261d565b9050919050565b606060028054610aeb90615a03565b80601f0160208091040260200160405190810160405280929190818152602001828054610b1790615a03565b8015610b645780601f10610b3957610100808354040283529160200191610b64565b820191906000526020600020905b815481529060010190602001808311610b4757829003601f168201915b5050505050905090565b6000610b7982612697565b610bb8576040517f08c379a0000000000000000000000000000000000000000000000000000000008152600401610baf90615608565b60405180910390fd5b6006600083815260200190815260200160002060009054906101000a900473ffffffffffffffffffffffffffffffffffffffff169050919050565b6000610bfe826114f4565b90508073ffffffffffffffffffffffffffffffffffffffff168373ffffffffffffffffffffffffffffffffffffffff161415610c6f576040517f08c379a0000000000000000000000000000000000000000000000000000000008152600401610c6690615668565b60405180910390fd5b8073ffffffffffffffffffffffffffffffffffffffff16610c8e612703565b73ffffffffffffffffffffffffffffffffffffffff161480610cbd5750610cbc81610cb7612703565b6124d6565b5b610cfc576040517f08c379a0000000000000000000000000000000000000000000000000000000008152600401610cf390615568565b60405180910390fd5b610d06838361270b565b505050565b6000600a80549050905090565b610d29610d23612703565b826127c4565b610d68576040517f08c379a0000000000000000000000000000000000000000000000000000000008152600401610d5f906156a8565b60405180910390fd5b610d738383836128a2565b505050565b6000806000838152602001908152602001600020600101549050919050565b6000610da282612697565b610de1576040517f08c379a0000000000000000000000000000000000000000000000000000000008152600401610dd890615368565b60405180910390fd5b60116000838152602001908152602001600020600101549050919050565b6000601160008381526020019081526020016000206040518060400160405290816000820160009054906101000a900473ffffffffffffffffffffffffffffffffffffffff1673ffffffffffffffffffffffffffffffffffffffff1673ffffffffffffffffffffffffffffffffffffffff1681526020016001820154815250509050610e8a82612697565b610ec9576040517f08c379a0000000000000000000000000000000000000000000000000000000008152600401610ec090615368565b60405180910390fd5b610ed2826114f4565b73ffffffffffffffffffffffffffffffffffffffff163373ffffffffffffffffffffffffffffffffffffffff1614610f3f576040517f08c379a0000000000000000000000000000000000000000000000000000000008152600401610f3690615688565b60405180910390fd5b600073ffffffffffffffffffffffffffffffffffffffff16816000015173ffffffffffffffffffffffffffffffffffffffff161415610fb3576040517f08c379a0000000000000000000000000000000000000000000000000000000008152600401610faa906156e8565b60405180910390fd5b60003373ffffffffffffffffffffffffffffffffffffffff168260200151604051610fdd9061526b565b60006040518083038185875af1925050503d806000811461101a576040519150601f19603f3d011682016040523d82523d6000602084013e61101f565b606091505b5050905080611063576040517f08c379a000000000000000000000000000000000000000000000000000000000815260040161105a906155c8565b60405180910390fd5b6110823383600001518560405180602001604052806000815250612136565b816000015173ffffffffffffffffffffffffffffffffffffffff163373ffffffffffffffffffffffffffffffffffffffff16847fe6d56779a392535d3a591e92b65ba36f2ecc424bbf5220d0176a7da29385b50485602001516040516110e891906157a8565b60405180910390a46000826000019073ffffffffffffffffffffffffffffffffffffffff16908173ffffffffffffffffffffffffffffffffffffffff16815250506000826020018181525050816011600085815260200190815260200160002060008201518160000160006101000a81548173ffffffffffffffffffffffffffffffffffffffff021916908373ffffffffffffffffffffffffffffffffffffffff16021790555060208201518160010155905050505050565b6111ab8282612afe565b6111d081600160008581526020019081526020016000206125ed90919063ffffffff16565b505050565b60006111e0836115a6565b8210611221576040517f08c379a000000000000000000000000000000000000000000000000000000000815260040161121890615448565b60405180910390fd5b600860008473ffffffffffffffffffffffffffffffffffffffff1673ffffffffffffffffffffffffffffffffffffffff168152602001908152602001600020600083815260200190815260200160002054905092915050565b60126020528060005260406000206000915090508060000154908060010160009054906101000a900460ff16905082565b6112b58282612b64565b6112da8160016000858152602001908152602001600020612be790919063ffffffff16565b505050565b6113097f9f2df0fed2c77648de5860a4cc508cd0818c85b8b8a1ab4ceeef8d981c8956a6826111a1565b50565b61133d7f65d7a28e3265b37a6474929f336521b332c1681b933f6cb9f3376673440d862a611338612703565b6118b9565b61137c576040517f08c379a000000000000000000000000000000000000000000000000000000000815260040161137390615768565b60405180910390fd5b611384612c17565b565b6113a183838360405180602001604052806000815250612136565b505050565b6113b76113b1612703565b826127c4565b6113f6576040517f08c379a00000000000000000000000000000000000000000000000000000000081526004016113ed90615748565b60405180910390fd5b6113ff81612cb9565b50565b60116020528060005260406000206000915090508060000160009054906101000a900473ffffffffffffffffffffffffffffffffffffffff16908060010154905082565b6000611450610d0b565b8210611491576040517f08c379a0000000000000000000000000000000000000000000000000000000008152600401611488906156c8565b60405180910390fd5b600a82815481106114cb577f4e487b7100000000000000000000000000000000000000000000000000000000600052603260045260246000fd5b90600052602060002001549050919050565b6000600c60009054906101000a900460ff16905090565b6000806004600084815260200190815260200160002060009054906101000a900473ffffffffffffffffffffffffffffffffffffffff169050600073ffffffffffffffffffffffffffffffffffffffff168173ffffffffffffffffffffffffffffffffffffffff16141561159d576040517f08c379a0000000000000000000000000000000000000000000000000000000008152600401611594906155a8565b60405180910390fd5b80915050919050565b60008073ffffffffffffffffffffffffffffffffffffffff168273ffffffffffffffffffffffffffffffffffffffff161415611617576040517f08c379a000000000000000000000000000000000000000000000000000000000815260040161160e90615588565b60405180910390fd5b600560008373ffffffffffffffffffffffffffffffffffffffff1673ffffffffffffffffffffffffffffffffffffffff168152602001908152602001600020549050919050565b600f5481565b61166d83612697565b6116ac576040517f08c379a00000000000000000000000000000000000000000000000000000000081526004016116a390615368565b60405180910390fd5b6116b5836114f4565b73ffffffffffffffffffffffffffffffffffffffff163373ffffffffffffffffffffffffffffffffffffffff1614611722576040517f08c379a000000000000000000000000000000000000000000000000000000000815260040161171990615688565b60405180910390fd5b816012600085815260200190815260200160002060000181905550806012600085815260200190815260200160002060010160006101000a81548160ff021916908315150217905550505050565b6117a17f65d7a28e3265b37a6474929f336521b332c1681b933f6cb9f3376673440d862a61179c612703565b6118b9565b6117e0576040517f08c379a00000000000000000000000000000000000000000000000000000000081526004016117d7906154a8565b60405180910390fd5b6117e8612dca565b565b60006118118260016000868152602001908152602001600020612e6d90919063ffffffff16565b905092915050565b6013602052806000526040600020600091509050805461183890615a03565b80601f016020809104026020016040519081016040528092919081815260200182805461186490615a03565b80156118b15780601f10611886576101008083540402835291602001916118b1565b820191906000526020600020905b81548152906001019060200180831161189457829003601f168201915b505050505081565b600080600084815260200190815260200160002060000160008373ffffffffffffffffffffffffffffffffffffffff1673ffffffffffffffffffffffffffffffffffffffff16815260200190815260200160002060009054906101000a900460ff16905092915050565b60606003805461193290615a03565b80601f016020809104026020016040519081016040528092919081815260200182805461195e90615a03565b80156119ab5780601f10611980576101008083540402835291602001916119ab565b820191906000526020600020905b81548152906001019060200180831161198e57829003601f168201915b5050505050905090565b6000801b81565b6119c4612703565b73ffffffffffffffffffffffffffffffffffffffff168273ffffffffffffffffffffffffffffffffffffffff161415611a32576040517f08c379a0000000000000000000000000000000000000000000000000000000008152600401611a29906154e8565b60405180910390fd5b8060076000611a3f612703565b73ffffffffffffffffffffffffffffffffffffffff1673ffffffffffffffffffffffffffffffffffffffff16815260200190815260200160002060008473ffffffffffffffffffffffffffffffffffffffff1673ffffffffffffffffffffffffffffffffffffffff16815260200190815260200160002060006101000a81548160ff0219169083151502179055508173ffffffffffffffffffffffffffffffffffffffff16611aec612703565b73ffffffffffffffffffffffffffffffffffffffff167f17307eab39ab6107e8899845ad3d59bd9653f200f220920489ca2b5937696c3183604051611b319190615310565b60405180910390a35050565b6000601160008481526020019081526020016000206040518060400160405290816000820160009054906101000a900473ffffffffffffffffffffffffffffffffffffffff1673ffffffffffffffffffffffffffffffffffffffff1673ffffffffffffffffffffffffffffffffffffffff1681526020016001820154815250509050611bc883612697565b611c07576040517f08c379a0000000000000000000000000000000000000000000000000000000008152600401611bfe90615368565b60405180910390fd5b348214611c49576040517f08c379a0000000000000000000000000000000000000000000000000000000008152600401611c4090615708565b60405180910390fd5b80602001518211611c8f576040517f08c379a0000000000000000000000000000000000000000000000000000000008152600401611c86906153a8565b60405180910390fd5b600073ffffffffffffffffffffffffffffffffffffffff16816000015173ffffffffffffffffffffffffffffffffffffffff1614611d7d576000816000015173ffffffffffffffffffffffffffffffffffffffff168260200151604051611cf59061526b565b60006040518083038185875af1925050503d8060008114611d32576040519150601f19603f3d011682016040523d82523d6000602084013e611d37565b606091505b5050905080611d7b576040517f08c379a0000000000000000000000000000000000000000000000000000000008152600401611d7290615428565b60405180910390fd5b505b6012600084815260200190815260200160002060010160009054906101000a900460ff168015611dc3575060126000848152602001908152602001600020600001543410155b1561202f576000611dd3846114f4565b73ffffffffffffffffffffffffffffffffffffffff1634604051611df69061526b565b60006040518083038185875af1925050503d8060008114611e33576040519150601f19603f3d011682016040523d82523d6000602084013e611e38565b606091505b5050905080611e7c576040517f08c379a0000000000000000000000000000000000000000000000000000000008152600401611e73906155c8565b60405180910390fd5b601060009054906101000a900473ffffffffffffffffffffffffffffffffffffffff1673ffffffffffffffffffffffffffffffffffffffff16635c02f41985336040518363ffffffff1660e01b8152600401611ed99291906157c3565b600060405180830381600087803b158015611ef357600080fd5b505af1158015611f07573d6000803e3d6000fd5b505050506000826000019073ffffffffffffffffffffffffffffffffffffffff16908173ffffffffffffffffffffffffffffffffffffffff16815250506000826020018181525050816011600086815260200190815260200160002060008201518160000160006101000a81548173ffffffffffffffffffffffffffffffffffffffff021916908373ffffffffffffffffffffffffffffffffffffffff160217905550602082015181600101559050503373ffffffffffffffffffffffffffffffffffffffff16611fd7856114f4565b73ffffffffffffffffffffffffffffffffffffffff16857fe6d56779a392535d3a591e92b65ba36f2ecc424bbf5220d0176a7da29385b504856020015160405161202191906157a8565b60405180910390a450612131565b33816000019073ffffffffffffffffffffffffffffffffffffffff16908173ffffffffffffffffffffffffffffffffffffffff168152505081816020018181525050806011600085815260200190815260200160002060008201518160000160006101000a81548173ffffffffffffffffffffffffffffffffffffffff021916908373ffffffffffffffffffffffffffffffffffffffff16021790555060208201518160010155905050806000015173ffffffffffffffffffffffffffffffffffffffff16837f558a0d5d5468d74b0db24c74eb348b42271c2ebb4c9e953ced38aaed95fa4361836020015160405161212891906157a8565b60405180910390a35b505050565b612147612141612703565b836127c4565b612186576040517f08c379a000000000000000000000000000000000000000000000000000000000815260040161217d906156a8565b60405180910390fd5b61219284848484612e87565b50505050565b60006121a382612697565b6121e2576040517f08c379a00000000000000000000000000000000000000000000000000000000081526004016121d990615368565b60405180910390fd5b6011600083815260200190815260200160002060000160009054906101000a900473ffffffffffffffffffffffffffffffffffffffff169050919050565b601060009054906101000a900473ffffffffffffffffffffffffffffffffffffffff1681565b606061225182612697565b612290576040517f08c379a000000000000000000000000000000000000000000000000000000000815260040161228790615648565b60405180910390fd5b6013600083815260200190815260200160002080546122ae90615a03565b80601f01602080910402602001604051908101604052809291908181526020018280546122da90615a03565b80156123275780601f106122fc57610100808354040283529160200191612327565b820191906000526020600020905b81548152906001019060200180831161230a57829003601f168201915b50505050509050919050565b600061235060016000848152602001908152602001600020612ee3565b9050919050565b61238333601060009054906101000a900473ffffffffffffffffffffffffffffffffffffffff166124d6565b6123b5576123b4601060009054906101000a900473ffffffffffffffffffffffffffffffffffffffff1660016119bc565b5b60006123c084612ef8565b905080600f8190555082826013600084815260200190815260200160002091906123eb929190613f5c565b5050505050565b7f9f2df0fed2c77648de5860a4cc508cd0818c85b8b8a1ab4ceeef8d981c8956a681565b6124208282612f98565b6124458160016000858152602001908152602001600020612be790919063ffffffff16565b505050565b600061245582612697565b612494576040517f08c379a000000000000000000000000000000000000000000000000000000000815260040161248b90615368565b60405180910390fd5b60126000838152602001908152602001600020600001549050919050565b7f65d7a28e3265b37a6474929f336521b332c1681b933f6cb9f3376673440d862a81565b6000600760008473ffffffffffffffffffffffffffffffffffffffff1673ffffffffffffffffffffffffffffffffffffffff16815260200190815260200160002060008373ffffffffffffffffffffffffffffffffffffffff1673ffffffffffffffffffffffffffffffffffffffff16815260200190815260200160002060009054906101000a900460ff16905092915050565b600061257582612697565b6125b4576040517f08c379a00000000000000000000000000000000000000000000000000000000081526004016125ab90615368565b60405180910390fd5b6012600083815260200190815260200160002060010160009054906101000a900460ff169050919050565b6125e98282612ffe565b5050565b6000612615836000018373ffffffffffffffffffffffffffffffffffffffff1660001b6130de565b905092915050565b60007f780e9d63000000000000000000000000000000000000000000000000000000007bffffffffffffffffffffffffffffffffffffffffffffffffffffffff1916827bffffffffffffffffffffffffffffffffffffffffffffffffffffffff19161480612690575061268f8261314e565b5b9050919050565b60008073ffffffffffffffffffffffffffffffffffffffff166004600084815260200190815260200160002060009054906101000a900473ffffffffffffffffffffffffffffffffffffffff1673ffffffffffffffffffffffffffffffffffffffff1614159050919050565b600033905090565b816006600083815260200190815260200160002060006101000a81548173ffffffffffffffffffffffffffffffffffffffff021916908373ffffffffffffffffffffffffffffffffffffffff160217905550808273ffffffffffffffffffffffffffffffffffffffff1661277e836114f4565b73ffffffffffffffffffffffffffffffffffffffff167f8c5be1e5ebec7d5bd14f71427d1e84f3dd0314c0f7b2291e5b200ac8c7c3b92560405160405180910390a45050565b60006127cf82612697565b61280e576040517f08c379a000000000000000000000000000000000000000000000000000000000815260040161280590615508565b60405180910390fd5b6000612819836114f4565b90508073ffffffffffffffffffffffffffffffffffffffff168473ffffffffffffffffffffffffffffffffffffffff16148061288857508373ffffffffffffffffffffffffffffffffffffffff1661287084610b6e565b73ffffffffffffffffffffffffffffffffffffffff16145b80612899575061289881856124d6565b5b91505092915050565b8273ffffffffffffffffffffffffffffffffffffffff166128c2826114f4565b73ffffffffffffffffffffffffffffffffffffffff1614612918576040517f08c379a000000000000000000000000000000000000000000000000000000000815260040161290f90615628565b60405180910390fd5b600073ffffffffffffffffffffffffffffffffffffffff168273ffffffffffffffffffffffffffffffffffffffff161415612988576040517f08c379a000000000000000000000000000000000000000000000000000000000815260040161297f906154c8565b60405180910390fd5b612993838383613230565b61299e60008261270b565b6001600560008573ffffffffffffffffffffffffffffffffffffffff1673ffffffffffffffffffffffffffffffffffffffff16815260200190815260200160002060008282546129ee919061590f565b925050819055506001600560008473ffffffffffffffffffffffffffffffffffffffff1673ffffffffffffffffffffffffffffffffffffffff1681526020019081526020016000206000828254612a4591906158b9565b92505081905550816004600083815260200190815260200160002060006101000a81548173ffffffffffffffffffffffffffffffffffffffff021916908373ffffffffffffffffffffffffffffffffffffffff160217905550808273ffffffffffffffffffffffffffffffffffffffff168473ffffffffffffffffffffffffffffffffffffffff167fddf252ad1be2c89b69c2b068fc378daa952ba7f163c4a11628f55a4df523b3ef60405160405180910390a4505050565b612b17612b0a83610d78565b612b12612703565b6118b9565b612b56576040517f08c379a0000000000000000000000000000000000000000000000000000000008152600401612b4d906153e8565b60405180910390fd5b612b608282612ffe565b5050565b612b6c612703565b73ffffffffffffffffffffffffffffffffffffffff168173ffffffffffffffffffffffffffffffffffffffff1614612bd9576040517f08c379a0000000000000000000000000000000000000000000000000000000008152600401612bd090615788565b60405180910390fd5b612be38282613240565b5050565b6000612c0f836000018373ffffffffffffffffffffffffffffffffffffffff1660001b613321565b905092915050565b612c1f6114dd565b612c5e576040517f08c379a0000000000000000000000000000000000000000000000000000000008152600401612c5590615408565b60405180910390fd5b6000600c60006101000a81548160ff0219169083151502179055507f5db9ee0a495bf2e6ff9c91a7834c1ba4fdd244a5e8aa4e537bd38aeae4b073aa612ca2612703565b604051612caf9190615280565b60405180910390a1565b6000612cc4826114f4565b9050612cd281600084613230565b612cdd60008361270b565b6001600560008373ffffffffffffffffffffffffffffffffffffffff1673ffffffffffffffffffffffffffffffffffffffff1681526020019081526020016000206000828254612d2d919061590f565b925050819055506004600083815260200190815260200160002060006101000a81549073ffffffffffffffffffffffffffffffffffffffff021916905581600073ffffffffffffffffffffffffffffffffffffffff168273ffffffffffffffffffffffffffffffffffffffff167fddf252ad1be2c89b69c2b068fc378daa952ba7f163c4a11628f55a4df523b3ef60405160405180910390a45050565b612dd26114dd565b15612e12576040517f08c379a0000000000000000000000000000000000000000000000000000000008152600401612e0990615548565b60405180910390fd5b6001600c60006101000a81548160ff0219169083151502179055507f62e78cea01bee320cd4e420270b5ea74000d11b0c9f74754ebdbfc544b05a258612e56612703565b604051612e639190615280565b60405180910390a1565b6000612e7c83600001836134ab565b60001c905092915050565b612e928484846128a2565b612e9e84848484613545565b612edd576040517f08c379a0000000000000000000000000000000000000000000000000000000008152600401612ed490615468565b60405180910390fd5b50505050565b6000612ef1826000016136dc565b9050919050565b6000612f2b7f9f2df0fed2c77648de5860a4cc508cd0818c85b8b8a1ab4ceeef8d981c8956a6612f26612703565b6118b9565b612f6a576040517f08c379a0000000000000000000000000000000000000000000000000000000008152600401612f6190615728565b60405180910390fd5b612f74600d6136ed565b612f8782612f82600d613703565b613711565b612f91600d613703565b9050919050565b612fb1612fa483610d78565b612fac612703565b6118b9565b612ff0576040517f08c379a0000000000000000000000000000000000000000000000000000000008152600401612fe790615528565b60405180910390fd5b612ffa8282613240565b5050565b61300882826118b9565b6130da57600160008084815260200190815260200160002060000160008373ffffffffffffffffffffffffffffffffffffffff1673ffffffffffffffffffffffffffffffffffffffff16815260200190815260200160002060006101000a81548160ff02191690831515021790555061307f612703565b73ffffffffffffffffffffffffffffffffffffffff168173ffffffffffffffffffffffffffffffffffffffff16837f2f8788117e7eff1d82e926ec794901d17c78024a50270940304540a733656f0d60405160405180910390a45b5050565b60006130ea83836138df565b613143578260000182908060018154018082558091505060019003906000526020600020016000909190919091505582600001805490508360010160008481526020019081526020016000208190555060019050613148565b600090505b92915050565b60007f80ac58cd000000000000000000000000000000000000000000000000000000007bffffffffffffffffffffffffffffffffffffffffffffffffffffffff1916827bffffffffffffffffffffffffffffffffffffffffffffffffffffffff1916148061321957507f5b5e139f000000000000000000000000000000000000000000000000000000007bffffffffffffffffffffffffffffffffffffffffffffffffffffffff1916827bffffffffffffffffffffffffffffffffffffffffffffffffffffffff1916145b80613229575061322882613902565b5b9050919050565b61323b83838361397c565b505050565b61324a82826118b9565b1561331d57600080600084815260200190815260200160002060000160008373ffffffffffffffffffffffffffffffffffffffff1673ffffffffffffffffffffffffffffffffffffffff16815260200190815260200160002060006101000a81548160ff0219169083151502179055506132c2612703565b73ffffffffffffffffffffffffffffffffffffffff168173ffffffffffffffffffffffffffffffffffffffff16837ff6391f5c32d9c69d2a47ea670b442974b53935d1edc7fd64eb21e047a839171b60405160405180910390a45b5050565b6000808360010160008481526020019081526020016000205490506000811461349f576000600182613353919061590f565b905060006001866000018054905061336b919061590f565b905060008660000182815481106133ab577f4e487b7100000000000000000000000000000000000000000000000000000000600052603260045260246000fd5b90600052602060002001549050808760000184815481106133f5577f4e487b7100000000000000000000000000000000000000000000000000000000600052603260045260246000fd5b906000526020600020018190555060018361341091906158b9565b8760010160008381526020019081526020016000208190555086600001805480613463577f4e487b7100000000000000000000000000000000000000000000000000000000600052603160045260246000fd5b600190038181906000526020600020016000905590558660010160008781526020019081526020016000206000905560019450505050506134a5565b60009150505b92915050565b6000818360000180549050116134f6576040517f08c379a00000000000000000000000000000000000000000000000000000000081526004016134ed90615388565b60405180910390fd5b826000018281548110613532577f4e487b7100000000000000000000000000000000000000000000000000000000600052603260045260246000fd5b9060005260206000200154905092915050565b60006135668473ffffffffffffffffffffffffffffffffffffffff166139d4565b156136cf578373ffffffffffffffffffffffffffffffffffffffff1663150b7a0261358f612703565b8786866040518563ffffffff1660e01b81526004016135b1949392919061529b565b602060405180830381600087803b1580156135cb57600080fd5b505af19250505080156135fc57506040513d601f19601f820116820180604052508101906135f991906143f8565b60015b61367f573d806000811461362c576040519150601f19603f3d011682016040523d82523d6000602084013e613631565b606091505b50600081511415613677576040517f08c379a000000000000000000000000000000000000000000000000000000000815260040161366e90615468565b60405180910390fd5b805181602001fd5b63150b7a0260e01b7bffffffffffffffffffffffffffffffffffffffffffffffffffffffff1916817bffffffffffffffffffffffffffffffffffffffffffffffffffffffff1916149150506136d4565b600190505b949350505050565b600081600001805490509050919050565b6001816000016000828254019250508190555050565b600081600001549050919050565b600073ffffffffffffffffffffffffffffffffffffffff168273ffffffffffffffffffffffffffffffffffffffff161415613781576040517f08c379a0000000000000000000000000000000000000000000000000000000008152600401613778906155e8565b60405180910390fd5b61378a81612697565b156137ca576040517f08c379a00000000000000000000000000000000000000000000000000000000081526004016137c190615488565b60405180910390fd5b6137d660008383613230565b6001600560008473ffffffffffffffffffffffffffffffffffffffff1673ffffffffffffffffffffffffffffffffffffffff168152602001908152602001600020600082825461382691906158b9565b92505081905550816004600083815260200190815260200160002060006101000a81548173ffffffffffffffffffffffffffffffffffffffff021916908373ffffffffffffffffffffffffffffffffffffffff160217905550808273ffffffffffffffffffffffffffffffffffffffff16600073ffffffffffffffffffffffffffffffffffffffff167fddf252ad1be2c89b69c2b068fc378daa952ba7f163c4a11628f55a4df523b3ef60405160405180910390a45050565b600080836001016000848152602001908152602001600020541415905092915050565b60007f5a05180f000000000000000000000000000000000000000000000000000000007bffffffffffffffffffffffffffffffffffffffffffffffffffffffff1916827bffffffffffffffffffffffffffffffffffffffffffffffffffffffff191614806139755750613974826139e7565b5b9050919050565b613987838383613a61565b61398f6114dd565b156139cf576040517f08c379a00000000000000000000000000000000000000000000000000000000081526004016139c6906153c8565b60405180910390fd5b505050565b600080823b905060008111915050919050565b60007f7965db0b000000000000000000000000000000000000000000000000000000007bffffffffffffffffffffffffffffffffffffffffffffffffffffffff1916827bffffffffffffffffffffffffffffffffffffffffffffffffffffffff19161480613a5a5750613a5982613b75565b5b9050919050565b613a6c838383613bdf565b600073ffffffffffffffffffffffffffffffffffffffff168373ffffffffffffffffffffffffffffffffffffffff161415613aaf57613aaa81613be4565b613aee565b8173ffffffffffffffffffffffffffffffffffffffff168373ffffffffffffffffffffffffffffffffffffffff1614613aed57613aec8382613c2d565b5b5b600073ffffffffffffffffffffffffffffffffffffffff168273ffffffffffffffffffffffffffffffffffffffff161415613b3157613b2c81613d9a565b613b70565b8273ffffffffffffffffffffffffffffffffffffffff168273ffffffffffffffffffffffffffffffffffffffff1614613b6f57613b6e8282613edd565b5b5b505050565b60007f01ffc9a7000000000000000000000000000000000000000000000000000000007bffffffffffffffffffffffffffffffffffffffffffffffffffffffff1916827bffffffffffffffffffffffffffffffffffffffffffffffffffffffff1916149050919050565b505050565b600a80549050600b600083815260200190815260200160002081905550600a81908060018154018082558091505060019003906000526020600020016000909190919091505550565b60006001613c3a846115a6565b613c44919061590f565b9050600060096000848152602001908152602001600020549050818114613d29576000600860008673ffffffffffffffffffffffffffffffffffffffff1673ffffffffffffffffffffffffffffffffffffffff168152602001908152602001600020600084815260200190815260200160002054905080600860008773ffffffffffffffffffffffffffffffffffffffff1673ffffffffffffffffffffffffffffffffffffffff168152602001908152602001600020600084815260200190815260200160002081905550816009600083815260200190815260200160002081905550505b6009600084815260200190815260200160002060009055600860008573ffffffffffffffffffffffffffffffffffffffff1673ffffffffffffffffffffffffffffffffffffffff16815260200190815260200160002060008381526020019081526020016000206000905550505050565b60006001600a80549050613dae919061590f565b90506000600b60008481526020019081526020016000205490506000600a8381548110613e04577f4e487b7100000000000000000000000000000000000000000000000000000000600052603260045260246000fd5b9060005260206000200154905080600a8381548110613e4c577f4e487b7100000000000000000000000000000000000000000000000000000000600052603260045260246000fd5b906000526020600020018190555081600b600083815260200190815260200160002081905550600b600085815260200190815260200160002060009055600a805480613ec1577f4e487b7100000000000000000000000000000000000000000000000000000000600052603160045260246000fd5b6001900381819060005260206000200160009055905550505050565b6000613ee8836115a6565b905081600860008573ffffffffffffffffffffffffffffffffffffffff1673ffffffffffffffffffffffffffffffffffffffff168152602001908152602001600020600083815260200190815260200160002081905550806009600084815260200190815260200160002081905550505050565b828054613f6890615a03565b90600052602060002090601f016020900481019282613f8a5760008555613fd1565b82601f10613fa357803560ff1916838001178555613fd1565b82800160010185558215613fd1579182015b82811115613fd0578235825591602001919060010190613fb5565b5b509050613fde9190613fe2565b5090565b5b80821115613ffb576000816000905550600101613fe3565b5090565b600061401261400d84615846565b615815565b90508281526020810184848401111561402a57600080fd5b6140358482856159c1565b509392505050565b60008135905061404c81615ad3565b92915050565b60008135905061406181615aea565b92915050565b60008135905061407681615b01565b92915050565b60008135905061408b81615b18565b92915050565b6000815190506140a081615b18565b92915050565b600082601f8301126140b757600080fd5b81356140c7848260208601613fff565b91505092915050565b60008083601f8401126140e257600080fd5b8235905067ffffffffffffffff8111156140fb57600080fd5b60208301915083600182028301111561411357600080fd5b9250929050565b60008135905061412981615b2f565b92915050565b60006020828403121561414157600080fd5b600061414f8482850161403d565b91505092915050565b6000806040838503121561416b57600080fd5b60006141798582860161403d565b925050602061418a8582860161403d565b9150509250929050565b6000806000606084860312156141a957600080fd5b60006141b78682870161403d565b93505060206141c88682870161403d565b92505060406141d98682870161411a565b9150509250925092565b600080600080608085870312156141f957600080fd5b60006142078782880161403d565b94505060206142188782880161403d565b93505060406142298782880161411a565b925050606085013567ffffffffffffffff81111561424657600080fd5b614252878288016140a6565b91505092959194509250565b6000806040838503121561427157600080fd5b600061427f8582860161403d565b925050602061429085828601614052565b9150509250929050565b6000806000604084860312156142af57600080fd5b60006142bd8682870161403d565b935050602084013567ffffffffffffffff8111156142da57600080fd5b6142e6868287016140d0565b92509250509250925092565b6000806040838503121561430557600080fd5b60006143138582860161403d565b92505060206143248582860161411a565b9150509250929050565b60006020828403121561434057600080fd5b600061434e84828501614067565b91505092915050565b6000806040838503121561436a57600080fd5b600061437885828601614067565b92505060206143898582860161403d565b9150509250929050565b600080604083850312156143a657600080fd5b60006143b485828601614067565b92505060206143c58582860161411a565b9150509250929050565b6000602082840312156143e157600080fd5b60006143ef8482850161407c565b91505092915050565b60006020828403121561440a57600080fd5b600061441884828501614091565b91505092915050565b60006020828403121561443357600080fd5b60006144418482850161411a565b91505092915050565b6000806040838503121561445d57600080fd5b600061446b8582860161411a565b925050602061447c8582860161411a565b9150509250929050565b60008060006060848603121561449b57600080fd5b60006144a98682870161411a565b93505060206144ba8682870161411a565b92505060406144cb86828701614052565b9150509250925092565b6144de81615943565b82525050565b6144ed81615955565b82525050565b6144fc81615961565b82525050565b600061450d82615876565b614517818561588c565b93506145278185602086016159d0565b61453081615ac2565b840191505092915050565b600061454682615881565b61455081856158a8565b93506145608185602086016159d0565b61456981615ac2565b840191505092915050565b60006145816022836158a8565b91507f4552433732313a20746f6b656e20686173206e6f74206265656e206d696e746560008301527f642e0000000000000000000000000000000000000000000000000000000000006020830152604082019050919050565b60006145e76022836158a8565b91507f456e756d657261626c655365743a20696e646578206f7574206f6620626f756e60008301527f64730000000000000000000000000000000000000000000000000000000000006020830152604082019050919050565b600061464d6034836158a8565b91507f546865206e6577206269642076616c7565206d7573742065786365656420746860008301527f652063757272656e74206269642076616c75652e0000000000000000000000006020830152604082019050919050565b60006146b3602b836158a8565b91507f4552433732315061757361626c653a20746f6b656e207472616e73666572207760008301527f68696c65207061757365640000000000000000000000000000000000000000006020830152604082019050919050565b6000614719602f836158a8565b91507f416363657373436f6e74726f6c3a2073656e646572206d75737420626520616e60008301527f2061646d696e20746f206772616e7400000000000000000000000000000000006020830152604082019050919050565b600061477f6014836158a8565b91507f5061757361626c653a206e6f74207061757365640000000000000000000000006000830152602082019050919050565b60006147bf6025836158a8565b91507f4574686572206e6f742073656e7420746f207468652070726576696f7573206260008301527f69646465720000000000000000000000000000000000000000000000000000006020830152604082019050919050565b6000614825602b836158a8565b91507f455243373231456e756d657261626c653a206f776e657220696e646578206f7560008301527f74206f6620626f756e64730000000000000000000000000000000000000000006020830152604082019050919050565b600061488b6032836158a8565b91507f4552433732313a207472616e7366657220746f206e6f6e20455243373231526560008301527f63656976657220696d706c656d656e74657200000000000000000000000000006020830152604082019050919050565b60006148f1601c836158a8565b91507f4552433732313a20746f6b656e20616c7265616479206d696e746564000000006000830152602082019050919050565b6000614931603e836158a8565b91507f4552433732315072657365744d696e7465725061757365724175746f49643a2060008301527f6d75737420686176652070617573657220726f6c6520746f20706175736500006020830152604082019050919050565b60006149976024836158a8565b91507f4552433732313a207472616e7366657220746f20746865207a65726f2061646460008301527f72657373000000000000000000000000000000000000000000000000000000006020830152604082019050919050565b60006149fd6019836158a8565b91507f4552433732313a20617070726f766520746f2063616c6c6572000000000000006000830152602082019050919050565b6000614a3d602c836158a8565b91507f4552433732313a206f70657261746f7220717565727920666f72206e6f6e657860008301527f697374656e7420746f6b656e00000000000000000000000000000000000000006020830152604082019050919050565b6000614aa36030836158a8565b91507f416363657373436f6e74726f6c3a2073656e646572206d75737420626520616e60008301527f2061646d696e20746f207265766f6b65000000000000000000000000000000006020830152604082019050919050565b6000614b096010836158a8565b91507f5061757361626c653a20706175736564000000000000000000000000000000006000830152602082019050919050565b6000614b496038836158a8565b91507f4552433732313a20617070726f76652063616c6c6572206973206e6f74206f7760008301527f6e6572206e6f7220617070726f76656420666f7220616c6c00000000000000006020830152604082019050919050565b6000614baf602a836158a8565b91507f4552433732313a2062616c616e636520717565727920666f7220746865207a6560008301527f726f2061646472657373000000000000000000000000000000000000000000006020830152604082019050919050565b6000614c156029836158a8565b91507f4552433732313a206f776e657220717565727920666f72206e6f6e657869737460008301527f656e7420746f6b656e00000000000000000000000000000000000000000000006020830152604082019050919050565b6000614c7b6024836158a8565b91507f4574686572206e6f742073656e7420746f20746865206f776e6572206f66207460008301527f6f6b656e000000000000000000000000000000000000000000000000000000006020830152604082019050919050565b6000614ce16020836158a8565b91507f4552433732313a206d696e7420746f20746865207a65726f20616464726573736000830152602082019050919050565b6000614d21602c836158a8565b91507f4552433732313a20617070726f76656420717565727920666f72206e6f6e657860008301527f697374656e7420746f6b656e00000000000000000000000000000000000000006020830152604082019050919050565b6000614d876029836158a8565b91507f4552433732313a207472616e73666572206f6620746f6b656e2074686174206960008301527f73206e6f74206f776e00000000000000000000000000000000000000000000006020830152604082019050919050565b6000614ded602f836158a8565b91507f4552433732314d657461646174613a2055524920717565727920666f72206e6f60008301527f6e6578697374656e7420746f6b656e00000000000000000000000000000000006020830152604082019050919050565b6000614e536021836158a8565b91507f4552433732313a20617070726f76616c20746f2063757272656e74206f776e6560008301527f72000000000000000000000000000000000000000000000000000000000000006020830152604082019050919050565b6000614eb96028836158a8565b91507f4f6e6c792074686520746f6b656e206f776e65722063616e206163636570742060008301527f746865206269642e0000000000000000000000000000000000000000000000006020830152604082019050919050565b6000614f1f60008361589d565b9150600082019050919050565b6000614f396031836158a8565b91507f4552433732313a207472616e736665722063616c6c6572206973206e6f74206f60008301527f776e6572206e6f7220617070726f7665640000000000000000000000000000006020830152604082019050919050565b6000614f9f602c836158a8565b91507f455243373231456e756d657261626c653a20676c6f62616c20696e646578206f60008301527f7574206f6620626f756e647300000000000000000000000000000000000000006020830152604082019050919050565b60006150056039836158a8565b91507f506c65617365207761697420666f7220736f6d656f6e6520746f206d616b652060008301527f74686520626964206265666f726520616363657074696e672e000000000000006020830152604082019050919050565b600061506b602c836158a8565b91507f4d757374206c6f636b207570207468652062696420616d6f756e7420696e207460008301527f686520636f6e74726163742e00000000000000000000000000000000000000006020830152604082019050919050565b60006150d1603d836158a8565b91507f4552433732315072657365744d696e7465725061757365724175746f49643a2060008301527f6d7573742068617665206d696e74657220726f6c6520746f206d696e740000006020830152604082019050919050565b60006151376030836158a8565b91507f4552433732314275726e61626c653a2063616c6c6572206973206e6f74206f7760008301527f6e6572206e6f7220617070726f766564000000000000000000000000000000006020830152604082019050919050565b600061519d6040836158a8565b91507f4552433732315072657365744d696e7465725061757365724175746f49643a2060008301527f6d75737420686176652070617573657220726f6c6520746f20756e70617573656020830152604082019050919050565b6000615203602f836158a8565b91507f416363657373436f6e74726f6c3a2063616e206f6e6c792072656e6f756e636560008301527f20726f6c657320666f722073656c6600000000000000000000000000000000006020830152604082019050919050565b615265816159b7565b82525050565b600061527682614f12565b9150819050919050565b600060208201905061529560008301846144d5565b92915050565b60006080820190506152b060008301876144d5565b6152bd60208301866144d5565b6152ca604083018561525c565b81810360608301526152dc8184614502565b905095945050505050565b60006040820190506152fc60008301856144d5565b615309602083018461525c565b9392505050565b600060208201905061532560008301846144e4565b92915050565b600060208201905061534060008301846144f3565b92915050565b60006020820190508181036000830152615360818461453b565b905092915050565b6000602082019050818103600083015261538181614574565b9050919050565b600060208201905081810360008301526153a1816145da565b9050919050565b600060208201905081810360008301526153c181614640565b9050919050565b600060208201905081810360008301526153e1816146a6565b9050919050565b600060208201905081810360008301526154018161470c565b9050919050565b6000602082019050818103600083015261542181614772565b9050919050565b60006020820190508181036000830152615441816147b2565b9050919050565b6000602082019050818103600083015261546181614818565b9050919050565b600060208201905081810360008301526154818161487e565b9050919050565b600060208201905081810360008301526154a1816148e4565b9050919050565b600060208201905081810360008301526154c181614924565b9050919050565b600060208201905081810360008301526154e18161498a565b9050919050565b60006020820190508181036000830152615501816149f0565b9050919050565b6000602082019050818103600083015261552181614a30565b9050919050565b6000602082019050818103600083015261554181614a96565b9050919050565b6000602082019050818103600083015261556181614afc565b9050919050565b6000602082019050818103600083015261558181614b3c565b9050919050565b600060208201905081810360008301526155a181614ba2565b9050919050565b600060208201905081810360008301526155c181614c08565b9050919050565b600060208201905081810360008301526155e181614c6e565b9050919050565b6000602082019050818103600083015261560181614cd4565b9050919050565b6000602082019050818103600083015261562181614d14565b9050919050565b6000602082019050818103600083015261564181614d7a565b9050919050565b6000602082019050818103600083015261566181614de0565b9050919050565b6000602082019050818103600083015261568181614e46565b9050919050565b600060208201905081810360008301526156a181614eac565b9050919050565b600060208201905081810360008301526156c181614f2c565b9050919050565b600060208201905081810360008301526156e181614f92565b9050919050565b6000602082019050818103600083015261570181614ff8565b9050919050565b600060208201905081810360008301526157218161505e565b9050919050565b60006020820190508181036000830152615741816150c4565b9050919050565b600060208201905081810360008301526157618161512a565b9050919050565b6000602082019050818103600083015261578181615190565b9050919050565b600060208201905081810360008301526157a1816151f6565b9050919050565b60006020820190506157bd600083018461525c565b92915050565b60006040820190506157d8600083018561525c565b6157e560208301846144d5565b9392505050565b6000604082019050615801600083018561525c565b61580e60208301846144e4565b9392505050565b6000604051905081810181811067ffffffffffffffff8211171561583c5761583b615a93565b5b8060405250919050565b600067ffffffffffffffff82111561586157615860615a93565b5b601f19601f8301169050602081019050919050565b600081519050919050565b600081519050919050565b600082825260208201905092915050565b600081905092915050565b600082825260208201905092915050565b60006158c4826159b7565b91506158cf836159b7565b9250827fffffffffffffffffffffffffffffffffffffffffffffffffffffffffffffffff0382111561590457615903615a35565b5b828201905092915050565b600061591a826159b7565b9150615925836159b7565b92508282101561593857615937615a35565b5b828203905092915050565b600061594e82615997565b9050919050565b60008115159050919050565b6000819050919050565b60007fffffffff0000000000000000000000000000000000000000000000000000000082169050919050565b600073ffffffffffffffffffffffffffffffffffffffff82169050919050565b6000819050919050565b82818337600083830152505050565b60005b838110156159ee5780820151818401526020810190506159d3565b838111156159fd576000848401525b50505050565b60006002820490506001821680615a1b57607f821691505b60208210811415615a2f57615a2e615a64565b5b50919050565b7f4e487b7100000000000000000000000000000000000000000000000000000000600052601160045260246000fd5b7f4e487b7100000000000000000000000000000000000000000000000000000000600052602260045260246000fd5b7f4e487b7100000000000000000000000000000000000000000000000000000000600052604160045260246000fd5b6000601f19601f8301169050919050565b615adc81615943565b8114615ae757600080fd5b50565b615af381615955565b8114615afe57600080fd5b50565b615b0a81615961565b8114615b1557600080fd5b50565b615b218161596b565b8114615b2c57600080fd5b50565b615b38816159b7565b8114615b4357600080fd5b5056fea26469706673582212200588af7e95a862ad5a59b471926a23d818470297d202c464ecc9cc96466c8b0464736f6c63430008000033",
  "linkReferences": {},
  "deployedLinkReferences": {}
}