{
  "_format": "hh-sol-artifact-1",
  "contractName": "NFT",
  "sourceName": "contracts/NFT.sol",
  "abi": [
    {
      "inputs": [
        {
          "internalType": "string",
          "name": "name_",
          "type": "string"
        },
        {
          "internalType": "string",
          "name": "symbol_",
          "type": "string"
        }
      ],
      "stateMutability": "nonpayable",
      "type": "constructor"
    },
    {
      "anonymous": false,
      "inputs": [
        {
          "indexed": true,
          "internalType": "address",
          "name": "owner",
          "type": "address"
        },
        {
          "indexed": true,
          "internalType": "address",
          "name": "approved",
          "type": "address"
        },
        {
          "indexed": true,
          "internalType": "uint256",
          "name": "tokenId",
          "type": "uint256"
        }
      ],
      "name": "Approval",
      "type": "event"
    },
    {
      "anonymous": false,
      "inputs": [
        {
          "indexed": true,
          "internalType": "address",
          "name": "owner",
          "type": "address"
        },
        {
          "indexed": true,
          "internalType": "address",
          "name": "operator",
          "type": "address"
        },
        {
          "indexed": false,
          "internalType": "bool",
          "name": "approved",
          "type": "bool"
        }
      ],
      "name": "ApprovalForAll",
      "type": "event"
    },
    {
      "anonymous": false,
      "inputs": [
        {
          "indexed": true,
          "internalType": "uint256",
          "name": "tokenID",
          "type": "uint256"
        },
        {
          "indexed": true,
          "internalType": "address",
          "name": "owner",
          "type": "address"
        },
        {
          "indexed": true,
          "internalType": "address",
          "name": "bidder",
          "type": "address"
        },
        {
          "indexed": false,
          "internalType": "uint256",
          "name": "bidValue",
          "type": "uint256"
        }
      ],
      "name": "BidAccepted",
      "type": "event"
    },
    {
      "anonymous": false,
      "inputs": [
        {
          "indexed": true,
          "internalType": "uint256",
          "name": "tokenID",
          "type": "uint256"
        },
        {
          "indexed": true,
          "internalType": "address",
          "name": "bidder",
          "type": "address"
        },
        {
          "indexed": false,
          "internalType": "uint256",
          "name": "bidValue",
          "type": "uint256"
        }
      ],
      "name": "NewBid",
      "type": "event"
    },
    {
      "anonymous": false,
      "inputs": [
        {
          "indexed": false,
          "internalType": "address",
          "name": "account",
          "type": "address"
        }
      ],
      "name": "Paused",
      "type": "event"
    },
    {
      "anonymous": false,
      "inputs": [
        {
          "indexed": true,
          "internalType": "bytes32",
          "name": "role",
          "type": "bytes32"
        },
        {
          "indexed": true,
          "internalType": "bytes32",
          "name": "previousAdminRole",
          "type": "bytes32"
        },
        {
          "indexed": true,
          "internalType": "bytes32",
          "name": "newAdminRole",
          "type": "bytes32"
        }
      ],
      "name": "RoleAdminChanged",
      "type": "event"
    },
    {
      "anonymous": false,
      "inputs": [
        {
          "indexed": true,
          "internalType": "bytes32",
          "name": "role",
          "type": "bytes32"
        },
        {
          "indexed": true,
          "internalType": "address",
          "name": "account",
          "type": "address"
        },
        {
          "indexed": true,
          "internalType": "address",
          "name": "sender",
          "type": "address"
        }
      ],
      "name": "RoleGranted",
      "type": "event"
    },
    {
      "anonymous": false,
      "inputs": [
        {
          "indexed": true,
          "internalType": "bytes32",
          "name": "role",
          "type": "bytes32"
        },
        {
          "indexed": true,
          "internalType": "address",
          "name": "account",
          "type": "address"
        },
        {
          "indexed": true,
          "internalType": "address",
          "name": "sender",
          "type": "address"
        }
      ],
      "name": "RoleRevoked",
      "type": "event"
    },
    {
      "anonymous": false,
      "inputs": [
        {
          "indexed": true,
          "internalType": "address",
          "name": "from",
          "type": "address"
        },
        {
          "indexed": true,
          "internalType": "address",
          "name": "to",
          "type": "address"
        },
        {
          "indexed": true,
          "internalType": "uint256",
          "name": "tokenId",
          "type": "uint256"
        }
      ],
      "name": "Transfer",
      "type": "event"
    },
    {
      "anonymous": false,
      "inputs": [
        {
          "indexed": false,
          "internalType": "address",
          "name": "account",
          "type": "address"
        }
      ],
      "name": "Unpaused",
      "type": "event"
    },
    {
      "inputs": [],
      "name": "DEFAULT_ADMIN_ROLE",
      "outputs": [
        {
          "internalType": "bytes32",
          "name": "",
          "type": "bytes32"
        }
      ],
      "stateMutability": "view",
      "type": "function"
    },
    {
      "inputs": [],
      "name": "MINTER_ROLE",
      "outputs": [
        {
          "internalType": "bytes32",
          "name": "",
          "type": "bytes32"
        }
      ],
      "stateMutability": "view",
      "type": "function"
    },
    {
      "inputs": [],
      "name": "PAUSER_ROLE",
      "outputs": [
        {
          "internalType": "bytes32",
          "name": "",
          "type": "bytes32"
        }
      ],
      "stateMutability": "view",
      "type": "function"
    },
    {
      "inputs": [
        {
          "internalType": "uint256",
          "name": "",
          "type": "uint256"
        }
      ],
      "name": "URI",
      "outputs": [
        {
          "internalType": "string",
          "name": "",
          "type": "string"
        }
      ],
      "stateMutability": "view",
      "type": "function"
    },
    {
      "inputs": [
        {
          "internalType": "uint256",
          "name": "_tokenId",
          "type": "uint256"
        }
      ],
      "name": "acceptBid",
      "outputs": [],
      "stateMutability": "payable",
      "type": "function"
    },
    {
      "inputs": [
        {
          "internalType": "address",
          "name": "to",
          "type": "address"
        },
        {
          "internalType": "uint256",
          "name": "tokenId",
          "type": "uint256"
        }
      ],
      "name": "approve",
      "outputs": [],
      "stateMutability": "nonpayable",
      "type": "function"
    },
    {
      "inputs": [
        {
          "internalType": "address",
          "name": "owner",
          "type": "address"
        }
      ],
      "name": "balanceOf",
      "outputs": [
        {
          "internalType": "uint256",
          "name": "",
          "type": "uint256"
        }
      ],
      "stateMutability": "view",
      "type": "function"
    },
    {
      "inputs": [
        {
          "internalType": "uint256",
          "name": "",
          "type": "uint256"
        }
      ],
      "name": "bids",
      "outputs": [
        {
          "internalType": "address",
          "name": "bidder",
          "type": "address"
        },
        {
          "internalType": "uint256",
          "name": "bidValue",
          "type": "uint256"
        }
      ],
      "stateMutability": "view",
      "type": "function"
    },
    {
      "inputs": [
        {
          "internalType": "uint256",
          "name": "tokenId",
          "type": "uint256"
        }
      ],
      "name": "burn",
      "outputs": [],
      "stateMutability": "nonpayable",
      "type": "function"
    },
    {
      "inputs": [
        {
          "internalType": "uint256",
          "name": "tokenId",
          "type": "uint256"
        }
      ],
      "name": "getApproved",
      "outputs": [
        {
          "internalType": "address",
          "name": "",
          "type": "address"
        }
      ],
      "stateMutability": "view",
      "type": "function"
    },
    {
      "inputs": [
        {
          "internalType": "uint256",
          "name": "_tokenId",
          "type": "uint256"
        }
      ],
      "name": "getCurrentBidValue",
      "outputs": [
        {
          "internalType": "uint256",
          "name": "",
          "type": "uint256"
        }
      ],
      "stateMutability": "view",
      "type": "function"
    },
    {
      "inputs": [
        {
          "internalType": "uint256",
          "name": "_tokenId",
          "type": "uint256"
        }
      ],
      "name": "getCurrentBidder",
      "outputs": [
        {
          "internalType": "address",
          "name": "",
          "type": "address"
        }
      ],
      "stateMutability": "view",
      "type": "function"
    },
    {
      "inputs": [
        {
          "internalType": "bytes32",
          "name": "role",
          "type": "bytes32"
        }
      ],
      "name": "getRoleAdmin",
      "outputs": [
        {
          "internalType": "bytes32",
          "name": "",
          "type": "bytes32"
        }
      ],
      "stateMutability": "view",
      "type": "function"
    },
    {
      "inputs": [
        {
          "internalType": "bytes32",
          "name": "role",
          "type": "bytes32"
        },
        {
          "internalType": "uint256",
          "name": "index",
          "type": "uint256"
        }
      ],
      "name": "getRoleMember",
      "outputs": [
        {
          "internalType": "address",
          "name": "",
          "type": "address"
        }
      ],
      "stateMutability": "view",
      "type": "function"
    },
    {
      "inputs": [
        {
          "internalType": "bytes32",
          "name": "role",
          "type": "bytes32"
        }
      ],
      "name": "getRoleMemberCount",
      "outputs": [
        {
          "internalType": "uint256",
          "name": "",
          "type": "uint256"
        }
      ],
      "stateMutability": "view",
      "type": "function"
    },
    {
      "inputs": [
        {
          "internalType": "uint256",
          "name": "_tokenId",
          "type": "uint256"
        }
      ],
      "name": "getThresholdStatus",
      "outputs": [
        {
          "internalType": "bool",
          "name": "",
          "type": "bool"
        }
      ],
      "stateMutability": "view",
      "type": "function"
    },
    {
      "inputs": [
        {
          "internalType": "uint256",
          "name": "_tokenId",
          "type": "uint256"
        }
      ],
      "name": "getThresholdValue",
      "outputs": [
        {
          "internalType": "uint256",
          "name": "",
          "type": "uint256"
        }
      ],
      "stateMutability": "view",
      "type": "function"
    },
    {
      "inputs": [
        {
          "internalType": "bytes32",
          "name": "role",
          "type": "bytes32"
        },
        {
          "internalType": "address",
          "name": "account",
          "type": "address"
        }
      ],
      "name": "grantRole",
      "outputs": [],
      "stateMutability": "nonpayable",
      "type": "function"
    },
    {
      "inputs": [
        {
          "internalType": "bytes32",
          "name": "role",
          "type": "bytes32"
        },
        {
          "internalType": "address",
          "name": "account",
          "type": "address"
        }
      ],
      "name": "hasRole",
      "outputs": [
        {
          "internalType": "bool",
          "name": "",
          "type": "bool"
        }
      ],
      "stateMutability": "view",
      "type": "function"
    },
    {
      "inputs": [
        {
          "internalType": "address",
          "name": "owner",
          "type": "address"
        },
        {
          "internalType": "address",
          "name": "operator",
          "type": "address"
        }
      ],
      "name": "isApprovedForAll",
      "outputs": [
        {
          "internalType": "bool",
          "name": "",
          "type": "bool"
        }
      ],
      "stateMutability": "view",
      "type": "function"
    },
    {
      "inputs": [
        {
          "internalType": "uint256",
          "name": "_tokenId",
          "type": "uint256"
        },
        {
          "internalType": "uint256",
          "name": "_bidValue",
          "type": "uint256"
        }
      ],
      "name": "makeBid",
      "outputs": [],
      "stateMutability": "payable",
      "type": "function"
    },
    {
      "inputs": [
        {
          "internalType": "address",
          "name": "_to",
          "type": "address"
        },
        {
          "internalType": "string",
          "name": "_URI",
          "type": "string"
        }
      ],
      "name": "mint",
      "outputs": [],
      "stateMutability": "nonpayable",
      "type": "function"
    },
    {
      "inputs": [],
      "name": "name",
      "outputs": [
        {
          "internalType": "string",
          "name": "",
          "type": "string"
        }
      ],
      "stateMutability": "view",
      "type": "function"
    },
    {
      "inputs": [
        {
          "internalType": "uint256",
          "name": "tokenId",
          "type": "uint256"
        }
      ],
      "name": "ownerOf",
      "outputs": [
        {
          "internalType": "address",
          "name": "",
          "type": "address"
        }
      ],
      "stateMutability": "view",
      "type": "function"
    },
    {
      "inputs": [],
      "name": "pause",
      "outputs": [],
      "stateMutability": "nonpayable",
      "type": "function"
    },
    {
      "inputs": [],
      "name": "paused",
      "outputs": [
        {
          "internalType": "bool",
          "name": "",
          "type": "bool"
        }
      ],
      "stateMutability": "view",
      "type": "function"
    },
    {
      "inputs": [
        {
          "internalType": "bytes32",
          "name": "role",
          "type": "bytes32"
        },
        {
          "internalType": "address",
          "name": "account",
          "type": "address"
        }
      ],
      "name": "renounceRole",
      "outputs": [],
      "stateMutability": "nonpayable",
      "type": "function"
    },
    {
      "inputs": [
        {
          "internalType": "bytes32",
          "name": "role",
          "type": "bytes32"
        },
        {
          "internalType": "address",
          "name": "account",
          "type": "address"
        }
      ],
      "name": "revokeRole",
      "outputs": [],
      "stateMutability": "nonpayable",
      "type": "function"
    },
    {
      "inputs": [
        {
          "internalType": "address",
          "name": "from",
          "type": "address"
        },
        {
          "internalType": "address",
          "name": "to",
          "type": "address"
        },
        {
          "internalType": "uint256",
          "name": "tokenId",
          "type": "uint256"
        }
      ],
      "name": "safeTransferFrom",
      "outputs": [],
      "stateMutability": "nonpayable",
      "type": "function"
    },
    {
      "inputs": [
        {
          "internalType": "address",
          "name": "from",
          "type": "address"
        },
        {
          "internalType": "address",
          "name": "to",
          "type": "address"
        },
        {
          "internalType": "uint256",
          "name": "tokenId",
          "type": "uint256"
        },
        {
          "internalType": "bytes",
          "name": "_data",
          "type": "bytes"
        }
      ],
      "name": "safeTransferFrom",
      "outputs": [],
      "stateMutability": "nonpayable",
      "type": "function"
    },
    {
      "inputs": [
        {
          "internalType": "address",
          "name": "operator",
          "type": "address"
        },
        {
          "internalType": "bool",
          "name": "approved",
          "type": "bool"
        }
      ],
      "name": "setApprovalForAll",
      "outputs": [],
      "stateMutability": "nonpayable",
      "type": "function"
    },
    {
      "inputs": [
        {
          "internalType": "uint256",
          "name": "_tokenId",
          "type": "uint256"
        },
        {
          "internalType": "uint256",
          "name": "_value",
          "type": "uint256"
        },
        {
          "internalType": "bool",
          "name": "_active",
          "type": "bool"
        }
      ],
      "name": "setThreshold",
      "outputs": [],
      "stateMutability": "nonpayable",
      "type": "function"
    },
    {
      "inputs": [
        {
          "internalType": "bytes4",
          "name": "interfaceId",
          "type": "bytes4"
        }
      ],
      "name": "supportsInterface",
      "outputs": [
        {
          "internalType": "bool",
          "name": "",
          "type": "bool"
        }
      ],
      "stateMutability": "view",
      "type": "function"
    },
    {
      "inputs": [],
      "name": "symbol",
      "outputs": [
        {
          "internalType": "string",
          "name": "",
          "type": "string"
        }
      ],
      "stateMutability": "view",
      "type": "function"
    },
    {
      "inputs": [
        {
          "internalType": "uint256",
          "name": "",
          "type": "uint256"
        }
      ],
      "name": "threshold",
      "outputs": [
        {
          "internalType": "uint256",
          "name": "value",
          "type": "uint256"
        },
        {
          "internalType": "bool",
          "name": "active",
          "type": "bool"
        }
      ],
      "stateMutability": "view",
      "type": "function"
    },
    {
      "inputs": [
        {
          "internalType": "uint256",
          "name": "index",
          "type": "uint256"
        }
      ],
      "name": "tokenByIndex",
      "outputs": [
        {
          "internalType": "uint256",
          "name": "",
          "type": "uint256"
        }
      ],
      "stateMutability": "view",
      "type": "function"
    },
    {
      "inputs": [
        {
          "internalType": "address",
          "name": "owner",
          "type": "address"
        },
        {
          "internalType": "uint256",
          "name": "index",
          "type": "uint256"
        }
      ],
      "name": "tokenOfOwnerByIndex",
      "outputs": [
        {
          "internalType": "uint256",
          "name": "",
          "type": "uint256"
        }
      ],
      "stateMutability": "view",
      "type": "function"
    },
    {
      "inputs": [
        {
          "internalType": "uint256",
          "name": "_tokenId",
          "type": "uint256"
        }
      ],
      "name": "tokenURI",
      "outputs": [
        {
          "internalType": "string",
          "name": "",
          "type": "string"
        }
      ],
      "stateMutability": "view",
      "type": "function"
    },
    {
      "inputs": [],
      "name": "totalSupply",
      "outputs": [
        {
          "internalType": "uint256",
          "name": "",
          "type": "uint256"
        }
      ],
      "stateMutability": "view",
      "type": "function"
    },
    {
      "inputs": [
        {
          "internalType": "address",
          "name": "from",
          "type": "address"
        },
        {
          "internalType": "address",
          "name": "to",
          "type": "address"
        },
        {
          "internalType": "uint256",
          "name": "tokenId",
          "type": "uint256"
        }
      ],
      "name": "transferFrom",
      "outputs": [],
      "stateMutability": "nonpayable",
      "type": "function"
    },
    {
      "inputs": [],
      "name": "unpause",
      "outputs": [],
      "stateMutability": "nonpayable",
      "type": "function"
    }
  ],
  "bytecode": "0x60806040523480156200001157600080fd5b5060405162005d8b38038062005d8b83398181016040528101906200003791906200051c565b8181604051806020016040528060008152508282816002908051906020019062000063929190620003fa565b5080600390805190602001906200007c929190620003fa565b5050506000600c60006101000a81548160ff02191690831515021790555080600e9080519060200190620000b2929190620003fa565b50620000d76000801b620000cb6200016460201b60201c565b6200016c60201b60201c565b620001187f9f2df0fed2c77648de5860a4cc508cd0818c85b8b8a1ab4ceeef8d981c8956a66200010c6200016460201b60201c565b6200016c60201b60201c565b620001597f65d7a28e3265b37a6474929f336521b332c1681b933f6cb9f3376673440d862a6200014d6200016460201b60201c565b6200016c60201b60201c565b5050505050620006ff565b600033905090565b620001838282620001b460201b620020a81760201c565b620001af8160016000858152602001908152602001600020620001ca60201b620020b61790919060201c565b505050565b620001c682826200020260201b60201c565b5050565b6000620001fa836000018373ffffffffffffffffffffffffffffffffffffffff1660001b620002f360201b60201c565b905092915050565b6200021482826200036d60201b60201c565b620002ef57600160008084815260200190815260200160002060000160008373ffffffffffffffffffffffffffffffffffffffff1673ffffffffffffffffffffffffffffffffffffffff16815260200190815260200160002060006101000a81548160ff021916908315150217905550620002946200016460201b60201c565b73ffffffffffffffffffffffffffffffffffffffff168173ffffffffffffffffffffffffffffffffffffffff16837f2f8788117e7eff1d82e926ec794901d17c78024a50270940304540a733656f0d60405160405180910390a45b5050565b6000620003078383620003d760201b60201c565b6200036257826000018290806001815401808255809150506001900390600052602060002001600090919091909150558260000180549050836001016000848152602001908152602001600020819055506001905062000367565b600090505b92915050565b600080600084815260200190815260200160002060000160008373ffffffffffffffffffffffffffffffffffffffff1673ffffffffffffffffffffffffffffffffffffffff16815260200190815260200160002060009054906101000a900460ff16905092915050565b600080836001016000848152602001908152602001600020541415905092915050565b828054620004089062000624565b90600052602060002090601f0160209004810192826200042c576000855562000478565b82601f106200044757805160ff191683800117855562000478565b8280016001018555821562000478579182015b82811115620004775782518255916020019190600101906200045a565b5b5090506200048791906200048b565b5090565b5b80821115620004a65760008160009055506001016200048c565b5090565b6000620004c1620004bb84620005b8565b6200058f565b905082815260208101848484011115620004da57600080fd5b620004e7848285620005ee565b509392505050565b600082601f8301126200050157600080fd5b815162000513848260208601620004aa565b91505092915050565b600080604083850312156200053057600080fd5b600083015167ffffffffffffffff8111156200054b57600080fd5b6200055985828601620004ef565b925050602083015167ffffffffffffffff8111156200057757600080fd5b6200058585828601620004ef565b9150509250929050565b60006200059b620005ae565b9050620005a982826200065a565b919050565b6000604051905090565b600067ffffffffffffffff821115620005d657620005d5620006bf565b5b620005e182620006ee565b9050602081019050919050565b60005b838110156200060e578082015181840152602081019050620005f1565b838111156200061e576000848401525b50505050565b600060028204905060018216806200063d57607f821691505b6020821081141562000654576200065362000690565b5b50919050565b6200066582620006ee565b810181811067ffffffffffffffff82111715620006875762000686620006bf565b5b80604052505050565b7f4e487b7100000000000000000000000000000000000000000000000000000000600052602260045260246000fd5b7f4e487b7100000000000000000000000000000000000000000000000000000000600052604160045260246000fd5b6000601f19601f8301169050919050565b61567c806200070f6000396000f3fe6080604052600436106102465760003560e01c806370a0823111610139578063b88d4fde116100b6578063d53913931161007a578063d5391393146108f4578063d547741f1461091f578063dbd56ef714610948578063e63ab1e914610985578063e985e9c5146109b0578063e9a4d931146109ed57610246565b8063b88d4fde146107eb578063bb50aa3a14610814578063c87b56dd14610851578063ca15c8731461088e578063d0def521146108cb57610246565b806391d14854116100fd57806391d148541461071357806395d89b4114610750578063a217fddf1461077b578063a22cb465146107a6578063adfcdc11146107cf57610246565b806370a082311461061c578063844f4af6146106595780638456cb59146106825780639010d07c14610699578063901e1c01146106d657610246565b80632f745c59116101c757806342966c681161018b57806342966c68146105105780634423c5f1146105395780634f6ccce7146105775780635c975abb146105b45780636352211e146105df57610246565b80632f745c591461042c57806331eb7a1a1461046957806336568abe146104a75780633f4ba83a146104d057806342842e0e146104e757610246565b806323b872dd1161020e57806323b872dd14610344578063248a9ca31461036d5780632b05ff1d146103aa5780632b1fd58a146103e75780632f2ff15d1461040357610246565b806301ffc9a71461024b57806306fdde0314610288578063081812fc146102b3578063095ea7b3146102f057806318160ddd14610319575b600080fd5b34801561025757600080fd5b50610272600480360381019061026d9190613e98565b610a2a565b60405161027f919061453c565b60405180910390f35b34801561029457600080fd5b5061029d610a3c565b6040516102aa9190614572565b60405180910390f35b3480156102bf57600080fd5b506102da60048036038101906102d59190613eea565b610ace565b6040516102e791906144ac565b60405180910390f35b3480156102fc57600080fd5b5061031760048036038101906103129190613dbb565b610b53565b005b34801561032557600080fd5b5061032e610c6b565b60405161033b9190614994565b60405180910390f35b34801561035057600080fd5b5061036b60048036038101906103669190613c5d565b610c78565b005b34801561037957600080fd5b50610394600480360381019061038f9190613df7565b610cd8565b6040516103a19190614557565b60405180910390f35b3480156103b657600080fd5b506103d160048036038101906103cc9190613eea565b610cf7565b6040516103de9190614994565b60405180910390f35b61040160048036038101906103fc9190613eea565b610d5f565b005b34801561040f57600080fd5b5061042a60048036038101906104259190613e20565b61106e565b005b34801561043857600080fd5b50610453600480360381019061044e9190613dbb565b6110a2565b6040516104609190614994565b60405180910390f35b34801561047557600080fd5b50610490600480360381019061048b9190613eea565b611147565b60405161049e9291906149af565b60405180910390f35b3480156104b357600080fd5b506104ce60048036038101906104c99190613e20565b611178565b005b3480156104dc57600080fd5b506104e56111ac565b005b3480156104f357600080fd5b5061050e60048036038101906105099190613c5d565b611226565b005b34801561051c57600080fd5b5061053760048036038101906105329190613eea565b611246565b005b34801561054557600080fd5b50610560600480360381019061055b9190613eea565b6112a2565b60405161056e929190614513565b60405180910390f35b34801561058357600080fd5b5061059e60048036038101906105999190613eea565b6112e6565b6040516105ab9190614994565b60405180910390f35b3480156105c057600080fd5b506105c961137d565b6040516105d6919061453c565b60405180910390f35b3480156105eb57600080fd5b5061060660048036038101906106019190613eea565b611394565b60405161061391906144ac565b60405180910390f35b34801561062857600080fd5b50610643600480360381019061063e9190613bf8565b611446565b6040516106509190614994565b60405180910390f35b34801561066557600080fd5b50610680600480360381019061067b9190613f4f565b6114fe565b005b34801561068e57600080fd5b5061069761160a565b005b3480156106a557600080fd5b506106c060048036038101906106bb9190613e5c565b611684565b6040516106cd91906144ac565b60405180910390f35b3480156106e257600080fd5b506106fd60048036038101906106f89190613eea565b6116b3565b60405161070a9190614572565b60405180910390f35b34801561071f57600080fd5b5061073a60048036038101906107359190613e20565b611753565b604051610747919061453c565b60405180910390f35b34801561075c57600080fd5b506107656117bd565b6040516107729190614572565b60405180910390f35b34801561078757600080fd5b5061079061184f565b60405161079d9190614557565b60405180910390f35b3480156107b257600080fd5b506107cd60048036038101906107c89190613d27565b611856565b005b6107e960048036038101906107e49190613f13565b6119d7565b005b3480156107f757600080fd5b50610812600480360381019061080d9190613cac565b611c8a565b005b34801561082057600080fd5b5061083b60048036038101906108369190613eea565b611cec565b60405161084891906144ac565b60405180910390f35b34801561085d57600080fd5b5061087860048036038101906108739190613eea565b611d74565b6040516108859190614572565b60405180910390f35b34801561089a57600080fd5b506108b560048036038101906108b09190613df7565b611e61565b6040516108c29190614994565b60405180910390f35b3480156108d757600080fd5b506108f260048036038101906108ed9190613d63565b611e85565b005b34801561090057600080fd5b50610909611ebb565b6040516109169190614557565b60405180910390f35b34801561092b57600080fd5b5061094660048036038101906109419190613e20565b611edf565b005b34801561095457600080fd5b5061096f600480360381019061096a9190613eea565b611f13565b60405161097c9190614994565b60405180910390f35b34801561099157600080fd5b5061099a611f7b565b6040516109a79190614557565b60405180910390f35b3480156109bc57600080fd5b506109d760048036038101906109d29190613c21565b611f9f565b6040516109e4919061453c565b60405180910390f35b3480156109f957600080fd5b50610a146004803603810190610a0f9190613eea565b612033565b604051610a21919061453c565b60405180910390f35b6000610a35826120e6565b9050919050565b606060028054610a4b90614bb0565b80601f0160208091040260200160405190810160405280929190818152602001828054610a7790614bb0565b8015610ac45780601f10610a9957610100808354040283529160200191610ac4565b820191906000526020600020905b815481529060010190602001808311610aa757829003601f168201915b5050505050905090565b6000610ad982612160565b610b18576040517f08c379a0000000000000000000000000000000000000000000000000000000008152600401610b0f906147f4565b60405180910390fd5b6006600083815260200190815260200160002060009054906101000a900473ffffffffffffffffffffffffffffffffffffffff169050919050565b6000610b5e82611394565b90508073ffffffffffffffffffffffffffffffffffffffff168373ffffffffffffffffffffffffffffffffffffffff161415610bcf576040517f08c379a0000000000000000000000000000000000000000000000000000000008152600401610bc690614854565b60405180910390fd5b8073ffffffffffffffffffffffffffffffffffffffff16610bee6121cc565b73ffffffffffffffffffffffffffffffffffffffff161480610c1d5750610c1c81610c176121cc565b611f9f565b5b610c5c576040517f08c379a0000000000000000000000000000000000000000000000000000000008152600401610c5390614774565b60405180910390fd5b610c6683836121d4565b505050565b6000600a80549050905090565b610c89610c836121cc565b8261228d565b610cc8576040517f08c379a0000000000000000000000000000000000000000000000000000000008152600401610cbf90614894565b60405180910390fd5b610cd383838361236b565b505050565b6000806000838152602001908152602001600020600101549050919050565b6000610d0282612160565b610d41576040517f08c379a0000000000000000000000000000000000000000000000000000000008152600401610d3890614594565b60405180910390fd5b600f6000838152602001908152602001600020600101549050919050565b6000600f60008381526020019081526020016000206040518060400160405290816000820160009054906101000a900473ffffffffffffffffffffffffffffffffffffffff1673ffffffffffffffffffffffffffffffffffffffff1673ffffffffffffffffffffffffffffffffffffffff1681526020016001820154815250509050610dea82612160565b610e29576040517f08c379a0000000000000000000000000000000000000000000000000000000008152600401610e2090614594565b60405180910390fd5b610e3282611394565b73ffffffffffffffffffffffffffffffffffffffff163373ffffffffffffffffffffffffffffffffffffffff1614610e9f576040517f08c379a0000000000000000000000000000000000000000000000000000000008152600401610e9690614874565b60405180910390fd5b600073ffffffffffffffffffffffffffffffffffffffff16816000015173ffffffffffffffffffffffffffffffffffffffff161415610f13576040517f08c379a0000000000000000000000000000000000000000000000000000000008152600401610f0a906148d4565b60405180910390fd5b3373ffffffffffffffffffffffffffffffffffffffff1681602001515050610f503382600001518460405180602001604052806000815250611c8a565b806000015173ffffffffffffffffffffffffffffffffffffffff163373ffffffffffffffffffffffffffffffffffffffff16837fe6d56779a392535d3a591e92b65ba36f2ecc424bbf5220d0176a7da29385b5048460200151604051610fb69190614994565b60405180910390a46000816000019073ffffffffffffffffffffffffffffffffffffffff16908173ffffffffffffffffffffffffffffffffffffffff1681525050600081602001818152505080600f600084815260200190815260200160002060008201518160000160006101000a81548173ffffffffffffffffffffffffffffffffffffffff021916908373ffffffffffffffffffffffffffffffffffffffff160217905550602082015181600101559050505050565b61107882826125c7565b61109d81600160008581526020019081526020016000206120b690919063ffffffff16565b505050565b60006110ad83611446565b82106110ee576040517f08c379a00000000000000000000000000000000000000000000000000000000081526004016110e590614654565b60405180910390fd5b600860008473ffffffffffffffffffffffffffffffffffffffff1673ffffffffffffffffffffffffffffffffffffffff168152602001908152602001600020600083815260200190815260200160002054905092915050565b60106020528060005260406000206000915090508060000154908060010160009054906101000a900460ff16905082565b611182828261262d565b6111a781600160008581526020019081526020016000206126b090919063ffffffff16565b505050565b6111dd7f65d7a28e3265b37a6474929f336521b332c1681b933f6cb9f3376673440d862a6111d86121cc565b611753565b61121c576040517f08c379a000000000000000000000000000000000000000000000000000000000815260040161121390614954565b60405180910390fd5b6112246126e0565b565b61124183838360405180602001604052806000815250611c8a565b505050565b6112576112516121cc565b8261228d565b611296576040517f08c379a000000000000000000000000000000000000000000000000000000000815260040161128d90614934565b60405180910390fd5b61129f81612782565b50565b600f6020528060005260406000206000915090508060000160009054906101000a900473ffffffffffffffffffffffffffffffffffffffff16908060010154905082565b60006112f0610c6b565b8210611331576040517f08c379a0000000000000000000000000000000000000000000000000000000008152600401611328906148b4565b60405180910390fd5b600a828154811061136b577f4e487b7100000000000000000000000000000000000000000000000000000000600052603260045260246000fd5b90600052602060002001549050919050565b6000600c60009054906101000a900460ff16905090565b6000806004600084815260200190815260200160002060009054906101000a900473ffffffffffffffffffffffffffffffffffffffff169050600073ffffffffffffffffffffffffffffffffffffffff168173ffffffffffffffffffffffffffffffffffffffff16141561143d576040517f08c379a0000000000000000000000000000000000000000000000000000000008152600401611434906147b4565b60405180910390fd5b80915050919050565b60008073ffffffffffffffffffffffffffffffffffffffff168273ffffffffffffffffffffffffffffffffffffffff1614156114b7576040517f08c379a00000000000000000000000000000000000000000000000000000000081526004016114ae90614794565b60405180910390fd5b600560008373ffffffffffffffffffffffffffffffffffffffff1673ffffffffffffffffffffffffffffffffffffffff168152602001908152602001600020549050919050565b61150783612160565b611546576040517f08c379a000000000000000000000000000000000000000000000000000000000815260040161153d90614594565b60405180910390fd5b61154f83611394565b73ffffffffffffffffffffffffffffffffffffffff163373ffffffffffffffffffffffffffffffffffffffff16146115bc576040517f08c379a00000000000000000000000000000000000000000000000000000000081526004016115b390614874565b60405180910390fd5b816010600085815260200190815260200160002060000181905550806010600085815260200190815260200160002060010160006101000a81548160ff021916908315150217905550505050565b61163b7f65d7a28e3265b37a6474929f336521b332c1681b933f6cb9f3376673440d862a6116366121cc565b611753565b61167a576040517f08c379a0000000000000000000000000000000000000000000000000000000008152600401611671906146b4565b60405180910390fd5b611682612893565b565b60006116ab826001600086815260200190815260200160002061293690919063ffffffff16565b905092915050565b601160205280600052604060002060009150905080546116d290614bb0565b80601f01602080910402602001604051908101604052809291908181526020018280546116fe90614bb0565b801561174b5780601f106117205761010080835404028352916020019161174b565b820191906000526020600020905b81548152906001019060200180831161172e57829003601f168201915b505050505081565b600080600084815260200190815260200160002060000160008373ffffffffffffffffffffffffffffffffffffffff1673ffffffffffffffffffffffffffffffffffffffff16815260200190815260200160002060009054906101000a900460ff16905092915050565b6060600380546117cc90614bb0565b80601f01602080910402602001604051908101604052809291908181526020018280546117f890614bb0565b80156118455780601f1061181a57610100808354040283529160200191611845565b820191906000526020600020905b81548152906001019060200180831161182857829003601f168201915b5050505050905090565b6000801b81565b61185e6121cc565b73ffffffffffffffffffffffffffffffffffffffff168273ffffffffffffffffffffffffffffffffffffffff1614156118cc576040517f08c379a00000000000000000000000000000000000000000000000000000000081526004016118c3906146f4565b60405180910390fd5b80600760006118d96121cc565b73ffffffffffffffffffffffffffffffffffffffff1673ffffffffffffffffffffffffffffffffffffffff16815260200190815260200160002060008473ffffffffffffffffffffffffffffffffffffffff1673ffffffffffffffffffffffffffffffffffffffff16815260200190815260200160002060006101000a81548160ff0219169083151502179055508173ffffffffffffffffffffffffffffffffffffffff166119866121cc565b73ffffffffffffffffffffffffffffffffffffffff167f17307eab39ab6107e8899845ad3d59bd9653f200f220920489ca2b5937696c31836040516119cb919061453c565b60405180910390a35050565b6000600f60008481526020019081526020016000206040518060400160405290816000820160009054906101000a900473ffffffffffffffffffffffffffffffffffffffff1673ffffffffffffffffffffffffffffffffffffffff1673ffffffffffffffffffffffffffffffffffffffff1681526020016001820154815250509050611a6283612160565b611aa1576040517f08c379a0000000000000000000000000000000000000000000000000000000008152600401611a9890614594565b60405180910390fd5b348214611ae3576040517f08c379a0000000000000000000000000000000000000000000000000000000008152600401611ada906148f4565b60405180910390fd5b80602001518211611b29576040517f08c379a0000000000000000000000000000000000000000000000000000000008152600401611b20906145d4565b60405180910390fd5b600073ffffffffffffffffffffffffffffffffffffffff16816000015173ffffffffffffffffffffffffffffffffffffffff1614611b8457806000015173ffffffffffffffffffffffffffffffffffffffff16816020015150505b33816000019073ffffffffffffffffffffffffffffffffffffffff16908173ffffffffffffffffffffffffffffffffffffffff16815250508181602001818152505080600f600085815260200190815260200160002060008201518160000160006101000a81548173ffffffffffffffffffffffffffffffffffffffff021916908373ffffffffffffffffffffffffffffffffffffffff16021790555060208201518160010155905050806000015173ffffffffffffffffffffffffffffffffffffffff16837f558a0d5d5468d74b0db24c74eb348b42271c2ebb4c9e953ced38aaed95fa43618360200151604051611c7d9190614994565b60405180910390a3505050565b611c9b611c956121cc565b8361228d565b611cda576040517f08c379a0000000000000000000000000000000000000000000000000000000008152600401611cd190614894565b60405180910390fd5b611ce684848484612950565b50505050565b6000611cf782612160565b611d36576040517f08c379a0000000000000000000000000000000000000000000000000000000008152600401611d2d90614594565b60405180910390fd5b600f600083815260200190815260200160002060000160009054906101000a900473ffffffffffffffffffffffffffffffffffffffff169050919050565b6060611d7f82612160565b611dbe576040517f08c379a0000000000000000000000000000000000000000000000000000000008152600401611db590614834565b60405180910390fd5b601160008381526020019081526020016000208054611ddc90614bb0565b80601f0160208091040260200160405190810160405280929190818152602001828054611e0890614bb0565b8015611e555780601f10611e2a57610100808354040283529160200191611e55565b820191906000526020600020905b815481529060010190602001808311611e3857829003601f168201915b50505050509050919050565b6000611e7e600160008481526020019081526020016000206129ac565b9050919050565b6000611e90846129c1565b90508282601160008481526020019081526020016000209190611eb4929190613a25565b5050505050565b7f9f2df0fed2c77648de5860a4cc508cd0818c85b8b8a1ab4ceeef8d981c8956a681565b611ee98282612a61565b611f0e81600160008581526020019081526020016000206126b090919063ffffffff16565b505050565b6000611f1e82612160565b611f5d576040517f08c379a0000000000000000000000000000000000000000000000000000000008152600401611f5490614594565b60405180910390fd5b60106000838152602001908152602001600020600001549050919050565b7f65d7a28e3265b37a6474929f336521b332c1681b933f6cb9f3376673440d862a81565b6000600760008473ffffffffffffffffffffffffffffffffffffffff1673ffffffffffffffffffffffffffffffffffffffff16815260200190815260200160002060008373ffffffffffffffffffffffffffffffffffffffff1673ffffffffffffffffffffffffffffffffffffffff16815260200190815260200160002060009054906101000a900460ff16905092915050565b600061203e82612160565b61207d576040517f08c379a000000000000000000000000000000000000000000000000000000000815260040161207490614594565b60405180910390fd5b6010600083815260200190815260200160002060010160009054906101000a900460ff169050919050565b6120b28282612ac7565b5050565b60006120de836000018373ffffffffffffffffffffffffffffffffffffffff1660001b612ba7565b905092915050565b60007f780e9d63000000000000000000000000000000000000000000000000000000007bffffffffffffffffffffffffffffffffffffffffffffffffffffffff1916827bffffffffffffffffffffffffffffffffffffffffffffffffffffffff19161480612159575061215882612c17565b5b9050919050565b60008073ffffffffffffffffffffffffffffffffffffffff166004600084815260200190815260200160002060009054906101000a900473ffffffffffffffffffffffffffffffffffffffff1673ffffffffffffffffffffffffffffffffffffffff1614159050919050565b600033905090565b816006600083815260200190815260200160002060006101000a81548173ffffffffffffffffffffffffffffffffffffffff021916908373ffffffffffffffffffffffffffffffffffffffff160217905550808273ffffffffffffffffffffffffffffffffffffffff1661224783611394565b73ffffffffffffffffffffffffffffffffffffffff167f8c5be1e5ebec7d5bd14f71427d1e84f3dd0314c0f7b2291e5b200ac8c7c3b92560405160405180910390a45050565b600061229882612160565b6122d7576040517f08c379a00000000000000000000000000000000000000000000000000000000081526004016122ce90614714565b60405180910390fd5b60006122e283611394565b90508073ffffffffffffffffffffffffffffffffffffffff168473ffffffffffffffffffffffffffffffffffffffff16148061235157508373ffffffffffffffffffffffffffffffffffffffff1661233984610ace565b73ffffffffffffffffffffffffffffffffffffffff16145b8061236257506123618185611f9f565b5b91505092915050565b8273ffffffffffffffffffffffffffffffffffffffff1661238b82611394565b73ffffffffffffffffffffffffffffffffffffffff16146123e1576040517f08c379a00000000000000000000000000000000000000000000000000000000081526004016123d890614814565b60405180910390fd5b600073ffffffffffffffffffffffffffffffffffffffff168273ffffffffffffffffffffffffffffffffffffffff161415612451576040517f08c379a0000000000000000000000000000000000000000000000000000000008152600401612448906146d4565b60405180910390fd5b61245c838383612cf9565b6124676000826121d4565b6001600560008573ffffffffffffffffffffffffffffffffffffffff1673ffffffffffffffffffffffffffffffffffffffff16815260200190815260200160002060008282546124b79190614abc565b925050819055506001600560008473ffffffffffffffffffffffffffffffffffffffff1673ffffffffffffffffffffffffffffffffffffffff168152602001908152602001600020600082825461250e9190614a66565b92505081905550816004600083815260200190815260200160002060006101000a81548173ffffffffffffffffffffffffffffffffffffffff021916908373ffffffffffffffffffffffffffffffffffffffff160217905550808273ffffffffffffffffffffffffffffffffffffffff168473ffffffffffffffffffffffffffffffffffffffff167fddf252ad1be2c89b69c2b068fc378daa952ba7f163c4a11628f55a4df523b3ef60405160405180910390a4505050565b6125e06125d383610cd8565b6125db6121cc565b611753565b61261f576040517f08c379a000000000000000000000000000000000000000000000000000000000815260040161261690614614565b60405180910390fd5b6126298282612ac7565b5050565b6126356121cc565b73ffffffffffffffffffffffffffffffffffffffff168173ffffffffffffffffffffffffffffffffffffffff16146126a2576040517f08c379a000000000000000000000000000000000000000000000000000000000815260040161269990614974565b60405180910390fd5b6126ac8282612d09565b5050565b60006126d8836000018373ffffffffffffffffffffffffffffffffffffffff1660001b612dea565b905092915050565b6126e861137d565b612727576040517f08c379a000000000000000000000000000000000000000000000000000000000815260040161271e90614634565b60405180910390fd5b6000600c60006101000a81548160ff0219169083151502179055507f5db9ee0a495bf2e6ff9c91a7834c1ba4fdd244a5e8aa4e537bd38aeae4b073aa61276b6121cc565b60405161277891906144ac565b60405180910390a1565b600061278d82611394565b905061279b81600084612cf9565b6127a66000836121d4565b6001600560008373ffffffffffffffffffffffffffffffffffffffff1673ffffffffffffffffffffffffffffffffffffffff16815260200190815260200160002060008282546127f69190614abc565b925050819055506004600083815260200190815260200160002060006101000a81549073ffffffffffffffffffffffffffffffffffffffff021916905581600073ffffffffffffffffffffffffffffffffffffffff168273ffffffffffffffffffffffffffffffffffffffff167fddf252ad1be2c89b69c2b068fc378daa952ba7f163c4a11628f55a4df523b3ef60405160405180910390a45050565b61289b61137d565b156128db576040517f08c379a00000000000000000000000000000000000000000000000000000000081526004016128d290614754565b60405180910390fd5b6001600c60006101000a81548160ff0219169083151502179055507f62e78cea01bee320cd4e420270b5ea74000d11b0c9f74754ebdbfc544b05a25861291f6121cc565b60405161292c91906144ac565b60405180910390a1565b60006129458360000183612f74565b60001c905092915050565b61295b84848461236b565b6129678484848461300e565b6129a6576040517f08c379a000000000000000000000000000000000000000000000000000000000815260040161299d90614674565b60405180910390fd5b50505050565b60006129ba826000016131a5565b9050919050565b60006129f47f9f2df0fed2c77648de5860a4cc508cd0818c85b8b8a1ab4ceeef8d981c8956a66129ef6121cc565b611753565b612a33576040517f08c379a0000000000000000000000000000000000000000000000000000000008152600401612a2a90614914565b60405180910390fd5b612a4682612a41600d6131b6565b6131c4565b612a50600d613392565b612a5a600d6131b6565b9050919050565b612a7a612a6d83610cd8565b612a756121cc565b611753565b612ab9576040517f08c379a0000000000000000000000000000000000000000000000000000000008152600401612ab090614734565b60405180910390fd5b612ac38282612d09565b5050565b612ad18282611753565b612ba357600160008084815260200190815260200160002060000160008373ffffffffffffffffffffffffffffffffffffffff1673ffffffffffffffffffffffffffffffffffffffff16815260200190815260200160002060006101000a81548160ff021916908315150217905550612b486121cc565b73ffffffffffffffffffffffffffffffffffffffff168173ffffffffffffffffffffffffffffffffffffffff16837f2f8788117e7eff1d82e926ec794901d17c78024a50270940304540a733656f0d60405160405180910390a45b5050565b6000612bb383836133a8565b612c0c578260000182908060018154018082558091505060019003906000526020600020016000909190919091505582600001805490508360010160008481526020019081526020016000208190555060019050612c11565b600090505b92915050565b60007f80ac58cd000000000000000000000000000000000000000000000000000000007bffffffffffffffffffffffffffffffffffffffffffffffffffffffff1916827bffffffffffffffffffffffffffffffffffffffffffffffffffffffff19161480612ce257507f5b5e139f000000000000000000000000000000000000000000000000000000007bffffffffffffffffffffffffffffffffffffffffffffffffffffffff1916827bffffffffffffffffffffffffffffffffffffffffffffffffffffffff1916145b80612cf25750612cf1826133cb565b5b9050919050565b612d04838383613445565b505050565b612d138282611753565b15612de657600080600084815260200190815260200160002060000160008373ffffffffffffffffffffffffffffffffffffffff1673ffffffffffffffffffffffffffffffffffffffff16815260200190815260200160002060006101000a81548160ff021916908315150217905550612d8b6121cc565b73ffffffffffffffffffffffffffffffffffffffff168173ffffffffffffffffffffffffffffffffffffffff16837ff6391f5c32d9c69d2a47ea670b442974b53935d1edc7fd64eb21e047a839171b60405160405180910390a45b5050565b60008083600101600084815260200190815260200160002054905060008114612f68576000600182612e1c9190614abc565b9050600060018660000180549050612e349190614abc565b90506000866000018281548110612e74577f4e487b7100000000000000000000000000000000000000000000000000000000600052603260045260246000fd5b9060005260206000200154905080876000018481548110612ebe577f4e487b7100000000000000000000000000000000000000000000000000000000600052603260045260246000fd5b9060005260206000200181905550600183612ed99190614a66565b8760010160008381526020019081526020016000208190555086600001805480612f2c577f4e487b7100000000000000000000000000000000000000000000000000000000600052603160045260246000fd5b60019003818190600052602060002001600090559055866001016000878152602001908152602001600020600090556001945050505050612f6e565b60009150505b92915050565b600081836000018054905011612fbf576040517f08c379a0000000000000000000000000000000000000000000000000000000008152600401612fb6906145b4565b60405180910390fd5b826000018281548110612ffb577f4e487b7100000000000000000000000000000000000000000000000000000000600052603260045260246000fd5b9060005260206000200154905092915050565b600061302f8473ffffffffffffffffffffffffffffffffffffffff1661349d565b15613198578373ffffffffffffffffffffffffffffffffffffffff1663150b7a026130586121cc565b8786866040518563ffffffff1660e01b815260040161307a94939291906144c7565b602060405180830381600087803b15801561309457600080fd5b505af19250505080156130c557506040513d601f19601f820116820180604052508101906130c29190613ec1565b60015b613148573d80600081146130f5576040519150601f19603f3d011682016040523d82523d6000602084013e6130fa565b606091505b50600081511415613140576040517f08c379a000000000000000000000000000000000000000000000000000000000815260040161313790614674565b60405180910390fd5b805181602001fd5b63150b7a0260e01b7bffffffffffffffffffffffffffffffffffffffffffffffffffffffff1916817bffffffffffffffffffffffffffffffffffffffffffffffffffffffff19161491505061319d565b600190505b949350505050565b600081600001805490509050919050565b600081600001549050919050565b600073ffffffffffffffffffffffffffffffffffffffff168273ffffffffffffffffffffffffffffffffffffffff161415613234576040517f08c379a000000000000000000000000000000000000000000000000000000000815260040161322b906147d4565b60405180910390fd5b61323d81612160565b1561327d576040517f08c379a000000000000000000000000000000000000000000000000000000000815260040161327490614694565b60405180910390fd5b61328960008383612cf9565b6001600560008473ffffffffffffffffffffffffffffffffffffffff1673ffffffffffffffffffffffffffffffffffffffff16815260200190815260200160002060008282546132d99190614a66565b92505081905550816004600083815260200190815260200160002060006101000a81548173ffffffffffffffffffffffffffffffffffffffff021916908373ffffffffffffffffffffffffffffffffffffffff160217905550808273ffffffffffffffffffffffffffffffffffffffff16600073ffffffffffffffffffffffffffffffffffffffff167fddf252ad1be2c89b69c2b068fc378daa952ba7f163c4a11628f55a4df523b3ef60405160405180910390a45050565b6001816000016000828254019250508190555050565b600080836001016000848152602001908152602001600020541415905092915050565b60007f5a05180f000000000000000000000000000000000000000000000000000000007bffffffffffffffffffffffffffffffffffffffffffffffffffffffff1916827bffffffffffffffffffffffffffffffffffffffffffffffffffffffff1916148061343e575061343d826134b0565b5b9050919050565b61345083838361352a565b61345861137d565b15613498576040517f08c379a000000000000000000000000000000000000000000000000000000000815260040161348f906145f4565b60405180910390fd5b505050565b600080823b905060008111915050919050565b60007f7965db0b000000000000000000000000000000000000000000000000000000007bffffffffffffffffffffffffffffffffffffffffffffffffffffffff1916827bffffffffffffffffffffffffffffffffffffffffffffffffffffffff1916148061352357506135228261363e565b5b9050919050565b6135358383836136a8565b600073ffffffffffffffffffffffffffffffffffffffff168373ffffffffffffffffffffffffffffffffffffffff16141561357857613573816136ad565b6135b7565b8173ffffffffffffffffffffffffffffffffffffffff168373ffffffffffffffffffffffffffffffffffffffff16146135b6576135b583826136f6565b5b5b600073ffffffffffffffffffffffffffffffffffffffff168273ffffffffffffffffffffffffffffffffffffffff1614156135fa576135f581613863565b613639565b8273ffffffffffffffffffffffffffffffffffffffff168273ffffffffffffffffffffffffffffffffffffffff16146136385761363782826139a6565b5b5b505050565b60007f01ffc9a7000000000000000000000000000000000000000000000000000000007bffffffffffffffffffffffffffffffffffffffffffffffffffffffff1916827bffffffffffffffffffffffffffffffffffffffffffffffffffffffff1916149050919050565b505050565b600a80549050600b600083815260200190815260200160002081905550600a81908060018154018082558091505060019003906000526020600020016000909190919091505550565b6000600161370384611446565b61370d9190614abc565b90506000600960008481526020019081526020016000205490508181146137f2576000600860008673ffffffffffffffffffffffffffffffffffffffff1673ffffffffffffffffffffffffffffffffffffffff168152602001908152602001600020600084815260200190815260200160002054905080600860008773ffffffffffffffffffffffffffffffffffffffff1673ffffffffffffffffffffffffffffffffffffffff168152602001908152602001600020600084815260200190815260200160002081905550816009600083815260200190815260200160002081905550505b6009600084815260200190815260200160002060009055600860008573ffffffffffffffffffffffffffffffffffffffff1673ffffffffffffffffffffffffffffffffffffffff16815260200190815260200160002060008381526020019081526020016000206000905550505050565b60006001600a805490506138779190614abc565b90506000600b60008481526020019081526020016000205490506000600a83815481106138cd577f4e487b7100000000000000000000000000000000000000000000000000000000600052603260045260246000fd5b9060005260206000200154905080600a8381548110613915577f4e487b7100000000000000000000000000000000000000000000000000000000600052603260045260246000fd5b906000526020600020018190555081600b600083815260200190815260200160002081905550600b600085815260200190815260200160002060009055600a80548061398a577f4e487b7100000000000000000000000000000000000000000000000000000000600052603160045260246000fd5b6001900381819060005260206000200160009055905550505050565b60006139b183611446565b905081600860008573ffffffffffffffffffffffffffffffffffffffff1673ffffffffffffffffffffffffffffffffffffffff168152602001908152602001600020600083815260200190815260200160002081905550806009600084815260200190815260200160002081905550505050565b828054613a3190614bb0565b90600052602060002090601f016020900481019282613a535760008555613a9a565b82601f10613a6c57803560ff1916838001178555613a9a565b82800160010185558215613a9a579182015b82811115613a99578235825591602001919060010190613a7e565b5b509050613aa79190613aab565b5090565b5b80821115613ac4576000816000905550600101613aac565b5090565b6000613adb613ad6846149fd565b6149d8565b905082815260208101848484011115613af357600080fd5b613afe848285614b6e565b509392505050565b600081359050613b15816155d3565b92915050565b600081359050613b2a816155ea565b92915050565b600081359050613b3f81615601565b92915050565b600081359050613b5481615618565b92915050565b600081519050613b6981615618565b92915050565b600082601f830112613b8057600080fd5b8135613b90848260208601613ac8565b91505092915050565b60008083601f840112613bab57600080fd5b8235905067ffffffffffffffff811115613bc457600080fd5b602083019150836001820283011115613bdc57600080fd5b9250929050565b600081359050613bf28161562f565b92915050565b600060208284031215613c0a57600080fd5b6000613c1884828501613b06565b91505092915050565b60008060408385031215613c3457600080fd5b6000613c4285828601613b06565b9250506020613c5385828601613b06565b9150509250929050565b600080600060608486031215613c7257600080fd5b6000613c8086828701613b06565b9350506020613c9186828701613b06565b9250506040613ca286828701613be3565b9150509250925092565b60008060008060808587031215613cc257600080fd5b6000613cd087828801613b06565b9450506020613ce187828801613b06565b9350506040613cf287828801613be3565b925050606085013567ffffffffffffffff811115613d0f57600080fd5b613d1b87828801613b6f565b91505092959194509250565b60008060408385031215613d3a57600080fd5b6000613d4885828601613b06565b9250506020613d5985828601613b1b565b9150509250929050565b600080600060408486031215613d7857600080fd5b6000613d8686828701613b06565b935050602084013567ffffffffffffffff811115613da357600080fd5b613daf86828701613b99565b92509250509250925092565b60008060408385031215613dce57600080fd5b6000613ddc85828601613b06565b9250506020613ded85828601613be3565b9150509250929050565b600060208284031215613e0957600080fd5b6000613e1784828501613b30565b91505092915050565b60008060408385031215613e3357600080fd5b6000613e4185828601613b30565b9250506020613e5285828601613b06565b9150509250929050565b60008060408385031215613e6f57600080fd5b6000613e7d85828601613b30565b9250506020613e8e85828601613be3565b9150509250929050565b600060208284031215613eaa57600080fd5b6000613eb884828501613b45565b91505092915050565b600060208284031215613ed357600080fd5b6000613ee184828501613b5a565b91505092915050565b600060208284031215613efc57600080fd5b6000613f0a84828501613be3565b91505092915050565b60008060408385031215613f2657600080fd5b6000613f3485828601613be3565b9250506020613f4585828601613be3565b9150509250929050565b600080600060608486031215613f6457600080fd5b6000613f7286828701613be3565b9350506020613f8386828701613be3565b9250506040613f9486828701613b1b565b9150509250925092565b613fa781614af0565b82525050565b613fb681614b02565b82525050565b613fc581614b0e565b82525050565b6000613fd682614a2e565b613fe08185614a44565b9350613ff0818560208601614b7d565b613ff981614ca0565b840191505092915050565b600061400f82614a39565b6140198185614a55565b9350614029818560208601614b7d565b61403281614ca0565b840191505092915050565b600061404a602283614a55565b915061405582614cb1565b604082019050919050565b600061406d602283614a55565b915061407882614d00565b604082019050919050565b6000614090603483614a55565b915061409b82614d4f565b604082019050919050565b60006140b3602b83614a55565b91506140be82614d9e565b604082019050919050565b60006140d6602f83614a55565b91506140e182614ded565b604082019050919050565b60006140f9601483614a55565b915061410482614e3c565b602082019050919050565b600061411c602b83614a55565b915061412782614e65565b604082019050919050565b600061413f603283614a55565b915061414a82614eb4565b604082019050919050565b6000614162601c83614a55565b915061416d82614f03565b602082019050919050565b6000614185603e83614a55565b915061419082614f2c565b604082019050919050565b60006141a8602483614a55565b91506141b382614f7b565b604082019050919050565b60006141cb601983614a55565b91506141d682614fca565b602082019050919050565b60006141ee602c83614a55565b91506141f982614ff3565b604082019050919050565b6000614211603083614a55565b915061421c82615042565b604082019050919050565b6000614234601083614a55565b915061423f82615091565b602082019050919050565b6000614257603883614a55565b9150614262826150ba565b604082019050919050565b600061427a602a83614a55565b915061428582615109565b604082019050919050565b600061429d602983614a55565b91506142a882615158565b604082019050919050565b60006142c0602083614a55565b91506142cb826151a7565b602082019050919050565b60006142e3602c83614a55565b91506142ee826151d0565b604082019050919050565b6000614306602983614a55565b91506143118261521f565b604082019050919050565b6000614329602f83614a55565b91506143348261526e565b604082019050919050565b600061434c602183614a55565b9150614357826152bd565b604082019050919050565b600061436f602883614a55565b915061437a8261530c565b604082019050919050565b6000614392603183614a55565b915061439d8261535b565b604082019050919050565b60006143b5602c83614a55565b91506143c0826153aa565b604082019050919050565b60006143d8603983614a55565b91506143e3826153f9565b604082019050919050565b60006143fb602c83614a55565b915061440682615448565b604082019050919050565b600061441e603d83614a55565b915061442982615497565b604082019050919050565b6000614441603083614a55565b915061444c826154e6565b604082019050919050565b6000614464604083614a55565b915061446f82615535565b604082019050919050565b6000614487602f83614a55565b915061449282615584565b604082019050919050565b6144a681614b64565b82525050565b60006020820190506144c16000830184613f9e565b92915050565b60006080820190506144dc6000830187613f9e565b6144e96020830186613f9e565b6144f6604083018561449d565b81810360608301526145088184613fcb565b905095945050505050565b60006040820190506145286000830185613f9e565b614535602083018461449d565b9392505050565b60006020820190506145516000830184613fad565b92915050565b600060208201905061456c6000830184613fbc565b92915050565b6000602082019050818103600083015261458c8184614004565b905092915050565b600060208201905081810360008301526145ad8161403d565b9050919050565b600060208201905081810360008301526145cd81614060565b9050919050565b600060208201905081810360008301526145ed81614083565b9050919050565b6000602082019050818103600083015261460d816140a6565b9050919050565b6000602082019050818103600083015261462d816140c9565b9050919050565b6000602082019050818103600083015261464d816140ec565b9050919050565b6000602082019050818103600083015261466d8161410f565b9050919050565b6000602082019050818103600083015261468d81614132565b9050919050565b600060208201905081810360008301526146ad81614155565b9050919050565b600060208201905081810360008301526146cd81614178565b9050919050565b600060208201905081810360008301526146ed8161419b565b9050919050565b6000602082019050818103600083015261470d816141be565b9050919050565b6000602082019050818103600083015261472d816141e1565b9050919050565b6000602082019050818103600083015261474d81614204565b9050919050565b6000602082019050818103600083015261476d81614227565b9050919050565b6000602082019050818103600083015261478d8161424a565b9050919050565b600060208201905081810360008301526147ad8161426d565b9050919050565b600060208201905081810360008301526147cd81614290565b9050919050565b600060208201905081810360008301526147ed816142b3565b9050919050565b6000602082019050818103600083015261480d816142d6565b9050919050565b6000602082019050818103600083015261482d816142f9565b9050919050565b6000602082019050818103600083015261484d8161431c565b9050919050565b6000602082019050818103600083015261486d8161433f565b9050919050565b6000602082019050818103600083015261488d81614362565b9050919050565b600060208201905081810360008301526148ad81614385565b9050919050565b600060208201905081810360008301526148cd816143a8565b9050919050565b600060208201905081810360008301526148ed816143cb565b9050919050565b6000602082019050818103600083015261490d816143ee565b9050919050565b6000602082019050818103600083015261492d81614411565b9050919050565b6000602082019050818103600083015261494d81614434565b9050919050565b6000602082019050818103600083015261496d81614457565b9050919050565b6000602082019050818103600083015261498d8161447a565b9050919050565b60006020820190506149a9600083018461449d565b92915050565b60006040820190506149c4600083018561449d565b6149d16020830184613fad565b9392505050565b60006149e26149f3565b90506149ee8282614be2565b919050565b6000604051905090565b600067ffffffffffffffff821115614a1857614a17614c71565b5b614a2182614ca0565b9050602081019050919050565b600081519050919050565b600081519050919050565b600082825260208201905092915050565b600082825260208201905092915050565b6000614a7182614b64565b9150614a7c83614b64565b9250827fffffffffffffffffffffffffffffffffffffffffffffffffffffffffffffffff03821115614ab157614ab0614c13565b5b828201905092915050565b6000614ac782614b64565b9150614ad283614b64565b925082821015614ae557614ae4614c13565b5b828203905092915050565b6000614afb82614b44565b9050919050565b60008115159050919050565b6000819050919050565b60007fffffffff0000000000000000000000000000000000000000000000000000000082169050919050565b600073ffffffffffffffffffffffffffffffffffffffff82169050919050565b6000819050919050565b82818337600083830152505050565b60005b83811015614b9b578082015181840152602081019050614b80565b83811115614baa576000848401525b50505050565b60006002820490506001821680614bc857607f821691505b60208210811415614bdc57614bdb614c42565b5b50919050565b614beb82614ca0565b810181811067ffffffffffffffff82111715614c0a57614c09614c71565b5b80604052505050565b7f4e487b7100000000000000000000000000000000000000000000000000000000600052601160045260246000fd5b7f4e487b7100000000000000000000000000000000000000000000000000000000600052602260045260246000fd5b7f4e487b7100000000000000000000000000000000000000000000000000000000600052604160045260246000fd5b6000601f19601f8301169050919050565b7f4552433732313a20746f6b656e20686173206e6f74206265656e206d696e746560008201527f642e000000000000000000000000000000000000000000000000000000000000602082015250565b7f456e756d657261626c655365743a20696e646578206f7574206f6620626f756e60008201527f6473000000000000000000000000000000000000000000000000000000000000602082015250565b7f546865206e6577206269642076616c7565206d7573742065786365656420746860008201527f652063757272656e74206269642076616c75652e000000000000000000000000602082015250565b7f4552433732315061757361626c653a20746f6b656e207472616e73666572207760008201527f68696c6520706175736564000000000000000000000000000000000000000000602082015250565b7f416363657373436f6e74726f6c3a2073656e646572206d75737420626520616e60008201527f2061646d696e20746f206772616e740000000000000000000000000000000000602082015250565b7f5061757361626c653a206e6f7420706175736564000000000000000000000000600082015250565b7f455243373231456e756d657261626c653a206f776e657220696e646578206f7560008201527f74206f6620626f756e6473000000000000000000000000000000000000000000602082015250565b7f4552433732313a207472616e7366657220746f206e6f6e20455243373231526560008201527f63656976657220696d706c656d656e7465720000000000000000000000000000602082015250565b7f4552433732313a20746f6b656e20616c7265616479206d696e74656400000000600082015250565b7f4552433732315072657365744d696e7465725061757365724175746f49643a2060008201527f6d75737420686176652070617573657220726f6c6520746f2070617573650000602082015250565b7f4552433732313a207472616e7366657220746f20746865207a65726f2061646460008201527f7265737300000000000000000000000000000000000000000000000000000000602082015250565b7f4552433732313a20617070726f766520746f2063616c6c657200000000000000600082015250565b7f4552433732313a206f70657261746f7220717565727920666f72206e6f6e657860008201527f697374656e7420746f6b656e0000000000000000000000000000000000000000602082015250565b7f416363657373436f6e74726f6c3a2073656e646572206d75737420626520616e60008201527f2061646d696e20746f207265766f6b6500000000000000000000000000000000602082015250565b7f5061757361626c653a2070617573656400000000000000000000000000000000600082015250565b7f4552433732313a20617070726f76652063616c6c6572206973206e6f74206f7760008201527f6e6572206e6f7220617070726f76656420666f7220616c6c0000000000000000602082015250565b7f4552433732313a2062616c616e636520717565727920666f7220746865207a6560008201527f726f206164647265737300000000000000000000000000000000000000000000602082015250565b7f4552433732313a206f776e657220717565727920666f72206e6f6e657869737460008201527f656e7420746f6b656e0000000000000000000000000000000000000000000000602082015250565b7f4552433732313a206d696e7420746f20746865207a65726f2061646472657373600082015250565b7f4552433732313a20617070726f76656420717565727920666f72206e6f6e657860008201527f697374656e7420746f6b656e0000000000000000000000000000000000000000602082015250565b7f4552433732313a207472616e73666572206f6620746f6b656e2074686174206960008201527f73206e6f74206f776e0000000000000000000000000000000000000000000000602082015250565b7f4552433732314d657461646174613a2055524920717565727920666f72206e6f60008201527f6e6578697374656e7420746f6b656e0000000000000000000000000000000000602082015250565b7f4552433732313a20617070726f76616c20746f2063757272656e74206f776e6560008201527f7200000000000000000000000000000000000000000000000000000000000000602082015250565b7f4f6e6c792074686520746f6b656e206f776e65722063616e206163636570742060008201527f746865206269642e000000000000000000000000000000000000000000000000602082015250565b7f4552433732313a207472616e736665722063616c6c6572206973206e6f74206f60008201527f776e6572206e6f7220617070726f766564000000000000000000000000000000602082015250565b7f455243373231456e756d657261626c653a20676c6f62616c20696e646578206f60008201527f7574206f6620626f756e64730000000000000000000000000000000000000000602082015250565b7f506c65617365207761697420666f7220736f6d656f6e6520746f206d616b652060008201527f74686520626964206265666f726520616363657074696e672e00000000000000602082015250565b7f4d757374206c6f636b207570207468652062696420616d6f756e7420696e207460008201527f686520636f6e74726163742e0000000000000000000000000000000000000000602082015250565b7f4552433732315072657365744d696e7465725061757365724175746f49643a2060008201527f6d7573742068617665206d696e74657220726f6c6520746f206d696e74000000602082015250565b7f4552433732314275726e61626c653a2063616c6c6572206973206e6f74206f7760008201527f6e6572206e6f7220617070726f76656400000000000000000000000000000000602082015250565b7f4552433732315072657365744d696e7465725061757365724175746f49643a2060008201527f6d75737420686176652070617573657220726f6c6520746f20756e7061757365602082015250565b7f416363657373436f6e74726f6c3a2063616e206f6e6c792072656e6f756e636560008201527f20726f6c657320666f722073656c660000000000000000000000000000000000602082015250565b6155dc81614af0565b81146155e757600080fd5b50565b6155f381614b02565b81146155fe57600080fd5b50565b61560a81614b0e565b811461561557600080fd5b50565b61562181614b18565b811461562c57600080fd5b50565b61563881614b64565b811461564357600080fd5b5056fea2646970667358221220ab1de5d4eb35002273ec53193a2fd1985e3ee311ebec265df96a51bf28a2f18864736f6c63430008030033",
  "linkReferences": {},
  "deployedLinkReferences": {}
}