{
  "_format": "hh-sol-artifact-1",
  "contractName": "NFT",
  "sourceName": "contracts/NFT.sol",
  "abi": [
    {
      "inputs": [
        {
          "internalType": "string",
          "name": "name_",
          "type": "string"
        },
        {
          "internalType": "string",
          "name": "symbol_",
          "type": "string"
        }
      ],
      "stateMutability": "nonpayable",
      "type": "constructor"
    },
    {
      "anonymous": false,
      "inputs": [
        {
          "indexed": true,
          "internalType": "address",
          "name": "owner",
          "type": "address"
        },
        {
          "indexed": true,
          "internalType": "address",
          "name": "approved",
          "type": "address"
        },
        {
          "indexed": true,
          "internalType": "uint256",
          "name": "tokenId",
          "type": "uint256"
        }
      ],
      "name": "Approval",
      "type": "event"
    },
    {
      "anonymous": false,
      "inputs": [
        {
          "indexed": true,
          "internalType": "address",
          "name": "owner",
          "type": "address"
        },
        {
          "indexed": true,
          "internalType": "address",
          "name": "operator",
          "type": "address"
        },
        {
          "indexed": false,
          "internalType": "bool",
          "name": "approved",
          "type": "bool"
        }
      ],
      "name": "ApprovalForAll",
      "type": "event"
    },
    {
      "anonymous": false,
      "inputs": [
        {
          "indexed": true,
          "internalType": "uint256",
          "name": "tokenID",
          "type": "uint256"
        },
        {
          "indexed": true,
          "internalType": "address",
          "name": "owner",
          "type": "address"
        },
        {
          "indexed": true,
          "internalType": "address",
          "name": "bidder",
          "type": "address"
        },
        {
          "indexed": false,
          "internalType": "uint256",
          "name": "bidValue",
          "type": "uint256"
        }
      ],
      "name": "BidAccepted",
      "type": "event"
    },
    {
      "anonymous": false,
      "inputs": [
        {
          "indexed": true,
          "internalType": "uint256",
          "name": "tokenID",
          "type": "uint256"
        },
        {
          "indexed": true,
          "internalType": "address",
          "name": "bidder",
          "type": "address"
        },
        {
          "indexed": false,
          "internalType": "uint256",
          "name": "bidValue",
          "type": "uint256"
        }
      ],
      "name": "NewBid",
      "type": "event"
    },
    {
      "anonymous": false,
      "inputs": [
        {
          "indexed": false,
          "internalType": "address",
          "name": "account",
          "type": "address"
        }
      ],
      "name": "Paused",
      "type": "event"
    },
    {
      "anonymous": false,
      "inputs": [
        {
          "indexed": true,
          "internalType": "bytes32",
          "name": "role",
          "type": "bytes32"
        },
        {
          "indexed": true,
          "internalType": "bytes32",
          "name": "previousAdminRole",
          "type": "bytes32"
        },
        {
          "indexed": true,
          "internalType": "bytes32",
          "name": "newAdminRole",
          "type": "bytes32"
        }
      ],
      "name": "RoleAdminChanged",
      "type": "event"
    },
    {
      "anonymous": false,
      "inputs": [
        {
          "indexed": true,
          "internalType": "bytes32",
          "name": "role",
          "type": "bytes32"
        },
        {
          "indexed": true,
          "internalType": "address",
          "name": "account",
          "type": "address"
        },
        {
          "indexed": true,
          "internalType": "address",
          "name": "sender",
          "type": "address"
        }
      ],
      "name": "RoleGranted",
      "type": "event"
    },
    {
      "anonymous": false,
      "inputs": [
        {
          "indexed": true,
          "internalType": "bytes32",
          "name": "role",
          "type": "bytes32"
        },
        {
          "indexed": true,
          "internalType": "address",
          "name": "account",
          "type": "address"
        },
        {
          "indexed": true,
          "internalType": "address",
          "name": "sender",
          "type": "address"
        }
      ],
      "name": "RoleRevoked",
      "type": "event"
    },
    {
      "anonymous": false,
      "inputs": [
        {
          "indexed": true,
          "internalType": "address",
          "name": "from",
          "type": "address"
        },
        {
          "indexed": true,
          "internalType": "address",
          "name": "to",
          "type": "address"
        },
        {
          "indexed": true,
          "internalType": "uint256",
          "name": "tokenId",
          "type": "uint256"
        }
      ],
      "name": "Transfer",
      "type": "event"
    },
    {
      "anonymous": false,
      "inputs": [
        {
          "indexed": false,
          "internalType": "address",
          "name": "account",
          "type": "address"
        }
      ],
      "name": "Unpaused",
      "type": "event"
    },
    {
      "inputs": [],
      "name": "DEFAULT_ADMIN_ROLE",
      "outputs": [
        {
          "internalType": "bytes32",
          "name": "",
          "type": "bytes32"
        }
      ],
      "stateMutability": "view",
      "type": "function"
    },
    {
      "inputs": [],
      "name": "MINTER_ROLE",
      "outputs": [
        {
          "internalType": "bytes32",
          "name": "",
          "type": "bytes32"
        }
      ],
      "stateMutability": "view",
      "type": "function"
    },
    {
      "inputs": [],
      "name": "PAUSER_ROLE",
      "outputs": [
        {
          "internalType": "bytes32",
          "name": "",
          "type": "bytes32"
        }
      ],
      "stateMutability": "view",
      "type": "function"
    },
    {
      "inputs": [
        {
          "internalType": "uint256",
          "name": "",
          "type": "uint256"
        }
      ],
      "name": "URI",
      "outputs": [
        {
          "internalType": "string",
          "name": "",
          "type": "string"
        }
      ],
      "stateMutability": "view",
      "type": "function"
    },
    {
      "inputs": [
        {
          "internalType": "uint256",
          "name": "_tokenId",
          "type": "uint256"
        }
      ],
      "name": "acceptBid",
      "outputs": [],
      "stateMutability": "payable",
      "type": "function"
    },
    {
      "inputs": [
        {
          "internalType": "address",
          "name": "to",
          "type": "address"
        },
        {
          "internalType": "uint256",
          "name": "tokenId",
          "type": "uint256"
        }
      ],
      "name": "approve",
      "outputs": [],
      "stateMutability": "nonpayable",
      "type": "function"
    },
    {
      "inputs": [
        {
          "internalType": "address",
          "name": "owner",
          "type": "address"
        }
      ],
      "name": "balanceOf",
      "outputs": [
        {
          "internalType": "uint256",
          "name": "",
          "type": "uint256"
        }
      ],
      "stateMutability": "view",
      "type": "function"
    },
    {
      "inputs": [
        {
          "internalType": "uint256",
          "name": "",
          "type": "uint256"
        }
      ],
      "name": "bids",
      "outputs": [
        {
          "internalType": "address",
          "name": "bidder",
          "type": "address"
        },
        {
          "internalType": "uint256",
          "name": "bidValue",
          "type": "uint256"
        }
      ],
      "stateMutability": "view",
      "type": "function"
    },
    {
      "inputs": [
        {
          "internalType": "uint256",
          "name": "tokenId",
          "type": "uint256"
        }
      ],
      "name": "burn",
      "outputs": [],
      "stateMutability": "nonpayable",
      "type": "function"
    },
    {
      "inputs": [
        {
          "internalType": "uint256",
          "name": "tokenId",
          "type": "uint256"
        }
      ],
      "name": "getApproved",
      "outputs": [
        {
          "internalType": "address",
          "name": "",
          "type": "address"
        }
      ],
      "stateMutability": "view",
      "type": "function"
    },
    {
      "inputs": [
        {
          "internalType": "uint256",
          "name": "_tokenId",
          "type": "uint256"
        }
      ],
      "name": "getCurrentBidValue",
      "outputs": [
        {
          "internalType": "uint256",
          "name": "",
          "type": "uint256"
        }
      ],
      "stateMutability": "view",
      "type": "function"
    },
    {
      "inputs": [
        {
          "internalType": "uint256",
          "name": "_tokenId",
          "type": "uint256"
        }
      ],
      "name": "getCurrentBidder",
      "outputs": [
        {
          "internalType": "address",
          "name": "",
          "type": "address"
        }
      ],
      "stateMutability": "view",
      "type": "function"
    },
    {
      "inputs": [
        {
          "internalType": "bytes32",
          "name": "role",
          "type": "bytes32"
        }
      ],
      "name": "getRoleAdmin",
      "outputs": [
        {
          "internalType": "bytes32",
          "name": "",
          "type": "bytes32"
        }
      ],
      "stateMutability": "view",
      "type": "function"
    },
    {
      "inputs": [
        {
          "internalType": "bytes32",
          "name": "role",
          "type": "bytes32"
        },
        {
          "internalType": "uint256",
          "name": "index",
          "type": "uint256"
        }
      ],
      "name": "getRoleMember",
      "outputs": [
        {
          "internalType": "address",
          "name": "",
          "type": "address"
        }
      ],
      "stateMutability": "view",
      "type": "function"
    },
    {
      "inputs": [
        {
          "internalType": "bytes32",
          "name": "role",
          "type": "bytes32"
        }
      ],
      "name": "getRoleMemberCount",
      "outputs": [
        {
          "internalType": "uint256",
          "name": "",
          "type": "uint256"
        }
      ],
      "stateMutability": "view",
      "type": "function"
    },
    {
      "inputs": [
        {
          "internalType": "uint256",
          "name": "_tokenId",
          "type": "uint256"
        }
      ],
      "name": "getThresholdStatus",
      "outputs": [
        {
          "internalType": "bool",
          "name": "",
          "type": "bool"
        }
      ],
      "stateMutability": "view",
      "type": "function"
    },
    {
      "inputs": [
        {
          "internalType": "uint256",
          "name": "_tokenId",
          "type": "uint256"
        }
      ],
      "name": "getThresholdValue",
      "outputs": [
        {
          "internalType": "uint256",
          "name": "",
          "type": "uint256"
        }
      ],
      "stateMutability": "view",
      "type": "function"
    },
    {
      "inputs": [
        {
          "internalType": "bytes32",
          "name": "role",
          "type": "bytes32"
        },
        {
          "internalType": "address",
          "name": "account",
          "type": "address"
        }
      ],
      "name": "grantRole",
      "outputs": [],
      "stateMutability": "nonpayable",
      "type": "function"
    },
    {
      "inputs": [
        {
          "internalType": "bytes32",
          "name": "role",
          "type": "bytes32"
        },
        {
          "internalType": "address",
          "name": "account",
          "type": "address"
        }
      ],
      "name": "hasRole",
      "outputs": [
        {
          "internalType": "bool",
          "name": "",
          "type": "bool"
        }
      ],
      "stateMutability": "view",
      "type": "function"
    },
    {
      "inputs": [
        {
          "internalType": "address",
          "name": "owner",
          "type": "address"
        },
        {
          "internalType": "address",
          "name": "operator",
          "type": "address"
        }
      ],
      "name": "isApprovedForAll",
      "outputs": [
        {
          "internalType": "bool",
          "name": "",
          "type": "bool"
        }
      ],
      "stateMutability": "view",
      "type": "function"
    },
    {
      "inputs": [
        {
          "internalType": "uint256",
          "name": "_tokenId",
          "type": "uint256"
        },
        {
          "internalType": "uint256",
          "name": "_bidValue",
          "type": "uint256"
        }
      ],
      "name": "makeBid",
      "outputs": [],
      "stateMutability": "payable",
      "type": "function"
    },
    {
      "inputs": [
        {
          "internalType": "address",
          "name": "_to",
          "type": "address"
        },
        {
          "internalType": "string",
          "name": "_URI",
          "type": "string"
        }
      ],
      "name": "mint",
      "outputs": [],
      "stateMutability": "nonpayable",
      "type": "function"
    },
    {
      "inputs": [],
      "name": "name",
      "outputs": [
        {
          "internalType": "string",
          "name": "",
          "type": "string"
        }
      ],
      "stateMutability": "view",
      "type": "function"
    },
    {
      "inputs": [
        {
          "internalType": "uint256",
          "name": "tokenId",
          "type": "uint256"
        }
      ],
      "name": "ownerOf",
      "outputs": [
        {
          "internalType": "address",
          "name": "",
          "type": "address"
        }
      ],
      "stateMutability": "view",
      "type": "function"
    },
    {
      "inputs": [],
      "name": "pause",
      "outputs": [],
      "stateMutability": "nonpayable",
      "type": "function"
    },
    {
      "inputs": [],
      "name": "paused",
      "outputs": [
        {
          "internalType": "bool",
          "name": "",
          "type": "bool"
        }
      ],
      "stateMutability": "view",
      "type": "function"
    },
    {
      "inputs": [
        {
          "internalType": "bytes32",
          "name": "role",
          "type": "bytes32"
        },
        {
          "internalType": "address",
          "name": "account",
          "type": "address"
        }
      ],
      "name": "renounceRole",
      "outputs": [],
      "stateMutability": "nonpayable",
      "type": "function"
    },
    {
      "inputs": [
        {
          "internalType": "bytes32",
          "name": "role",
          "type": "bytes32"
        },
        {
          "internalType": "address",
          "name": "account",
          "type": "address"
        }
      ],
      "name": "revokeRole",
      "outputs": [],
      "stateMutability": "nonpayable",
      "type": "function"
    },
    {
      "inputs": [
        {
          "internalType": "address",
          "name": "from",
          "type": "address"
        },
        {
          "internalType": "address",
          "name": "to",
          "type": "address"
        },
        {
          "internalType": "uint256",
          "name": "tokenId",
          "type": "uint256"
        }
      ],
      "name": "safeTransferFrom",
      "outputs": [],
      "stateMutability": "nonpayable",
      "type": "function"
    },
    {
      "inputs": [
        {
          "internalType": "address",
          "name": "from",
          "type": "address"
        },
        {
          "internalType": "address",
          "name": "to",
          "type": "address"
        },
        {
          "internalType": "uint256",
          "name": "tokenId",
          "type": "uint256"
        },
        {
          "internalType": "bytes",
          "name": "_data",
          "type": "bytes"
        }
      ],
      "name": "safeTransferFrom",
      "outputs": [],
      "stateMutability": "nonpayable",
      "type": "function"
    },
    {
      "inputs": [
        {
          "internalType": "address",
          "name": "operator",
          "type": "address"
        },
        {
          "internalType": "bool",
          "name": "approved",
          "type": "bool"
        }
      ],
      "name": "setApprovalForAll",
      "outputs": [],
      "stateMutability": "nonpayable",
      "type": "function"
    },
    {
      "inputs": [
        {
          "internalType": "uint256",
          "name": "_tokenId",
          "type": "uint256"
        },
        {
          "internalType": "uint256",
          "name": "_value",
          "type": "uint256"
        },
        {
          "internalType": "bool",
          "name": "_active",
          "type": "bool"
        }
      ],
      "name": "setThreshold",
      "outputs": [],
      "stateMutability": "nonpayable",
      "type": "function"
    },
    {
      "inputs": [
        {
          "internalType": "bytes4",
          "name": "interfaceId",
          "type": "bytes4"
        }
      ],
      "name": "supportsInterface",
      "outputs": [
        {
          "internalType": "bool",
          "name": "",
          "type": "bool"
        }
      ],
      "stateMutability": "view",
      "type": "function"
    },
    {
      "inputs": [],
      "name": "symbol",
      "outputs": [
        {
          "internalType": "string",
          "name": "",
          "type": "string"
        }
      ],
      "stateMutability": "view",
      "type": "function"
    },
    {
      "inputs": [
        {
          "internalType": "uint256",
          "name": "",
          "type": "uint256"
        }
      ],
      "name": "threshold",
      "outputs": [
        {
          "internalType": "uint256",
          "name": "value",
          "type": "uint256"
        },
        {
          "internalType": "bool",
          "name": "active",
          "type": "bool"
        }
      ],
      "stateMutability": "view",
      "type": "function"
    },
    {
      "inputs": [
        {
          "internalType": "uint256",
          "name": "index",
          "type": "uint256"
        }
      ],
      "name": "tokenByIndex",
      "outputs": [
        {
          "internalType": "uint256",
          "name": "",
          "type": "uint256"
        }
      ],
      "stateMutability": "view",
      "type": "function"
    },
    {
      "inputs": [
        {
          "internalType": "address",
          "name": "owner",
          "type": "address"
        },
        {
          "internalType": "uint256",
          "name": "index",
          "type": "uint256"
        }
      ],
      "name": "tokenOfOwnerByIndex",
      "outputs": [
        {
          "internalType": "uint256",
          "name": "",
          "type": "uint256"
        }
      ],
      "stateMutability": "view",
      "type": "function"
    },
    {
      "inputs": [
        {
          "internalType": "uint256",
          "name": "_tokenId",
          "type": "uint256"
        }
      ],
      "name": "tokenURI",
      "outputs": [
        {
          "internalType": "string",
          "name": "",
          "type": "string"
        }
      ],
      "stateMutability": "view",
      "type": "function"
    },
    {
      "inputs": [],
      "name": "totalSupply",
      "outputs": [
        {
          "internalType": "uint256",
          "name": "",
          "type": "uint256"
        }
      ],
      "stateMutability": "view",
      "type": "function"
    },
    {
      "inputs": [
        {
          "internalType": "address",
          "name": "from",
          "type": "address"
        },
        {
          "internalType": "address",
          "name": "to",
          "type": "address"
        },
        {
          "internalType": "uint256",
          "name": "tokenId",
          "type": "uint256"
        }
      ],
      "name": "transferFrom",
      "outputs": [],
      "stateMutability": "nonpayable",
      "type": "function"
    },
    {
      "inputs": [],
      "name": "unpause",
      "outputs": [],
      "stateMutability": "nonpayable",
      "type": "function"
    }
  ],
  "bytecode": "0x60806040523480156200001157600080fd5b50604051620060153803806200601583398181016040528101906200003791906200051c565b8181604051806020016040528060008152508282816002908051906020019062000063929190620003fa565b5080600390805190602001906200007c929190620003fa565b5050506000600c60006101000a81548160ff02191690831515021790555080600e9080519060200190620000b2929190620003fa565b50620000d76000801b620000cb6200016460201b60201c565b6200016c60201b60201c565b620001187f9f2df0fed2c77648de5860a4cc508cd0818c85b8b8a1ab4ceeef8d981c8956a66200010c6200016460201b60201c565b6200016c60201b60201c565b620001597f65d7a28e3265b37a6474929f336521b332c1681b933f6cb9f3376673440d862a6200014d6200016460201b60201c565b6200016c60201b60201c565b5050505050620006ff565b600033905090565b620001838282620001b460201b6200216a1760201c565b620001af8160016000858152602001908152602001600020620001ca60201b620021781790919060201c565b505050565b620001c682826200020260201b60201c565b5050565b6000620001fa836000018373ffffffffffffffffffffffffffffffffffffffff1660001b620002f360201b60201c565b905092915050565b6200021482826200036d60201b60201c565b620002ef57600160008084815260200190815260200160002060000160008373ffffffffffffffffffffffffffffffffffffffff1673ffffffffffffffffffffffffffffffffffffffff16815260200190815260200160002060006101000a81548160ff021916908315150217905550620002946200016460201b60201c565b73ffffffffffffffffffffffffffffffffffffffff168173ffffffffffffffffffffffffffffffffffffffff16837f2f8788117e7eff1d82e926ec794901d17c78024a50270940304540a733656f0d60405160405180910390a45b5050565b6000620003078383620003d760201b60201c565b6200036257826000018290806001815401808255809150506001900390600052602060002001600090919091909150558260000180549050836001016000848152602001908152602001600020819055506001905062000367565b600090505b92915050565b600080600084815260200190815260200160002060000160008373ffffffffffffffffffffffffffffffffffffffff1673ffffffffffffffffffffffffffffffffffffffff16815260200190815260200160002060009054906101000a900460ff16905092915050565b600080836001016000848152602001908152602001600020541415905092915050565b828054620004089062000624565b90600052602060002090601f0160209004810192826200042c576000855562000478565b82601f106200044757805160ff191683800117855562000478565b8280016001018555821562000478579182015b82811115620004775782518255916020019190600101906200045a565b5b5090506200048791906200048b565b5090565b5b80821115620004a65760008160009055506001016200048c565b5090565b6000620004c1620004bb84620005b8565b6200058f565b905082815260208101848484011115620004da57600080fd5b620004e7848285620005ee565b509392505050565b600082601f8301126200050157600080fd5b815162000513848260208601620004aa565b91505092915050565b600080604083850312156200053057600080fd5b600083015167ffffffffffffffff8111156200054b57600080fd5b6200055985828601620004ef565b925050602083015167ffffffffffffffff8111156200057757600080fd5b6200058585828601620004ef565b9150509250929050565b60006200059b620005ae565b9050620005a982826200065a565b919050565b6000604051905090565b600067ffffffffffffffff821115620005d657620005d5620006bf565b5b620005e182620006ee565b9050602081019050919050565b60005b838110156200060e578082015181840152602081019050620005f1565b838111156200061e576000848401525b50505050565b600060028204905060018216806200063d57607f821691505b6020821081141562000654576200065362000690565b5b50919050565b6200066582620006ee565b810181811067ffffffffffffffff82111715620006875762000686620006bf565b5b80604052505050565b7f4e487b7100000000000000000000000000000000000000000000000000000000600052602260045260246000fd5b7f4e487b7100000000000000000000000000000000000000000000000000000000600052604160045260246000fd5b6000601f19601f8301169050919050565b615906806200070f6000396000f3fe6080604052600436106102465760003560e01c806370a0823111610139578063b88d4fde116100b6578063d53913931161007a578063d5391393146108f4578063d547741f1461091f578063dbd56ef714610948578063e63ab1e914610985578063e985e9c5146109b0578063e9a4d931146109ed57610246565b8063b88d4fde146107eb578063bb50aa3a14610814578063c87b56dd14610851578063ca15c8731461088e578063d0def521146108cb57610246565b806391d14854116100fd57806391d148541461071357806395d89b4114610750578063a217fddf1461077b578063a22cb465146107a6578063adfcdc11146107cf57610246565b806370a082311461061c578063844f4af6146106595780638456cb59146106825780639010d07c14610699578063901e1c01146106d657610246565b80632f745c59116101c757806342966c681161018b57806342966c68146105105780634423c5f1146105395780634f6ccce7146105775780635c975abb146105b45780636352211e146105df57610246565b80632f745c591461042c57806331eb7a1a1461046957806336568abe146104a75780633f4ba83a146104d057806342842e0e146104e757610246565b806323b872dd1161020e57806323b872dd14610344578063248a9ca31461036d5780632b05ff1d146103aa5780632b1fd58a146103e75780632f2ff15d1461040357610246565b806301ffc9a71461024b57806306fdde0314610288578063081812fc146102b3578063095ea7b3146102f057806318160ddd14610319575b600080fd5b34801561025757600080fd5b50610272600480360381019061026d91906140bb565b610a2a565b60405161027f919061475f565b60405180910390f35b34801561029457600080fd5b5061029d610a3c565b6040516102aa9190614795565b60405180910390f35b3480156102bf57600080fd5b506102da60048036038101906102d5919061410d565b610ace565b6040516102e791906146cf565b60405180910390f35b3480156102fc57600080fd5b5061031760048036038101906103129190613fde565b610b53565b005b34801561032557600080fd5b5061032e610c6b565b60405161033b9190614c1e565b60405180910390f35b34801561035057600080fd5b5061036b60048036038101906103669190613e80565b610c78565b005b34801561037957600080fd5b50610394600480360381019061038f919061401a565b610cd8565b6040516103a1919061477a565b60405180910390f35b3480156103b657600080fd5b506103d160048036038101906103cc919061410d565b610cf7565b6040516103de9190614c1e565b60405180910390f35b61040160048036038101906103fc919061410d565b610d5f565b005b34801561040f57600080fd5b5061042a60048036038101906104259190614043565b61106e565b005b34801561043857600080fd5b50610453600480360381019061044e9190613fde565b6110a2565b6040516104609190614c1e565b60405180910390f35b34801561047557600080fd5b50610490600480360381019061048b919061410d565b611147565b60405161049e929190614c39565b60405180910390f35b3480156104b357600080fd5b506104ce60048036038101906104c99190614043565b611178565b005b3480156104dc57600080fd5b506104e56111ac565b005b3480156104f357600080fd5b5061050e60048036038101906105099190613e80565b611226565b005b34801561051c57600080fd5b506105376004803603810190610532919061410d565b611246565b005b34801561054557600080fd5b50610560600480360381019061055b919061410d565b6112a2565b60405161056e929190614736565b60405180910390f35b34801561058357600080fd5b5061059e6004803603810190610599919061410d565b6112e6565b6040516105ab9190614c1e565b60405180910390f35b3480156105c057600080fd5b506105c961137d565b6040516105d6919061475f565b60405180910390f35b3480156105eb57600080fd5b506106066004803603810190610601919061410d565b611394565b60405161061391906146cf565b60405180910390f35b34801561062857600080fd5b50610643600480360381019061063e9190613e1b565b611446565b6040516106509190614c1e565b60405180910390f35b34801561066557600080fd5b50610680600480360381019061067b9190614172565b6114fe565b005b34801561068e57600080fd5b5061069761160a565b005b3480156106a557600080fd5b506106c060048036038101906106bb919061407f565b611684565b6040516106cd91906146cf565b60405180910390f35b3480156106e257600080fd5b506106fd60048036038101906106f8919061410d565b6116b3565b60405161070a9190614795565b60405180910390f35b34801561071f57600080fd5b5061073a60048036038101906107359190614043565b611753565b604051610747919061475f565b60405180910390f35b34801561075c57600080fd5b506107656117bd565b6040516107729190614795565b60405180910390f35b34801561078757600080fd5b5061079061184f565b60405161079d919061477a565b60405180910390f35b3480156107b257600080fd5b506107cd60048036038101906107c89190613f4a565b611856565b005b6107e960048036038101906107e49190614136565b6119d7565b005b3480156107f757600080fd5b50610812600480360381019061080d9190613ecf565b611c8a565b005b34801561082057600080fd5b5061083b6004803603810190610836919061410d565b611cec565b60405161084891906146cf565b60405180910390f35b34801561085d57600080fd5b506108786004803603810190610873919061410d565b611d74565b6040516108859190614795565b60405180910390f35b34801561089a57600080fd5b506108b560048036038101906108b0919061401a565b611e61565b6040516108c29190614c1e565b60405180910390f35b3480156108d757600080fd5b506108f260048036038101906108ed9190613f86565b611e85565b005b34801561090057600080fd5b50610909611f7d565b604051610916919061477a565b60405180910390f35b34801561092b57600080fd5b5061094660048036038101906109419190614043565b611fa1565b005b34801561095457600080fd5b5061096f600480360381019061096a919061410d565b611fd5565b60405161097c9190614c1e565b60405180910390f35b34801561099157600080fd5b5061099a61203d565b6040516109a7919061477a565b60405180910390f35b3480156109bc57600080fd5b506109d760048036038101906109d29190613e44565b612061565b6040516109e4919061475f565b60405180910390f35b3480156109f957600080fd5b50610a146004803603810190610a0f919061410d565b6120f5565b604051610a21919061475f565b60405180910390f35b6000610a35826121a8565b9050919050565b606060028054610a4b90614e3a565b80601f0160208091040260200160405190810160405280929190818152602001828054610a7790614e3a565b8015610ac45780601f10610a9957610100808354040283529160200191610ac4565b820191906000526020600020905b815481529060010190602001808311610aa757829003601f168201915b5050505050905090565b6000610ad982612222565b610b18576040517f08c379a0000000000000000000000000000000000000000000000000000000008152600401610b0f90614a7e565b60405180910390fd5b6006600083815260200190815260200160002060009054906101000a900473ffffffffffffffffffffffffffffffffffffffff169050919050565b6000610b5e82611394565b90508073ffffffffffffffffffffffffffffffffffffffff168373ffffffffffffffffffffffffffffffffffffffff161415610bcf576040517f08c379a0000000000000000000000000000000000000000000000000000000008152600401610bc690614ade565b60405180910390fd5b8073ffffffffffffffffffffffffffffffffffffffff16610bee61228e565b73ffffffffffffffffffffffffffffffffffffffff161480610c1d5750610c1c81610c1761228e565b612061565b5b610c5c576040517f08c379a0000000000000000000000000000000000000000000000000000000008152600401610c53906149fe565b60405180910390fd5b610c668383612296565b505050565b6000600a80549050905090565b610c89610c8361228e565b8261234f565b610cc8576040517f08c379a0000000000000000000000000000000000000000000000000000000008152600401610cbf90614b1e565b60405180910390fd5b610cd383838361242d565b505050565b6000806000838152602001908152602001600020600101549050919050565b6000610d0282612222565b610d41576040517f08c379a0000000000000000000000000000000000000000000000000000000008152600401610d389061481e565b60405180910390fd5b600f6000838152602001908152602001600020600101549050919050565b6000600f60008381526020019081526020016000206040518060400160405290816000820160009054906101000a900473ffffffffffffffffffffffffffffffffffffffff1673ffffffffffffffffffffffffffffffffffffffff1673ffffffffffffffffffffffffffffffffffffffff1681526020016001820154815250509050610dea82612222565b610e29576040517f08c379a0000000000000000000000000000000000000000000000000000000008152600401610e209061481e565b60405180910390fd5b610e3282611394565b73ffffffffffffffffffffffffffffffffffffffff163373ffffffffffffffffffffffffffffffffffffffff1614610e9f576040517f08c379a0000000000000000000000000000000000000000000000000000000008152600401610e9690614afe565b60405180910390fd5b600073ffffffffffffffffffffffffffffffffffffffff16816000015173ffffffffffffffffffffffffffffffffffffffff161415610f13576040517f08c379a0000000000000000000000000000000000000000000000000000000008152600401610f0a90614b5e565b60405180910390fd5b3373ffffffffffffffffffffffffffffffffffffffff1681602001515050610f503382600001518460405180602001604052806000815250611c8a565b806000015173ffffffffffffffffffffffffffffffffffffffff163373ffffffffffffffffffffffffffffffffffffffff16837fe6d56779a392535d3a591e92b65ba36f2ecc424bbf5220d0176a7da29385b5048460200151604051610fb69190614c1e565b60405180910390a46000816000019073ffffffffffffffffffffffffffffffffffffffff16908173ffffffffffffffffffffffffffffffffffffffff1681525050600081602001818152505080600f600084815260200190815260200160002060008201518160000160006101000a81548173ffffffffffffffffffffffffffffffffffffffff021916908373ffffffffffffffffffffffffffffffffffffffff160217905550602082015181600101559050505050565b6110788282612689565b61109d816001600085815260200190815260200160002061217890919063ffffffff16565b505050565b60006110ad83611446565b82106110ee576040517f08c379a00000000000000000000000000000000000000000000000000000000081526004016110e5906148de565b60405180910390fd5b600860008473ffffffffffffffffffffffffffffffffffffffff1673ffffffffffffffffffffffffffffffffffffffff168152602001908152602001600020600083815260200190815260200160002054905092915050565b60106020528060005260406000206000915090508060000154908060010160009054906101000a900460ff16905082565b61118282826126ef565b6111a7816001600085815260200190815260200160002061277290919063ffffffff16565b505050565b6111dd7f65d7a28e3265b37a6474929f336521b332c1681b933f6cb9f3376673440d862a6111d861228e565b611753565b61121c576040517f08c379a000000000000000000000000000000000000000000000000000000000815260040161121390614bde565b60405180910390fd5b6112246127a2565b565b61124183838360405180602001604052806000815250611c8a565b505050565b61125761125161228e565b8261234f565b611296576040517f08c379a000000000000000000000000000000000000000000000000000000000815260040161128d90614bbe565b60405180910390fd5b61129f81612844565b50565b600f6020528060005260406000206000915090508060000160009054906101000a900473ffffffffffffffffffffffffffffffffffffffff16908060010154905082565b60006112f0610c6b565b8210611331576040517f08c379a000000000000000000000000000000000000000000000000000000000815260040161132890614b3e565b60405180910390fd5b600a828154811061136b577f4e487b7100000000000000000000000000000000000000000000000000000000600052603260045260246000fd5b90600052602060002001549050919050565b6000600c60009054906101000a900460ff16905090565b6000806004600084815260200190815260200160002060009054906101000a900473ffffffffffffffffffffffffffffffffffffffff169050600073ffffffffffffffffffffffffffffffffffffffff168173ffffffffffffffffffffffffffffffffffffffff16141561143d576040517f08c379a000000000000000000000000000000000000000000000000000000000815260040161143490614a3e565b60405180910390fd5b80915050919050565b60008073ffffffffffffffffffffffffffffffffffffffff168273ffffffffffffffffffffffffffffffffffffffff1614156114b7576040517f08c379a00000000000000000000000000000000000000000000000000000000081526004016114ae90614a1e565b60405180910390fd5b600560008373ffffffffffffffffffffffffffffffffffffffff1673ffffffffffffffffffffffffffffffffffffffff168152602001908152602001600020549050919050565b61150783612222565b611546576040517f08c379a000000000000000000000000000000000000000000000000000000000815260040161153d9061481e565b60405180910390fd5b61154f83611394565b73ffffffffffffffffffffffffffffffffffffffff163373ffffffffffffffffffffffffffffffffffffffff16146115bc576040517f08c379a00000000000000000000000000000000000000000000000000000000081526004016115b390614afe565b60405180910390fd5b816010600085815260200190815260200160002060000181905550806010600085815260200190815260200160002060010160006101000a81548160ff021916908315150217905550505050565b61163b7f65d7a28e3265b37a6474929f336521b332c1681b933f6cb9f3376673440d862a61163661228e565b611753565b61167a576040517f08c379a00000000000000000000000000000000000000000000000000000000081526004016116719061493e565b60405180910390fd5b611682612955565b565b60006116ab82600160008681526020019081526020016000206129f890919063ffffffff16565b905092915050565b601160205280600052604060002060009150905080546116d290614e3a565b80601f01602080910402602001604051908101604052809291908181526020018280546116fe90614e3a565b801561174b5780601f106117205761010080835404028352916020019161174b565b820191906000526020600020905b81548152906001019060200180831161172e57829003601f168201915b505050505081565b600080600084815260200190815260200160002060000160008373ffffffffffffffffffffffffffffffffffffffff1673ffffffffffffffffffffffffffffffffffffffff16815260200190815260200160002060009054906101000a900460ff16905092915050565b6060600380546117cc90614e3a565b80601f01602080910402602001604051908101604052809291908181526020018280546117f890614e3a565b80156118455780601f1061181a57610100808354040283529160200191611845565b820191906000526020600020905b81548152906001019060200180831161182857829003601f168201915b5050505050905090565b6000801b81565b61185e61228e565b73ffffffffffffffffffffffffffffffffffffffff168273ffffffffffffffffffffffffffffffffffffffff1614156118cc576040517f08c379a00000000000000000000000000000000000000000000000000000000081526004016118c39061497e565b60405180910390fd5b80600760006118d961228e565b73ffffffffffffffffffffffffffffffffffffffff1673ffffffffffffffffffffffffffffffffffffffff16815260200190815260200160002060008473ffffffffffffffffffffffffffffffffffffffff1673ffffffffffffffffffffffffffffffffffffffff16815260200190815260200160002060006101000a81548160ff0219169083151502179055508173ffffffffffffffffffffffffffffffffffffffff1661198661228e565b73ffffffffffffffffffffffffffffffffffffffff167f17307eab39ab6107e8899845ad3d59bd9653f200f220920489ca2b5937696c31836040516119cb919061475f565b60405180910390a35050565b6000600f60008481526020019081526020016000206040518060400160405290816000820160009054906101000a900473ffffffffffffffffffffffffffffffffffffffff1673ffffffffffffffffffffffffffffffffffffffff1673ffffffffffffffffffffffffffffffffffffffff1681526020016001820154815250509050611a6283612222565b611aa1576040517f08c379a0000000000000000000000000000000000000000000000000000000008152600401611a989061481e565b60405180910390fd5b348214611ae3576040517f08c379a0000000000000000000000000000000000000000000000000000000008152600401611ada90614b7e565b60405180910390fd5b80602001518211611b29576040517f08c379a0000000000000000000000000000000000000000000000000000000008152600401611b209061485e565b60405180910390fd5b600073ffffffffffffffffffffffffffffffffffffffff16816000015173ffffffffffffffffffffffffffffffffffffffff1614611b8457806000015173ffffffffffffffffffffffffffffffffffffffff16816020015150505b33816000019073ffffffffffffffffffffffffffffffffffffffff16908173ffffffffffffffffffffffffffffffffffffffff16815250508181602001818152505080600f600085815260200190815260200160002060008201518160000160006101000a81548173ffffffffffffffffffffffffffffffffffffffff021916908373ffffffffffffffffffffffffffffffffffffffff16021790555060208201518160010155905050806000015173ffffffffffffffffffffffffffffffffffffffff16837f558a0d5d5468d74b0db24c74eb348b42271c2ebb4c9e953ced38aaed95fa43618360200151604051611c7d9190614c1e565b60405180910390a3505050565b611c9b611c9561228e565b8361234f565b611cda576040517f08c379a0000000000000000000000000000000000000000000000000000000008152600401611cd190614b1e565b60405180910390fd5b611ce684848484612a12565b50505050565b6000611cf782612222565b611d36576040517f08c379a0000000000000000000000000000000000000000000000000000000008152600401611d2d9061481e565b60405180910390fd5b600f600083815260200190815260200160002060000160009054906101000a900473ffffffffffffffffffffffffffffffffffffffff169050919050565b6060611d7f82612222565b611dbe576040517f08c379a0000000000000000000000000000000000000000000000000000000008152600401611db590614abe565b60405180910390fd5b601160008381526020019081526020016000208054611ddc90614e3a565b80601f0160208091040260200160405190810160405280929190818152602001828054611e0890614e3a565b8015611e555780601f10611e2a57610100808354040283529160200191611e55565b820191906000526020600020905b815481529060010190602001808311611e3857829003601f168201915b50505050509050919050565b6000611e7e60016000848152602001908152602001600020612a6e565b9050919050565b6000611e9084612a83565b9050611ed16040518060400160405280600a81526020017f546f6b656e2049443a200000000000000000000000000000000000000000000081525082612b23565b611f546040518060400160405280600581526020017f5552493a2000000000000000000000000000000000000000000000000000000081525084848080601f016020809104026020016040519081016040528093929190818152602001838380828437600081840152601f19601f82011690508083019250505050505050612bbf565b8282601160008481526020019081526020016000209190611f76929190613c48565b5050505050565b7f9f2df0fed2c77648de5860a4cc508cd0818c85b8b8a1ab4ceeef8d981c8956a681565b611fab8282612c5b565b611fd0816001600085815260200190815260200160002061277290919063ffffffff16565b505050565b6000611fe082612222565b61201f576040517f08c379a00000000000000000000000000000000000000000000000000000000081526004016120169061481e565b60405180910390fd5b60106000838152602001908152602001600020600001549050919050565b7f65d7a28e3265b37a6474929f336521b332c1681b933f6cb9f3376673440d862a81565b6000600760008473ffffffffffffffffffffffffffffffffffffffff1673ffffffffffffffffffffffffffffffffffffffff16815260200190815260200160002060008373ffffffffffffffffffffffffffffffffffffffff1673ffffffffffffffffffffffffffffffffffffffff16815260200190815260200160002060009054906101000a900460ff16905092915050565b600061210082612222565b61213f576040517f08c379a00000000000000000000000000000000000000000000000000000000081526004016121369061481e565b60405180910390fd5b6010600083815260200190815260200160002060010160009054906101000a900460ff169050919050565b6121748282612cc1565b5050565b60006121a0836000018373ffffffffffffffffffffffffffffffffffffffff1660001b612da1565b905092915050565b60007f780e9d63000000000000000000000000000000000000000000000000000000007bffffffffffffffffffffffffffffffffffffffffffffffffffffffff1916827bffffffffffffffffffffffffffffffffffffffffffffffffffffffff1916148061221b575061221a82612e11565b5b9050919050565b60008073ffffffffffffffffffffffffffffffffffffffff166004600084815260200190815260200160002060009054906101000a900473ffffffffffffffffffffffffffffffffffffffff1673ffffffffffffffffffffffffffffffffffffffff1614159050919050565b600033905090565b816006600083815260200190815260200160002060006101000a81548173ffffffffffffffffffffffffffffffffffffffff021916908373ffffffffffffffffffffffffffffffffffffffff160217905550808273ffffffffffffffffffffffffffffffffffffffff1661230983611394565b73ffffffffffffffffffffffffffffffffffffffff167f8c5be1e5ebec7d5bd14f71427d1e84f3dd0314c0f7b2291e5b200ac8c7c3b92560405160405180910390a45050565b600061235a82612222565b612399576040517f08c379a00000000000000000000000000000000000000000000000000000000081526004016123909061499e565b60405180910390fd5b60006123a483611394565b90508073ffffffffffffffffffffffffffffffffffffffff168473ffffffffffffffffffffffffffffffffffffffff16148061241357508373ffffffffffffffffffffffffffffffffffffffff166123fb84610ace565b73ffffffffffffffffffffffffffffffffffffffff16145b8061242457506124238185612061565b5b91505092915050565b8273ffffffffffffffffffffffffffffffffffffffff1661244d82611394565b73ffffffffffffffffffffffffffffffffffffffff16146124a3576040517f08c379a000000000000000000000000000000000000000000000000000000000815260040161249a90614a9e565b60405180910390fd5b600073ffffffffffffffffffffffffffffffffffffffff168273ffffffffffffffffffffffffffffffffffffffff161415612513576040517f08c379a000000000000000000000000000000000000000000000000000000000815260040161250a9061495e565b60405180910390fd5b61251e838383612ef3565b612529600082612296565b6001600560008573ffffffffffffffffffffffffffffffffffffffff1673ffffffffffffffffffffffffffffffffffffffff16815260200190815260200160002060008282546125799190614d46565b925050819055506001600560008473ffffffffffffffffffffffffffffffffffffffff1673ffffffffffffffffffffffffffffffffffffffff16815260200190815260200160002060008282546125d09190614cf0565b92505081905550816004600083815260200190815260200160002060006101000a81548173ffffffffffffffffffffffffffffffffffffffff021916908373ffffffffffffffffffffffffffffffffffffffff160217905550808273ffffffffffffffffffffffffffffffffffffffff168473ffffffffffffffffffffffffffffffffffffffff167fddf252ad1be2c89b69c2b068fc378daa952ba7f163c4a11628f55a4df523b3ef60405160405180910390a4505050565b6126a261269583610cd8565b61269d61228e565b611753565b6126e1576040517f08c379a00000000000000000000000000000000000000000000000000000000081526004016126d89061489e565b60405180910390fd5b6126eb8282612cc1565b5050565b6126f761228e565b73ffffffffffffffffffffffffffffffffffffffff168173ffffffffffffffffffffffffffffffffffffffff1614612764576040517f08c379a000000000000000000000000000000000000000000000000000000000815260040161275b90614bfe565b60405180910390fd5b61276e8282612f03565b5050565b600061279a836000018373ffffffffffffffffffffffffffffffffffffffff1660001b612fe4565b905092915050565b6127aa61137d565b6127e9576040517f08c379a00000000000000000000000000000000000000000000000000000000081526004016127e0906148be565b60405180910390fd5b6000600c60006101000a81548160ff0219169083151502179055507f5db9ee0a495bf2e6ff9c91a7834c1ba4fdd244a5e8aa4e537bd38aeae4b073aa61282d61228e565b60405161283a91906146cf565b60405180910390a1565b600061284f82611394565b905061285d81600084612ef3565b612868600083612296565b6001600560008373ffffffffffffffffffffffffffffffffffffffff1673ffffffffffffffffffffffffffffffffffffffff16815260200190815260200160002060008282546128b89190614d46565b925050819055506004600083815260200190815260200160002060006101000a81549073ffffffffffffffffffffffffffffffffffffffff021916905581600073ffffffffffffffffffffffffffffffffffffffff168273ffffffffffffffffffffffffffffffffffffffff167fddf252ad1be2c89b69c2b068fc378daa952ba7f163c4a11628f55a4df523b3ef60405160405180910390a45050565b61295d61137d565b1561299d576040517f08c379a0000000000000000000000000000000000000000000000000000000008152600401612994906149de565b60405180910390fd5b6001600c60006101000a81548160ff0219169083151502179055507f62e78cea01bee320cd4e420270b5ea74000d11b0c9f74754ebdbfc544b05a2586129e161228e565b6040516129ee91906146cf565b60405180910390a1565b6000612a07836000018361316e565b60001c905092915050565b612a1d84848461242d565b612a2984848484613208565b612a68576040517f08c379a0000000000000000000000000000000000000000000000000000000008152600401612a5f906148fe565b60405180910390fd5b50505050565b6000612a7c8260000161339f565b9050919050565b6000612ab67f9f2df0fed2c77648de5860a4cc508cd0818c85b8b8a1ab4ceeef8d981c8956a6612ab161228e565b611753565b612af5576040517f08c379a0000000000000000000000000000000000000000000000000000000008152600401612aec90614b9e565b60405180910390fd5b612aff600d6133b0565b612b1282612b0d600d6133c6565b6133d4565b612b1c600d6133c6565b9050919050565b612bbb8282604051602401612b399291906147ee565b6040516020818303038152906040527f9710a9d0000000000000000000000000000000000000000000000000000000007bffffffffffffffffffffffffffffffffffffffffffffffffffffffff19166020820180517bffffffffffffffffffffffffffffffffffffffffffffffffffffffff83818316178352505050506135a2565b5050565b612c578282604051602401612bd59291906147b7565b6040516020818303038152906040527f4b5c4277000000000000000000000000000000000000000000000000000000007bffffffffffffffffffffffffffffffffffffffffffffffffffffffff19166020820180517bffffffffffffffffffffffffffffffffffffffffffffffffffffffff83818316178352505050506135a2565b5050565b612c74612c6783610cd8565b612c6f61228e565b611753565b612cb3576040517f08c379a0000000000000000000000000000000000000000000000000000000008152600401612caa906149be565b60405180910390fd5b612cbd8282612f03565b5050565b612ccb8282611753565b612d9d57600160008084815260200190815260200160002060000160008373ffffffffffffffffffffffffffffffffffffffff1673ffffffffffffffffffffffffffffffffffffffff16815260200190815260200160002060006101000a81548160ff021916908315150217905550612d4261228e565b73ffffffffffffffffffffffffffffffffffffffff168173ffffffffffffffffffffffffffffffffffffffff16837f2f8788117e7eff1d82e926ec794901d17c78024a50270940304540a733656f0d60405160405180910390a45b5050565b6000612dad83836135cb565b612e06578260000182908060018154018082558091505060019003906000526020600020016000909190919091505582600001805490508360010160008481526020019081526020016000208190555060019050612e0b565b600090505b92915050565b60007f80ac58cd000000000000000000000000000000000000000000000000000000007bffffffffffffffffffffffffffffffffffffffffffffffffffffffff1916827bffffffffffffffffffffffffffffffffffffffffffffffffffffffff19161480612edc57507f5b5e139f000000000000000000000000000000000000000000000000000000007bffffffffffffffffffffffffffffffffffffffffffffffffffffffff1916827bffffffffffffffffffffffffffffffffffffffffffffffffffffffff1916145b80612eec5750612eeb826135ee565b5b9050919050565b612efe838383613668565b505050565b612f0d8282611753565b15612fe057600080600084815260200190815260200160002060000160008373ffffffffffffffffffffffffffffffffffffffff1673ffffffffffffffffffffffffffffffffffffffff16815260200190815260200160002060006101000a81548160ff021916908315150217905550612f8561228e565b73ffffffffffffffffffffffffffffffffffffffff168173ffffffffffffffffffffffffffffffffffffffff16837ff6391f5c32d9c69d2a47ea670b442974b53935d1edc7fd64eb21e047a839171b60405160405180910390a45b5050565b600080836001016000848152602001908152602001600020549050600081146131625760006001826130169190614d46565b905060006001866000018054905061302e9190614d46565b9050600086600001828154811061306e577f4e487b7100000000000000000000000000000000000000000000000000000000600052603260045260246000fd5b90600052602060002001549050808760000184815481106130b8577f4e487b7100000000000000000000000000000000000000000000000000000000600052603260045260246000fd5b90600052602060002001819055506001836130d39190614cf0565b8760010160008381526020019081526020016000208190555086600001805480613126577f4e487b7100000000000000000000000000000000000000000000000000000000600052603160045260246000fd5b60019003818190600052602060002001600090559055866001016000878152602001908152602001600020600090556001945050505050613168565b60009150505b92915050565b6000818360000180549050116131b9576040517f08c379a00000000000000000000000000000000000000000000000000000000081526004016131b09061483e565b60405180910390fd5b8260000182815481106131f5577f4e487b7100000000000000000000000000000000000000000000000000000000600052603260045260246000fd5b9060005260206000200154905092915050565b60006132298473ffffffffffffffffffffffffffffffffffffffff166136c0565b15613392578373ffffffffffffffffffffffffffffffffffffffff1663150b7a0261325261228e565b8786866040518563ffffffff1660e01b815260040161327494939291906146ea565b602060405180830381600087803b15801561328e57600080fd5b505af19250505080156132bf57506040513d601f19601f820116820180604052508101906132bc91906140e4565b60015b613342573d80600081146132ef576040519150601f19603f3d011682016040523d82523d6000602084013e6132f4565b606091505b5060008151141561333a576040517f08c379a0000000000000000000000000000000000000000000000000000000008152600401613331906148fe565b60405180910390fd5b805181602001fd5b63150b7a0260e01b7bffffffffffffffffffffffffffffffffffffffffffffffffffffffff1916817bffffffffffffffffffffffffffffffffffffffffffffffffffffffff191614915050613397565b600190505b949350505050565b600081600001805490509050919050565b6001816000016000828254019250508190555050565b600081600001549050919050565b600073ffffffffffffffffffffffffffffffffffffffff168273ffffffffffffffffffffffffffffffffffffffff161415613444576040517f08c379a000000000000000000000000000000000000000000000000000000000815260040161343b90614a5e565b60405180910390fd5b61344d81612222565b1561348d576040517f08c379a00000000000000000000000000000000000000000000000000000000081526004016134849061491e565b60405180910390fd5b61349960008383612ef3565b6001600560008473ffffffffffffffffffffffffffffffffffffffff1673ffffffffffffffffffffffffffffffffffffffff16815260200190815260200160002060008282546134e99190614cf0565b92505081905550816004600083815260200190815260200160002060006101000a81548173ffffffffffffffffffffffffffffffffffffffff021916908373ffffffffffffffffffffffffffffffffffffffff160217905550808273ffffffffffffffffffffffffffffffffffffffff16600073ffffffffffffffffffffffffffffffffffffffff167fddf252ad1be2c89b69c2b068fc378daa952ba7f163c4a11628f55a4df523b3ef60405160405180910390a45050565b60008151905060006a636f6e736f6c652e6c6f679050602083016000808483855afa5050505050565b600080836001016000848152602001908152602001600020541415905092915050565b60007f5a05180f000000000000000000000000000000000000000000000000000000007bffffffffffffffffffffffffffffffffffffffffffffffffffffffff1916827bffffffffffffffffffffffffffffffffffffffffffffffffffffffff191614806136615750613660826136d3565b5b9050919050565b61367383838361374d565b61367b61137d565b156136bb576040517f08c379a00000000000000000000000000000000000000000000000000000000081526004016136b29061487e565b60405180910390fd5b505050565b600080823b905060008111915050919050565b60007f7965db0b000000000000000000000000000000000000000000000000000000007bffffffffffffffffffffffffffffffffffffffffffffffffffffffff1916827bffffffffffffffffffffffffffffffffffffffffffffffffffffffff19161480613746575061374582613861565b5b9050919050565b6137588383836138cb565b600073ffffffffffffffffffffffffffffffffffffffff168373ffffffffffffffffffffffffffffffffffffffff16141561379b57613796816138d0565b6137da565b8173ffffffffffffffffffffffffffffffffffffffff168373ffffffffffffffffffffffffffffffffffffffff16146137d9576137d88382613919565b5b5b600073ffffffffffffffffffffffffffffffffffffffff168273ffffffffffffffffffffffffffffffffffffffff16141561381d5761381881613a86565b61385c565b8273ffffffffffffffffffffffffffffffffffffffff168273ffffffffffffffffffffffffffffffffffffffff161461385b5761385a8282613bc9565b5b5b505050565b60007f01ffc9a7000000000000000000000000000000000000000000000000000000007bffffffffffffffffffffffffffffffffffffffffffffffffffffffff1916827bffffffffffffffffffffffffffffffffffffffffffffffffffffffff1916149050919050565b505050565b600a80549050600b600083815260200190815260200160002081905550600a81908060018154018082558091505060019003906000526020600020016000909190919091505550565b6000600161392684611446565b6139309190614d46565b9050600060096000848152602001908152602001600020549050818114613a15576000600860008673ffffffffffffffffffffffffffffffffffffffff1673ffffffffffffffffffffffffffffffffffffffff168152602001908152602001600020600084815260200190815260200160002054905080600860008773ffffffffffffffffffffffffffffffffffffffff1673ffffffffffffffffffffffffffffffffffffffff168152602001908152602001600020600084815260200190815260200160002081905550816009600083815260200190815260200160002081905550505b6009600084815260200190815260200160002060009055600860008573ffffffffffffffffffffffffffffffffffffffff1673ffffffffffffffffffffffffffffffffffffffff16815260200190815260200160002060008381526020019081526020016000206000905550505050565b60006001600a80549050613a9a9190614d46565b90506000600b60008481526020019081526020016000205490506000600a8381548110613af0577f4e487b7100000000000000000000000000000000000000000000000000000000600052603260045260246000fd5b9060005260206000200154905080600a8381548110613b38577f4e487b7100000000000000000000000000000000000000000000000000000000600052603260045260246000fd5b906000526020600020018190555081600b600083815260200190815260200160002081905550600b600085815260200190815260200160002060009055600a805480613bad577f4e487b7100000000000000000000000000000000000000000000000000000000600052603160045260246000fd5b6001900381819060005260206000200160009055905550505050565b6000613bd483611446565b905081600860008573ffffffffffffffffffffffffffffffffffffffff1673ffffffffffffffffffffffffffffffffffffffff168152602001908152602001600020600083815260200190815260200160002081905550806009600084815260200190815260200160002081905550505050565b828054613c5490614e3a565b90600052602060002090601f016020900481019282613c765760008555613cbd565b82601f10613c8f57803560ff1916838001178555613cbd565b82800160010185558215613cbd579182015b82811115613cbc578235825591602001919060010190613ca1565b5b509050613cca9190613cce565b5090565b5b80821115613ce7576000816000905550600101613ccf565b5090565b6000613cfe613cf984614c87565b614c62565b905082815260208101848484011115613d1657600080fd5b613d21848285614df8565b509392505050565b600081359050613d388161585d565b92915050565b600081359050613d4d81615874565b92915050565b600081359050613d628161588b565b92915050565b600081359050613d77816158a2565b92915050565b600081519050613d8c816158a2565b92915050565b600082601f830112613da357600080fd5b8135613db3848260208601613ceb565b91505092915050565b60008083601f840112613dce57600080fd5b8235905067ffffffffffffffff811115613de757600080fd5b602083019150836001820283011115613dff57600080fd5b9250929050565b600081359050613e15816158b9565b92915050565b600060208284031215613e2d57600080fd5b6000613e3b84828501613d29565b91505092915050565b60008060408385031215613e5757600080fd5b6000613e6585828601613d29565b9250506020613e7685828601613d29565b9150509250929050565b600080600060608486031215613e9557600080fd5b6000613ea386828701613d29565b9350506020613eb486828701613d29565b9250506040613ec586828701613e06565b9150509250925092565b60008060008060808587031215613ee557600080fd5b6000613ef387828801613d29565b9450506020613f0487828801613d29565b9350506040613f1587828801613e06565b925050606085013567ffffffffffffffff811115613f3257600080fd5b613f3e87828801613d92565b91505092959194509250565b60008060408385031215613f5d57600080fd5b6000613f6b85828601613d29565b9250506020613f7c85828601613d3e565b9150509250929050565b600080600060408486031215613f9b57600080fd5b6000613fa986828701613d29565b935050602084013567ffffffffffffffff811115613fc657600080fd5b613fd286828701613dbc565b92509250509250925092565b60008060408385031215613ff157600080fd5b6000613fff85828601613d29565b925050602061401085828601613e06565b9150509250929050565b60006020828403121561402c57600080fd5b600061403a84828501613d53565b91505092915050565b6000806040838503121561405657600080fd5b600061406485828601613d53565b925050602061407585828601613d29565b9150509250929050565b6000806040838503121561409257600080fd5b60006140a085828601613d53565b92505060206140b185828601613e06565b9150509250929050565b6000602082840312156140cd57600080fd5b60006140db84828501613d68565b91505092915050565b6000602082840312156140f657600080fd5b600061410484828501613d7d565b91505092915050565b60006020828403121561411f57600080fd5b600061412d84828501613e06565b91505092915050565b6000806040838503121561414957600080fd5b600061415785828601613e06565b925050602061416885828601613e06565b9150509250929050565b60008060006060848603121561418757600080fd5b600061419586828701613e06565b93505060206141a686828701613e06565b92505060406141b786828701613d3e565b9150509250925092565b6141ca81614d7a565b82525050565b6141d981614d8c565b82525050565b6141e881614d98565b82525050565b60006141f982614cb8565b6142038185614cce565b9350614213818560208601614e07565b61421c81614f2a565b840191505092915050565b600061423282614cc3565b61423c8185614cdf565b935061424c818560208601614e07565b61425581614f2a565b840191505092915050565b600061426d602283614cdf565b915061427882614f3b565b604082019050919050565b6000614290602283614cdf565b915061429b82614f8a565b604082019050919050565b60006142b3603483614cdf565b91506142be82614fd9565b604082019050919050565b60006142d6602b83614cdf565b91506142e182615028565b604082019050919050565b60006142f9602f83614cdf565b915061430482615077565b604082019050919050565b600061431c601483614cdf565b9150614327826150c6565b602082019050919050565b600061433f602b83614cdf565b915061434a826150ef565b604082019050919050565b6000614362603283614cdf565b915061436d8261513e565b604082019050919050565b6000614385601c83614cdf565b91506143908261518d565b602082019050919050565b60006143a8603e83614cdf565b91506143b3826151b6565b604082019050919050565b60006143cb602483614cdf565b91506143d682615205565b604082019050919050565b60006143ee601983614cdf565b91506143f982615254565b602082019050919050565b6000614411602c83614cdf565b915061441c8261527d565b604082019050919050565b6000614434603083614cdf565b915061443f826152cc565b604082019050919050565b6000614457601083614cdf565b91506144628261531b565b602082019050919050565b600061447a603883614cdf565b915061448582615344565b604082019050919050565b600061449d602a83614cdf565b91506144a882615393565b604082019050919050565b60006144c0602983614cdf565b91506144cb826153e2565b604082019050919050565b60006144e3602083614cdf565b91506144ee82615431565b602082019050919050565b6000614506602c83614cdf565b91506145118261545a565b604082019050919050565b6000614529602983614cdf565b9150614534826154a9565b604082019050919050565b600061454c602f83614cdf565b9150614557826154f8565b604082019050919050565b600061456f602183614cdf565b915061457a82615547565b604082019050919050565b6000614592602883614cdf565b915061459d82615596565b604082019050919050565b60006145b5603183614cdf565b91506145c0826155e5565b604082019050919050565b60006145d8602c83614cdf565b91506145e382615634565b604082019050919050565b60006145fb603983614cdf565b915061460682615683565b604082019050919050565b600061461e602c83614cdf565b9150614629826156d2565b604082019050919050565b6000614641603d83614cdf565b915061464c82615721565b604082019050919050565b6000614664603083614cdf565b915061466f82615770565b604082019050919050565b6000614687604083614cdf565b9150614692826157bf565b604082019050919050565b60006146aa602f83614cdf565b91506146b58261580e565b604082019050919050565b6146c981614dee565b82525050565b60006020820190506146e460008301846141c1565b92915050565b60006080820190506146ff60008301876141c1565b61470c60208301866141c1565b61471960408301856146c0565b818103606083015261472b81846141ee565b905095945050505050565b600060408201905061474b60008301856141c1565b61475860208301846146c0565b9392505050565b600060208201905061477460008301846141d0565b92915050565b600060208201905061478f60008301846141df565b92915050565b600060208201905081810360008301526147af8184614227565b905092915050565b600060408201905081810360008301526147d18185614227565b905081810360208301526147e58184614227565b90509392505050565b600060408201905081810360008301526148088185614227565b905061481760208301846146c0565b9392505050565b6000602082019050818103600083015261483781614260565b9050919050565b6000602082019050818103600083015261485781614283565b9050919050565b60006020820190508181036000830152614877816142a6565b9050919050565b60006020820190508181036000830152614897816142c9565b9050919050565b600060208201905081810360008301526148b7816142ec565b9050919050565b600060208201905081810360008301526148d78161430f565b9050919050565b600060208201905081810360008301526148f781614332565b9050919050565b6000602082019050818103600083015261491781614355565b9050919050565b6000602082019050818103600083015261493781614378565b9050919050565b600060208201905081810360008301526149578161439b565b9050919050565b60006020820190508181036000830152614977816143be565b9050919050565b60006020820190508181036000830152614997816143e1565b9050919050565b600060208201905081810360008301526149b781614404565b9050919050565b600060208201905081810360008301526149d781614427565b9050919050565b600060208201905081810360008301526149f78161444a565b9050919050565b60006020820190508181036000830152614a178161446d565b9050919050565b60006020820190508181036000830152614a3781614490565b9050919050565b60006020820190508181036000830152614a57816144b3565b9050919050565b60006020820190508181036000830152614a77816144d6565b9050919050565b60006020820190508181036000830152614a97816144f9565b9050919050565b60006020820190508181036000830152614ab78161451c565b9050919050565b60006020820190508181036000830152614ad78161453f565b9050919050565b60006020820190508181036000830152614af781614562565b9050919050565b60006020820190508181036000830152614b1781614585565b9050919050565b60006020820190508181036000830152614b37816145a8565b9050919050565b60006020820190508181036000830152614b57816145cb565b9050919050565b60006020820190508181036000830152614b77816145ee565b9050919050565b60006020820190508181036000830152614b9781614611565b9050919050565b60006020820190508181036000830152614bb781614634565b9050919050565b60006020820190508181036000830152614bd781614657565b9050919050565b60006020820190508181036000830152614bf78161467a565b9050919050565b60006020820190508181036000830152614c178161469d565b9050919050565b6000602082019050614c3360008301846146c0565b92915050565b6000604082019050614c4e60008301856146c0565b614c5b60208301846141d0565b9392505050565b6000614c6c614c7d565b9050614c788282614e6c565b919050565b6000604051905090565b600067ffffffffffffffff821115614ca257614ca1614efb565b5b614cab82614f2a565b9050602081019050919050565b600081519050919050565b600081519050919050565b600082825260208201905092915050565b600082825260208201905092915050565b6000614cfb82614dee565b9150614d0683614dee565b9250827fffffffffffffffffffffffffffffffffffffffffffffffffffffffffffffffff03821115614d3b57614d3a614e9d565b5b828201905092915050565b6000614d5182614dee565b9150614d5c83614dee565b925082821015614d6f57614d6e614e9d565b5b828203905092915050565b6000614d8582614dce565b9050919050565b60008115159050919050565b6000819050919050565b60007fffffffff0000000000000000000000000000000000000000000000000000000082169050919050565b600073ffffffffffffffffffffffffffffffffffffffff82169050919050565b6000819050919050565b82818337600083830152505050565b60005b83811015614e25578082015181840152602081019050614e0a565b83811115614e34576000848401525b50505050565b60006002820490506001821680614e5257607f821691505b60208210811415614e6657614e65614ecc565b5b50919050565b614e7582614f2a565b810181811067ffffffffffffffff82111715614e9457614e93614efb565b5b80604052505050565b7f4e487b7100000000000000000000000000000000000000000000000000000000600052601160045260246000fd5b7f4e487b7100000000000000000000000000000000000000000000000000000000600052602260045260246000fd5b7f4e487b7100000000000000000000000000000000000000000000000000000000600052604160045260246000fd5b6000601f19601f8301169050919050565b7f4552433732313a20746f6b656e20686173206e6f74206265656e206d696e746560008201527f642e000000000000000000000000000000000000000000000000000000000000602082015250565b7f456e756d657261626c655365743a20696e646578206f7574206f6620626f756e60008201527f6473000000000000000000000000000000000000000000000000000000000000602082015250565b7f546865206e6577206269642076616c7565206d7573742065786365656420746860008201527f652063757272656e74206269642076616c75652e000000000000000000000000602082015250565b7f4552433732315061757361626c653a20746f6b656e207472616e73666572207760008201527f68696c6520706175736564000000000000000000000000000000000000000000602082015250565b7f416363657373436f6e74726f6c3a2073656e646572206d75737420626520616e60008201527f2061646d696e20746f206772616e740000000000000000000000000000000000602082015250565b7f5061757361626c653a206e6f7420706175736564000000000000000000000000600082015250565b7f455243373231456e756d657261626c653a206f776e657220696e646578206f7560008201527f74206f6620626f756e6473000000000000000000000000000000000000000000602082015250565b7f4552433732313a207472616e7366657220746f206e6f6e20455243373231526560008201527f63656976657220696d706c656d656e7465720000000000000000000000000000602082015250565b7f4552433732313a20746f6b656e20616c7265616479206d696e74656400000000600082015250565b7f4552433732315072657365744d696e7465725061757365724175746f49643a2060008201527f6d75737420686176652070617573657220726f6c6520746f2070617573650000602082015250565b7f4552433732313a207472616e7366657220746f20746865207a65726f2061646460008201527f7265737300000000000000000000000000000000000000000000000000000000602082015250565b7f4552433732313a20617070726f766520746f2063616c6c657200000000000000600082015250565b7f4552433732313a206f70657261746f7220717565727920666f72206e6f6e657860008201527f697374656e7420746f6b656e0000000000000000000000000000000000000000602082015250565b7f416363657373436f6e74726f6c3a2073656e646572206d75737420626520616e60008201527f2061646d696e20746f207265766f6b6500000000000000000000000000000000602082015250565b7f5061757361626c653a2070617573656400000000000000000000000000000000600082015250565b7f4552433732313a20617070726f76652063616c6c6572206973206e6f74206f7760008201527f6e6572206e6f7220617070726f76656420666f7220616c6c0000000000000000602082015250565b7f4552433732313a2062616c616e636520717565727920666f7220746865207a6560008201527f726f206164647265737300000000000000000000000000000000000000000000602082015250565b7f4552433732313a206f776e657220717565727920666f72206e6f6e657869737460008201527f656e7420746f6b656e0000000000000000000000000000000000000000000000602082015250565b7f4552433732313a206d696e7420746f20746865207a65726f2061646472657373600082015250565b7f4552433732313a20617070726f76656420717565727920666f72206e6f6e657860008201527f697374656e7420746f6b656e0000000000000000000000000000000000000000602082015250565b7f4552433732313a207472616e73666572206f6620746f6b656e2074686174206960008201527f73206e6f74206f776e0000000000000000000000000000000000000000000000602082015250565b7f4552433732314d657461646174613a2055524920717565727920666f72206e6f60008201527f6e6578697374656e7420746f6b656e0000000000000000000000000000000000602082015250565b7f4552433732313a20617070726f76616c20746f2063757272656e74206f776e6560008201527f7200000000000000000000000000000000000000000000000000000000000000602082015250565b7f4f6e6c792074686520746f6b656e206f776e65722063616e206163636570742060008201527f746865206269642e000000000000000000000000000000000000000000000000602082015250565b7f4552433732313a207472616e736665722063616c6c6572206973206e6f74206f60008201527f776e6572206e6f7220617070726f766564000000000000000000000000000000602082015250565b7f455243373231456e756d657261626c653a20676c6f62616c20696e646578206f60008201527f7574206f6620626f756e64730000000000000000000000000000000000000000602082015250565b7f506c65617365207761697420666f7220736f6d656f6e6520746f206d616b652060008201527f74686520626964206265666f726520616363657074696e672e00000000000000602082015250565b7f4d757374206c6f636b207570207468652062696420616d6f756e7420696e207460008201527f686520636f6e74726163742e0000000000000000000000000000000000000000602082015250565b7f4552433732315072657365744d696e7465725061757365724175746f49643a2060008201527f6d7573742068617665206d696e74657220726f6c6520746f206d696e74000000602082015250565b7f4552433732314275726e61626c653a2063616c6c6572206973206e6f74206f7760008201527f6e6572206e6f7220617070726f76656400000000000000000000000000000000602082015250565b7f4552433732315072657365744d696e7465725061757365724175746f49643a2060008201527f6d75737420686176652070617573657220726f6c6520746f20756e7061757365602082015250565b7f416363657373436f6e74726f6c3a2063616e206f6e6c792072656e6f756e636560008201527f20726f6c657320666f722073656c660000000000000000000000000000000000602082015250565b61586681614d7a565b811461587157600080fd5b50565b61587d81614d8c565b811461588857600080fd5b50565b61589481614d98565b811461589f57600080fd5b50565b6158ab81614da2565b81146158b657600080fd5b50565b6158c281614dee565b81146158cd57600080fd5b5056fea2646970667358221220e4246cf1e7b6ea4a50cf9cf83e23e7c114f7f6930694c50bceef4d90148a998f64736f6c63430008030033",
  "linkReferences": {},
  "deployedLinkReferences": {}
}