{
  "_format": "hh-sol-artifact-1",
  "contractName": "NFT",
  "sourceName": "contracts/NFT.sol",
  "abi": [
    {
      "inputs": [
        {
          "internalType": "string",
          "name": "name_",
          "type": "string"
        },
        {
          "internalType": "string",
          "name": "symbol_",
          "type": "string"
        },
        {
          "internalType": "address",
          "name": "_bidExecutor",
          "type": "address"
        }
      ],
      "stateMutability": "nonpayable",
      "type": "constructor"
    },
    {
      "anonymous": false,
      "inputs": [
        {
          "indexed": true,
          "internalType": "address",
          "name": "owner",
          "type": "address"
        },
        {
          "indexed": true,
          "internalType": "address",
          "name": "approved",
          "type": "address"
        },
        {
          "indexed": true,
          "internalType": "uint256",
          "name": "tokenId",
          "type": "uint256"
        }
      ],
      "name": "Approval",
      "type": "event"
    },
    {
      "anonymous": false,
      "inputs": [
        {
          "indexed": true,
          "internalType": "address",
          "name": "owner",
          "type": "address"
        },
        {
          "indexed": true,
          "internalType": "address",
          "name": "operator",
          "type": "address"
        },
        {
          "indexed": false,
          "internalType": "bool",
          "name": "approved",
          "type": "bool"
        }
      ],
      "name": "ApprovalForAll",
      "type": "event"
    },
    {
      "anonymous": false,
      "inputs": [
        {
          "indexed": true,
          "internalType": "uint256",
          "name": "tokenID",
          "type": "uint256"
        },
        {
          "indexed": true,
          "internalType": "address",
          "name": "owner",
          "type": "address"
        },
        {
          "indexed": true,
          "internalType": "address",
          "name": "bidder",
          "type": "address"
        },
        {
          "indexed": false,
          "internalType": "uint256",
          "name": "bidValue",
          "type": "uint256"
        }
      ],
      "name": "BidAccepted",
      "type": "event"
    },
    {
      "anonymous": false,
      "inputs": [
        {
          "indexed": true,
          "internalType": "uint256",
          "name": "tokenID",
          "type": "uint256"
        },
        {
          "indexed": true,
          "internalType": "address",
          "name": "bidder",
          "type": "address"
        },
        {
          "indexed": false,
          "internalType": "uint256",
          "name": "bidValue",
          "type": "uint256"
        }
      ],
      "name": "NewBid",
      "type": "event"
    },
    {
      "anonymous": false,
      "inputs": [
        {
          "indexed": false,
          "internalType": "address",
          "name": "account",
          "type": "address"
        }
      ],
      "name": "Paused",
      "type": "event"
    },
    {
      "anonymous": false,
      "inputs": [
        {
          "indexed": true,
          "internalType": "bytes32",
          "name": "role",
          "type": "bytes32"
        },
        {
          "indexed": true,
          "internalType": "bytes32",
          "name": "previousAdminRole",
          "type": "bytes32"
        },
        {
          "indexed": true,
          "internalType": "bytes32",
          "name": "newAdminRole",
          "type": "bytes32"
        }
      ],
      "name": "RoleAdminChanged",
      "type": "event"
    },
    {
      "anonymous": false,
      "inputs": [
        {
          "indexed": true,
          "internalType": "bytes32",
          "name": "role",
          "type": "bytes32"
        },
        {
          "indexed": true,
          "internalType": "address",
          "name": "account",
          "type": "address"
        },
        {
          "indexed": true,
          "internalType": "address",
          "name": "sender",
          "type": "address"
        }
      ],
      "name": "RoleGranted",
      "type": "event"
    },
    {
      "anonymous": false,
      "inputs": [
        {
          "indexed": true,
          "internalType": "bytes32",
          "name": "role",
          "type": "bytes32"
        },
        {
          "indexed": true,
          "internalType": "address",
          "name": "account",
          "type": "address"
        },
        {
          "indexed": true,
          "internalType": "address",
          "name": "sender",
          "type": "address"
        }
      ],
      "name": "RoleRevoked",
      "type": "event"
    },
    {
      "anonymous": false,
      "inputs": [
        {
          "indexed": true,
          "internalType": "address",
          "name": "from",
          "type": "address"
        },
        {
          "indexed": true,
          "internalType": "address",
          "name": "to",
          "type": "address"
        },
        {
          "indexed": true,
          "internalType": "uint256",
          "name": "tokenId",
          "type": "uint256"
        }
      ],
      "name": "Transfer",
      "type": "event"
    },
    {
      "anonymous": false,
      "inputs": [
        {
          "indexed": false,
          "internalType": "address",
          "name": "account",
          "type": "address"
        }
      ],
      "name": "Unpaused",
      "type": "event"
    },
    {
      "inputs": [],
      "name": "DEFAULT_ADMIN_ROLE",
      "outputs": [
        {
          "internalType": "bytes32",
          "name": "",
          "type": "bytes32"
        }
      ],
      "stateMutability": "view",
      "type": "function"
    },
    {
      "inputs": [],
      "name": "MINTER_ROLE",
      "outputs": [
        {
          "internalType": "bytes32",
          "name": "",
          "type": "bytes32"
        }
      ],
      "stateMutability": "view",
      "type": "function"
    },
    {
      "inputs": [],
      "name": "PAUSER_ROLE",
      "outputs": [
        {
          "internalType": "bytes32",
          "name": "",
          "type": "bytes32"
        }
      ],
      "stateMutability": "view",
      "type": "function"
    },
    {
      "inputs": [
        {
          "internalType": "uint256",
          "name": "",
          "type": "uint256"
        }
      ],
      "name": "URI",
      "outputs": [
        {
          "internalType": "string",
          "name": "",
          "type": "string"
        }
      ],
      "stateMutability": "view",
      "type": "function"
    },
    {
      "inputs": [
        {
          "internalType": "uint256",
          "name": "_tokenId",
          "type": "uint256"
        }
      ],
      "name": "acceptBid",
      "outputs": [],
      "stateMutability": "payable",
      "type": "function"
    },
    {
      "inputs": [
        {
          "internalType": "address",
          "name": "to",
          "type": "address"
        },
        {
          "internalType": "uint256",
          "name": "tokenId",
          "type": "uint256"
        }
      ],
      "name": "approve",
      "outputs": [],
      "stateMutability": "nonpayable",
      "type": "function"
    },
    {
      "inputs": [
        {
          "internalType": "address",
          "name": "owner",
          "type": "address"
        }
      ],
      "name": "balanceOf",
      "outputs": [
        {
          "internalType": "uint256",
          "name": "",
          "type": "uint256"
        }
      ],
      "stateMutability": "view",
      "type": "function"
    },
    {
      "inputs": [],
      "name": "bidExecutor",
      "outputs": [
        {
          "internalType": "address",
          "name": "",
          "type": "address"
        }
      ],
      "stateMutability": "view",
      "type": "function"
    },
    {
      "inputs": [
        {
          "internalType": "uint256",
          "name": "",
          "type": "uint256"
        }
      ],
      "name": "bids",
      "outputs": [
        {
          "internalType": "address",
          "name": "bidder",
          "type": "address"
        },
        {
          "internalType": "uint256",
          "name": "bidValue",
          "type": "uint256"
        }
      ],
      "stateMutability": "view",
      "type": "function"
    },
    {
      "inputs": [
        {
          "internalType": "uint256",
          "name": "tokenId",
          "type": "uint256"
        }
      ],
      "name": "burn",
      "outputs": [],
      "stateMutability": "nonpayable",
      "type": "function"
    },
    {
      "inputs": [
        {
          "internalType": "uint256",
          "name": "tokenId",
          "type": "uint256"
        }
      ],
      "name": "getApproved",
      "outputs": [
        {
          "internalType": "address",
          "name": "",
          "type": "address"
        }
      ],
      "stateMutability": "view",
      "type": "function"
    },
    {
      "inputs": [
        {
          "internalType": "uint256",
          "name": "_tokenId",
          "type": "uint256"
        }
      ],
      "name": "getCurrentBidValue",
      "outputs": [
        {
          "internalType": "uint256",
          "name": "",
          "type": "uint256"
        }
      ],
      "stateMutability": "view",
      "type": "function"
    },
    {
      "inputs": [
        {
          "internalType": "uint256",
          "name": "_tokenId",
          "type": "uint256"
        }
      ],
      "name": "getCurrentBidder",
      "outputs": [
        {
          "internalType": "address",
          "name": "",
          "type": "address"
        }
      ],
      "stateMutability": "view",
      "type": "function"
    },
    {
      "inputs": [
        {
          "internalType": "bytes32",
          "name": "role",
          "type": "bytes32"
        }
      ],
      "name": "getRoleAdmin",
      "outputs": [
        {
          "internalType": "bytes32",
          "name": "",
          "type": "bytes32"
        }
      ],
      "stateMutability": "view",
      "type": "function"
    },
    {
      "inputs": [
        {
          "internalType": "bytes32",
          "name": "role",
          "type": "bytes32"
        },
        {
          "internalType": "uint256",
          "name": "index",
          "type": "uint256"
        }
      ],
      "name": "getRoleMember",
      "outputs": [
        {
          "internalType": "address",
          "name": "",
          "type": "address"
        }
      ],
      "stateMutability": "view",
      "type": "function"
    },
    {
      "inputs": [
        {
          "internalType": "bytes32",
          "name": "role",
          "type": "bytes32"
        }
      ],
      "name": "getRoleMemberCount",
      "outputs": [
        {
          "internalType": "uint256",
          "name": "",
          "type": "uint256"
        }
      ],
      "stateMutability": "view",
      "type": "function"
    },
    {
      "inputs": [
        {
          "internalType": "uint256",
          "name": "_tokenId",
          "type": "uint256"
        }
      ],
      "name": "getThresholdStatus",
      "outputs": [
        {
          "internalType": "bool",
          "name": "",
          "type": "bool"
        }
      ],
      "stateMutability": "view",
      "type": "function"
    },
    {
      "inputs": [
        {
          "internalType": "uint256",
          "name": "_tokenId",
          "type": "uint256"
        }
      ],
      "name": "getThresholdValue",
      "outputs": [
        {
          "internalType": "uint256",
          "name": "",
          "type": "uint256"
        }
      ],
      "stateMutability": "view",
      "type": "function"
    },
    {
      "inputs": [
        {
          "internalType": "address",
          "name": "_addr",
          "type": "address"
        }
      ],
      "name": "grantMinterRole",
      "outputs": [],
      "stateMutability": "nonpayable",
      "type": "function"
    },
    {
      "inputs": [
        {
          "internalType": "bytes32",
          "name": "role",
          "type": "bytes32"
        },
        {
          "internalType": "address",
          "name": "account",
          "type": "address"
        }
      ],
      "name": "grantRole",
      "outputs": [],
      "stateMutability": "nonpayable",
      "type": "function"
    },
    {
      "inputs": [
        {
          "internalType": "bytes32",
          "name": "role",
          "type": "bytes32"
        },
        {
          "internalType": "address",
          "name": "account",
          "type": "address"
        }
      ],
      "name": "hasRole",
      "outputs": [
        {
          "internalType": "bool",
          "name": "",
          "type": "bool"
        }
      ],
      "stateMutability": "view",
      "type": "function"
    },
    {
      "inputs": [
        {
          "internalType": "address",
          "name": "owner",
          "type": "address"
        },
        {
          "internalType": "address",
          "name": "operator",
          "type": "address"
        }
      ],
      "name": "isApprovedForAll",
      "outputs": [
        {
          "internalType": "bool",
          "name": "",
          "type": "bool"
        }
      ],
      "stateMutability": "view",
      "type": "function"
    },
    {
      "inputs": [
        {
          "internalType": "uint256",
          "name": "_tokenId",
          "type": "uint256"
        },
        {
          "internalType": "uint256",
          "name": "_bidValue",
          "type": "uint256"
        }
      ],
      "name": "makeBid",
      "outputs": [],
      "stateMutability": "payable",
      "type": "function"
    },
    {
      "inputs": [
        {
          "internalType": "address",
          "name": "_to",
          "type": "address"
        },
        {
          "internalType": "string",
          "name": "_URI",
          "type": "string"
        }
      ],
      "name": "mint",
      "outputs": [],
      "stateMutability": "nonpayable",
      "type": "function"
    },
    {
      "inputs": [],
      "name": "name",
      "outputs": [
        {
          "internalType": "string",
          "name": "",
          "type": "string"
        }
      ],
      "stateMutability": "view",
      "type": "function"
    },
    {
      "inputs": [
        {
          "internalType": "uint256",
          "name": "tokenId",
          "type": "uint256"
        }
      ],
      "name": "ownerOf",
      "outputs": [
        {
          "internalType": "address",
          "name": "",
          "type": "address"
        }
      ],
      "stateMutability": "view",
      "type": "function"
    },
    {
      "inputs": [],
      "name": "pause",
      "outputs": [],
      "stateMutability": "nonpayable",
      "type": "function"
    },
    {
      "inputs": [],
      "name": "paused",
      "outputs": [
        {
          "internalType": "bool",
          "name": "",
          "type": "bool"
        }
      ],
      "stateMutability": "view",
      "type": "function"
    },
    {
      "inputs": [
        {
          "internalType": "bytes32",
          "name": "role",
          "type": "bytes32"
        },
        {
          "internalType": "address",
          "name": "account",
          "type": "address"
        }
      ],
      "name": "renounceRole",
      "outputs": [],
      "stateMutability": "nonpayable",
      "type": "function"
    },
    {
      "inputs": [
        {
          "internalType": "bytes32",
          "name": "role",
          "type": "bytes32"
        },
        {
          "internalType": "address",
          "name": "account",
          "type": "address"
        }
      ],
      "name": "revokeRole",
      "outputs": [],
      "stateMutability": "nonpayable",
      "type": "function"
    },
    {
      "inputs": [
        {
          "internalType": "address",
          "name": "from",
          "type": "address"
        },
        {
          "internalType": "address",
          "name": "to",
          "type": "address"
        },
        {
          "internalType": "uint256",
          "name": "tokenId",
          "type": "uint256"
        }
      ],
      "name": "safeTransferFrom",
      "outputs": [],
      "stateMutability": "nonpayable",
      "type": "function"
    },
    {
      "inputs": [
        {
          "internalType": "address",
          "name": "from",
          "type": "address"
        },
        {
          "internalType": "address",
          "name": "to",
          "type": "address"
        },
        {
          "internalType": "uint256",
          "name": "tokenId",
          "type": "uint256"
        },
        {
          "internalType": "bytes",
          "name": "_data",
          "type": "bytes"
        }
      ],
      "name": "safeTransferFrom",
      "outputs": [],
      "stateMutability": "nonpayable",
      "type": "function"
    },
    {
      "inputs": [
        {
          "internalType": "address",
          "name": "operator",
          "type": "address"
        },
        {
          "internalType": "bool",
          "name": "approved",
          "type": "bool"
        }
      ],
      "name": "setApprovalForAll",
      "outputs": [],
      "stateMutability": "nonpayable",
      "type": "function"
    },
    {
      "inputs": [
        {
          "internalType": "uint256",
          "name": "_tokenId",
          "type": "uint256"
        },
        {
          "internalType": "uint256",
          "name": "_value",
          "type": "uint256"
        },
        {
          "internalType": "bool",
          "name": "_active",
          "type": "bool"
        }
      ],
      "name": "setThreshold",
      "outputs": [],
      "stateMutability": "nonpayable",
      "type": "function"
    },
    {
      "inputs": [
        {
          "internalType": "bytes4",
          "name": "interfaceId",
          "type": "bytes4"
        }
      ],
      "name": "supportsInterface",
      "outputs": [
        {
          "internalType": "bool",
          "name": "",
          "type": "bool"
        }
      ],
      "stateMutability": "view",
      "type": "function"
    },
    {
      "inputs": [],
      "name": "symbol",
      "outputs": [
        {
          "internalType": "string",
          "name": "",
          "type": "string"
        }
      ],
      "stateMutability": "view",
      "type": "function"
    },
    {
      "inputs": [
        {
          "internalType": "uint256",
          "name": "",
          "type": "uint256"
        }
      ],
      "name": "threshold",
      "outputs": [
        {
          "internalType": "uint256",
          "name": "value",
          "type": "uint256"
        },
        {
          "internalType": "bool",
          "name": "active",
          "type": "bool"
        }
      ],
      "stateMutability": "view",
      "type": "function"
    },
    {
      "inputs": [
        {
          "internalType": "uint256",
          "name": "index",
          "type": "uint256"
        }
      ],
      "name": "tokenByIndex",
      "outputs": [
        {
          "internalType": "uint256",
          "name": "",
          "type": "uint256"
        }
      ],
      "stateMutability": "view",
      "type": "function"
    },
    {
      "inputs": [
        {
          "internalType": "address",
          "name": "owner",
          "type": "address"
        },
        {
          "internalType": "uint256",
          "name": "index",
          "type": "uint256"
        }
      ],
      "name": "tokenOfOwnerByIndex",
      "outputs": [
        {
          "internalType": "uint256",
          "name": "",
          "type": "uint256"
        }
      ],
      "stateMutability": "view",
      "type": "function"
    },
    {
      "inputs": [
        {
          "internalType": "uint256",
          "name": "_tokenId",
          "type": "uint256"
        }
      ],
      "name": "tokenURI",
      "outputs": [
        {
          "internalType": "string",
          "name": "",
          "type": "string"
        }
      ],
      "stateMutability": "view",
      "type": "function"
    },
    {
      "inputs": [],
      "name": "totalSupply",
      "outputs": [
        {
          "internalType": "uint256",
          "name": "",
          "type": "uint256"
        }
      ],
      "stateMutability": "view",
      "type": "function"
    },
    {
      "inputs": [],
      "name": "totalTokensMinted",
      "outputs": [
        {
          "internalType": "uint256",
          "name": "",
          "type": "uint256"
        }
      ],
      "stateMutability": "view",
      "type": "function"
    },
    {
      "inputs": [
        {
          "internalType": "address",
          "name": "from",
          "type": "address"
        },
        {
          "internalType": "address",
          "name": "to",
          "type": "address"
        },
        {
          "internalType": "uint256",
          "name": "tokenId",
          "type": "uint256"
        }
      ],
      "name": "transferFrom",
      "outputs": [],
      "stateMutability": "nonpayable",
      "type": "function"
    },
    {
      "inputs": [],
      "name": "unpause",
      "outputs": [],
      "stateMutability": "nonpayable",
      "type": "function"
    }
  ],
  "bytecode": "0x60806040523480156200001157600080fd5b506040516200651138038062006511833981810160405281019062000037919062000575565b82826040518060200160405280600081525082828160029080519060200190620000639291906200043c565b5080600390805190602001906200007c9291906200043c565b5050506000600c60006101000a81548160ff02191690831515021790555080600e9080519060200190620000b29291906200043c565b50620000d76000801b620000cb620001a660201b60201c565b620001ae60201b60201c565b620001187f9f2df0fed2c77648de5860a4cc508cd0818c85b8b8a1ab4ceeef8d981c8956a66200010c620001a660201b60201c565b620001ae60201b60201c565b620001597f65d7a28e3265b37a6474929f336521b332c1681b933f6cb9f3376673440d862a6200014d620001a660201b60201c565b620001ae60201b60201c565b50505080601060006101000a81548173ffffffffffffffffffffffffffffffffffffffff021916908373ffffffffffffffffffffffffffffffffffffffff160217905550505050620007bb565b600033905090565b620001c58282620001f660201b620025df1760201c565b620001f181600160008581526020019081526020016000206200020c60201b620025ed1790919060201c565b505050565b6200020882826200024460201b60201c565b5050565b60006200023c836000018373ffffffffffffffffffffffffffffffffffffffff1660001b6200033560201b60201c565b905092915050565b620002568282620003af60201b60201c565b6200033157600160008084815260200190815260200160002060000160008373ffffffffffffffffffffffffffffffffffffffff1673ffffffffffffffffffffffffffffffffffffffff16815260200190815260200160002060006101000a81548160ff021916908315150217905550620002d6620001a660201b60201c565b73ffffffffffffffffffffffffffffffffffffffff168173ffffffffffffffffffffffffffffffffffffffff16837f2f8788117e7eff1d82e926ec794901d17c78024a50270940304540a733656f0d60405160405180910390a45b5050565b60006200034983836200041960201b60201c565b620003a4578260000182908060018154018082558091505060019003906000526020600020016000909190919091505582600001805490508360010160008481526020019081526020016000208190555060019050620003a9565b600090505b92915050565b600080600084815260200190815260200160002060000160008373ffffffffffffffffffffffffffffffffffffffff1673ffffffffffffffffffffffffffffffffffffffff16815260200190815260200160002060009054906101000a900460ff16905092915050565b600080836001016000848152602001908152602001600020541415905092915050565b8280546200044a90620006c6565b90600052602060002090601f0160209004810192826200046e5760008555620004ba565b82601f106200048957805160ff1916838001178555620004ba565b82800160010185558215620004ba579182015b82811115620004b95782518255916020019190600101906200049c565b5b509050620004c99190620004cd565b5090565b5b80821115620004e8576000816000905550600101620004ce565b5090565b600062000503620004fd8462000626565b620005fd565b9050828152602081018484840111156200051c57600080fd5b6200052984828562000690565b509392505050565b6000815190506200054281620007a1565b92915050565b600082601f8301126200055a57600080fd5b81516200056c848260208601620004ec565b91505092915050565b6000806000606084860312156200058b57600080fd5b600084015167ffffffffffffffff811115620005a657600080fd5b620005b48682870162000548565b935050602084015167ffffffffffffffff811115620005d257600080fd5b620005e08682870162000548565b9250506040620005f38682870162000531565b9150509250925092565b6000620006096200061c565b9050620006178282620006fc565b919050565b6000604051905090565b600067ffffffffffffffff82111562000644576200064362000761565b5b6200064f8262000790565b9050602081019050919050565b6000620006698262000670565b9050919050565b600073ffffffffffffffffffffffffffffffffffffffff82169050919050565b60005b83811015620006b057808201518184015260208101905062000693565b83811115620006c0576000848401525b50505050565b60006002820490506001821680620006df57607f821691505b60208210811415620006f657620006f562000732565b5b50919050565b620007078262000790565b810181811067ffffffffffffffff8211171562000729576200072862000761565b5b80604052505050565b7f4e487b7100000000000000000000000000000000000000000000000000000000600052602260045260246000fd5b7f4e487b7100000000000000000000000000000000000000000000000000000000600052604160045260246000fd5b6000601f19601f8301169050919050565b620007ac816200065c565b8114620007b857600080fd5b50565b615d4680620007cb6000396000f3fe6080604052600436106102675760003560e01c80637d549e9911610144578063bb50aa3a116100b6578063d53913931161007a578063d539139314610994578063d547741f146109bf578063dbd56ef7146109e8578063e63ab1e914610a25578063e985e9c514610a50578063e9a4d93114610a8d57610267565b8063bb50aa3a14610889578063bd6dbecc146108c6578063c87b56dd146108f1578063ca15c8731461092e578063d0def5211461096b57610267565b806391d148541161010857806391d148541461078857806395d89b41146107c5578063a217fddf146107f0578063a22cb4651461081b578063adfcdc1114610844578063b88d4fde1461086057610267565b80637d549e99146106a3578063844f4af6146106ce5780638456cb59146106f75780639010d07c1461070e578063901e1c011461074b57610267565b806331eb7a1a116101dd57806342966c68116101a157806342966c681461055a5780634423c5f1146105835780634f6ccce7146105c15780635c975abb146105fe5780636352211e1461062957806370a082311461066657610267565b806331eb7a1a1461048a57806336568abe146104c85780633dd1eb61146104f15780633f4ba83a1461051a57806342842e0e1461053157610267565b806323b872dd1161022f57806323b872dd14610365578063248a9ca31461038e5780632b05ff1d146103cb5780632b1fd58a146104085780632f2ff15d146104245780632f745c591461044d57610267565b806301ffc9a71461026c57806306fdde03146102a9578063081812fc146102d4578063095ea7b31461031157806318160ddd1461033a575b600080fd5b34801561027857600080fd5b50610293600480360381019061028e91906143cf565b610aca565b6040516102a09190614af1565b60405180910390f35b3480156102b557600080fd5b506102be610adc565b6040516102cb9190614b27565b60405180910390f35b3480156102e057600080fd5b506102fb60048036038101906102f69190614421565b610b6e565b6040516103089190614a61565b60405180910390f35b34801561031d57600080fd5b50610338600480360381019061033391906142f2565b610bf3565b005b34801561034657600080fd5b5061034f610d0b565b60405161035c9190614f89565b60405180910390f35b34801561037157600080fd5b5061038c60048036038101906103879190614194565b610d18565b005b34801561039a57600080fd5b506103b560048036038101906103b0919061432e565b610d78565b6040516103c29190614b0c565b60405180910390f35b3480156103d757600080fd5b506103f260048036038101906103ed9190614421565b610d97565b6040516103ff9190614f89565b60405180910390f35b610422600480360381019061041d9190614421565b610dff565b005b34801561043057600080fd5b5061044b60048036038101906104469190614357565b6111a1565b005b34801561045957600080fd5b50610474600480360381019061046f91906142f2565b6111d5565b6040516104819190614f89565b60405180910390f35b34801561049657600080fd5b506104b160048036038101906104ac9190614421565b61127a565b6040516104bf929190614fcd565b60405180910390f35b3480156104d457600080fd5b506104ef60048036038101906104ea9190614357565b6112ab565b005b3480156104fd57600080fd5b506105186004803603810190610513919061412f565b6112df565b005b34801561052657600080fd5b5061052f61130c565b005b34801561053d57600080fd5b5061055860048036038101906105539190614194565b611386565b005b34801561056657600080fd5b50610581600480360381019061057c9190614421565b6113a6565b005b34801561058f57600080fd5b506105aa60048036038101906105a59190614421565b611402565b6040516105b8929190614ac8565b60405180910390f35b3480156105cd57600080fd5b506105e860048036038101906105e39190614421565b611446565b6040516105f59190614f89565b60405180910390f35b34801561060a57600080fd5b506106136114dd565b6040516106209190614af1565b60405180910390f35b34801561063557600080fd5b50610650600480360381019061064b9190614421565b6114f4565b60405161065d9190614a61565b60405180910390f35b34801561067257600080fd5b5061068d6004803603810190610688919061412f565b6115a6565b60405161069a9190614f89565b60405180910390f35b3480156106af57600080fd5b506106b861165e565b6040516106c59190614f89565b60405180910390f35b3480156106da57600080fd5b506106f560048036038101906106f09190614486565b611664565b005b34801561070357600080fd5b5061070c611770565b005b34801561071a57600080fd5b5061073560048036038101906107309190614393565b6117ea565b6040516107429190614a61565b60405180910390f35b34801561075757600080fd5b50610772600480360381019061076d9190614421565b611819565b60405161077f9190614b27565b60405180910390f35b34801561079457600080fd5b506107af60048036038101906107aa9190614357565b6118b9565b6040516107bc9190614af1565b60405180910390f35b3480156107d157600080fd5b506107da611923565b6040516107e79190614b27565b60405180910390f35b3480156107fc57600080fd5b506108056119b5565b6040516108129190614b0c565b60405180910390f35b34801561082757600080fd5b50610842600480360381019061083d919061425e565b6119bc565b005b61085e6004803603810190610859919061444a565b611b3d565b005b34801561086c57600080fd5b50610887600480360381019061088291906141e3565b612136565b005b34801561089557600080fd5b506108b060048036038101906108ab9190614421565b612198565b6040516108bd9190614a61565b60405180910390f35b3480156108d257600080fd5b506108db612220565b6040516108e89190614a61565b60405180910390f35b3480156108fd57600080fd5b5061091860048036038101906109139190614421565b612246565b6040516109259190614b27565b60405180910390f35b34801561093a57600080fd5b506109556004803603810190610950919061432e565b612333565b6040516109629190614f89565b60405180910390f35b34801561097757600080fd5b50610992600480360381019061098d919061429a565b612357565b005b3480156109a057600080fd5b506109a96123f2565b6040516109b69190614b0c565b60405180910390f35b3480156109cb57600080fd5b506109e660048036038101906109e19190614357565b612416565b005b3480156109f457600080fd5b50610a0f6004803603810190610a0a9190614421565b61244a565b604051610a1c9190614f89565b60405180910390f35b348015610a3157600080fd5b50610a3a6124b2565b604051610a479190614b0c565b60405180910390f35b348015610a5c57600080fd5b50610a776004803603810190610a729190614158565b6124d6565b604051610a849190614af1565b60405180910390f35b348015610a9957600080fd5b50610ab46004803603810190610aaf9190614421565b61256a565b604051610ac19190614af1565b60405180910390f35b6000610ad58261261d565b9050919050565b606060028054610aeb906151d9565b80601f0160208091040260200160405190810160405280929190818152602001828054610b17906151d9565b8015610b645780601f10610b3957610100808354040283529160200191610b64565b820191906000526020600020905b815481529060010190602001808311610b4757829003601f168201915b5050505050905090565b6000610b7982612697565b610bb8576040517f08c379a0000000000000000000000000000000000000000000000000000000008152600401610baf90614de9565b60405180910390fd5b6006600083815260200190815260200160002060009054906101000a900473ffffffffffffffffffffffffffffffffffffffff169050919050565b6000610bfe826114f4565b90508073ffffffffffffffffffffffffffffffffffffffff168373ffffffffffffffffffffffffffffffffffffffff161415610c6f576040517f08c379a0000000000000000000000000000000000000000000000000000000008152600401610c6690614e49565b60405180910390fd5b8073ffffffffffffffffffffffffffffffffffffffff16610c8e612703565b73ffffffffffffffffffffffffffffffffffffffff161480610cbd5750610cbc81610cb7612703565b6124d6565b5b610cfc576040517f08c379a0000000000000000000000000000000000000000000000000000000008152600401610cf390614d49565b60405180910390fd5b610d06838361270b565b505050565b6000600a80549050905090565b610d29610d23612703565b826127c4565b610d68576040517f08c379a0000000000000000000000000000000000000000000000000000000008152600401610d5f90614e89565b60405180910390fd5b610d738383836128a2565b505050565b6000806000838152602001908152602001600020600101549050919050565b6000610da282612697565b610de1576040517f08c379a0000000000000000000000000000000000000000000000000000000008152600401610dd890614b49565b60405180910390fd5b60116000838152602001908152602001600020600101549050919050565b6000601160008381526020019081526020016000206040518060400160405290816000820160009054906101000a900473ffffffffffffffffffffffffffffffffffffffff1673ffffffffffffffffffffffffffffffffffffffff1673ffffffffffffffffffffffffffffffffffffffff1681526020016001820154815250509050610e8a82612697565b610ec9576040517f08c379a0000000000000000000000000000000000000000000000000000000008152600401610ec090614b49565b60405180910390fd5b610ed2826114f4565b73ffffffffffffffffffffffffffffffffffffffff163373ffffffffffffffffffffffffffffffffffffffff1614610f3f576040517f08c379a0000000000000000000000000000000000000000000000000000000008152600401610f3690614e69565b60405180910390fd5b600073ffffffffffffffffffffffffffffffffffffffff16816000015173ffffffffffffffffffffffffffffffffffffffff161415610fb3576040517f08c379a0000000000000000000000000000000000000000000000000000000008152600401610faa90614ec9565b60405180910390fd5b60003373ffffffffffffffffffffffffffffffffffffffff168260200151604051610fdd90614a4c565b60006040518083038185875af1925050503d806000811461101a576040519150601f19603f3d011682016040523d82523d6000602084013e61101f565b606091505b5050905080611063576040517f08c379a000000000000000000000000000000000000000000000000000000000815260040161105a90614da9565b60405180910390fd5b6110823383600001518560405180602001604052806000815250612136565b816000015173ffffffffffffffffffffffffffffffffffffffff163373ffffffffffffffffffffffffffffffffffffffff16847fe6d56779a392535d3a591e92b65ba36f2ecc424bbf5220d0176a7da29385b50485602001516040516110e89190614f89565b60405180910390a46000826000019073ffffffffffffffffffffffffffffffffffffffff16908173ffffffffffffffffffffffffffffffffffffffff16815250506000826020018181525050816011600085815260200190815260200160002060008201518160000160006101000a81548173ffffffffffffffffffffffffffffffffffffffff021916908373ffffffffffffffffffffffffffffffffffffffff16021790555060208201518160010155905050505050565b6111ab8282612afe565b6111d081600160008581526020019081526020016000206125ed90919063ffffffff16565b505050565b60006111e0836115a6565b8210611221576040517f08c379a000000000000000000000000000000000000000000000000000000000815260040161121890614c29565b60405180910390fd5b600860008473ffffffffffffffffffffffffffffffffffffffff1673ffffffffffffffffffffffffffffffffffffffff168152602001908152602001600020600083815260200190815260200160002054905092915050565b60126020528060005260406000206000915090508060000154908060010160009054906101000a900460ff16905082565b6112b58282612b64565b6112da8160016000858152602001908152602001600020612be790919063ffffffff16565b505050565b6113097f9f2df0fed2c77648de5860a4cc508cd0818c85b8b8a1ab4ceeef8d981c8956a6826111a1565b50565b61133d7f65d7a28e3265b37a6474929f336521b332c1681b933f6cb9f3376673440d862a611338612703565b6118b9565b61137c576040517f08c379a000000000000000000000000000000000000000000000000000000000815260040161137390614f49565b60405180910390fd5b611384612c17565b565b6113a183838360405180602001604052806000815250612136565b505050565b6113b76113b1612703565b826127c4565b6113f6576040517f08c379a00000000000000000000000000000000000000000000000000000000081526004016113ed90614f29565b60405180910390fd5b6113ff81612cb9565b50565b60116020528060005260406000206000915090508060000160009054906101000a900473ffffffffffffffffffffffffffffffffffffffff16908060010154905082565b6000611450610d0b565b8210611491576040517f08c379a000000000000000000000000000000000000000000000000000000000815260040161148890614ea9565b60405180910390fd5b600a82815481106114cb577f4e487b7100000000000000000000000000000000000000000000000000000000600052603260045260246000fd5b90600052602060002001549050919050565b6000600c60009054906101000a900460ff16905090565b6000806004600084815260200190815260200160002060009054906101000a900473ffffffffffffffffffffffffffffffffffffffff169050600073ffffffffffffffffffffffffffffffffffffffff168173ffffffffffffffffffffffffffffffffffffffff16141561159d576040517f08c379a000000000000000000000000000000000000000000000000000000000815260040161159490614d89565b60405180910390fd5b80915050919050565b60008073ffffffffffffffffffffffffffffffffffffffff168273ffffffffffffffffffffffffffffffffffffffff161415611617576040517f08c379a000000000000000000000000000000000000000000000000000000000815260040161160e90614d69565b60405180910390fd5b600560008373ffffffffffffffffffffffffffffffffffffffff1673ffffffffffffffffffffffffffffffffffffffff168152602001908152602001600020549050919050565b600f5481565b61166d83612697565b6116ac576040517f08c379a00000000000000000000000000000000000000000000000000000000081526004016116a390614b49565b60405180910390fd5b6116b5836114f4565b73ffffffffffffffffffffffffffffffffffffffff163373ffffffffffffffffffffffffffffffffffffffff1614611722576040517f08c379a000000000000000000000000000000000000000000000000000000000815260040161171990614e69565b60405180910390fd5b816012600085815260200190815260200160002060000181905550806012600085815260200190815260200160002060010160006101000a81548160ff021916908315150217905550505050565b6117a17f65d7a28e3265b37a6474929f336521b332c1681b933f6cb9f3376673440d862a61179c612703565b6118b9565b6117e0576040517f08c379a00000000000000000000000000000000000000000000000000000000081526004016117d790614c89565b60405180910390fd5b6117e8612dca565b565b60006118118260016000868152602001908152602001600020612e6d90919063ffffffff16565b905092915050565b60136020528060005260406000206000915090508054611838906151d9565b80601f0160208091040260200160405190810160405280929190818152602001828054611864906151d9565b80156118b15780601f10611886576101008083540402835291602001916118b1565b820191906000526020600020905b81548152906001019060200180831161189457829003601f168201915b505050505081565b600080600084815260200190815260200160002060000160008373ffffffffffffffffffffffffffffffffffffffff1673ffffffffffffffffffffffffffffffffffffffff16815260200190815260200160002060009054906101000a900460ff16905092915050565b606060038054611932906151d9565b80601f016020809104026020016040519081016040528092919081815260200182805461195e906151d9565b80156119ab5780601f10611980576101008083540402835291602001916119ab565b820191906000526020600020905b81548152906001019060200180831161198e57829003601f168201915b5050505050905090565b6000801b81565b6119c4612703565b73ffffffffffffffffffffffffffffffffffffffff168273ffffffffffffffffffffffffffffffffffffffff161415611a32576040517f08c379a0000000000000000000000000000000000000000000000000000000008152600401611a2990614cc9565b60405180910390fd5b8060076000611a3f612703565b73ffffffffffffffffffffffffffffffffffffffff1673ffffffffffffffffffffffffffffffffffffffff16815260200190815260200160002060008473ffffffffffffffffffffffffffffffffffffffff1673ffffffffffffffffffffffffffffffffffffffff16815260200190815260200160002060006101000a81548160ff0219169083151502179055508173ffffffffffffffffffffffffffffffffffffffff16611aec612703565b73ffffffffffffffffffffffffffffffffffffffff167f17307eab39ab6107e8899845ad3d59bd9653f200f220920489ca2b5937696c3183604051611b319190614af1565b60405180910390a35050565b6000601160008481526020019081526020016000206040518060400160405290816000820160009054906101000a900473ffffffffffffffffffffffffffffffffffffffff1673ffffffffffffffffffffffffffffffffffffffff1673ffffffffffffffffffffffffffffffffffffffff1681526020016001820154815250509050611bc883612697565b611c07576040517f08c379a0000000000000000000000000000000000000000000000000000000008152600401611bfe90614b49565b60405180910390fd5b348214611c49576040517f08c379a0000000000000000000000000000000000000000000000000000000008152600401611c4090614ee9565b60405180910390fd5b80602001518211611c8f576040517f08c379a0000000000000000000000000000000000000000000000000000000008152600401611c8690614b89565b60405180910390fd5b600073ffffffffffffffffffffffffffffffffffffffff16816000015173ffffffffffffffffffffffffffffffffffffffff1614611d7d576000816000015173ffffffffffffffffffffffffffffffffffffffff168260200151604051611cf590614a4c565b60006040518083038185875af1925050503d8060008114611d32576040519150601f19603f3d011682016040523d82523d6000602084013e611d37565b606091505b5050905080611d7b576040517f08c379a0000000000000000000000000000000000000000000000000000000008152600401611d7290614c09565b60405180910390fd5b505b6012600084815260200190815260200160002060010160009054906101000a900460ff168015611dc3575060126000848152602001908152602001600020600001543410155b1561202f576000611dd3846114f4565b73ffffffffffffffffffffffffffffffffffffffff1634604051611df690614a4c565b60006040518083038185875af1925050503d8060008114611e33576040519150601f19603f3d011682016040523d82523d6000602084013e611e38565b606091505b5050905080611e7c576040517f08c379a0000000000000000000000000000000000000000000000000000000008152600401611e7390614da9565b60405180910390fd5b601060009054906101000a900473ffffffffffffffffffffffffffffffffffffffff1673ffffffffffffffffffffffffffffffffffffffff16635c02f41985336040518363ffffffff1660e01b8152600401611ed9929190614fa4565b600060405180830381600087803b158015611ef357600080fd5b505af1158015611f07573d6000803e3d6000fd5b505050506000826000019073ffffffffffffffffffffffffffffffffffffffff16908173ffffffffffffffffffffffffffffffffffffffff16815250506000826020018181525050816011600086815260200190815260200160002060008201518160000160006101000a81548173ffffffffffffffffffffffffffffffffffffffff021916908373ffffffffffffffffffffffffffffffffffffffff160217905550602082015181600101559050503373ffffffffffffffffffffffffffffffffffffffff16611fd7856114f4565b73ffffffffffffffffffffffffffffffffffffffff16857fe6d56779a392535d3a591e92b65ba36f2ecc424bbf5220d0176a7da29385b50485602001516040516120219190614f89565b60405180910390a450612131565b33816000019073ffffffffffffffffffffffffffffffffffffffff16908173ffffffffffffffffffffffffffffffffffffffff168152505081816020018181525050806011600085815260200190815260200160002060008201518160000160006101000a81548173ffffffffffffffffffffffffffffffffffffffff021916908373ffffffffffffffffffffffffffffffffffffffff16021790555060208201518160010155905050806000015173ffffffffffffffffffffffffffffffffffffffff16837f558a0d5d5468d74b0db24c74eb348b42271c2ebb4c9e953ced38aaed95fa436183602001516040516121289190614f89565b60405180910390a35b505050565b612147612141612703565b836127c4565b612186576040517f08c379a000000000000000000000000000000000000000000000000000000000815260040161217d90614e89565b60405180910390fd5b61219284848484612e87565b50505050565b60006121a382612697565b6121e2576040517f08c379a00000000000000000000000000000000000000000000000000000000081526004016121d990614b49565b60405180910390fd5b6011600083815260200190815260200160002060000160009054906101000a900473ffffffffffffffffffffffffffffffffffffffff169050919050565b601060009054906101000a900473ffffffffffffffffffffffffffffffffffffffff1681565b606061225182612697565b612290576040517f08c379a000000000000000000000000000000000000000000000000000000000815260040161228790614e29565b60405180910390fd5b6013600083815260200190815260200160002080546122ae906151d9565b80601f01602080910402602001604051908101604052809291908181526020018280546122da906151d9565b80156123275780601f106122fc57610100808354040283529160200191612327565b820191906000526020600020905b81548152906001019060200180831161230a57829003601f168201915b50505050509050919050565b600061235060016000848152602001908152602001600020612ee3565b9050919050565b61238333601060009054906101000a900473ffffffffffffffffffffffffffffffffffffffff166124d6565b6123b5576123b4601060009054906101000a900473ffffffffffffffffffffffffffffffffffffffff1660016119bc565b5b60006123c084612ef8565b905080600f8190555082826013600084815260200190815260200160002091906123eb929190613f5c565b5050505050565b7f9f2df0fed2c77648de5860a4cc508cd0818c85b8b8a1ab4ceeef8d981c8956a681565b6124208282612f98565b6124458160016000858152602001908152602001600020612be790919063ffffffff16565b505050565b600061245582612697565b612494576040517f08c379a000000000000000000000000000000000000000000000000000000000815260040161248b90614b49565b60405180910390fd5b60126000838152602001908152602001600020600001549050919050565b7f65d7a28e3265b37a6474929f336521b332c1681b933f6cb9f3376673440d862a81565b6000600760008473ffffffffffffffffffffffffffffffffffffffff1673ffffffffffffffffffffffffffffffffffffffff16815260200190815260200160002060008373ffffffffffffffffffffffffffffffffffffffff1673ffffffffffffffffffffffffffffffffffffffff16815260200190815260200160002060009054906101000a900460ff16905092915050565b600061257582612697565b6125b4576040517f08c379a00000000000000000000000000000000000000000000000000000000081526004016125ab90614b49565b60405180910390fd5b6012600083815260200190815260200160002060010160009054906101000a900460ff169050919050565b6125e98282612ffe565b5050565b6000612615836000018373ffffffffffffffffffffffffffffffffffffffff1660001b6130de565b905092915050565b60007f780e9d63000000000000000000000000000000000000000000000000000000007bffffffffffffffffffffffffffffffffffffffffffffffffffffffff1916827bffffffffffffffffffffffffffffffffffffffffffffffffffffffff19161480612690575061268f8261314e565b5b9050919050565b60008073ffffffffffffffffffffffffffffffffffffffff166004600084815260200190815260200160002060009054906101000a900473ffffffffffffffffffffffffffffffffffffffff1673ffffffffffffffffffffffffffffffffffffffff1614159050919050565b600033905090565b816006600083815260200190815260200160002060006101000a81548173ffffffffffffffffffffffffffffffffffffffff021916908373ffffffffffffffffffffffffffffffffffffffff160217905550808273ffffffffffffffffffffffffffffffffffffffff1661277e836114f4565b73ffffffffffffffffffffffffffffffffffffffff167f8c5be1e5ebec7d5bd14f71427d1e84f3dd0314c0f7b2291e5b200ac8c7c3b92560405160405180910390a45050565b60006127cf82612697565b61280e576040517f08c379a000000000000000000000000000000000000000000000000000000000815260040161280590614ce9565b60405180910390fd5b6000612819836114f4565b90508073ffffffffffffffffffffffffffffffffffffffff168473ffffffffffffffffffffffffffffffffffffffff16148061288857508373ffffffffffffffffffffffffffffffffffffffff1661287084610b6e565b73ffffffffffffffffffffffffffffffffffffffff16145b80612899575061289881856124d6565b5b91505092915050565b8273ffffffffffffffffffffffffffffffffffffffff166128c2826114f4565b73ffffffffffffffffffffffffffffffffffffffff1614612918576040517f08c379a000000000000000000000000000000000000000000000000000000000815260040161290f90614e09565b60405180910390fd5b600073ffffffffffffffffffffffffffffffffffffffff168273ffffffffffffffffffffffffffffffffffffffff161415612988576040517f08c379a000000000000000000000000000000000000000000000000000000000815260040161297f90614ca9565b60405180910390fd5b612993838383613230565b61299e60008261270b565b6001600560008573ffffffffffffffffffffffffffffffffffffffff1673ffffffffffffffffffffffffffffffffffffffff16815260200190815260200160002060008282546129ee91906150e5565b925050819055506001600560008473ffffffffffffffffffffffffffffffffffffffff1673ffffffffffffffffffffffffffffffffffffffff1681526020019081526020016000206000828254612a45919061508f565b92505081905550816004600083815260200190815260200160002060006101000a81548173ffffffffffffffffffffffffffffffffffffffff021916908373ffffffffffffffffffffffffffffffffffffffff160217905550808273ffffffffffffffffffffffffffffffffffffffff168473ffffffffffffffffffffffffffffffffffffffff167fddf252ad1be2c89b69c2b068fc378daa952ba7f163c4a11628f55a4df523b3ef60405160405180910390a4505050565b612b17612b0a83610d78565b612b12612703565b6118b9565b612b56576040517f08c379a0000000000000000000000000000000000000000000000000000000008152600401612b4d90614bc9565b60405180910390fd5b612b608282612ffe565b5050565b612b6c612703565b73ffffffffffffffffffffffffffffffffffffffff168173ffffffffffffffffffffffffffffffffffffffff1614612bd9576040517f08c379a0000000000000000000000000000000000000000000000000000000008152600401612bd090614f69565b60405180910390fd5b612be38282613240565b5050565b6000612c0f836000018373ffffffffffffffffffffffffffffffffffffffff1660001b613321565b905092915050565b612c1f6114dd565b612c5e576040517f08c379a0000000000000000000000000000000000000000000000000000000008152600401612c5590614be9565b60405180910390fd5b6000600c60006101000a81548160ff0219169083151502179055507f5db9ee0a495bf2e6ff9c91a7834c1ba4fdd244a5e8aa4e537bd38aeae4b073aa612ca2612703565b604051612caf9190614a61565b60405180910390a1565b6000612cc4826114f4565b9050612cd281600084613230565b612cdd60008361270b565b6001600560008373ffffffffffffffffffffffffffffffffffffffff1673ffffffffffffffffffffffffffffffffffffffff1681526020019081526020016000206000828254612d2d91906150e5565b925050819055506004600083815260200190815260200160002060006101000a81549073ffffffffffffffffffffffffffffffffffffffff021916905581600073ffffffffffffffffffffffffffffffffffffffff168273ffffffffffffffffffffffffffffffffffffffff167fddf252ad1be2c89b69c2b068fc378daa952ba7f163c4a11628f55a4df523b3ef60405160405180910390a45050565b612dd26114dd565b15612e12576040517f08c379a0000000000000000000000000000000000000000000000000000000008152600401612e0990614d29565b60405180910390fd5b6001600c60006101000a81548160ff0219169083151502179055507f62e78cea01bee320cd4e420270b5ea74000d11b0c9f74754ebdbfc544b05a258612e56612703565b604051612e639190614a61565b60405180910390a1565b6000612e7c83600001836134ab565b60001c905092915050565b612e928484846128a2565b612e9e84848484613545565b612edd576040517f08c379a0000000000000000000000000000000000000000000000000000000008152600401612ed490614c49565b60405180910390fd5b50505050565b6000612ef1826000016136dc565b9050919050565b6000612f2b7f9f2df0fed2c77648de5860a4cc508cd0818c85b8b8a1ab4ceeef8d981c8956a6612f26612703565b6118b9565b612f6a576040517f08c379a0000000000000000000000000000000000000000000000000000000008152600401612f6190614f09565b60405180910390fd5b612f74600d6136ed565b612f8782612f82600d613703565b613711565b612f91600d613703565b9050919050565b612fb1612fa483610d78565b612fac612703565b6118b9565b612ff0576040517f08c379a0000000000000000000000000000000000000000000000000000000008152600401612fe790614d09565b60405180910390fd5b612ffa8282613240565b5050565b61300882826118b9565b6130da57600160008084815260200190815260200160002060000160008373ffffffffffffffffffffffffffffffffffffffff1673ffffffffffffffffffffffffffffffffffffffff16815260200190815260200160002060006101000a81548160ff02191690831515021790555061307f612703565b73ffffffffffffffffffffffffffffffffffffffff168173ffffffffffffffffffffffffffffffffffffffff16837f2f8788117e7eff1d82e926ec794901d17c78024a50270940304540a733656f0d60405160405180910390a45b5050565b60006130ea83836138df565b613143578260000182908060018154018082558091505060019003906000526020600020016000909190919091505582600001805490508360010160008481526020019081526020016000208190555060019050613148565b600090505b92915050565b60007f80ac58cd000000000000000000000000000000000000000000000000000000007bffffffffffffffffffffffffffffffffffffffffffffffffffffffff1916827bffffffffffffffffffffffffffffffffffffffffffffffffffffffff1916148061321957507f5b5e139f000000000000000000000000000000000000000000000000000000007bffffffffffffffffffffffffffffffffffffffffffffffffffffffff1916827bffffffffffffffffffffffffffffffffffffffffffffffffffffffff1916145b80613229575061322882613902565b5b9050919050565b61323b83838361397c565b505050565b61324a82826118b9565b1561331d57600080600084815260200190815260200160002060000160008373ffffffffffffffffffffffffffffffffffffffff1673ffffffffffffffffffffffffffffffffffffffff16815260200190815260200160002060006101000a81548160ff0219169083151502179055506132c2612703565b73ffffffffffffffffffffffffffffffffffffffff168173ffffffffffffffffffffffffffffffffffffffff16837ff6391f5c32d9c69d2a47ea670b442974b53935d1edc7fd64eb21e047a839171b60405160405180910390a45b5050565b6000808360010160008481526020019081526020016000205490506000811461349f57600060018261335391906150e5565b905060006001866000018054905061336b91906150e5565b905060008660000182815481106133ab577f4e487b7100000000000000000000000000000000000000000000000000000000600052603260045260246000fd5b90600052602060002001549050808760000184815481106133f5577f4e487b7100000000000000000000000000000000000000000000000000000000600052603260045260246000fd5b9060005260206000200181905550600183613410919061508f565b8760010160008381526020019081526020016000208190555086600001805480613463577f4e487b7100000000000000000000000000000000000000000000000000000000600052603160045260246000fd5b600190038181906000526020600020016000905590558660010160008781526020019081526020016000206000905560019450505050506134a5565b60009150505b92915050565b6000818360000180549050116134f6576040517f08c379a00000000000000000000000000000000000000000000000000000000081526004016134ed90614b69565b60405180910390fd5b826000018281548110613532577f4e487b7100000000000000000000000000000000000000000000000000000000600052603260045260246000fd5b9060005260206000200154905092915050565b60006135668473ffffffffffffffffffffffffffffffffffffffff166139d4565b156136cf578373ffffffffffffffffffffffffffffffffffffffff1663150b7a0261358f612703565b8786866040518563ffffffff1660e01b81526004016135b19493929190614a7c565b602060405180830381600087803b1580156135cb57600080fd5b505af19250505080156135fc57506040513d601f19601f820116820180604052508101906135f991906143f8565b60015b61367f573d806000811461362c576040519150601f19603f3d011682016040523d82523d6000602084013e613631565b606091505b50600081511415613677576040517f08c379a000000000000000000000000000000000000000000000000000000000815260040161366e90614c49565b60405180910390fd5b805181602001fd5b63150b7a0260e01b7bffffffffffffffffffffffffffffffffffffffffffffffffffffffff1916817bffffffffffffffffffffffffffffffffffffffffffffffffffffffff1916149150506136d4565b600190505b949350505050565b600081600001805490509050919050565b6001816000016000828254019250508190555050565b600081600001549050919050565b600073ffffffffffffffffffffffffffffffffffffffff168273ffffffffffffffffffffffffffffffffffffffff161415613781576040517f08c379a000000000000000000000000000000000000000000000000000000000815260040161377890614dc9565b60405180910390fd5b61378a81612697565b156137ca576040517f08c379a00000000000000000000000000000000000000000000000000000000081526004016137c190614c69565b60405180910390fd5b6137d660008383613230565b6001600560008473ffffffffffffffffffffffffffffffffffffffff1673ffffffffffffffffffffffffffffffffffffffff1681526020019081526020016000206000828254613826919061508f565b92505081905550816004600083815260200190815260200160002060006101000a81548173ffffffffffffffffffffffffffffffffffffffff021916908373ffffffffffffffffffffffffffffffffffffffff160217905550808273ffffffffffffffffffffffffffffffffffffffff16600073ffffffffffffffffffffffffffffffffffffffff167fddf252ad1be2c89b69c2b068fc378daa952ba7f163c4a11628f55a4df523b3ef60405160405180910390a45050565b600080836001016000848152602001908152602001600020541415905092915050565b60007f5a05180f000000000000000000000000000000000000000000000000000000007bffffffffffffffffffffffffffffffffffffffffffffffffffffffff1916827bffffffffffffffffffffffffffffffffffffffffffffffffffffffff191614806139755750613974826139e7565b5b9050919050565b613987838383613a61565b61398f6114dd565b156139cf576040517f08c379a00000000000000000000000000000000000000000000000000000000081526004016139c690614ba9565b60405180910390fd5b505050565b600080823b905060008111915050919050565b60007f7965db0b000000000000000000000000000000000000000000000000000000007bffffffffffffffffffffffffffffffffffffffffffffffffffffffff1916827bffffffffffffffffffffffffffffffffffffffffffffffffffffffff19161480613a5a5750613a5982613b75565b5b9050919050565b613a6c838383613bdf565b600073ffffffffffffffffffffffffffffffffffffffff168373ffffffffffffffffffffffffffffffffffffffff161415613aaf57613aaa81613be4565b613aee565b8173ffffffffffffffffffffffffffffffffffffffff168373ffffffffffffffffffffffffffffffffffffffff1614613aed57613aec8382613c2d565b5b5b600073ffffffffffffffffffffffffffffffffffffffff168273ffffffffffffffffffffffffffffffffffffffff161415613b3157613b2c81613d9a565b613b70565b8273ffffffffffffffffffffffffffffffffffffffff168273ffffffffffffffffffffffffffffffffffffffff1614613b6f57613b6e8282613edd565b5b5b505050565b60007f01ffc9a7000000000000000000000000000000000000000000000000000000007bffffffffffffffffffffffffffffffffffffffffffffffffffffffff1916827bffffffffffffffffffffffffffffffffffffffffffffffffffffffff1916149050919050565b505050565b600a80549050600b600083815260200190815260200160002081905550600a81908060018154018082558091505060019003906000526020600020016000909190919091505550565b60006001613c3a846115a6565b613c4491906150e5565b9050600060096000848152602001908152602001600020549050818114613d29576000600860008673ffffffffffffffffffffffffffffffffffffffff1673ffffffffffffffffffffffffffffffffffffffff168152602001908152602001600020600084815260200190815260200160002054905080600860008773ffffffffffffffffffffffffffffffffffffffff1673ffffffffffffffffffffffffffffffffffffffff168152602001908152602001600020600084815260200190815260200160002081905550816009600083815260200190815260200160002081905550505b6009600084815260200190815260200160002060009055600860008573ffffffffffffffffffffffffffffffffffffffff1673ffffffffffffffffffffffffffffffffffffffff16815260200190815260200160002060008381526020019081526020016000206000905550505050565b60006001600a80549050613dae91906150e5565b90506000600b60008481526020019081526020016000205490506000600a8381548110613e04577f4e487b7100000000000000000000000000000000000000000000000000000000600052603260045260246000fd5b9060005260206000200154905080600a8381548110613e4c577f4e487b7100000000000000000000000000000000000000000000000000000000600052603260045260246000fd5b906000526020600020018190555081600b600083815260200190815260200160002081905550600b600085815260200190815260200160002060009055600a805480613ec1577f4e487b7100000000000000000000000000000000000000000000000000000000600052603160045260246000fd5b6001900381819060005260206000200160009055905550505050565b6000613ee8836115a6565b905081600860008573ffffffffffffffffffffffffffffffffffffffff1673ffffffffffffffffffffffffffffffffffffffff168152602001908152602001600020600083815260200190815260200160002081905550806009600084815260200190815260200160002081905550505050565b828054613f68906151d9565b90600052602060002090601f016020900481019282613f8a5760008555613fd1565b82601f10613fa357803560ff1916838001178555613fd1565b82800160010185558215613fd1579182015b82811115613fd0578235825591602001919060010190613fb5565b5b509050613fde9190613fe2565b5090565b5b80821115613ffb576000816000905550600101613fe3565b5090565b600061401261400d8461501b565b614ff6565b90508281526020810184848401111561402a57600080fd5b614035848285615197565b509392505050565b60008135905061404c81615c9d565b92915050565b60008135905061406181615cb4565b92915050565b60008135905061407681615ccb565b92915050565b60008135905061408b81615ce2565b92915050565b6000815190506140a081615ce2565b92915050565b600082601f8301126140b757600080fd5b81356140c7848260208601613fff565b91505092915050565b60008083601f8401126140e257600080fd5b8235905067ffffffffffffffff8111156140fb57600080fd5b60208301915083600182028301111561411357600080fd5b9250929050565b60008135905061412981615cf9565b92915050565b60006020828403121561414157600080fd5b600061414f8482850161403d565b91505092915050565b6000806040838503121561416b57600080fd5b60006141798582860161403d565b925050602061418a8582860161403d565b9150509250929050565b6000806000606084860312156141a957600080fd5b60006141b78682870161403d565b93505060206141c88682870161403d565b92505060406141d98682870161411a565b9150509250925092565b600080600080608085870312156141f957600080fd5b60006142078782880161403d565b94505060206142188782880161403d565b93505060406142298782880161411a565b925050606085013567ffffffffffffffff81111561424657600080fd5b614252878288016140a6565b91505092959194509250565b6000806040838503121561427157600080fd5b600061427f8582860161403d565b925050602061429085828601614052565b9150509250929050565b6000806000604084860312156142af57600080fd5b60006142bd8682870161403d565b935050602084013567ffffffffffffffff8111156142da57600080fd5b6142e6868287016140d0565b92509250509250925092565b6000806040838503121561430557600080fd5b60006143138582860161403d565b92505060206143248582860161411a565b9150509250929050565b60006020828403121561434057600080fd5b600061434e84828501614067565b91505092915050565b6000806040838503121561436a57600080fd5b600061437885828601614067565b92505060206143898582860161403d565b9150509250929050565b600080604083850312156143a657600080fd5b60006143b485828601614067565b92505060206143c58582860161411a565b9150509250929050565b6000602082840312156143e157600080fd5b60006143ef8482850161407c565b91505092915050565b60006020828403121561440a57600080fd5b600061441884828501614091565b91505092915050565b60006020828403121561443357600080fd5b60006144418482850161411a565b91505092915050565b6000806040838503121561445d57600080fd5b600061446b8582860161411a565b925050602061447c8582860161411a565b9150509250929050565b60008060006060848603121561449b57600080fd5b60006144a98682870161411a565b93505060206144ba8682870161411a565b92505060406144cb86828701614052565b9150509250925092565b6144de81615119565b82525050565b6144ed8161512b565b82525050565b6144fc81615137565b82525050565b600061450d8261504c565b6145178185615062565b93506145278185602086016151a6565b614530816152c9565b840191505092915050565b600061454682615057565b614550818561507e565b93506145608185602086016151a6565b614569816152c9565b840191505092915050565b600061458160228361507e565b915061458c826152da565b604082019050919050565b60006145a460228361507e565b91506145af82615329565b604082019050919050565b60006145c760348361507e565b91506145d282615378565b604082019050919050565b60006145ea602b8361507e565b91506145f5826153c7565b604082019050919050565b600061460d602f8361507e565b915061461882615416565b604082019050919050565b600061463060148361507e565b915061463b82615465565b602082019050919050565b600061465360258361507e565b915061465e8261548e565b604082019050919050565b6000614676602b8361507e565b9150614681826154dd565b604082019050919050565b600061469960328361507e565b91506146a48261552c565b604082019050919050565b60006146bc601c8361507e565b91506146c78261557b565b602082019050919050565b60006146df603e8361507e565b91506146ea826155a4565b604082019050919050565b600061470260248361507e565b915061470d826155f3565b604082019050919050565b600061472560198361507e565b915061473082615642565b602082019050919050565b6000614748602c8361507e565b91506147538261566b565b604082019050919050565b600061476b60308361507e565b9150614776826156ba565b604082019050919050565b600061478e60108361507e565b915061479982615709565b602082019050919050565b60006147b160388361507e565b91506147bc82615732565b604082019050919050565b60006147d4602a8361507e565b91506147df82615781565b604082019050919050565b60006147f760298361507e565b9150614802826157d0565b604082019050919050565b600061481a60248361507e565b91506148258261581f565b604082019050919050565b600061483d60208361507e565b91506148488261586e565b602082019050919050565b6000614860602c8361507e565b915061486b82615897565b604082019050919050565b600061488360298361507e565b915061488e826158e6565b604082019050919050565b60006148a6602f8361507e565b91506148b182615935565b604082019050919050565b60006148c960218361507e565b91506148d482615984565b604082019050919050565b60006148ec60288361507e565b91506148f7826159d3565b604082019050919050565b600061490f600083615073565b915061491a82615a22565b600082019050919050565b600061493260318361507e565b915061493d82615a25565b604082019050919050565b6000614955602c8361507e565b915061496082615a74565b604082019050919050565b600061497860398361507e565b915061498382615ac3565b604082019050919050565b600061499b602c8361507e565b91506149a682615b12565b604082019050919050565b60006149be603d8361507e565b91506149c982615b61565b604082019050919050565b60006149e160308361507e565b91506149ec82615bb0565b604082019050919050565b6000614a0460408361507e565b9150614a0f82615bff565b604082019050919050565b6000614a27602f8361507e565b9150614a3282615c4e565b604082019050919050565b614a468161518d565b82525050565b6000614a5782614902565b9150819050919050565b6000602082019050614a7660008301846144d5565b92915050565b6000608082019050614a9160008301876144d5565b614a9e60208301866144d5565b614aab6040830185614a3d565b8181036060830152614abd8184614502565b905095945050505050565b6000604082019050614add60008301856144d5565b614aea6020830184614a3d565b9392505050565b6000602082019050614b0660008301846144e4565b92915050565b6000602082019050614b2160008301846144f3565b92915050565b60006020820190508181036000830152614b41818461453b565b905092915050565b60006020820190508181036000830152614b6281614574565b9050919050565b60006020820190508181036000830152614b8281614597565b9050919050565b60006020820190508181036000830152614ba2816145ba565b9050919050565b60006020820190508181036000830152614bc2816145dd565b9050919050565b60006020820190508181036000830152614be281614600565b9050919050565b60006020820190508181036000830152614c0281614623565b9050919050565b60006020820190508181036000830152614c2281614646565b9050919050565b60006020820190508181036000830152614c4281614669565b9050919050565b60006020820190508181036000830152614c628161468c565b9050919050565b60006020820190508181036000830152614c82816146af565b9050919050565b60006020820190508181036000830152614ca2816146d2565b9050919050565b60006020820190508181036000830152614cc2816146f5565b9050919050565b60006020820190508181036000830152614ce281614718565b9050919050565b60006020820190508181036000830152614d028161473b565b9050919050565b60006020820190508181036000830152614d228161475e565b9050919050565b60006020820190508181036000830152614d4281614781565b9050919050565b60006020820190508181036000830152614d62816147a4565b9050919050565b60006020820190508181036000830152614d82816147c7565b9050919050565b60006020820190508181036000830152614da2816147ea565b9050919050565b60006020820190508181036000830152614dc28161480d565b9050919050565b60006020820190508181036000830152614de281614830565b9050919050565b60006020820190508181036000830152614e0281614853565b9050919050565b60006020820190508181036000830152614e2281614876565b9050919050565b60006020820190508181036000830152614e4281614899565b9050919050565b60006020820190508181036000830152614e62816148bc565b9050919050565b60006020820190508181036000830152614e82816148df565b9050919050565b60006020820190508181036000830152614ea281614925565b9050919050565b60006020820190508181036000830152614ec281614948565b9050919050565b60006020820190508181036000830152614ee28161496b565b9050919050565b60006020820190508181036000830152614f028161498e565b9050919050565b60006020820190508181036000830152614f22816149b1565b9050919050565b60006020820190508181036000830152614f42816149d4565b9050919050565b60006020820190508181036000830152614f62816149f7565b9050919050565b60006020820190508181036000830152614f8281614a1a565b9050919050565b6000602082019050614f9e6000830184614a3d565b92915050565b6000604082019050614fb96000830185614a3d565b614fc660208301846144d5565b9392505050565b6000604082019050614fe26000830185614a3d565b614fef60208301846144e4565b9392505050565b6000615000615011565b905061500c828261520b565b919050565b6000604051905090565b600067ffffffffffffffff8211156150365761503561529a565b5b61503f826152c9565b9050602081019050919050565b600081519050919050565b600081519050919050565b600082825260208201905092915050565b600081905092915050565b600082825260208201905092915050565b600061509a8261518d565b91506150a58361518d565b9250827fffffffffffffffffffffffffffffffffffffffffffffffffffffffffffffffff038211156150da576150d961523c565b5b828201905092915050565b60006150f08261518d565b91506150fb8361518d565b92508282101561510e5761510d61523c565b5b828203905092915050565b60006151248261516d565b9050919050565b60008115159050919050565b6000819050919050565b60007fffffffff0000000000000000000000000000000000000000000000000000000082169050919050565b600073ffffffffffffffffffffffffffffffffffffffff82169050919050565b6000819050919050565b82818337600083830152505050565b60005b838110156151c45780820151818401526020810190506151a9565b838111156151d3576000848401525b50505050565b600060028204905060018216806151f157607f821691505b602082108114156152055761520461526b565b5b50919050565b615214826152c9565b810181811067ffffffffffffffff821117156152335761523261529a565b5b80604052505050565b7f4e487b7100000000000000000000000000000000000000000000000000000000600052601160045260246000fd5b7f4e487b7100000000000000000000000000000000000000000000000000000000600052602260045260246000fd5b7f4e487b7100000000000000000000000000000000000000000000000000000000600052604160045260246000fd5b6000601f19601f8301169050919050565b7f4552433732313a20746f6b656e20686173206e6f74206265656e206d696e746560008201527f642e000000000000000000000000000000000000000000000000000000000000602082015250565b7f456e756d657261626c655365743a20696e646578206f7574206f6620626f756e60008201527f6473000000000000000000000000000000000000000000000000000000000000602082015250565b7f546865206e6577206269642076616c7565206d7573742065786365656420746860008201527f652063757272656e74206269642076616c75652e000000000000000000000000602082015250565b7f4552433732315061757361626c653a20746f6b656e207472616e73666572207760008201527f68696c6520706175736564000000000000000000000000000000000000000000602082015250565b7f416363657373436f6e74726f6c3a2073656e646572206d75737420626520616e60008201527f2061646d696e20746f206772616e740000000000000000000000000000000000602082015250565b7f5061757361626c653a206e6f7420706175736564000000000000000000000000600082015250565b7f4574686572206e6f742073656e7420746f207468652070726576696f7573206260008201527f6964646572000000000000000000000000000000000000000000000000000000602082015250565b7f455243373231456e756d657261626c653a206f776e657220696e646578206f7560008201527f74206f6620626f756e6473000000000000000000000000000000000000000000602082015250565b7f4552433732313a207472616e7366657220746f206e6f6e20455243373231526560008201527f63656976657220696d706c656d656e7465720000000000000000000000000000602082015250565b7f4552433732313a20746f6b656e20616c7265616479206d696e74656400000000600082015250565b7f4552433732315072657365744d696e7465725061757365724175746f49643a2060008201527f6d75737420686176652070617573657220726f6c6520746f2070617573650000602082015250565b7f4552433732313a207472616e7366657220746f20746865207a65726f2061646460008201527f7265737300000000000000000000000000000000000000000000000000000000602082015250565b7f4552433732313a20617070726f766520746f2063616c6c657200000000000000600082015250565b7f4552433732313a206f70657261746f7220717565727920666f72206e6f6e657860008201527f697374656e7420746f6b656e0000000000000000000000000000000000000000602082015250565b7f416363657373436f6e74726f6c3a2073656e646572206d75737420626520616e60008201527f2061646d696e20746f207265766f6b6500000000000000000000000000000000602082015250565b7f5061757361626c653a2070617573656400000000000000000000000000000000600082015250565b7f4552433732313a20617070726f76652063616c6c6572206973206e6f74206f7760008201527f6e6572206e6f7220617070726f76656420666f7220616c6c0000000000000000602082015250565b7f4552433732313a2062616c616e636520717565727920666f7220746865207a6560008201527f726f206164647265737300000000000000000000000000000000000000000000602082015250565b7f4552433732313a206f776e657220717565727920666f72206e6f6e657869737460008201527f656e7420746f6b656e0000000000000000000000000000000000000000000000602082015250565b7f4574686572206e6f742073656e7420746f20746865206f776e6572206f66207460008201527f6f6b656e00000000000000000000000000000000000000000000000000000000602082015250565b7f4552433732313a206d696e7420746f20746865207a65726f2061646472657373600082015250565b7f4552433732313a20617070726f76656420717565727920666f72206e6f6e657860008201527f697374656e7420746f6b656e0000000000000000000000000000000000000000602082015250565b7f4552433732313a207472616e73666572206f6620746f6b656e2074686174206960008201527f73206e6f74206f776e0000000000000000000000000000000000000000000000602082015250565b7f4552433732314d657461646174613a2055524920717565727920666f72206e6f60008201527f6e6578697374656e7420746f6b656e0000000000000000000000000000000000602082015250565b7f4552433732313a20617070726f76616c20746f2063757272656e74206f776e6560008201527f7200000000000000000000000000000000000000000000000000000000000000602082015250565b7f4f6e6c792074686520746f6b656e206f776e65722063616e206163636570742060008201527f746865206269642e000000000000000000000000000000000000000000000000602082015250565b50565b7f4552433732313a207472616e736665722063616c6c6572206973206e6f74206f60008201527f776e6572206e6f7220617070726f766564000000000000000000000000000000602082015250565b7f455243373231456e756d657261626c653a20676c6f62616c20696e646578206f60008201527f7574206f6620626f756e64730000000000000000000000000000000000000000602082015250565b7f506c65617365207761697420666f7220736f6d656f6e6520746f206d616b652060008201527f74686520626964206265666f726520616363657074696e672e00000000000000602082015250565b7f4d757374206c6f636b207570207468652062696420616d6f756e7420696e207460008201527f686520636f6e74726163742e0000000000000000000000000000000000000000602082015250565b7f4552433732315072657365744d696e7465725061757365724175746f49643a2060008201527f6d7573742068617665206d696e74657220726f6c6520746f206d696e74000000602082015250565b7f4552433732314275726e61626c653a2063616c6c6572206973206e6f74206f7760008201527f6e6572206e6f7220617070726f76656400000000000000000000000000000000602082015250565b7f4552433732315072657365744d696e7465725061757365724175746f49643a2060008201527f6d75737420686176652070617573657220726f6c6520746f20756e7061757365602082015250565b7f416363657373436f6e74726f6c3a2063616e206f6e6c792072656e6f756e636560008201527f20726f6c657320666f722073656c660000000000000000000000000000000000602082015250565b615ca681615119565b8114615cb157600080fd5b50565b615cbd8161512b565b8114615cc857600080fd5b50565b615cd481615137565b8114615cdf57600080fd5b50565b615ceb81615141565b8114615cf657600080fd5b50565b615d028161518d565b8114615d0d57600080fd5b5056fea2646970667358221220ac40e5b7e98f0c9b6f1e947357faf23bb18128422b643ba8a3b9a9b9e590df4964736f6c63430008030033",
  "linkReferences": {},
  "deployedLinkReferences": {}
}