{
  "_format": "hh-sol-artifact-1",
  "contractName": "NFT",
  "sourceName": "contracts/NFT.sol",
  "abi": [
    {
      "inputs": [
        {
          "internalType": "string",
          "name": "name_",
          "type": "string"
        },
        {
          "internalType": "string",
          "name": "symbol_",
          "type": "string"
        }
      ],
      "stateMutability": "nonpayable",
      "type": "constructor"
    },
    {
      "anonymous": false,
      "inputs": [
        {
          "indexed": true,
          "internalType": "address",
          "name": "owner",
          "type": "address"
        },
        {
          "indexed": true,
          "internalType": "address",
          "name": "approved",
          "type": "address"
        },
        {
          "indexed": true,
          "internalType": "uint256",
          "name": "tokenId",
          "type": "uint256"
        }
      ],
      "name": "Approval",
      "type": "event"
    },
    {
      "anonymous": false,
      "inputs": [
        {
          "indexed": true,
          "internalType": "address",
          "name": "owner",
          "type": "address"
        },
        {
          "indexed": true,
          "internalType": "address",
          "name": "operator",
          "type": "address"
        },
        {
          "indexed": false,
          "internalType": "bool",
          "name": "approved",
          "type": "bool"
        }
      ],
      "name": "ApprovalForAll",
      "type": "event"
    },
    {
      "anonymous": false,
      "inputs": [
        {
          "indexed": true,
          "internalType": "uint256",
          "name": "tokenID",
          "type": "uint256"
        },
        {
          "indexed": true,
          "internalType": "address",
          "name": "owner",
          "type": "address"
        },
        {
          "indexed": true,
          "internalType": "address",
          "name": "bidder",
          "type": "address"
        },
        {
          "indexed": false,
          "internalType": "uint256",
          "name": "bidValue",
          "type": "uint256"
        }
      ],
      "name": "BidAccepted",
      "type": "event"
    },
    {
      "anonymous": false,
      "inputs": [
        {
          "indexed": true,
          "internalType": "uint256",
          "name": "tokenID",
          "type": "uint256"
        },
        {
          "indexed": true,
          "internalType": "address",
          "name": "bidder",
          "type": "address"
        },
        {
          "indexed": false,
          "internalType": "uint256",
          "name": "bidValue",
          "type": "uint256"
        }
      ],
      "name": "NewBid",
      "type": "event"
    },
    {
      "anonymous": false,
      "inputs": [
        {
          "indexed": false,
          "internalType": "address",
          "name": "account",
          "type": "address"
        }
      ],
      "name": "Paused",
      "type": "event"
    },
    {
      "anonymous": false,
      "inputs": [
        {
          "indexed": true,
          "internalType": "bytes32",
          "name": "role",
          "type": "bytes32"
        },
        {
          "indexed": true,
          "internalType": "bytes32",
          "name": "previousAdminRole",
          "type": "bytes32"
        },
        {
          "indexed": true,
          "internalType": "bytes32",
          "name": "newAdminRole",
          "type": "bytes32"
        }
      ],
      "name": "RoleAdminChanged",
      "type": "event"
    },
    {
      "anonymous": false,
      "inputs": [
        {
          "indexed": true,
          "internalType": "bytes32",
          "name": "role",
          "type": "bytes32"
        },
        {
          "indexed": true,
          "internalType": "address",
          "name": "account",
          "type": "address"
        },
        {
          "indexed": true,
          "internalType": "address",
          "name": "sender",
          "type": "address"
        }
      ],
      "name": "RoleGranted",
      "type": "event"
    },
    {
      "anonymous": false,
      "inputs": [
        {
          "indexed": true,
          "internalType": "bytes32",
          "name": "role",
          "type": "bytes32"
        },
        {
          "indexed": true,
          "internalType": "address",
          "name": "account",
          "type": "address"
        },
        {
          "indexed": true,
          "internalType": "address",
          "name": "sender",
          "type": "address"
        }
      ],
      "name": "RoleRevoked",
      "type": "event"
    },
    {
      "anonymous": false,
      "inputs": [
        {
          "indexed": true,
          "internalType": "address",
          "name": "from",
          "type": "address"
        },
        {
          "indexed": true,
          "internalType": "address",
          "name": "to",
          "type": "address"
        },
        {
          "indexed": true,
          "internalType": "uint256",
          "name": "tokenId",
          "type": "uint256"
        }
      ],
      "name": "Transfer",
      "type": "event"
    },
    {
      "anonymous": false,
      "inputs": [
        {
          "indexed": false,
          "internalType": "address",
          "name": "account",
          "type": "address"
        }
      ],
      "name": "Unpaused",
      "type": "event"
    },
    {
      "inputs": [],
      "name": "DEFAULT_ADMIN_ROLE",
      "outputs": [
        {
          "internalType": "bytes32",
          "name": "",
          "type": "bytes32"
        }
      ],
      "stateMutability": "view",
      "type": "function"
    },
    {
      "inputs": [],
      "name": "MINTER_ROLE",
      "outputs": [
        {
          "internalType": "bytes32",
          "name": "",
          "type": "bytes32"
        }
      ],
      "stateMutability": "view",
      "type": "function"
    },
    {
      "inputs": [],
      "name": "PAUSER_ROLE",
      "outputs": [
        {
          "internalType": "bytes32",
          "name": "",
          "type": "bytes32"
        }
      ],
      "stateMutability": "view",
      "type": "function"
    },
    {
      "inputs": [
        {
          "internalType": "uint256",
          "name": "",
          "type": "uint256"
        }
      ],
      "name": "URI",
      "outputs": [
        {
          "internalType": "string",
          "name": "",
          "type": "string"
        }
      ],
      "stateMutability": "view",
      "type": "function"
    },
    {
      "inputs": [
        {
          "internalType": "uint256",
          "name": "_tokenId",
          "type": "uint256"
        }
      ],
      "name": "acceptBid",
      "outputs": [],
      "stateMutability": "payable",
      "type": "function"
    },
    {
      "inputs": [
        {
          "internalType": "address",
          "name": "to",
          "type": "address"
        },
        {
          "internalType": "uint256",
          "name": "tokenId",
          "type": "uint256"
        }
      ],
      "name": "approve",
      "outputs": [],
      "stateMutability": "nonpayable",
      "type": "function"
    },
    {
      "inputs": [
        {
          "internalType": "address",
          "name": "owner",
          "type": "address"
        }
      ],
      "name": "balanceOf",
      "outputs": [
        {
          "internalType": "uint256",
          "name": "",
          "type": "uint256"
        }
      ],
      "stateMutability": "view",
      "type": "function"
    },
    {
      "inputs": [
        {
          "internalType": "uint256",
          "name": "",
          "type": "uint256"
        }
      ],
      "name": "bids",
      "outputs": [
        {
          "internalType": "address",
          "name": "bidder",
          "type": "address"
        },
        {
          "internalType": "uint256",
          "name": "bidValue",
          "type": "uint256"
        }
      ],
      "stateMutability": "view",
      "type": "function"
    },
    {
      "inputs": [
        {
          "internalType": "uint256",
          "name": "tokenId",
          "type": "uint256"
        }
      ],
      "name": "burn",
      "outputs": [],
      "stateMutability": "nonpayable",
      "type": "function"
    },
    {
      "inputs": [
        {
          "internalType": "uint256",
          "name": "tokenId",
          "type": "uint256"
        }
      ],
      "name": "getApproved",
      "outputs": [
        {
          "internalType": "address",
          "name": "",
          "type": "address"
        }
      ],
      "stateMutability": "view",
      "type": "function"
    },
    {
      "inputs": [
        {
          "internalType": "uint256",
          "name": "_tokenId",
          "type": "uint256"
        }
      ],
      "name": "getCurrentBidValue",
      "outputs": [
        {
          "internalType": "uint256",
          "name": "",
          "type": "uint256"
        }
      ],
      "stateMutability": "view",
      "type": "function"
    },
    {
      "inputs": [
        {
          "internalType": "uint256",
          "name": "_tokenId",
          "type": "uint256"
        }
      ],
      "name": "getCurrentBidder",
      "outputs": [
        {
          "internalType": "address",
          "name": "",
          "type": "address"
        }
      ],
      "stateMutability": "view",
      "type": "function"
    },
    {
      "inputs": [
        {
          "internalType": "bytes32",
          "name": "role",
          "type": "bytes32"
        }
      ],
      "name": "getRoleAdmin",
      "outputs": [
        {
          "internalType": "bytes32",
          "name": "",
          "type": "bytes32"
        }
      ],
      "stateMutability": "view",
      "type": "function"
    },
    {
      "inputs": [
        {
          "internalType": "bytes32",
          "name": "role",
          "type": "bytes32"
        },
        {
          "internalType": "uint256",
          "name": "index",
          "type": "uint256"
        }
      ],
      "name": "getRoleMember",
      "outputs": [
        {
          "internalType": "address",
          "name": "",
          "type": "address"
        }
      ],
      "stateMutability": "view",
      "type": "function"
    },
    {
      "inputs": [
        {
          "internalType": "bytes32",
          "name": "role",
          "type": "bytes32"
        }
      ],
      "name": "getRoleMemberCount",
      "outputs": [
        {
          "internalType": "uint256",
          "name": "",
          "type": "uint256"
        }
      ],
      "stateMutability": "view",
      "type": "function"
    },
    {
      "inputs": [
        {
          "internalType": "uint256",
          "name": "_tokenId",
          "type": "uint256"
        }
      ],
      "name": "getThresholdStatus",
      "outputs": [
        {
          "internalType": "bool",
          "name": "",
          "type": "bool"
        }
      ],
      "stateMutability": "view",
      "type": "function"
    },
    {
      "inputs": [
        {
          "internalType": "uint256",
          "name": "_tokenId",
          "type": "uint256"
        }
      ],
      "name": "getThresholdValue",
      "outputs": [
        {
          "internalType": "uint256",
          "name": "",
          "type": "uint256"
        }
      ],
      "stateMutability": "view",
      "type": "function"
    },
    {
      "inputs": [
        {
          "internalType": "bytes32",
          "name": "role",
          "type": "bytes32"
        },
        {
          "internalType": "address",
          "name": "account",
          "type": "address"
        }
      ],
      "name": "grantRole",
      "outputs": [],
      "stateMutability": "nonpayable",
      "type": "function"
    },
    {
      "inputs": [
        {
          "internalType": "bytes32",
          "name": "role",
          "type": "bytes32"
        },
        {
          "internalType": "address",
          "name": "account",
          "type": "address"
        }
      ],
      "name": "hasRole",
      "outputs": [
        {
          "internalType": "bool",
          "name": "",
          "type": "bool"
        }
      ],
      "stateMutability": "view",
      "type": "function"
    },
    {
      "inputs": [
        {
          "internalType": "address",
          "name": "owner",
          "type": "address"
        },
        {
          "internalType": "address",
          "name": "operator",
          "type": "address"
        }
      ],
      "name": "isApprovedForAll",
      "outputs": [
        {
          "internalType": "bool",
          "name": "",
          "type": "bool"
        }
      ],
      "stateMutability": "view",
      "type": "function"
    },
    {
      "inputs": [
        {
          "internalType": "uint256",
          "name": "_tokenId",
          "type": "uint256"
        },
        {
          "internalType": "uint256",
          "name": "_bidValue",
          "type": "uint256"
        }
      ],
      "name": "makeBid",
      "outputs": [],
      "stateMutability": "payable",
      "type": "function"
    },
    {
      "inputs": [
        {
          "internalType": "address",
          "name": "_to",
          "type": "address"
        },
        {
          "internalType": "string",
          "name": "_URI",
          "type": "string"
        }
      ],
      "name": "mint",
      "outputs": [],
      "stateMutability": "nonpayable",
      "type": "function"
    },
    {
      "inputs": [],
      "name": "name",
      "outputs": [
        {
          "internalType": "string",
          "name": "",
          "type": "string"
        }
      ],
      "stateMutability": "view",
      "type": "function"
    },
    {
      "inputs": [
        {
          "internalType": "uint256",
          "name": "tokenId",
          "type": "uint256"
        }
      ],
      "name": "ownerOf",
      "outputs": [
        {
          "internalType": "address",
          "name": "",
          "type": "address"
        }
      ],
      "stateMutability": "view",
      "type": "function"
    },
    {
      "inputs": [],
      "name": "pause",
      "outputs": [],
      "stateMutability": "nonpayable",
      "type": "function"
    },
    {
      "inputs": [],
      "name": "paused",
      "outputs": [
        {
          "internalType": "bool",
          "name": "",
          "type": "bool"
        }
      ],
      "stateMutability": "view",
      "type": "function"
    },
    {
      "inputs": [
        {
          "internalType": "bytes32",
          "name": "role",
          "type": "bytes32"
        },
        {
          "internalType": "address",
          "name": "account",
          "type": "address"
        }
      ],
      "name": "renounceRole",
      "outputs": [],
      "stateMutability": "nonpayable",
      "type": "function"
    },
    {
      "inputs": [
        {
          "internalType": "bytes32",
          "name": "role",
          "type": "bytes32"
        },
        {
          "internalType": "address",
          "name": "account",
          "type": "address"
        }
      ],
      "name": "revokeRole",
      "outputs": [],
      "stateMutability": "nonpayable",
      "type": "function"
    },
    {
      "inputs": [
        {
          "internalType": "address",
          "name": "from",
          "type": "address"
        },
        {
          "internalType": "address",
          "name": "to",
          "type": "address"
        },
        {
          "internalType": "uint256",
          "name": "tokenId",
          "type": "uint256"
        }
      ],
      "name": "safeTransferFrom",
      "outputs": [],
      "stateMutability": "nonpayable",
      "type": "function"
    },
    {
      "inputs": [
        {
          "internalType": "address",
          "name": "from",
          "type": "address"
        },
        {
          "internalType": "address",
          "name": "to",
          "type": "address"
        },
        {
          "internalType": "uint256",
          "name": "tokenId",
          "type": "uint256"
        },
        {
          "internalType": "bytes",
          "name": "_data",
          "type": "bytes"
        }
      ],
      "name": "safeTransferFrom",
      "outputs": [],
      "stateMutability": "nonpayable",
      "type": "function"
    },
    {
      "inputs": [
        {
          "internalType": "address",
          "name": "operator",
          "type": "address"
        },
        {
          "internalType": "bool",
          "name": "approved",
          "type": "bool"
        }
      ],
      "name": "setApprovalForAll",
      "outputs": [],
      "stateMutability": "nonpayable",
      "type": "function"
    },
    {
      "inputs": [
        {
          "internalType": "uint256",
          "name": "_tokenId",
          "type": "uint256"
        },
        {
          "internalType": "uint256",
          "name": "_value",
          "type": "uint256"
        },
        {
          "internalType": "bool",
          "name": "_active",
          "type": "bool"
        }
      ],
      "name": "setThreshold",
      "outputs": [],
      "stateMutability": "nonpayable",
      "type": "function"
    },
    {
      "inputs": [
        {
          "internalType": "bytes4",
          "name": "interfaceId",
          "type": "bytes4"
        }
      ],
      "name": "supportsInterface",
      "outputs": [
        {
          "internalType": "bool",
          "name": "",
          "type": "bool"
        }
      ],
      "stateMutability": "view",
      "type": "function"
    },
    {
      "inputs": [],
      "name": "symbol",
      "outputs": [
        {
          "internalType": "string",
          "name": "",
          "type": "string"
        }
      ],
      "stateMutability": "view",
      "type": "function"
    },
    {
      "inputs": [
        {
          "internalType": "uint256",
          "name": "",
          "type": "uint256"
        }
      ],
      "name": "threshold",
      "outputs": [
        {
          "internalType": "uint256",
          "name": "value",
          "type": "uint256"
        },
        {
          "internalType": "bool",
          "name": "active",
          "type": "bool"
        }
      ],
      "stateMutability": "view",
      "type": "function"
    },
    {
      "inputs": [
        {
          "internalType": "uint256",
          "name": "index",
          "type": "uint256"
        }
      ],
      "name": "tokenByIndex",
      "outputs": [
        {
          "internalType": "uint256",
          "name": "",
          "type": "uint256"
        }
      ],
      "stateMutability": "view",
      "type": "function"
    },
    {
      "inputs": [
        {
          "internalType": "address",
          "name": "owner",
          "type": "address"
        },
        {
          "internalType": "uint256",
          "name": "index",
          "type": "uint256"
        }
      ],
      "name": "tokenOfOwnerByIndex",
      "outputs": [
        {
          "internalType": "uint256",
          "name": "",
          "type": "uint256"
        }
      ],
      "stateMutability": "view",
      "type": "function"
    },
    {
      "inputs": [
        {
          "internalType": "uint256",
          "name": "_tokenId",
          "type": "uint256"
        }
      ],
      "name": "tokenURI",
      "outputs": [
        {
          "internalType": "string",
          "name": "",
          "type": "string"
        }
      ],
      "stateMutability": "view",
      "type": "function"
    },
    {
      "inputs": [],
      "name": "totalSupply",
      "outputs": [
        {
          "internalType": "uint256",
          "name": "",
          "type": "uint256"
        }
      ],
      "stateMutability": "view",
      "type": "function"
    },
    {
      "inputs": [],
      "name": "totalTokensMinted",
      "outputs": [
        {
          "internalType": "uint256",
          "name": "",
          "type": "uint256"
        }
      ],
      "stateMutability": "view",
      "type": "function"
    },
    {
      "inputs": [
        {
          "internalType": "address",
          "name": "from",
          "type": "address"
        },
        {
          "internalType": "address",
          "name": "to",
          "type": "address"
        },
        {
          "internalType": "uint256",
          "name": "tokenId",
          "type": "uint256"
        }
      ],
      "name": "transferFrom",
      "outputs": [],
      "stateMutability": "nonpayable",
      "type": "function"
    },
    {
      "inputs": [],
      "name": "unpause",
      "outputs": [],
      "stateMutability": "nonpayable",
      "type": "function"
    }
  ],
  "bytecode": "0x60806040523480156200001157600080fd5b506040516200605e3803806200605e83398181016040528101906200003791906200051c565b8181604051806020016040528060008152508282816002908051906020019062000063929190620003fa565b5080600390805190602001906200007c929190620003fa565b5050506000600c60006101000a81548160ff02191690831515021790555080600e9080519060200190620000b2929190620003fa565b50620000d76000801b620000cb6200016460201b60201c565b6200016c60201b60201c565b620001187f9f2df0fed2c77648de5860a4cc508cd0818c85b8b8a1ab4ceeef8d981c8956a66200010c6200016460201b60201c565b6200016c60201b60201c565b620001597f65d7a28e3265b37a6474929f336521b332c1681b933f6cb9f3376673440d862a6200014d6200016460201b60201c565b6200016c60201b60201c565b5050505050620006ff565b600033905090565b620001838282620001b460201b620022111760201c565b620001af8160016000858152602001908152602001600020620001ca60201b6200221f1790919060201c565b505050565b620001c682826200020260201b60201c565b5050565b6000620001fa836000018373ffffffffffffffffffffffffffffffffffffffff1660001b620002f360201b60201c565b905092915050565b6200021482826200036d60201b60201c565b620002ef57600160008084815260200190815260200160002060000160008373ffffffffffffffffffffffffffffffffffffffff1673ffffffffffffffffffffffffffffffffffffffff16815260200190815260200160002060006101000a81548160ff021916908315150217905550620002946200016460201b60201c565b73ffffffffffffffffffffffffffffffffffffffff168173ffffffffffffffffffffffffffffffffffffffff16837f2f8788117e7eff1d82e926ec794901d17c78024a50270940304540a733656f0d60405160405180910390a45b5050565b6000620003078383620003d760201b60201c565b6200036257826000018290806001815401808255809150506001900390600052602060002001600090919091909150558260000180549050836001016000848152602001908152602001600020819055506001905062000367565b600090505b92915050565b600080600084815260200190815260200160002060000160008373ffffffffffffffffffffffffffffffffffffffff1673ffffffffffffffffffffffffffffffffffffffff16815260200190815260200160002060009054906101000a900460ff16905092915050565b600080836001016000848152602001908152602001600020541415905092915050565b828054620004089062000624565b90600052602060002090601f0160209004810192826200042c576000855562000478565b82601f106200044757805160ff191683800117855562000478565b8280016001018555821562000478579182015b82811115620004775782518255916020019190600101906200045a565b5b5090506200048791906200048b565b5090565b5b80821115620004a65760008160009055506001016200048c565b5090565b6000620004c1620004bb84620005b8565b6200058f565b905082815260208101848484011115620004da57600080fd5b620004e7848285620005ee565b509392505050565b600082601f8301126200050157600080fd5b815162000513848260208601620004aa565b91505092915050565b600080604083850312156200053057600080fd5b600083015167ffffffffffffffff8111156200054b57600080fd5b6200055985828601620004ef565b925050602083015167ffffffffffffffff8111156200057757600080fd5b6200058585828601620004ef565b9150509250929050565b60006200059b620005ae565b9050620005a982826200065a565b919050565b6000604051905090565b600067ffffffffffffffff821115620005d657620005d5620006bf565b5b620005e182620006ee565b9050602081019050919050565b60005b838110156200060e578082015181840152602081019050620005f1565b838111156200061e576000848401525b50505050565b600060028204905060018216806200063d57607f821691505b6020821081141562000654576200065362000690565b5b50919050565b6200066582620006ee565b810181811067ffffffffffffffff82111715620006875762000686620006bf565b5b80604052505050565b7f4e487b7100000000000000000000000000000000000000000000000000000000600052602260045260246000fd5b7f4e487b7100000000000000000000000000000000000000000000000000000000600052604160045260246000fd5b6000601f19601f8301169050919050565b61594f806200070f6000396000f3fe6080604052600436106102515760003560e01c80637d549e9911610139578063b88d4fde116100b6578063d53913931161007a578063d53913931461092a578063d547741f14610955578063dbd56ef71461097e578063e63ab1e9146109bb578063e985e9c5146109e6578063e9a4d93114610a2357610251565b8063b88d4fde14610821578063bb50aa3a1461084a578063c87b56dd14610887578063ca15c873146108c4578063d0def5211461090157610251565b806391d14854116100fd57806391d148541461074957806395d89b4114610786578063a217fddf146107b1578063a22cb465146107dc578063adfcdc111461080557610251565b80637d549e9914610664578063844f4af61461068f5780638456cb59146106b85780639010d07c146106cf578063901e1c011461070c57610251565b80632f745c59116101d257806342966c681161019657806342966c681461051b5780634423c5f1146105445780634f6ccce7146105825780635c975abb146105bf5780636352211e146105ea57806370a082311461062757610251565b80632f745c591461043757806331eb7a1a1461047457806336568abe146104b25780633f4ba83a146104db57806342842e0e146104f257610251565b806323b872dd1161021957806323b872dd1461034f578063248a9ca3146103785780632b05ff1d146103b55780632b1fd58a146103f25780632f2ff15d1461040e57610251565b806301ffc9a71461025657806306fdde0314610293578063081812fc146102be578063095ea7b3146102fb57806318160ddd14610324575b600080fd5b34801561026257600080fd5b5061027d60048036038101906102789190614001565b610a60565b60405161028a9190614723565b60405180910390f35b34801561029f57600080fd5b506102a8610a72565b6040516102b59190614759565b60405180910390f35b3480156102ca57600080fd5b506102e560048036038101906102e09190614053565b610b04565b6040516102f29190614693565b60405180910390f35b34801561030757600080fd5b50610322600480360381019061031d9190613f24565b610b89565b005b34801561033057600080fd5b50610339610ca1565b6040516103469190614bbb565b60405180910390f35b34801561035b57600080fd5b5061037660048036038101906103719190613dc6565b610cae565b005b34801561038457600080fd5b5061039f600480360381019061039a9190613f60565b610d0e565b6040516103ac919061473e565b60405180910390f35b3480156103c157600080fd5b506103dc60048036038101906103d79190614053565b610d2d565b6040516103e99190614bbb565b60405180910390f35b61040c60048036038101906104079190614053565b610d95565b005b34801561041a57600080fd5b5061043560048036038101906104309190613f89565b611137565b005b34801561044357600080fd5b5061045e60048036038101906104599190613f24565b61116b565b60405161046b9190614bbb565b60405180910390f35b34801561048057600080fd5b5061049b60048036038101906104969190614053565b611210565b6040516104a9929190614bd6565b60405180910390f35b3480156104be57600080fd5b506104d960048036038101906104d49190613f89565b611241565b005b3480156104e757600080fd5b506104f0611275565b005b3480156104fe57600080fd5b5061051960048036038101906105149190613dc6565b6112ef565b005b34801561052757600080fd5b50610542600480360381019061053d9190614053565b61130f565b005b34801561055057600080fd5b5061056b60048036038101906105669190614053565b61136b565b6040516105799291906146fa565b60405180910390f35b34801561058e57600080fd5b506105a960048036038101906105a49190614053565b6113af565b6040516105b69190614bbb565b60405180910390f35b3480156105cb57600080fd5b506105d4611446565b6040516105e19190614723565b60405180910390f35b3480156105f657600080fd5b50610611600480360381019061060c9190614053565b61145d565b60405161061e9190614693565b60405180910390f35b34801561063357600080fd5b5061064e60048036038101906106499190613d61565b61150f565b60405161065b9190614bbb565b60405180910390f35b34801561067057600080fd5b506106796115c7565b6040516106869190614bbb565b60405180910390f35b34801561069b57600080fd5b506106b660048036038101906106b191906140b8565b6115cd565b005b3480156106c457600080fd5b506106cd6116d9565b005b3480156106db57600080fd5b506106f660048036038101906106f19190613fc5565b611753565b6040516107039190614693565b60405180910390f35b34801561071857600080fd5b50610733600480360381019061072e9190614053565b611782565b6040516107409190614759565b60405180910390f35b34801561075557600080fd5b50610770600480360381019061076b9190613f89565b611822565b60405161077d9190614723565b60405180910390f35b34801561079257600080fd5b5061079b61188c565b6040516107a89190614759565b60405180910390f35b3480156107bd57600080fd5b506107c661191e565b6040516107d3919061473e565b60405180910390f35b3480156107e857600080fd5b5061080360048036038101906107fe9190613e90565b611925565b005b61081f600480360381019061081a919061407c565b611aa6565b005b34801561082d57600080fd5b5061084860048036038101906108439190613e15565b611dec565b005b34801561085657600080fd5b50610871600480360381019061086c9190614053565b611e4e565b60405161087e9190614693565b60405180910390f35b34801561089357600080fd5b506108ae60048036038101906108a99190614053565b611ed6565b6040516108bb9190614759565b60405180910390f35b3480156108d057600080fd5b506108eb60048036038101906108e69190613f60565b611fc3565b6040516108f89190614bbb565b60405180910390f35b34801561090d57600080fd5b5061092860048036038101906109239190613ecc565b611fe7565b005b34801561093657600080fd5b5061093f612024565b60405161094c919061473e565b60405180910390f35b34801561096157600080fd5b5061097c60048036038101906109779190613f89565b612048565b005b34801561098a57600080fd5b506109a560048036038101906109a09190614053565b61207c565b6040516109b29190614bbb565b60405180910390f35b3480156109c757600080fd5b506109d06120e4565b6040516109dd919061473e565b60405180910390f35b3480156109f257600080fd5b50610a0d6004803603810190610a089190613d8a565b612108565b604051610a1a9190614723565b60405180910390f35b348015610a2f57600080fd5b50610a4a6004803603810190610a459190614053565b61219c565b604051610a579190614723565b60405180910390f35b6000610a6b8261224f565b9050919050565b606060028054610a8190614de2565b80601f0160208091040260200160405190810160405280929190818152602001828054610aad90614de2565b8015610afa5780601f10610acf57610100808354040283529160200191610afa565b820191906000526020600020905b815481529060010190602001808311610add57829003601f168201915b5050505050905090565b6000610b0f826122c9565b610b4e576040517f08c379a0000000000000000000000000000000000000000000000000000000008152600401610b4590614a1b565b60405180910390fd5b6006600083815260200190815260200160002060009054906101000a900473ffffffffffffffffffffffffffffffffffffffff169050919050565b6000610b948261145d565b90508073ffffffffffffffffffffffffffffffffffffffff168373ffffffffffffffffffffffffffffffffffffffff161415610c05576040517f08c379a0000000000000000000000000000000000000000000000000000000008152600401610bfc90614a7b565b60405180910390fd5b8073ffffffffffffffffffffffffffffffffffffffff16610c24612335565b73ffffffffffffffffffffffffffffffffffffffff161480610c535750610c5281610c4d612335565b612108565b5b610c92576040517f08c379a0000000000000000000000000000000000000000000000000000000008152600401610c899061497b565b60405180910390fd5b610c9c838361233d565b505050565b6000600a80549050905090565b610cbf610cb9612335565b826123f6565b610cfe576040517f08c379a0000000000000000000000000000000000000000000000000000000008152600401610cf590614abb565b60405180910390fd5b610d098383836124d4565b505050565b6000806000838152602001908152602001600020600101549050919050565b6000610d38826122c9565b610d77576040517f08c379a0000000000000000000000000000000000000000000000000000000008152600401610d6e9061477b565b60405180910390fd5b60106000838152602001908152602001600020600101549050919050565b6000601060008381526020019081526020016000206040518060400160405290816000820160009054906101000a900473ffffffffffffffffffffffffffffffffffffffff1673ffffffffffffffffffffffffffffffffffffffff1673ffffffffffffffffffffffffffffffffffffffff1681526020016001820154815250509050610e20826122c9565b610e5f576040517f08c379a0000000000000000000000000000000000000000000000000000000008152600401610e569061477b565b60405180910390fd5b610e688261145d565b73ffffffffffffffffffffffffffffffffffffffff163373ffffffffffffffffffffffffffffffffffffffff1614610ed5576040517f08c379a0000000000000000000000000000000000000000000000000000000008152600401610ecc90614a9b565b60405180910390fd5b600073ffffffffffffffffffffffffffffffffffffffff16816000015173ffffffffffffffffffffffffffffffffffffffff161415610f49576040517f08c379a0000000000000000000000000000000000000000000000000000000008152600401610f4090614afb565b60405180910390fd5b60003373ffffffffffffffffffffffffffffffffffffffff168260200151604051610f739061467e565b60006040518083038185875af1925050503d8060008114610fb0576040519150601f19603f3d011682016040523d82523d6000602084013e610fb5565b606091505b5050905080610ff9576040517f08c379a0000000000000000000000000000000000000000000000000000000008152600401610ff0906149db565b60405180910390fd5b6110183383600001518560405180602001604052806000815250611dec565b816000015173ffffffffffffffffffffffffffffffffffffffff163373ffffffffffffffffffffffffffffffffffffffff16847fe6d56779a392535d3a591e92b65ba36f2ecc424bbf5220d0176a7da29385b504856020015160405161107e9190614bbb565b60405180910390a46000826000019073ffffffffffffffffffffffffffffffffffffffff16908173ffffffffffffffffffffffffffffffffffffffff16815250506000826020018181525050816010600085815260200190815260200160002060008201518160000160006101000a81548173ffffffffffffffffffffffffffffffffffffffff021916908373ffffffffffffffffffffffffffffffffffffffff16021790555060208201518160010155905050505050565b6111418282612730565b611166816001600085815260200190815260200160002061221f90919063ffffffff16565b505050565b60006111768361150f565b82106111b7576040517f08c379a00000000000000000000000000000000000000000000000000000000081526004016111ae9061485b565b60405180910390fd5b600860008473ffffffffffffffffffffffffffffffffffffffff1673ffffffffffffffffffffffffffffffffffffffff168152602001908152602001600020600083815260200190815260200160002054905092915050565b60116020528060005260406000206000915090508060000154908060010160009054906101000a900460ff16905082565b61124b8282612796565b611270816001600085815260200190815260200160002061281990919063ffffffff16565b505050565b6112a67f65d7a28e3265b37a6474929f336521b332c1681b933f6cb9f3376673440d862a6112a1612335565b611822565b6112e5576040517f08c379a00000000000000000000000000000000000000000000000000000000081526004016112dc90614b7b565b60405180910390fd5b6112ed612849565b565b61130a83838360405180602001604052806000815250611dec565b505050565b61132061131a612335565b826123f6565b61135f576040517f08c379a000000000000000000000000000000000000000000000000000000000815260040161135690614b5b565b60405180910390fd5b611368816128eb565b50565b60106020528060005260406000206000915090508060000160009054906101000a900473ffffffffffffffffffffffffffffffffffffffff16908060010154905082565b60006113b9610ca1565b82106113fa576040517f08c379a00000000000000000000000000000000000000000000000000000000081526004016113f190614adb565b60405180910390fd5b600a8281548110611434577f4e487b7100000000000000000000000000000000000000000000000000000000600052603260045260246000fd5b90600052602060002001549050919050565b6000600c60009054906101000a900460ff16905090565b6000806004600084815260200190815260200160002060009054906101000a900473ffffffffffffffffffffffffffffffffffffffff169050600073ffffffffffffffffffffffffffffffffffffffff168173ffffffffffffffffffffffffffffffffffffffff161415611506576040517f08c379a00000000000000000000000000000000000000000000000000000000081526004016114fd906149bb565b60405180910390fd5b80915050919050565b60008073ffffffffffffffffffffffffffffffffffffffff168273ffffffffffffffffffffffffffffffffffffffff161415611580576040517f08c379a00000000000000000000000000000000000000000000000000000000081526004016115779061499b565b60405180910390fd5b600560008373ffffffffffffffffffffffffffffffffffffffff1673ffffffffffffffffffffffffffffffffffffffff168152602001908152602001600020549050919050565b600f5481565b6115d6836122c9565b611615576040517f08c379a000000000000000000000000000000000000000000000000000000000815260040161160c9061477b565b60405180910390fd5b61161e8361145d565b73ffffffffffffffffffffffffffffffffffffffff163373ffffffffffffffffffffffffffffffffffffffff161461168b576040517f08c379a000000000000000000000000000000000000000000000000000000000815260040161168290614a9b565b60405180910390fd5b816011600085815260200190815260200160002060000181905550806011600085815260200190815260200160002060010160006101000a81548160ff021916908315150217905550505050565b61170a7f65d7a28e3265b37a6474929f336521b332c1681b933f6cb9f3376673440d862a611705612335565b611822565b611749576040517f08c379a0000000000000000000000000000000000000000000000000000000008152600401611740906148bb565b60405180910390fd5b6117516129fc565b565b600061177a8260016000868152602001908152602001600020612a9f90919063ffffffff16565b905092915050565b601260205280600052604060002060009150905080546117a190614de2565b80601f01602080910402602001604051908101604052809291908181526020018280546117cd90614de2565b801561181a5780601f106117ef5761010080835404028352916020019161181a565b820191906000526020600020905b8154815290600101906020018083116117fd57829003601f168201915b505050505081565b600080600084815260200190815260200160002060000160008373ffffffffffffffffffffffffffffffffffffffff1673ffffffffffffffffffffffffffffffffffffffff16815260200190815260200160002060009054906101000a900460ff16905092915050565b60606003805461189b90614de2565b80601f01602080910402602001604051908101604052809291908181526020018280546118c790614de2565b80156119145780601f106118e957610100808354040283529160200191611914565b820191906000526020600020905b8154815290600101906020018083116118f757829003601f168201915b5050505050905090565b6000801b81565b61192d612335565b73ffffffffffffffffffffffffffffffffffffffff168273ffffffffffffffffffffffffffffffffffffffff16141561199b576040517f08c379a0000000000000000000000000000000000000000000000000000000008152600401611992906148fb565b60405180910390fd5b80600760006119a8612335565b73ffffffffffffffffffffffffffffffffffffffff1673ffffffffffffffffffffffffffffffffffffffff16815260200190815260200160002060008473ffffffffffffffffffffffffffffffffffffffff1673ffffffffffffffffffffffffffffffffffffffff16815260200190815260200160002060006101000a81548160ff0219169083151502179055508173ffffffffffffffffffffffffffffffffffffffff16611a55612335565b73ffffffffffffffffffffffffffffffffffffffff167f17307eab39ab6107e8899845ad3d59bd9653f200f220920489ca2b5937696c3183604051611a9a9190614723565b60405180910390a35050565b6000601060008481526020019081526020016000206040518060400160405290816000820160009054906101000a900473ffffffffffffffffffffffffffffffffffffffff1673ffffffffffffffffffffffffffffffffffffffff1673ffffffffffffffffffffffffffffffffffffffff1681526020016001820154815250509050611b31836122c9565b611b70576040517f08c379a0000000000000000000000000000000000000000000000000000000008152600401611b679061477b565b60405180910390fd5b348214611bb2576040517f08c379a0000000000000000000000000000000000000000000000000000000008152600401611ba990614b1b565b60405180910390fd5b80602001518211611bf8576040517f08c379a0000000000000000000000000000000000000000000000000000000008152600401611bef906147bb565b60405180910390fd5b600073ffffffffffffffffffffffffffffffffffffffff16816000015173ffffffffffffffffffffffffffffffffffffffff1614611ce6576000816000015173ffffffffffffffffffffffffffffffffffffffff168260200151604051611c5e9061467e565b60006040518083038185875af1925050503d8060008114611c9b576040519150601f19603f3d011682016040523d82523d6000602084013e611ca0565b606091505b5050905080611ce4576040517f08c379a0000000000000000000000000000000000000000000000000000000008152600401611cdb9061483b565b60405180910390fd5b505b33816000019073ffffffffffffffffffffffffffffffffffffffff16908173ffffffffffffffffffffffffffffffffffffffff168152505081816020018181525050806010600085815260200190815260200160002060008201518160000160006101000a81548173ffffffffffffffffffffffffffffffffffffffff021916908373ffffffffffffffffffffffffffffffffffffffff16021790555060208201518160010155905050806000015173ffffffffffffffffffffffffffffffffffffffff16837f558a0d5d5468d74b0db24c74eb348b42271c2ebb4c9e953ced38aaed95fa43618360200151604051611ddf9190614bbb565b60405180910390a3505050565b611dfd611df7612335565b836123f6565b611e3c576040517f08c379a0000000000000000000000000000000000000000000000000000000008152600401611e3390614abb565b60405180910390fd5b611e4884848484612ab9565b50505050565b6000611e59826122c9565b611e98576040517f08c379a0000000000000000000000000000000000000000000000000000000008152600401611e8f9061477b565b60405180910390fd5b6010600083815260200190815260200160002060000160009054906101000a900473ffffffffffffffffffffffffffffffffffffffff169050919050565b6060611ee1826122c9565b611f20576040517f08c379a0000000000000000000000000000000000000000000000000000000008152600401611f1790614a5b565b60405180910390fd5b601260008381526020019081526020016000208054611f3e90614de2565b80601f0160208091040260200160405190810160405280929190818152602001828054611f6a90614de2565b8015611fb75780601f10611f8c57610100808354040283529160200191611fb7565b820191906000526020600020905b815481529060010190602001808311611f9a57829003601f168201915b50505050509050919050565b6000611fe060016000848152602001908152602001600020612b15565b9050919050565b6000611ff284612b2a565b905080600f81905550828260126000848152602001908152602001600020919061201d929190613b8e565b5050505050565b7f9f2df0fed2c77648de5860a4cc508cd0818c85b8b8a1ab4ceeef8d981c8956a681565b6120528282612bca565b612077816001600085815260200190815260200160002061281990919063ffffffff16565b505050565b6000612087826122c9565b6120c6576040517f08c379a00000000000000000000000000000000000000000000000000000000081526004016120bd9061477b565b60405180910390fd5b60116000838152602001908152602001600020600001549050919050565b7f65d7a28e3265b37a6474929f336521b332c1681b933f6cb9f3376673440d862a81565b6000600760008473ffffffffffffffffffffffffffffffffffffffff1673ffffffffffffffffffffffffffffffffffffffff16815260200190815260200160002060008373ffffffffffffffffffffffffffffffffffffffff1673ffffffffffffffffffffffffffffffffffffffff16815260200190815260200160002060009054906101000a900460ff16905092915050565b60006121a7826122c9565b6121e6576040517f08c379a00000000000000000000000000000000000000000000000000000000081526004016121dd9061477b565b60405180910390fd5b6011600083815260200190815260200160002060010160009054906101000a900460ff169050919050565b61221b8282612c30565b5050565b6000612247836000018373ffffffffffffffffffffffffffffffffffffffff1660001b612d10565b905092915050565b60007f780e9d63000000000000000000000000000000000000000000000000000000007bffffffffffffffffffffffffffffffffffffffffffffffffffffffff1916827bffffffffffffffffffffffffffffffffffffffffffffffffffffffff191614806122c257506122c182612d80565b5b9050919050565b60008073ffffffffffffffffffffffffffffffffffffffff166004600084815260200190815260200160002060009054906101000a900473ffffffffffffffffffffffffffffffffffffffff1673ffffffffffffffffffffffffffffffffffffffff1614159050919050565b600033905090565b816006600083815260200190815260200160002060006101000a81548173ffffffffffffffffffffffffffffffffffffffff021916908373ffffffffffffffffffffffffffffffffffffffff160217905550808273ffffffffffffffffffffffffffffffffffffffff166123b08361145d565b73ffffffffffffffffffffffffffffffffffffffff167f8c5be1e5ebec7d5bd14f71427d1e84f3dd0314c0f7b2291e5b200ac8c7c3b92560405160405180910390a45050565b6000612401826122c9565b612440576040517f08c379a00000000000000000000000000000000000000000000000000000000081526004016124379061491b565b60405180910390fd5b600061244b8361145d565b90508073ffffffffffffffffffffffffffffffffffffffff168473ffffffffffffffffffffffffffffffffffffffff1614806124ba57508373ffffffffffffffffffffffffffffffffffffffff166124a284610b04565b73ffffffffffffffffffffffffffffffffffffffff16145b806124cb57506124ca8185612108565b5b91505092915050565b8273ffffffffffffffffffffffffffffffffffffffff166124f48261145d565b73ffffffffffffffffffffffffffffffffffffffff161461254a576040517f08c379a000000000000000000000000000000000000000000000000000000000815260040161254190614a3b565b60405180910390fd5b600073ffffffffffffffffffffffffffffffffffffffff168273ffffffffffffffffffffffffffffffffffffffff1614156125ba576040517f08c379a00000000000000000000000000000000000000000000000000000000081526004016125b1906148db565b60405180910390fd5b6125c5838383612e62565b6125d060008261233d565b6001600560008573ffffffffffffffffffffffffffffffffffffffff1673ffffffffffffffffffffffffffffffffffffffff16815260200190815260200160002060008282546126209190614cee565b925050819055506001600560008473ffffffffffffffffffffffffffffffffffffffff1673ffffffffffffffffffffffffffffffffffffffff16815260200190815260200160002060008282546126779190614c98565b92505081905550816004600083815260200190815260200160002060006101000a81548173ffffffffffffffffffffffffffffffffffffffff021916908373ffffffffffffffffffffffffffffffffffffffff160217905550808273ffffffffffffffffffffffffffffffffffffffff168473ffffffffffffffffffffffffffffffffffffffff167fddf252ad1be2c89b69c2b068fc378daa952ba7f163c4a11628f55a4df523b3ef60405160405180910390a4505050565b61274961273c83610d0e565b612744612335565b611822565b612788576040517f08c379a000000000000000000000000000000000000000000000000000000000815260040161277f906147fb565b60405180910390fd5b6127928282612c30565b5050565b61279e612335565b73ffffffffffffffffffffffffffffffffffffffff168173ffffffffffffffffffffffffffffffffffffffff161461280b576040517f08c379a000000000000000000000000000000000000000000000000000000000815260040161280290614b9b565b60405180910390fd5b6128158282612e72565b5050565b6000612841836000018373ffffffffffffffffffffffffffffffffffffffff1660001b612f53565b905092915050565b612851611446565b612890576040517f08c379a00000000000000000000000000000000000000000000000000000000081526004016128879061481b565b60405180910390fd5b6000600c60006101000a81548160ff0219169083151502179055507f5db9ee0a495bf2e6ff9c91a7834c1ba4fdd244a5e8aa4e537bd38aeae4b073aa6128d4612335565b6040516128e19190614693565b60405180910390a1565b60006128f68261145d565b905061290481600084612e62565b61290f60008361233d565b6001600560008373ffffffffffffffffffffffffffffffffffffffff1673ffffffffffffffffffffffffffffffffffffffff168152602001908152602001600020600082825461295f9190614cee565b925050819055506004600083815260200190815260200160002060006101000a81549073ffffffffffffffffffffffffffffffffffffffff021916905581600073ffffffffffffffffffffffffffffffffffffffff168273ffffffffffffffffffffffffffffffffffffffff167fddf252ad1be2c89b69c2b068fc378daa952ba7f163c4a11628f55a4df523b3ef60405160405180910390a45050565b612a04611446565b15612a44576040517f08c379a0000000000000000000000000000000000000000000000000000000008152600401612a3b9061495b565b60405180910390fd5b6001600c60006101000a81548160ff0219169083151502179055507f62e78cea01bee320cd4e420270b5ea74000d11b0c9f74754ebdbfc544b05a258612a88612335565b604051612a959190614693565b60405180910390a1565b6000612aae83600001836130dd565b60001c905092915050565b612ac48484846124d4565b612ad084848484613177565b612b0f576040517f08c379a0000000000000000000000000000000000000000000000000000000008152600401612b069061487b565b60405180910390fd5b50505050565b6000612b238260000161330e565b9050919050565b6000612b5d7f9f2df0fed2c77648de5860a4cc508cd0818c85b8b8a1ab4ceeef8d981c8956a6612b58612335565b611822565b612b9c576040517f08c379a0000000000000000000000000000000000000000000000000000000008152600401612b9390614b3b565b60405180910390fd5b612ba6600d61331f565b612bb982612bb4600d613335565b613343565b612bc3600d613335565b9050919050565b612be3612bd683610d0e565b612bde612335565b611822565b612c22576040517f08c379a0000000000000000000000000000000000000000000000000000000008152600401612c199061493b565b60405180910390fd5b612c2c8282612e72565b5050565b612c3a8282611822565b612d0c57600160008084815260200190815260200160002060000160008373ffffffffffffffffffffffffffffffffffffffff1673ffffffffffffffffffffffffffffffffffffffff16815260200190815260200160002060006101000a81548160ff021916908315150217905550612cb1612335565b73ffffffffffffffffffffffffffffffffffffffff168173ffffffffffffffffffffffffffffffffffffffff16837f2f8788117e7eff1d82e926ec794901d17c78024a50270940304540a733656f0d60405160405180910390a45b5050565b6000612d1c8383613511565b612d75578260000182908060018154018082558091505060019003906000526020600020016000909190919091505582600001805490508360010160008481526020019081526020016000208190555060019050612d7a565b600090505b92915050565b60007f80ac58cd000000000000000000000000000000000000000000000000000000007bffffffffffffffffffffffffffffffffffffffffffffffffffffffff1916827bffffffffffffffffffffffffffffffffffffffffffffffffffffffff19161480612e4b57507f5b5e139f000000000000000000000000000000000000000000000000000000007bffffffffffffffffffffffffffffffffffffffffffffffffffffffff1916827bffffffffffffffffffffffffffffffffffffffffffffffffffffffff1916145b80612e5b5750612e5a82613534565b5b9050919050565b612e6d8383836135ae565b505050565b612e7c8282611822565b15612f4f57600080600084815260200190815260200160002060000160008373ffffffffffffffffffffffffffffffffffffffff1673ffffffffffffffffffffffffffffffffffffffff16815260200190815260200160002060006101000a81548160ff021916908315150217905550612ef4612335565b73ffffffffffffffffffffffffffffffffffffffff168173ffffffffffffffffffffffffffffffffffffffff16837ff6391f5c32d9c69d2a47ea670b442974b53935d1edc7fd64eb21e047a839171b60405160405180910390a45b5050565b600080836001016000848152602001908152602001600020549050600081146130d1576000600182612f859190614cee565b9050600060018660000180549050612f9d9190614cee565b90506000866000018281548110612fdd577f4e487b7100000000000000000000000000000000000000000000000000000000600052603260045260246000fd5b9060005260206000200154905080876000018481548110613027577f4e487b7100000000000000000000000000000000000000000000000000000000600052603260045260246000fd5b90600052602060002001819055506001836130429190614c98565b8760010160008381526020019081526020016000208190555086600001805480613095577f4e487b7100000000000000000000000000000000000000000000000000000000600052603160045260246000fd5b600190038181906000526020600020016000905590558660010160008781526020019081526020016000206000905560019450505050506130d7565b60009150505b92915050565b600081836000018054905011613128576040517f08c379a000000000000000000000000000000000000000000000000000000000815260040161311f9061479b565b60405180910390fd5b826000018281548110613164577f4e487b7100000000000000000000000000000000000000000000000000000000600052603260045260246000fd5b9060005260206000200154905092915050565b60006131988473ffffffffffffffffffffffffffffffffffffffff16613606565b15613301578373ffffffffffffffffffffffffffffffffffffffff1663150b7a026131c1612335565b8786866040518563ffffffff1660e01b81526004016131e394939291906146ae565b602060405180830381600087803b1580156131fd57600080fd5b505af192505050801561322e57506040513d601f19601f8201168201806040525081019061322b919061402a565b60015b6132b1573d806000811461325e576040519150601f19603f3d011682016040523d82523d6000602084013e613263565b606091505b506000815114156132a9576040517f08c379a00000000000000000000000000000000000000000000000000000000081526004016132a09061487b565b60405180910390fd5b805181602001fd5b63150b7a0260e01b7bffffffffffffffffffffffffffffffffffffffffffffffffffffffff1916817bffffffffffffffffffffffffffffffffffffffffffffffffffffffff191614915050613306565b600190505b949350505050565b600081600001805490509050919050565b6001816000016000828254019250508190555050565b600081600001549050919050565b600073ffffffffffffffffffffffffffffffffffffffff168273ffffffffffffffffffffffffffffffffffffffff1614156133b3576040517f08c379a00000000000000000000000000000000000000000000000000000000081526004016133aa906149fb565b60405180910390fd5b6133bc816122c9565b156133fc576040517f08c379a00000000000000000000000000000000000000000000000000000000081526004016133f39061489b565b60405180910390fd5b61340860008383612e62565b6001600560008473ffffffffffffffffffffffffffffffffffffffff1673ffffffffffffffffffffffffffffffffffffffff16815260200190815260200160002060008282546134589190614c98565b92505081905550816004600083815260200190815260200160002060006101000a81548173ffffffffffffffffffffffffffffffffffffffff021916908373ffffffffffffffffffffffffffffffffffffffff160217905550808273ffffffffffffffffffffffffffffffffffffffff16600073ffffffffffffffffffffffffffffffffffffffff167fddf252ad1be2c89b69c2b068fc378daa952ba7f163c4a11628f55a4df523b3ef60405160405180910390a45050565b600080836001016000848152602001908152602001600020541415905092915050565b60007f5a05180f000000000000000000000000000000000000000000000000000000007bffffffffffffffffffffffffffffffffffffffffffffffffffffffff1916827bffffffffffffffffffffffffffffffffffffffffffffffffffffffff191614806135a757506135a682613619565b5b9050919050565b6135b9838383613693565b6135c1611446565b15613601576040517f08c379a00000000000000000000000000000000000000000000000000000000081526004016135f8906147db565b60405180910390fd5b505050565b600080823b905060008111915050919050565b60007f7965db0b000000000000000000000000000000000000000000000000000000007bffffffffffffffffffffffffffffffffffffffffffffffffffffffff1916827bffffffffffffffffffffffffffffffffffffffffffffffffffffffff1916148061368c575061368b826137a7565b5b9050919050565b61369e838383613811565b600073ffffffffffffffffffffffffffffffffffffffff168373ffffffffffffffffffffffffffffffffffffffff1614156136e1576136dc81613816565b613720565b8173ffffffffffffffffffffffffffffffffffffffff168373ffffffffffffffffffffffffffffffffffffffff161461371f5761371e838261385f565b5b5b600073ffffffffffffffffffffffffffffffffffffffff168273ffffffffffffffffffffffffffffffffffffffff1614156137635761375e816139cc565b6137a2565b8273ffffffffffffffffffffffffffffffffffffffff168273ffffffffffffffffffffffffffffffffffffffff16146137a1576137a08282613b0f565b5b5b505050565b60007f01ffc9a7000000000000000000000000000000000000000000000000000000007bffffffffffffffffffffffffffffffffffffffffffffffffffffffff1916827bffffffffffffffffffffffffffffffffffffffffffffffffffffffff1916149050919050565b505050565b600a80549050600b600083815260200190815260200160002081905550600a81908060018154018082558091505060019003906000526020600020016000909190919091505550565b6000600161386c8461150f565b6138769190614cee565b905060006009600084815260200190815260200160002054905081811461395b576000600860008673ffffffffffffffffffffffffffffffffffffffff1673ffffffffffffffffffffffffffffffffffffffff168152602001908152602001600020600084815260200190815260200160002054905080600860008773ffffffffffffffffffffffffffffffffffffffff1673ffffffffffffffffffffffffffffffffffffffff168152602001908152602001600020600084815260200190815260200160002081905550816009600083815260200190815260200160002081905550505b6009600084815260200190815260200160002060009055600860008573ffffffffffffffffffffffffffffffffffffffff1673ffffffffffffffffffffffffffffffffffffffff16815260200190815260200160002060008381526020019081526020016000206000905550505050565b60006001600a805490506139e09190614cee565b90506000600b60008481526020019081526020016000205490506000600a8381548110613a36577f4e487b7100000000000000000000000000000000000000000000000000000000600052603260045260246000fd5b9060005260206000200154905080600a8381548110613a7e577f4e487b7100000000000000000000000000000000000000000000000000000000600052603260045260246000fd5b906000526020600020018190555081600b600083815260200190815260200160002081905550600b600085815260200190815260200160002060009055600a805480613af3577f4e487b7100000000000000000000000000000000000000000000000000000000600052603160045260246000fd5b6001900381819060005260206000200160009055905550505050565b6000613b1a8361150f565b905081600860008573ffffffffffffffffffffffffffffffffffffffff1673ffffffffffffffffffffffffffffffffffffffff168152602001908152602001600020600083815260200190815260200160002081905550806009600084815260200190815260200160002081905550505050565b828054613b9a90614de2565b90600052602060002090601f016020900481019282613bbc5760008555613c03565b82601f10613bd557803560ff1916838001178555613c03565b82800160010185558215613c03579182015b82811115613c02578235825591602001919060010190613be7565b5b509050613c109190613c14565b5090565b5b80821115613c2d576000816000905550600101613c15565b5090565b6000613c44613c3f84614c24565b614bff565b905082815260208101848484011115613c5c57600080fd5b613c67848285614da0565b509392505050565b600081359050613c7e816158a6565b92915050565b600081359050613c93816158bd565b92915050565b600081359050613ca8816158d4565b92915050565b600081359050613cbd816158eb565b92915050565b600081519050613cd2816158eb565b92915050565b600082601f830112613ce957600080fd5b8135613cf9848260208601613c31565b91505092915050565b60008083601f840112613d1457600080fd5b8235905067ffffffffffffffff811115613d2d57600080fd5b602083019150836001820283011115613d4557600080fd5b9250929050565b600081359050613d5b81615902565b92915050565b600060208284031215613d7357600080fd5b6000613d8184828501613c6f565b91505092915050565b60008060408385031215613d9d57600080fd5b6000613dab85828601613c6f565b9250506020613dbc85828601613c6f565b9150509250929050565b600080600060608486031215613ddb57600080fd5b6000613de986828701613c6f565b9350506020613dfa86828701613c6f565b9250506040613e0b86828701613d4c565b9150509250925092565b60008060008060808587031215613e2b57600080fd5b6000613e3987828801613c6f565b9450506020613e4a87828801613c6f565b9350506040613e5b87828801613d4c565b925050606085013567ffffffffffffffff811115613e7857600080fd5b613e8487828801613cd8565b91505092959194509250565b60008060408385031215613ea357600080fd5b6000613eb185828601613c6f565b9250506020613ec285828601613c84565b9150509250929050565b600080600060408486031215613ee157600080fd5b6000613eef86828701613c6f565b935050602084013567ffffffffffffffff811115613f0c57600080fd5b613f1886828701613d02565b92509250509250925092565b60008060408385031215613f3757600080fd5b6000613f4585828601613c6f565b9250506020613f5685828601613d4c565b9150509250929050565b600060208284031215613f7257600080fd5b6000613f8084828501613c99565b91505092915050565b60008060408385031215613f9c57600080fd5b6000613faa85828601613c99565b9250506020613fbb85828601613c6f565b9150509250929050565b60008060408385031215613fd857600080fd5b6000613fe685828601613c99565b9250506020613ff785828601613d4c565b9150509250929050565b60006020828403121561401357600080fd5b600061402184828501613cae565b91505092915050565b60006020828403121561403c57600080fd5b600061404a84828501613cc3565b91505092915050565b60006020828403121561406557600080fd5b600061407384828501613d4c565b91505092915050565b6000806040838503121561408f57600080fd5b600061409d85828601613d4c565b92505060206140ae85828601613d4c565b9150509250929050565b6000806000606084860312156140cd57600080fd5b60006140db86828701613d4c565b93505060206140ec86828701613d4c565b92505060406140fd86828701613c84565b9150509250925092565b61411081614d22565b82525050565b61411f81614d34565b82525050565b61412e81614d40565b82525050565b600061413f82614c55565b6141498185614c6b565b9350614159818560208601614daf565b61416281614ed2565b840191505092915050565b600061417882614c60565b6141828185614c87565b9350614192818560208601614daf565b61419b81614ed2565b840191505092915050565b60006141b3602283614c87565b91506141be82614ee3565b604082019050919050565b60006141d6602283614c87565b91506141e182614f32565b604082019050919050565b60006141f9603483614c87565b915061420482614f81565b604082019050919050565b600061421c602b83614c87565b915061422782614fd0565b604082019050919050565b600061423f602f83614c87565b915061424a8261501f565b604082019050919050565b6000614262601483614c87565b915061426d8261506e565b602082019050919050565b6000614285602583614c87565b915061429082615097565b604082019050919050565b60006142a8602b83614c87565b91506142b3826150e6565b604082019050919050565b60006142cb603283614c87565b91506142d682615135565b604082019050919050565b60006142ee601c83614c87565b91506142f982615184565b602082019050919050565b6000614311603e83614c87565b915061431c826151ad565b604082019050919050565b6000614334602483614c87565b915061433f826151fc565b604082019050919050565b6000614357601983614c87565b91506143628261524b565b602082019050919050565b600061437a602c83614c87565b915061438582615274565b604082019050919050565b600061439d603083614c87565b91506143a8826152c3565b604082019050919050565b60006143c0601083614c87565b91506143cb82615312565b602082019050919050565b60006143e3603883614c87565b91506143ee8261533b565b604082019050919050565b6000614406602a83614c87565b91506144118261538a565b604082019050919050565b6000614429602983614c87565b9150614434826153d9565b604082019050919050565b600061444c602483614c87565b915061445782615428565b604082019050919050565b600061446f602083614c87565b915061447a82615477565b602082019050919050565b6000614492602c83614c87565b915061449d826154a0565b604082019050919050565b60006144b5602983614c87565b91506144c0826154ef565b604082019050919050565b60006144d8602f83614c87565b91506144e38261553e565b604082019050919050565b60006144fb602183614c87565b91506145068261558d565b604082019050919050565b600061451e602883614c87565b9150614529826155dc565b604082019050919050565b6000614541600083614c7c565b915061454c8261562b565b600082019050919050565b6000614564603183614c87565b915061456f8261562e565b604082019050919050565b6000614587602c83614c87565b91506145928261567d565b604082019050919050565b60006145aa603983614c87565b91506145b5826156cc565b604082019050919050565b60006145cd602c83614c87565b91506145d88261571b565b604082019050919050565b60006145f0603d83614c87565b91506145fb8261576a565b604082019050919050565b6000614613603083614c87565b915061461e826157b9565b604082019050919050565b6000614636604083614c87565b915061464182615808565b604082019050919050565b6000614659602f83614c87565b915061466482615857565b604082019050919050565b61467881614d96565b82525050565b600061468982614534565b9150819050919050565b60006020820190506146a86000830184614107565b92915050565b60006080820190506146c36000830187614107565b6146d06020830186614107565b6146dd604083018561466f565b81810360608301526146ef8184614134565b905095945050505050565b600060408201905061470f6000830185614107565b61471c602083018461466f565b9392505050565b60006020820190506147386000830184614116565b92915050565b60006020820190506147536000830184614125565b92915050565b60006020820190508181036000830152614773818461416d565b905092915050565b60006020820190508181036000830152614794816141a6565b9050919050565b600060208201905081810360008301526147b4816141c9565b9050919050565b600060208201905081810360008301526147d4816141ec565b9050919050565b600060208201905081810360008301526147f48161420f565b9050919050565b6000602082019050818103600083015261481481614232565b9050919050565b6000602082019050818103600083015261483481614255565b9050919050565b6000602082019050818103600083015261485481614278565b9050919050565b600060208201905081810360008301526148748161429b565b9050919050565b60006020820190508181036000830152614894816142be565b9050919050565b600060208201905081810360008301526148b4816142e1565b9050919050565b600060208201905081810360008301526148d481614304565b9050919050565b600060208201905081810360008301526148f481614327565b9050919050565b600060208201905081810360008301526149148161434a565b9050919050565b600060208201905081810360008301526149348161436d565b9050919050565b6000602082019050818103600083015261495481614390565b9050919050565b60006020820190508181036000830152614974816143b3565b9050919050565b60006020820190508181036000830152614994816143d6565b9050919050565b600060208201905081810360008301526149b4816143f9565b9050919050565b600060208201905081810360008301526149d48161441c565b9050919050565b600060208201905081810360008301526149f48161443f565b9050919050565b60006020820190508181036000830152614a1481614462565b9050919050565b60006020820190508181036000830152614a3481614485565b9050919050565b60006020820190508181036000830152614a54816144a8565b9050919050565b60006020820190508181036000830152614a74816144cb565b9050919050565b60006020820190508181036000830152614a94816144ee565b9050919050565b60006020820190508181036000830152614ab481614511565b9050919050565b60006020820190508181036000830152614ad481614557565b9050919050565b60006020820190508181036000830152614af48161457a565b9050919050565b60006020820190508181036000830152614b148161459d565b9050919050565b60006020820190508181036000830152614b34816145c0565b9050919050565b60006020820190508181036000830152614b54816145e3565b9050919050565b60006020820190508181036000830152614b7481614606565b9050919050565b60006020820190508181036000830152614b9481614629565b9050919050565b60006020820190508181036000830152614bb48161464c565b9050919050565b6000602082019050614bd0600083018461466f565b92915050565b6000604082019050614beb600083018561466f565b614bf86020830184614116565b9392505050565b6000614c09614c1a565b9050614c158282614e14565b919050565b6000604051905090565b600067ffffffffffffffff821115614c3f57614c3e614ea3565b5b614c4882614ed2565b9050602081019050919050565b600081519050919050565b600081519050919050565b600082825260208201905092915050565b600081905092915050565b600082825260208201905092915050565b6000614ca382614d96565b9150614cae83614d96565b9250827fffffffffffffffffffffffffffffffffffffffffffffffffffffffffffffffff03821115614ce357614ce2614e45565b5b828201905092915050565b6000614cf982614d96565b9150614d0483614d96565b925082821015614d1757614d16614e45565b5b828203905092915050565b6000614d2d82614d76565b9050919050565b60008115159050919050565b6000819050919050565b60007fffffffff0000000000000000000000000000000000000000000000000000000082169050919050565b600073ffffffffffffffffffffffffffffffffffffffff82169050919050565b6000819050919050565b82818337600083830152505050565b60005b83811015614dcd578082015181840152602081019050614db2565b83811115614ddc576000848401525b50505050565b60006002820490506001821680614dfa57607f821691505b60208210811415614e0e57614e0d614e74565b5b50919050565b614e1d82614ed2565b810181811067ffffffffffffffff82111715614e3c57614e3b614ea3565b5b80604052505050565b7f4e487b7100000000000000000000000000000000000000000000000000000000600052601160045260246000fd5b7f4e487b7100000000000000000000000000000000000000000000000000000000600052602260045260246000fd5b7f4e487b7100000000000000000000000000000000000000000000000000000000600052604160045260246000fd5b6000601f19601f8301169050919050565b7f4552433732313a20746f6b656e20686173206e6f74206265656e206d696e746560008201527f642e000000000000000000000000000000000000000000000000000000000000602082015250565b7f456e756d657261626c655365743a20696e646578206f7574206f6620626f756e60008201527f6473000000000000000000000000000000000000000000000000000000000000602082015250565b7f546865206e6577206269642076616c7565206d7573742065786365656420746860008201527f652063757272656e74206269642076616c75652e000000000000000000000000602082015250565b7f4552433732315061757361626c653a20746f6b656e207472616e73666572207760008201527f68696c6520706175736564000000000000000000000000000000000000000000602082015250565b7f416363657373436f6e74726f6c3a2073656e646572206d75737420626520616e60008201527f2061646d696e20746f206772616e740000000000000000000000000000000000602082015250565b7f5061757361626c653a206e6f7420706175736564000000000000000000000000600082015250565b7f4574686572206e6f742073656e7420746f207468652070726576696f7573206260008201527f6964646572000000000000000000000000000000000000000000000000000000602082015250565b7f455243373231456e756d657261626c653a206f776e657220696e646578206f7560008201527f74206f6620626f756e6473000000000000000000000000000000000000000000602082015250565b7f4552433732313a207472616e7366657220746f206e6f6e20455243373231526560008201527f63656976657220696d706c656d656e7465720000000000000000000000000000602082015250565b7f4552433732313a20746f6b656e20616c7265616479206d696e74656400000000600082015250565b7f4552433732315072657365744d696e7465725061757365724175746f49643a2060008201527f6d75737420686176652070617573657220726f6c6520746f2070617573650000602082015250565b7f4552433732313a207472616e7366657220746f20746865207a65726f2061646460008201527f7265737300000000000000000000000000000000000000000000000000000000602082015250565b7f4552433732313a20617070726f766520746f2063616c6c657200000000000000600082015250565b7f4552433732313a206f70657261746f7220717565727920666f72206e6f6e657860008201527f697374656e7420746f6b656e0000000000000000000000000000000000000000602082015250565b7f416363657373436f6e74726f6c3a2073656e646572206d75737420626520616e60008201527f2061646d696e20746f207265766f6b6500000000000000000000000000000000602082015250565b7f5061757361626c653a2070617573656400000000000000000000000000000000600082015250565b7f4552433732313a20617070726f76652063616c6c6572206973206e6f74206f7760008201527f6e6572206e6f7220617070726f76656420666f7220616c6c0000000000000000602082015250565b7f4552433732313a2062616c616e636520717565727920666f7220746865207a6560008201527f726f206164647265737300000000000000000000000000000000000000000000602082015250565b7f4552433732313a206f776e657220717565727920666f72206e6f6e657869737460008201527f656e7420746f6b656e0000000000000000000000000000000000000000000000602082015250565b7f4574686572206e6f742073656e7420746f20746865206f776e6572206f66207460008201527f6f6b656e00000000000000000000000000000000000000000000000000000000602082015250565b7f4552433732313a206d696e7420746f20746865207a65726f2061646472657373600082015250565b7f4552433732313a20617070726f76656420717565727920666f72206e6f6e657860008201527f697374656e7420746f6b656e0000000000000000000000000000000000000000602082015250565b7f4552433732313a207472616e73666572206f6620746f6b656e2074686174206960008201527f73206e6f74206f776e0000000000000000000000000000000000000000000000602082015250565b7f4552433732314d657461646174613a2055524920717565727920666f72206e6f60008201527f6e6578697374656e7420746f6b656e0000000000000000000000000000000000602082015250565b7f4552433732313a20617070726f76616c20746f2063757272656e74206f776e6560008201527f7200000000000000000000000000000000000000000000000000000000000000602082015250565b7f4f6e6c792074686520746f6b656e206f776e65722063616e206163636570742060008201527f746865206269642e000000000000000000000000000000000000000000000000602082015250565b50565b7f4552433732313a207472616e736665722063616c6c6572206973206e6f74206f60008201527f776e6572206e6f7220617070726f766564000000000000000000000000000000602082015250565b7f455243373231456e756d657261626c653a20676c6f62616c20696e646578206f60008201527f7574206f6620626f756e64730000000000000000000000000000000000000000602082015250565b7f506c65617365207761697420666f7220736f6d656f6e6520746f206d616b652060008201527f74686520626964206265666f726520616363657074696e672e00000000000000602082015250565b7f4d757374206c6f636b207570207468652062696420616d6f756e7420696e207460008201527f686520636f6e74726163742e0000000000000000000000000000000000000000602082015250565b7f4552433732315072657365744d696e7465725061757365724175746f49643a2060008201527f6d7573742068617665206d696e74657220726f6c6520746f206d696e74000000602082015250565b7f4552433732314275726e61626c653a2063616c6c6572206973206e6f74206f7760008201527f6e6572206e6f7220617070726f76656400000000000000000000000000000000602082015250565b7f4552433732315072657365744d696e7465725061757365724175746f49643a2060008201527f6d75737420686176652070617573657220726f6c6520746f20756e7061757365602082015250565b7f416363657373436f6e74726f6c3a2063616e206f6e6c792072656e6f756e636560008201527f20726f6c657320666f722073656c660000000000000000000000000000000000602082015250565b6158af81614d22565b81146158ba57600080fd5b50565b6158c681614d34565b81146158d157600080fd5b50565b6158dd81614d40565b81146158e857600080fd5b50565b6158f481614d4a565b81146158ff57600080fd5b50565b61590b81614d96565b811461591657600080fd5b5056fea2646970667358221220c90a9d1d1ee8d2731886a4c5e8d87ec1a4e4a32fc6764469d369b80d89cda03164736f6c63430008030033",
  "linkReferences": {},
  "deployedLinkReferences": {}
}