{
  "_format": "hh-sol-artifact-1",
  "contractName": "BidExecutor",
  "sourceName": "contracts/BidExecutor.sol",
  "abi": [
    {
      "inputs": [],
      "name": "NFT_Factory",
      "outputs": [
        {
          "internalType": "address",
          "name": "",
          "type": "address"
        }
      ],
      "stateMutability": "view",
      "type": "function"
    },
    {
      "inputs": [
        {
          "internalType": "uint256",
          "name": "_tokenId",
          "type": "uint256"
        },
        {
          "internalType": "address",
          "name": "_bidder",
          "type": "address"
        }
      ],
      "name": "executeBid",
      "outputs": [],
      "stateMutability": "nonpayable",
      "type": "function"
    },
    {
      "inputs": [],
      "name": "factorySet",
      "outputs": [
        {
          "internalType": "bool",
          "name": "",
          "type": "bool"
        }
      ],
      "stateMutability": "view",
      "type": "function"
    },
    {
      "inputs": [
        {
          "internalType": "address",
          "name": "_factory",
          "type": "address"
        }
      ],
      "name": "setNftFactory",
      "outputs": [],
      "stateMutability": "nonpayable",
      "type": "function"
    }
  ],
  "bytecode": "0x608060405234801561001057600080fd5b50610727806100206000396000f3fe608060405234801561001057600080fd5b506004361061004c5760003560e01c80630dac9962146100515780631267a7241461006d5780635c02f4191461008b578063e21875e2146100a7575b600080fd5b61006b600480360381019061006691906103b9565b6100c5565b005b610075610173565b60405161008291906104dd565b60405180910390f35b6100a560048036038101906100a0919061040b565b610197565b005b6100af610367565b6040516100bc9190610542565b60405180910390f35b600060149054906101000a900460ff1615610115576040517f08c379a000000000000000000000000000000000000000000000000000000000815260040161010c9061055d565b60405180910390fd5b806000806101000a81548173ffffffffffffffffffffffffffffffffffffffff021916908373ffffffffffffffffffffffffffffffffffffffff1602179055506001600060146101000a81548160ff02191690831515021790555050565b60008054906101000a900473ffffffffffffffffffffffffffffffffffffffff1681565b60008054906101000a900473ffffffffffffffffffffffffffffffffffffffff1673ffffffffffffffffffffffffffffffffffffffff163373ffffffffffffffffffffffffffffffffffffffff1614610225576040517f08c379a000000000000000000000000000000000000000000000000000000000815260040161021c9061057d565b60405180910390fd5b60008060009054906101000a900473ffffffffffffffffffffffffffffffffffffffff1673ffffffffffffffffffffffffffffffffffffffff16636352211e846040518263ffffffff1660e01b8152600401610281919061059d565b60206040518083038186803b15801561029957600080fd5b505afa1580156102ad573d6000803e3d6000fd5b505050506040513d601f19601f820116820180604052508101906102d191906103e2565b905060008054906101000a900473ffffffffffffffffffffffffffffffffffffffff1673ffffffffffffffffffffffffffffffffffffffff1663b88d4fde8284866040518463ffffffff1660e01b8152600401610330939291906104f8565b600060405180830381600087803b15801561034a57600080fd5b505af115801561035e573d6000803e3d6000fd5b50505050505050565b600060149054906101000a900460ff1681565b600081359050610389816106c3565b92915050565b60008151905061039e816106c3565b92915050565b6000813590506103b3816106da565b92915050565b6000602082840312156103cb57600080fd5b60006103d98482850161037a565b91505092915050565b6000602082840312156103f457600080fd5b60006104028482850161038f565b91505092915050565b6000806040838503121561041e57600080fd5b600061042c858286016103a4565b925050602061043d8582860161037a565b9150509250929050565b610450816105da565b82525050565b61045f816105ec565b82525050565b60006104726033836105c9565b915061047d82610622565b604082019050919050565b60006104956027836105c9565b91506104a082610671565b604082019050919050565b60006104b86000836105b8565b91506104c3826106c0565b600082019050919050565b6104d781610618565b82525050565b60006020820190506104f26000830184610447565b92915050565b600060808201905061050d6000830186610447565b61051a6020830185610447565b61052760408301846104ce565b8181036060830152610538816104ab565b9050949350505050565b60006020820190506105576000830184610456565b92915050565b6000602082019050818103600083015261057681610465565b9050919050565b6000602082019050818103600083015261059681610488565b9050919050565b60006020820190506105b260008301846104ce565b92915050565b600082825260208201905092915050565b600082825260208201905092915050565b60006105e5826105f8565b9050919050565b60008115159050919050565b600073ffffffffffffffffffffffffffffffffffffffff82169050919050565b6000819050919050565b7f466163746f72792068617320616c7265616479206265656e2073657420616e6460008201527f2063616e6e6f74206265206368616e6765642e00000000000000000000000000602082015250565b7f4f6e6c7920746865204e465420666163746f72792063616e206578656375746560008201527f2061206269642e00000000000000000000000000000000000000000000000000602082015250565b50565b6106cc816105da565b81146106d757600080fd5b50565b6106e381610618565b81146106ee57600080fd5b5056fea26469706673582212201a5f15a089ed5e8e7e690c49f6ad90eb483f8704e4242195bb4198812c7b6e9164736f6c63430008030033",
  "linkReferences": {},
  "deployedLinkReferences": {}
}