{
  "_format": "hh-sol-artifact-1",
  "contractName": "BidExecutor",
  "sourceName": "contracts/BidExecutor.sol",
  "abi": [
    {
      "inputs": [],
      "name": "NFT_Factory",
      "outputs": [
        {
          "internalType": "address",
          "name": "",
          "type": "address"
        }
      ],
      "stateMutability": "view",
      "type": "function"
    },
    {
      "inputs": [
        {
          "internalType": "uint256",
          "name": "_tokenId",
          "type": "uint256"
        },
        {
          "internalType": "address",
          "name": "_bidder",
          "type": "address"
        }
      ],
      "name": "executeBid",
      "outputs": [],
      "stateMutability": "nonpayable",
      "type": "function"
    },
    {
      "inputs": [],
      "name": "factorySet",
      "outputs": [
        {
          "internalType": "bool",
          "name": "",
          "type": "bool"
        }
      ],
      "stateMutability": "view",
      "type": "function"
    },
    {
      "inputs": [
        {
          "internalType": "address",
          "name": "_factory",
          "type": "address"
        }
      ],
      "name": "setNftFactory",
      "outputs": [],
      "stateMutability": "nonpayable",
      "type": "function"
    }
  ],
  "bytecode": "0x608060405234801561001057600080fd5b50610703806100206000396000f3fe608060405234801561001057600080fd5b506004361061004c5760003560e01c80630dac9962146100515780631267a7241461006d5780635c02f4191461008b578063e21875e2146100a7575b600080fd5b61006b600480360381019061006691906103b9565b6100c5565b005b610075610173565b604051610082919061055a565b60405180910390f35b6100a560048036038101906100a0919061040b565b610197565b005b6100af610367565b6040516100bc91906105bf565b60405180910390f35b600060149054906101000a900460ff1615610115576040517f08c379a000000000000000000000000000000000000000000000000000000000815260040161010c906105da565b60405180910390fd5b806000806101000a81548173ffffffffffffffffffffffffffffffffffffffff021916908373ffffffffffffffffffffffffffffffffffffffff1602179055506001600060146101000a81548160ff02191690831515021790555050565b60008054906101000a900473ffffffffffffffffffffffffffffffffffffffff1681565b60008054906101000a900473ffffffffffffffffffffffffffffffffffffffff1673ffffffffffffffffffffffffffffffffffffffff163373ffffffffffffffffffffffffffffffffffffffff1614610225576040517f08c379a000000000000000000000000000000000000000000000000000000000815260040161021c906105fa565b60405180910390fd5b60008060009054906101000a900473ffffffffffffffffffffffffffffffffffffffff1673ffffffffffffffffffffffffffffffffffffffff16636352211e846040518263ffffffff1660e01b8152600401610281919061061a565b60206040518083038186803b15801561029957600080fd5b505afa1580156102ad573d6000803e3d6000fd5b505050506040513d601f19601f820116820180604052508101906102d191906103e2565b905060008054906101000a900473ffffffffffffffffffffffffffffffffffffffff1673ffffffffffffffffffffffffffffffffffffffff1663b88d4fde8284866040518463ffffffff1660e01b815260040161033093929190610575565b600060405180830381600087803b15801561034a57600080fd5b505af115801561035e573d6000803e3d6000fd5b50505050505050565b600060149054906101000a900460ff1681565b6000813590506103898161069f565b92915050565b60008151905061039e8161069f565b92915050565b6000813590506103b3816106b6565b92915050565b6000602082840312156103cb57600080fd5b60006103d98482850161037a565b91505092915050565b6000602082840312156103f457600080fd5b60006104028482850161038f565b91505092915050565b6000806040838503121561041e57600080fd5b600061042c858286016103a4565b925050602061043d8582860161037a565b9150509250929050565b61045081610657565b82525050565b61045f81610669565b82525050565b6000610472603383610646565b91507f466163746f72792068617320616c7265616479206265656e2073657420616e6460008301527f2063616e6e6f74206265206368616e6765642e000000000000000000000000006020830152604082019050919050565b60006104d8602783610646565b91507f4f6e6c7920746865204e465420666163746f72792063616e206578656375746560008301527f2061206269642e000000000000000000000000000000000000000000000000006020830152604082019050919050565b600061053e600083610635565b9150600082019050919050565b61055481610695565b82525050565b600060208201905061056f6000830184610447565b92915050565b600060808201905061058a6000830186610447565b6105976020830185610447565b6105a4604083018461054b565b81810360608301526105b581610531565b9050949350505050565b60006020820190506105d46000830184610456565b92915050565b600060208201905081810360008301526105f381610465565b9050919050565b60006020820190508181036000830152610613816104cb565b9050919050565b600060208201905061062f600083018461054b565b92915050565b600082825260208201905092915050565b600082825260208201905092915050565b600061066282610675565b9050919050565b60008115159050919050565b600073ffffffffffffffffffffffffffffffffffffffff82169050919050565b6000819050919050565b6106a881610657565b81146106b357600080fd5b50565b6106bf81610695565b81146106ca57600080fd5b5056fea2646970667358221220edeb93b6bdd1c8c4bb45ad1189a5452b086d6b33c86529bff311f95537b5cfdd64736f6c63430008000033",
  "linkReferences": {},
  "deployedLinkReferences": {}
}