{
  "_format": "hh-sol-artifact-1",
  "contractName": "ERC721PresetMinterPauserAutoId",
  "sourceName": "contracts/ERC721/presets/ERC721PresetMinterPauserAutoId.sol",
  "abi": [
    {
      "inputs": [
        {
          "internalType": "string",
          "name": "name",
          "type": "string"
        },
        {
          "internalType": "string",
          "name": "symbol",
          "type": "string"
        },
        {
          "internalType": "string",
          "name": "baseTokenURI",
          "type": "string"
        }
      ],
      "stateMutability": "nonpayable",
      "type": "constructor"
    },
    {
      "anonymous": false,
      "inputs": [
        {
          "indexed": true,
          "internalType": "address",
          "name": "owner",
          "type": "address"
        },
        {
          "indexed": true,
          "internalType": "address",
          "name": "approved",
          "type": "address"
        },
        {
          "indexed": true,
          "internalType": "uint256",
          "name": "tokenId",
          "type": "uint256"
        }
      ],
      "name": "Approval",
      "type": "event"
    },
    {
      "anonymous": false,
      "inputs": [
        {
          "indexed": true,
          "internalType": "address",
          "name": "owner",
          "type": "address"
        },
        {
          "indexed": true,
          "internalType": "address",
          "name": "operator",
          "type": "address"
        },
        {
          "indexed": false,
          "internalType": "bool",
          "name": "approved",
          "type": "bool"
        }
      ],
      "name": "ApprovalForAll",
      "type": "event"
    },
    {
      "anonymous": false,
      "inputs": [
        {
          "indexed": false,
          "internalType": "address",
          "name": "account",
          "type": "address"
        }
      ],
      "name": "Paused",
      "type": "event"
    },
    {
      "anonymous": false,
      "inputs": [
        {
          "indexed": true,
          "internalType": "bytes32",
          "name": "role",
          "type": "bytes32"
        },
        {
          "indexed": true,
          "internalType": "bytes32",
          "name": "previousAdminRole",
          "type": "bytes32"
        },
        {
          "indexed": true,
          "internalType": "bytes32",
          "name": "newAdminRole",
          "type": "bytes32"
        }
      ],
      "name": "RoleAdminChanged",
      "type": "event"
    },
    {
      "anonymous": false,
      "inputs": [
        {
          "indexed": true,
          "internalType": "bytes32",
          "name": "role",
          "type": "bytes32"
        },
        {
          "indexed": true,
          "internalType": "address",
          "name": "account",
          "type": "address"
        },
        {
          "indexed": true,
          "internalType": "address",
          "name": "sender",
          "type": "address"
        }
      ],
      "name": "RoleGranted",
      "type": "event"
    },
    {
      "anonymous": false,
      "inputs": [
        {
          "indexed": true,
          "internalType": "bytes32",
          "name": "role",
          "type": "bytes32"
        },
        {
          "indexed": true,
          "internalType": "address",
          "name": "account",
          "type": "address"
        },
        {
          "indexed": true,
          "internalType": "address",
          "name": "sender",
          "type": "address"
        }
      ],
      "name": "RoleRevoked",
      "type": "event"
    },
    {
      "anonymous": false,
      "inputs": [
        {
          "indexed": true,
          "internalType": "address",
          "name": "from",
          "type": "address"
        },
        {
          "indexed": true,
          "internalType": "address",
          "name": "to",
          "type": "address"
        },
        {
          "indexed": true,
          "internalType": "uint256",
          "name": "tokenId",
          "type": "uint256"
        }
      ],
      "name": "Transfer",
      "type": "event"
    },
    {
      "anonymous": false,
      "inputs": [
        {
          "indexed": false,
          "internalType": "address",
          "name": "account",
          "type": "address"
        }
      ],
      "name": "Unpaused",
      "type": "event"
    },
    {
      "inputs": [],
      "name": "DEFAULT_ADMIN_ROLE",
      "outputs": [
        {
          "internalType": "bytes32",
          "name": "",
          "type": "bytes32"
        }
      ],
      "stateMutability": "view",
      "type": "function"
    },
    {
      "inputs": [],
      "name": "MINTER_ROLE",
      "outputs": [
        {
          "internalType": "bytes32",
          "name": "",
          "type": "bytes32"
        }
      ],
      "stateMutability": "view",
      "type": "function"
    },
    {
      "inputs": [],
      "name": "PAUSER_ROLE",
      "outputs": [
        {
          "internalType": "bytes32",
          "name": "",
          "type": "bytes32"
        }
      ],
      "stateMutability": "view",
      "type": "function"
    },
    {
      "inputs": [
        {
          "internalType": "address",
          "name": "to",
          "type": "address"
        },
        {
          "internalType": "uint256",
          "name": "tokenId",
          "type": "uint256"
        }
      ],
      "name": "approve",
      "outputs": [],
      "stateMutability": "nonpayable",
      "type": "function"
    },
    {
      "inputs": [
        {
          "internalType": "address",
          "name": "owner",
          "type": "address"
        }
      ],
      "name": "balanceOf",
      "outputs": [
        {
          "internalType": "uint256",
          "name": "",
          "type": "uint256"
        }
      ],
      "stateMutability": "view",
      "type": "function"
    },
    {
      "inputs": [
        {
          "internalType": "uint256",
          "name": "tokenId",
          "type": "uint256"
        }
      ],
      "name": "burn",
      "outputs": [],
      "stateMutability": "nonpayable",
      "type": "function"
    },
    {
      "inputs": [
        {
          "internalType": "uint256",
          "name": "tokenId",
          "type": "uint256"
        }
      ],
      "name": "getApproved",
      "outputs": [
        {
          "internalType": "address",
          "name": "",
          "type": "address"
        }
      ],
      "stateMutability": "view",
      "type": "function"
    },
    {
      "inputs": [
        {
          "internalType": "bytes32",
          "name": "role",
          "type": "bytes32"
        }
      ],
      "name": "getRoleAdmin",
      "outputs": [
        {
          "internalType": "bytes32",
          "name": "",
          "type": "bytes32"
        }
      ],
      "stateMutability": "view",
      "type": "function"
    },
    {
      "inputs": [
        {
          "internalType": "bytes32",
          "name": "role",
          "type": "bytes32"
        },
        {
          "internalType": "uint256",
          "name": "index",
          "type": "uint256"
        }
      ],
      "name": "getRoleMember",
      "outputs": [
        {
          "internalType": "address",
          "name": "",
          "type": "address"
        }
      ],
      "stateMutability": "view",
      "type": "function"
    },
    {
      "inputs": [
        {
          "internalType": "bytes32",
          "name": "role",
          "type": "bytes32"
        }
      ],
      "name": "getRoleMemberCount",
      "outputs": [
        {
          "internalType": "uint256",
          "name": "",
          "type": "uint256"
        }
      ],
      "stateMutability": "view",
      "type": "function"
    },
    {
      "inputs": [
        {
          "internalType": "bytes32",
          "name": "role",
          "type": "bytes32"
        },
        {
          "internalType": "address",
          "name": "account",
          "type": "address"
        }
      ],
      "name": "grantRole",
      "outputs": [],
      "stateMutability": "nonpayable",
      "type": "function"
    },
    {
      "inputs": [
        {
          "internalType": "bytes32",
          "name": "role",
          "type": "bytes32"
        },
        {
          "internalType": "address",
          "name": "account",
          "type": "address"
        }
      ],
      "name": "hasRole",
      "outputs": [
        {
          "internalType": "bool",
          "name": "",
          "type": "bool"
        }
      ],
      "stateMutability": "view",
      "type": "function"
    },
    {
      "inputs": [
        {
          "internalType": "address",
          "name": "owner",
          "type": "address"
        },
        {
          "internalType": "address",
          "name": "operator",
          "type": "address"
        }
      ],
      "name": "isApprovedForAll",
      "outputs": [
        {
          "internalType": "bool",
          "name": "",
          "type": "bool"
        }
      ],
      "stateMutability": "view",
      "type": "function"
    },
    {
      "inputs": [],
      "name": "name",
      "outputs": [
        {
          "internalType": "string",
          "name": "",
          "type": "string"
        }
      ],
      "stateMutability": "view",
      "type": "function"
    },
    {
      "inputs": [
        {
          "internalType": "uint256",
          "name": "tokenId",
          "type": "uint256"
        }
      ],
      "name": "ownerOf",
      "outputs": [
        {
          "internalType": "address",
          "name": "",
          "type": "address"
        }
      ],
      "stateMutability": "view",
      "type": "function"
    },
    {
      "inputs": [],
      "name": "pause",
      "outputs": [],
      "stateMutability": "nonpayable",
      "type": "function"
    },
    {
      "inputs": [],
      "name": "paused",
      "outputs": [
        {
          "internalType": "bool",
          "name": "",
          "type": "bool"
        }
      ],
      "stateMutability": "view",
      "type": "function"
    },
    {
      "inputs": [
        {
          "internalType": "bytes32",
          "name": "role",
          "type": "bytes32"
        },
        {
          "internalType": "address",
          "name": "account",
          "type": "address"
        }
      ],
      "name": "renounceRole",
      "outputs": [],
      "stateMutability": "nonpayable",
      "type": "function"
    },
    {
      "inputs": [
        {
          "internalType": "bytes32",
          "name": "role",
          "type": "bytes32"
        },
        {
          "internalType": "address",
          "name": "account",
          "type": "address"
        }
      ],
      "name": "revokeRole",
      "outputs": [],
      "stateMutability": "nonpayable",
      "type": "function"
    },
    {
      "inputs": [
        {
          "internalType": "address",
          "name": "from",
          "type": "address"
        },
        {
          "internalType": "address",
          "name": "to",
          "type": "address"
        },
        {
          "internalType": "uint256",
          "name": "tokenId",
          "type": "uint256"
        }
      ],
      "name": "safeTransferFrom",
      "outputs": [],
      "stateMutability": "nonpayable",
      "type": "function"
    },
    {
      "inputs": [
        {
          "internalType": "address",
          "name": "from",
          "type": "address"
        },
        {
          "internalType": "address",
          "name": "to",
          "type": "address"
        },
        {
          "internalType": "uint256",
          "name": "tokenId",
          "type": "uint256"
        },
        {
          "internalType": "bytes",
          "name": "_data",
          "type": "bytes"
        }
      ],
      "name": "safeTransferFrom",
      "outputs": [],
      "stateMutability": "nonpayable",
      "type": "function"
    },
    {
      "inputs": [
        {
          "internalType": "address",
          "name": "operator",
          "type": "address"
        },
        {
          "internalType": "bool",
          "name": "approved",
          "type": "bool"
        }
      ],
      "name": "setApprovalForAll",
      "outputs": [],
      "stateMutability": "nonpayable",
      "type": "function"
    },
    {
      "inputs": [
        {
          "internalType": "bytes4",
          "name": "interfaceId",
          "type": "bytes4"
        }
      ],
      "name": "supportsInterface",
      "outputs": [
        {
          "internalType": "bool",
          "name": "",
          "type": "bool"
        }
      ],
      "stateMutability": "view",
      "type": "function"
    },
    {
      "inputs": [],
      "name": "symbol",
      "outputs": [
        {
          "internalType": "string",
          "name": "",
          "type": "string"
        }
      ],
      "stateMutability": "view",
      "type": "function"
    },
    {
      "inputs": [
        {
          "internalType": "uint256",
          "name": "index",
          "type": "uint256"
        }
      ],
      "name": "tokenByIndex",
      "outputs": [
        {
          "internalType": "uint256",
          "name": "",
          "type": "uint256"
        }
      ],
      "stateMutability": "view",
      "type": "function"
    },
    {
      "inputs": [
        {
          "internalType": "address",
          "name": "owner",
          "type": "address"
        },
        {
          "internalType": "uint256",
          "name": "index",
          "type": "uint256"
        }
      ],
      "name": "tokenOfOwnerByIndex",
      "outputs": [
        {
          "internalType": "uint256",
          "name": "",
          "type": "uint256"
        }
      ],
      "stateMutability": "view",
      "type": "function"
    },
    {
      "inputs": [
        {
          "internalType": "uint256",
          "name": "tokenId",
          "type": "uint256"
        }
      ],
      "name": "tokenURI",
      "outputs": [
        {
          "internalType": "string",
          "name": "",
          "type": "string"
        }
      ],
      "stateMutability": "view",
      "type": "function"
    },
    {
      "inputs": [],
      "name": "totalSupply",
      "outputs": [
        {
          "internalType": "uint256",
          "name": "",
          "type": "uint256"
        }
      ],
      "stateMutability": "view",
      "type": "function"
    },
    {
      "inputs": [
        {
          "internalType": "address",
          "name": "from",
          "type": "address"
        },
        {
          "internalType": "address",
          "name": "to",
          "type": "address"
        },
        {
          "internalType": "uint256",
          "name": "tokenId",
          "type": "uint256"
        }
      ],
      "name": "transferFrom",
      "outputs": [],
      "stateMutability": "nonpayable",
      "type": "function"
    },
    {
      "inputs": [],
      "name": "unpause",
      "outputs": [],
      "stateMutability": "nonpayable",
      "type": "function"
    }
  ],
  "bytecode": "0x60806040523480156200001157600080fd5b50604051620049d1380380620049d1833981810160405281019062000037919062000508565b8282816002908051906020019062000051929190620003e6565b5080600390805190602001906200006a929190620003e6565b5050506000600c60006101000a81548160ff02191690831515021790555080600e9080519060200190620000a0929190620003e6565b50620000c56000801b620000b96200015060201b60201c565b6200015860201b60201c565b620001067f9f2df0fed2c77648de5860a4cc508cd0818c85b8b8a1ab4ceeef8d981c8956a6620000fa6200015060201b60201c565b6200015860201b60201c565b620001477f65d7a28e3265b37a6474929f336521b332c1681b933f6cb9f3376673440d862a6200013b6200015060201b60201c565b6200015860201b60201c565b50505062000719565b600033905090565b6200016f8282620001a060201b620012531760201c565b6200019b8160016000858152602001908152602001600020620001b660201b620012611790919060201c565b505050565b620001b28282620001ee60201b60201c565b5050565b6000620001e6836000018373ffffffffffffffffffffffffffffffffffffffff1660001b620002df60201b60201c565b905092915050565b6200020082826200035960201b60201c565b620002db57600160008084815260200190815260200160002060000160008373ffffffffffffffffffffffffffffffffffffffff1673ffffffffffffffffffffffffffffffffffffffff16815260200190815260200160002060006101000a81548160ff021916908315150217905550620002806200015060201b60201c565b73ffffffffffffffffffffffffffffffffffffffff168173ffffffffffffffffffffffffffffffffffffffff16837f2f8788117e7eff1d82e926ec794901d17c78024a50270940304540a733656f0d60405160405180910390a45b5050565b6000620002f38383620003c360201b60201c565b6200034e57826000018290806001815401808255809150506001900390600052602060002001600090919091909150558260000180549050836001016000848152602001908152602001600020819055506001905062000353565b600090505b92915050565b600080600084815260200190815260200160002060000160008373ffffffffffffffffffffffffffffffffffffffff1673ffffffffffffffffffffffffffffffffffffffff16815260200190815260200160002060009054906101000a900460ff16905092915050565b600080836001016000848152602001908152602001600020541415905092915050565b828054620003f4906200063e565b90600052602060002090601f01602090048101928262000418576000855562000464565b82601f106200043357805160ff191683800117855562000464565b8280016001018555821562000464579182015b828111156200046357825182559160200191906001019062000446565b5b50905062000473919062000477565b5090565b5b808211156200049257600081600090555060010162000478565b5090565b6000620004ad620004a784620005d2565b620005a9565b905082815260208101848484011115620004c657600080fd5b620004d384828562000608565b509392505050565b600082601f830112620004ed57600080fd5b8151620004ff84826020860162000496565b91505092915050565b6000806000606084860312156200051e57600080fd5b600084015167ffffffffffffffff8111156200053957600080fd5b6200054786828701620004db565b935050602084015167ffffffffffffffff8111156200056557600080fd5b6200057386828701620004db565b925050604084015167ffffffffffffffff8111156200059157600080fd5b6200059f86828701620004db565b9150509250925092565b6000620005b5620005c8565b9050620005c3828262000674565b919050565b6000604051905090565b600067ffffffffffffffff821115620005f057620005ef620006d9565b5b620005fb8262000708565b9050602081019050919050565b60005b83811015620006285780820151818401526020810190506200060b565b8381111562000638576000848401525b50505050565b600060028204905060018216806200065757607f821691505b602082108114156200066e576200066d620006aa565b5b50919050565b6200067f8262000708565b810181811067ffffffffffffffff82111715620006a157620006a0620006d9565b5b80604052505050565b7f4e487b7100000000000000000000000000000000000000000000000000000000600052602260045260246000fd5b7f4e487b7100000000000000000000000000000000000000000000000000000000600052604160045260246000fd5b6000601f19601f8301169050919050565b6142a880620007296000396000f3fe608060405234801561001057600080fd5b50600436106101da5760003560e01c80636352211e11610104578063a22cb465116100a2578063d539139311610071578063d539139314610579578063d547741f14610597578063e63ab1e9146105b3578063e985e9c5146105d1576101da565b8063a22cb465146104e1578063b88d4fde146104fd578063c87b56dd14610519578063ca15c87314610549576101da565b80639010d07c116100de5780639010d07c1461044557806391d148541461047557806395d89b41146104a5578063a217fddf146104c3576101da565b80636352211e146103db57806370a082311461040b5780638456cb591461043b576101da565b80632f2ff15d1161017c57806342842e0e1161014b57806342842e0e1461035557806342966c68146103715780634f6ccce71461038d5780635c975abb146103bd576101da565b80632f2ff15d146102e35780632f745c59146102ff57806336568abe1461032f5780633f4ba83a1461034b576101da565b8063095ea7b3116101b8578063095ea7b31461025d57806318160ddd1461027957806323b872dd14610297578063248a9ca3146102b3576101da565b806301ffc9a7146101df57806306fdde031461020f578063081812fc1461022d575b600080fd5b6101f960048036038101906101f49190612eab565b610601565b60405161020691906133d8565b60405180910390f35b610217610613565b604051610224919061340e565b60405180910390f35b61024760048036038101906102429190612efd565b6106a5565b6040516102549190613371565b60405180910390f35b61027760048036038101906102729190612dce565b61072a565b005b610281610842565b60405161028e9190613730565b60405180910390f35b6102b160048036038101906102ac9190612cc8565b61084f565b005b6102cd60048036038101906102c89190612e0a565b6108af565b6040516102da91906133f3565b60405180910390f35b6102fd60048036038101906102f89190612e33565b6108ce565b005b61031960048036038101906103149190612dce565b610902565b6040516103269190613730565b60405180910390f35b61034960048036038101906103449190612e33565b6109a7565b005b6103536109db565b005b61036f600480360381019061036a9190612cc8565b610a55565b005b61038b60048036038101906103869190612efd565b610a75565b005b6103a760048036038101906103a29190612efd565b610ad1565b6040516103b49190613730565b60405180910390f35b6103c5610b68565b6040516103d291906133d8565b60405180910390f35b6103f560048036038101906103f09190612efd565b610b7f565b6040516104029190613371565b60405180910390f35b61042560048036038101906104209190612c63565b610c31565b6040516104329190613730565b60405180910390f35b610443610ce9565b005b61045f600480360381019061045a9190612e6f565b610d63565b60405161046c9190613371565b60405180910390f35b61048f600480360381019061048a9190612e33565b610d92565b60405161049c91906133d8565b60405180910390f35b6104ad610dfc565b6040516104ba919061340e565b60405180910390f35b6104cb610e8e565b6040516104d891906133f3565b60405180910390f35b6104fb60048036038101906104f69190612d92565b610e95565b005b61051760048036038101906105129190612d17565b611016565b005b610533600480360381019061052e9190612efd565b611078565b604051610540919061340e565b60405180910390f35b610563600480360381019061055e9190612e0a565b61111f565b6040516105709190613730565b60405180910390f35b610581611143565b60405161058e91906133f3565b60405180910390f35b6105b160048036038101906105ac9190612e33565b611167565b005b6105bb61119b565b6040516105c891906133f3565b60405180910390f35b6105eb60048036038101906105e69190612c8c565b6111bf565b6040516105f891906133d8565b60405180910390f35b600061060c82611291565b9050919050565b6060600280546106229061395f565b80601f016020809104026020016040519081016040528092919081815260200182805461064e9061395f565b801561069b5780601f106106705761010080835404028352916020019161069b565b820191906000526020600020905b81548152906001019060200180831161067e57829003601f168201915b5050505050905090565b60006106b08261130b565b6106ef576040517f08c379a00000000000000000000000000000000000000000000000000000000081526004016106e690613610565b60405180910390fd5b6006600083815260200190815260200160002060009054906101000a900473ffffffffffffffffffffffffffffffffffffffff169050919050565b600061073582610b7f565b90508073ffffffffffffffffffffffffffffffffffffffff168373ffffffffffffffffffffffffffffffffffffffff1614156107a6576040517f08c379a000000000000000000000000000000000000000000000000000000000815260040161079d90613670565b60405180910390fd5b8073ffffffffffffffffffffffffffffffffffffffff166107c5611377565b73ffffffffffffffffffffffffffffffffffffffff1614806107f457506107f3816107ee611377565b6111bf565b5b610833576040517f08c379a000000000000000000000000000000000000000000000000000000000815260040161082a906135b0565b60405180910390fd5b61083d838361137f565b505050565b6000600a80549050905090565b61086061085a611377565b82611438565b61089f576040517f08c379a000000000000000000000000000000000000000000000000000000000815260040161089690613690565b60405180910390fd5b6108aa838383611516565b505050565b6000806000838152602001908152602001600020600101549050919050565b6108d88282611772565b6108fd816001600085815260200190815260200160002061126190919063ffffffff16565b505050565b600061090d83610c31565b821061094e576040517f08c379a0000000000000000000000000000000000000000000000000000000008152600401610945906134b0565b60405180910390fd5b600860008473ffffffffffffffffffffffffffffffffffffffff1673ffffffffffffffffffffffffffffffffffffffff168152602001908152602001600020600083815260200190815260200160002054905092915050565b6109b182826117d8565b6109d6816001600085815260200190815260200160002061185b90919063ffffffff16565b505050565b610a0c7f65d7a28e3265b37a6474929f336521b332c1681b933f6cb9f3376673440d862a610a07611377565b610d92565b610a4b576040517f08c379a0000000000000000000000000000000000000000000000000000000008152600401610a42906136f0565b60405180910390fd5b610a5361188b565b565b610a7083838360405180602001604052806000815250611016565b505050565b610a86610a80611377565b82611438565b610ac5576040517f08c379a0000000000000000000000000000000000000000000000000000000008152600401610abc906136d0565b60405180910390fd5b610ace8161192d565b50565b6000610adb610842565b8210610b1c576040517f08c379a0000000000000000000000000000000000000000000000000000000008152600401610b13906136b0565b60405180910390fd5b600a8281548110610b56577f4e487b7100000000000000000000000000000000000000000000000000000000600052603260045260246000fd5b90600052602060002001549050919050565b6000600c60009054906101000a900460ff16905090565b6000806004600084815260200190815260200160002060009054906101000a900473ffffffffffffffffffffffffffffffffffffffff169050600073ffffffffffffffffffffffffffffffffffffffff168173ffffffffffffffffffffffffffffffffffffffff161415610c28576040517f08c379a0000000000000000000000000000000000000000000000000000000008152600401610c1f906135f0565b60405180910390fd5b80915050919050565b60008073ffffffffffffffffffffffffffffffffffffffff168273ffffffffffffffffffffffffffffffffffffffff161415610ca2576040517f08c379a0000000000000000000000000000000000000000000000000000000008152600401610c99906135d0565b60405180910390fd5b600560008373ffffffffffffffffffffffffffffffffffffffff1673ffffffffffffffffffffffffffffffffffffffff168152602001908152602001600020549050919050565b610d1a7f65d7a28e3265b37a6474929f336521b332c1681b933f6cb9f3376673440d862a610d15611377565b610d92565b610d59576040517f08c379a0000000000000000000000000000000000000000000000000000000008152600401610d50906134f0565b60405180910390fd5b610d61611a3e565b565b6000610d8a8260016000868152602001908152602001600020611ae190919063ffffffff16565b905092915050565b600080600084815260200190815260200160002060000160008373ffffffffffffffffffffffffffffffffffffffff1673ffffffffffffffffffffffffffffffffffffffff16815260200190815260200160002060009054906101000a900460ff16905092915050565b606060038054610e0b9061395f565b80601f0160208091040260200160405190810160405280929190818152602001828054610e379061395f565b8015610e845780601f10610e5957610100808354040283529160200191610e84565b820191906000526020600020905b815481529060010190602001808311610e6757829003601f168201915b5050505050905090565b6000801b81565b610e9d611377565b73ffffffffffffffffffffffffffffffffffffffff168273ffffffffffffffffffffffffffffffffffffffff161415610f0b576040517f08c379a0000000000000000000000000000000000000000000000000000000008152600401610f0290613530565b60405180910390fd5b8060076000610f18611377565b73ffffffffffffffffffffffffffffffffffffffff1673ffffffffffffffffffffffffffffffffffffffff16815260200190815260200160002060008473ffffffffffffffffffffffffffffffffffffffff1673ffffffffffffffffffffffffffffffffffffffff16815260200190815260200160002060006101000a81548160ff0219169083151502179055508173ffffffffffffffffffffffffffffffffffffffff16610fc5611377565b73ffffffffffffffffffffffffffffffffffffffff167f17307eab39ab6107e8899845ad3d59bd9653f200f220920489ca2b5937696c318360405161100a91906133d8565b60405180910390a35050565b611027611021611377565b83611438565b611066576040517f08c379a000000000000000000000000000000000000000000000000000000000815260040161105d90613690565b60405180910390fd5b61107284848484611afb565b50505050565b60606110838261130b565b6110c2576040517f08c379a00000000000000000000000000000000000000000000000000000000081526004016110b990613650565b60405180910390fd5b60006110cc611b57565b905060008151116110ec5760405180602001604052806000815250611117565b806110f684611be9565b60405160200161110792919061334d565b6040516020818303038152906040525b915050919050565b600061113c60016000848152602001908152602001600020611d96565b9050919050565b7f9f2df0fed2c77648de5860a4cc508cd0818c85b8b8a1ab4ceeef8d981c8956a681565b6111718282611dab565b611196816001600085815260200190815260200160002061185b90919063ffffffff16565b505050565b7f65d7a28e3265b37a6474929f336521b332c1681b933f6cb9f3376673440d862a81565b6000600760008473ffffffffffffffffffffffffffffffffffffffff1673ffffffffffffffffffffffffffffffffffffffff16815260200190815260200160002060008373ffffffffffffffffffffffffffffffffffffffff1673ffffffffffffffffffffffffffffffffffffffff16815260200190815260200160002060009054906101000a900460ff16905092915050565b61125d8282611e11565b5050565b6000611289836000018373ffffffffffffffffffffffffffffffffffffffff1660001b611ef1565b905092915050565b60007f780e9d63000000000000000000000000000000000000000000000000000000007bffffffffffffffffffffffffffffffffffffffffffffffffffffffff1916827bffffffffffffffffffffffffffffffffffffffffffffffffffffffff19161480611304575061130382611f61565b5b9050919050565b60008073ffffffffffffffffffffffffffffffffffffffff166004600084815260200190815260200160002060009054906101000a900473ffffffffffffffffffffffffffffffffffffffff1673ffffffffffffffffffffffffffffffffffffffff1614159050919050565b600033905090565b816006600083815260200190815260200160002060006101000a81548173ffffffffffffffffffffffffffffffffffffffff021916908373ffffffffffffffffffffffffffffffffffffffff160217905550808273ffffffffffffffffffffffffffffffffffffffff166113f283610b7f565b73ffffffffffffffffffffffffffffffffffffffff167f8c5be1e5ebec7d5bd14f71427d1e84f3dd0314c0f7b2291e5b200ac8c7c3b92560405160405180910390a45050565b60006114438261130b565b611482576040517f08c379a000000000000000000000000000000000000000000000000000000000815260040161147990613550565b60405180910390fd5b600061148d83610b7f565b90508073ffffffffffffffffffffffffffffffffffffffff168473ffffffffffffffffffffffffffffffffffffffff1614806114fc57508373ffffffffffffffffffffffffffffffffffffffff166114e4846106a5565b73ffffffffffffffffffffffffffffffffffffffff16145b8061150d575061150c81856111bf565b5b91505092915050565b8273ffffffffffffffffffffffffffffffffffffffff1661153682610b7f565b73ffffffffffffffffffffffffffffffffffffffff161461158c576040517f08c379a000000000000000000000000000000000000000000000000000000000815260040161158390613630565b60405180910390fd5b600073ffffffffffffffffffffffffffffffffffffffff168273ffffffffffffffffffffffffffffffffffffffff1614156115fc576040517f08c379a00000000000000000000000000000000000000000000000000000000081526004016115f390613510565b60405180910390fd5b611607838383612043565b61161260008261137f565b6001600560008573ffffffffffffffffffffffffffffffffffffffff1673ffffffffffffffffffffffffffffffffffffffff1681526020019081526020016000206000828254611662919061386b565b925050819055506001600560008473ffffffffffffffffffffffffffffffffffffffff1673ffffffffffffffffffffffffffffffffffffffff16815260200190815260200160002060008282546116b991906137e4565b92505081905550816004600083815260200190815260200160002060006101000a81548173ffffffffffffffffffffffffffffffffffffffff021916908373ffffffffffffffffffffffffffffffffffffffff160217905550808273ffffffffffffffffffffffffffffffffffffffff168473ffffffffffffffffffffffffffffffffffffffff167fddf252ad1be2c89b69c2b068fc378daa952ba7f163c4a11628f55a4df523b3ef60405160405180910390a4505050565b61178b61177e836108af565b611786611377565b610d92565b6117ca576040517f08c379a00000000000000000000000000000000000000000000000000000000081526004016117c190613470565b60405180910390fd5b6117d48282611e11565b5050565b6117e0611377565b73ffffffffffffffffffffffffffffffffffffffff168173ffffffffffffffffffffffffffffffffffffffff161461184d576040517f08c379a000000000000000000000000000000000000000000000000000000000815260040161184490613710565b60405180910390fd5b6118578282612053565b5050565b6000611883836000018373ffffffffffffffffffffffffffffffffffffffff1660001b612134565b905092915050565b611893610b68565b6118d2576040517f08c379a00000000000000000000000000000000000000000000000000000000081526004016118c990613490565b60405180910390fd5b6000600c60006101000a81548160ff0219169083151502179055507f5db9ee0a495bf2e6ff9c91a7834c1ba4fdd244a5e8aa4e537bd38aeae4b073aa611916611377565b6040516119239190613371565b60405180910390a1565b600061193882610b7f565b905061194681600084612043565b61195160008361137f565b6001600560008373ffffffffffffffffffffffffffffffffffffffff1673ffffffffffffffffffffffffffffffffffffffff16815260200190815260200160002060008282546119a1919061386b565b925050819055506004600083815260200190815260200160002060006101000a81549073ffffffffffffffffffffffffffffffffffffffff021916905581600073ffffffffffffffffffffffffffffffffffffffff168273ffffffffffffffffffffffffffffffffffffffff167fddf252ad1be2c89b69c2b068fc378daa952ba7f163c4a11628f55a4df523b3ef60405160405180910390a45050565b611a46610b68565b15611a86576040517f08c379a0000000000000000000000000000000000000000000000000000000008152600401611a7d90613590565b60405180910390fd5b6001600c60006101000a81548160ff0219169083151502179055507f62e78cea01bee320cd4e420270b5ea74000d11b0c9f74754ebdbfc544b05a258611aca611377565b604051611ad79190613371565b60405180910390a1565b6000611af083600001836122be565b60001c905092915050565b611b06848484611516565b611b1284848484612358565b611b51576040517f08c379a0000000000000000000000000000000000000000000000000000000008152600401611b48906134d0565b60405180910390fd5b50505050565b6060600e8054611b669061395f565b80601f0160208091040260200160405190810160405280929190818152602001828054611b929061395f565b8015611bdf5780601f10611bb457610100808354040283529160200191611bdf565b820191906000526020600020905b815481529060010190602001808311611bc257829003601f168201915b5050505050905090565b60606000821415611c31576040518060400160405280600181526020017f30000000000000000000000000000000000000000000000000000000000000008152509050611d91565b600082905060005b60008214611c63578080611c4c906139c2565b915050600a82611c5c919061383a565b9150611c39565b60008167ffffffffffffffff811115611ca5577f4e487b7100000000000000000000000000000000000000000000000000000000600052604160045260246000fd5b6040519080825280601f01601f191660200182016040528015611cd75781602001600182028036833780820191505090505b5090505b60008514611d8a57600182611cf0919061386b565b9150600a85611cff9190613a0b565b6030611d0b91906137e4565b60f81b818381518110611d47577f4e487b7100000000000000000000000000000000000000000000000000000000600052603260045260246000fd5b60200101907effffffffffffffffffffffffffffffffffffffffffffffffffffffffffffff1916908160001a905350600a85611d83919061383a565b9450611cdb565b8093505050505b919050565b6000611da4826000016124ef565b9050919050565b611dc4611db7836108af565b611dbf611377565b610d92565b611e03576040517f08c379a0000000000000000000000000000000000000000000000000000000008152600401611dfa90613570565b60405180910390fd5b611e0d8282612053565b5050565b611e1b8282610d92565b611eed57600160008084815260200190815260200160002060000160008373ffffffffffffffffffffffffffffffffffffffff1673ffffffffffffffffffffffffffffffffffffffff16815260200190815260200160002060006101000a81548160ff021916908315150217905550611e92611377565b73ffffffffffffffffffffffffffffffffffffffff168173ffffffffffffffffffffffffffffffffffffffff16837f2f8788117e7eff1d82e926ec794901d17c78024a50270940304540a733656f0d60405160405180910390a45b5050565b6000611efd8383612500565b611f56578260000182908060018154018082558091505060019003906000526020600020016000909190919091505582600001805490508360010160008481526020019081526020016000208190555060019050611f5b565b600090505b92915050565b60007f80ac58cd000000000000000000000000000000000000000000000000000000007bffffffffffffffffffffffffffffffffffffffffffffffffffffffff1916827bffffffffffffffffffffffffffffffffffffffffffffffffffffffff1916148061202c57507f5b5e139f000000000000000000000000000000000000000000000000000000007bffffffffffffffffffffffffffffffffffffffffffffffffffffffff1916827bffffffffffffffffffffffffffffffffffffffffffffffffffffffff1916145b8061203c575061203b82612523565b5b9050919050565b61204e83838361259d565b505050565b61205d8282610d92565b1561213057600080600084815260200190815260200160002060000160008373ffffffffffffffffffffffffffffffffffffffff1673ffffffffffffffffffffffffffffffffffffffff16815260200190815260200160002060006101000a81548160ff0219169083151502179055506120d5611377565b73ffffffffffffffffffffffffffffffffffffffff168173ffffffffffffffffffffffffffffffffffffffff16837ff6391f5c32d9c69d2a47ea670b442974b53935d1edc7fd64eb21e047a839171b60405160405180910390a45b5050565b600080836001016000848152602001908152602001600020549050600081146122b2576000600182612166919061386b565b905060006001866000018054905061217e919061386b565b905060008660000182815481106121be577f4e487b7100000000000000000000000000000000000000000000000000000000600052603260045260246000fd5b9060005260206000200154905080876000018481548110612208577f4e487b7100000000000000000000000000000000000000000000000000000000600052603260045260246000fd5b906000526020600020018190555060018361222391906137e4565b8760010160008381526020019081526020016000208190555086600001805480612276577f4e487b7100000000000000000000000000000000000000000000000000000000600052603160045260246000fd5b600190038181906000526020600020016000905590558660010160008781526020019081526020016000206000905560019450505050506122b8565b60009150505b92915050565b600081836000018054905011612309576040517f08c379a000000000000000000000000000000000000000000000000000000000815260040161230090613430565b60405180910390fd5b826000018281548110612345577f4e487b7100000000000000000000000000000000000000000000000000000000600052603260045260246000fd5b9060005260206000200154905092915050565b60006123798473ffffffffffffffffffffffffffffffffffffffff166125f5565b156124e2578373ffffffffffffffffffffffffffffffffffffffff1663150b7a026123a2611377565b8786866040518563ffffffff1660e01b81526004016123c4949392919061338c565b602060405180830381600087803b1580156123de57600080fd5b505af192505050801561240f57506040513d601f19601f8201168201806040525081019061240c9190612ed4565b60015b612492573d806000811461243f576040519150601f19603f3d011682016040523d82523d6000602084013e612444565b606091505b5060008151141561248a576040517f08c379a0000000000000000000000000000000000000000000000000000000008152600401612481906134d0565b60405180910390fd5b805181602001fd5b63150b7a0260e01b7bffffffffffffffffffffffffffffffffffffffffffffffffffffffff1916817bffffffffffffffffffffffffffffffffffffffffffffffffffffffff1916149150506124e7565b600190505b949350505050565b600081600001805490509050919050565b600080836001016000848152602001908152602001600020541415905092915050565b60007f5a05180f000000000000000000000000000000000000000000000000000000007bffffffffffffffffffffffffffffffffffffffffffffffffffffffff1916827bffffffffffffffffffffffffffffffffffffffffffffffffffffffff19161480612596575061259582612608565b5b9050919050565b6125a8838383612682565b6125b0610b68565b156125f0576040517f08c379a00000000000000000000000000000000000000000000000000000000081526004016125e790613450565b60405180910390fd5b505050565b600080823b905060008111915050919050565b60007f7965db0b000000000000000000000000000000000000000000000000000000007bffffffffffffffffffffffffffffffffffffffffffffffffffffffff1916827bffffffffffffffffffffffffffffffffffffffffffffffffffffffff1916148061267b575061267a82612796565b5b9050919050565b61268d838383612800565b600073ffffffffffffffffffffffffffffffffffffffff168373ffffffffffffffffffffffffffffffffffffffff1614156126d0576126cb81612805565b61270f565b8173ffffffffffffffffffffffffffffffffffffffff168373ffffffffffffffffffffffffffffffffffffffff161461270e5761270d838261284e565b5b5b600073ffffffffffffffffffffffffffffffffffffffff168273ffffffffffffffffffffffffffffffffffffffff1614156127525761274d816129bb565b612791565b8273ffffffffffffffffffffffffffffffffffffffff168273ffffffffffffffffffffffffffffffffffffffff16146127905761278f8282612afe565b5b5b505050565b60007f01ffc9a7000000000000000000000000000000000000000000000000000000007bffffffffffffffffffffffffffffffffffffffffffffffffffffffff1916827bffffffffffffffffffffffffffffffffffffffffffffffffffffffff1916149050919050565b505050565b600a80549050600b600083815260200190815260200160002081905550600a81908060018154018082558091505060019003906000526020600020016000909190919091505550565b6000600161285b84610c31565b612865919061386b565b905060006009600084815260200190815260200160002054905081811461294a576000600860008673ffffffffffffffffffffffffffffffffffffffff1673ffffffffffffffffffffffffffffffffffffffff168152602001908152602001600020600084815260200190815260200160002054905080600860008773ffffffffffffffffffffffffffffffffffffffff1673ffffffffffffffffffffffffffffffffffffffff168152602001908152602001600020600084815260200190815260200160002081905550816009600083815260200190815260200160002081905550505b6009600084815260200190815260200160002060009055600860008573ffffffffffffffffffffffffffffffffffffffff1673ffffffffffffffffffffffffffffffffffffffff16815260200190815260200160002060008381526020019081526020016000206000905550505050565b60006001600a805490506129cf919061386b565b90506000600b60008481526020019081526020016000205490506000600a8381548110612a25577f4e487b7100000000000000000000000000000000000000000000000000000000600052603260045260246000fd5b9060005260206000200154905080600a8381548110612a6d577f4e487b7100000000000000000000000000000000000000000000000000000000600052603260045260246000fd5b906000526020600020018190555081600b600083815260200190815260200160002081905550600b600085815260200190815260200160002060009055600a805480612ae2577f4e487b7100000000000000000000000000000000000000000000000000000000600052603160045260246000fd5b6001900381819060005260206000200160009055905550505050565b6000612b0983610c31565b905081600860008573ffffffffffffffffffffffffffffffffffffffff1673ffffffffffffffffffffffffffffffffffffffff168152602001908152602001600020600083815260200190815260200160002081905550806009600084815260200190815260200160002081905550505050565b6000612b90612b8b84613770565b61374b565b905082815260208101848484011115612ba857600080fd5b612bb384828561391d565b509392505050565b600081359050612bca816141ff565b92915050565b600081359050612bdf81614216565b92915050565b600081359050612bf48161422d565b92915050565b600081359050612c0981614244565b92915050565b600081519050612c1e81614244565b92915050565b600082601f830112612c3557600080fd5b8135612c45848260208601612b7d565b91505092915050565b600081359050612c5d8161425b565b92915050565b600060208284031215612c7557600080fd5b6000612c8384828501612bbb565b91505092915050565b60008060408385031215612c9f57600080fd5b6000612cad85828601612bbb565b9250506020612cbe85828601612bbb565b9150509250929050565b600080600060608486031215612cdd57600080fd5b6000612ceb86828701612bbb565b9350506020612cfc86828701612bbb565b9250506040612d0d86828701612c4e565b9150509250925092565b60008060008060808587031215612d2d57600080fd5b6000612d3b87828801612bbb565b9450506020612d4c87828801612bbb565b9350506040612d5d87828801612c4e565b925050606085013567ffffffffffffffff811115612d7a57600080fd5b612d8687828801612c24565b91505092959194509250565b60008060408385031215612da557600080fd5b6000612db385828601612bbb565b9250506020612dc485828601612bd0565b9150509250929050565b60008060408385031215612de157600080fd5b6000612def85828601612bbb565b9250506020612e0085828601612c4e565b9150509250929050565b600060208284031215612e1c57600080fd5b6000612e2a84828501612be5565b91505092915050565b60008060408385031215612e4657600080fd5b6000612e5485828601612be5565b9250506020612e6585828601612bbb565b9150509250929050565b60008060408385031215612e8257600080fd5b6000612e9085828601612be5565b9250506020612ea185828601612c4e565b9150509250929050565b600060208284031215612ebd57600080fd5b6000612ecb84828501612bfa565b91505092915050565b600060208284031215612ee657600080fd5b6000612ef484828501612c0f565b91505092915050565b600060208284031215612f0f57600080fd5b6000612f1d84828501612c4e565b91505092915050565b612f2f8161389f565b82525050565b612f3e816138b1565b82525050565b612f4d816138bd565b82525050565b6000612f5e826137a1565b612f6881856137b7565b9350612f7881856020860161392c565b612f8181613af8565b840191505092915050565b6000612f97826137ac565b612fa181856137c8565b9350612fb181856020860161392c565b612fba81613af8565b840191505092915050565b6000612fd0826137ac565b612fda81856137d9565b9350612fea81856020860161392c565b80840191505092915050565b60006130036022836137c8565b915061300e82613b09565b604082019050919050565b6000613026602b836137c8565b915061303182613b58565b604082019050919050565b6000613049602f836137c8565b915061305482613ba7565b604082019050919050565b600061306c6014836137c8565b915061307782613bf6565b602082019050919050565b600061308f602b836137c8565b915061309a82613c1f565b604082019050919050565b60006130b26032836137c8565b91506130bd82613c6e565b604082019050919050565b60006130d5603e836137c8565b91506130e082613cbd565b604082019050919050565b60006130f86024836137c8565b915061310382613d0c565b604082019050919050565b600061311b6019836137c8565b915061312682613d5b565b602082019050919050565b600061313e602c836137c8565b915061314982613d84565b604082019050919050565b60006131616030836137c8565b915061316c82613dd3565b604082019050919050565b60006131846010836137c8565b915061318f82613e22565b602082019050919050565b60006131a76038836137c8565b91506131b282613e4b565b604082019050919050565b60006131ca602a836137c8565b91506131d582613e9a565b604082019050919050565b60006131ed6029836137c8565b91506131f882613ee9565b604082019050919050565b6000613210602c836137c8565b915061321b82613f38565b604082019050919050565b60006132336029836137c8565b915061323e82613f87565b604082019050919050565b6000613256602f836137c8565b915061326182613fd6565b604082019050919050565b60006132796021836137c8565b915061328482614025565b604082019050919050565b600061329c6031836137c8565b91506132a782614074565b604082019050919050565b60006132bf602c836137c8565b91506132ca826140c3565b604082019050919050565b60006132e26030836137c8565b91506132ed82614112565b604082019050919050565b60006133056040836137c8565b915061331082614161565b604082019050919050565b6000613328602f836137c8565b9150613333826141b0565b604082019050919050565b61334781613913565b82525050565b60006133598285612fc5565b91506133658284612fc5565b91508190509392505050565b60006020820190506133866000830184612f26565b92915050565b60006080820190506133a16000830187612f26565b6133ae6020830186612f26565b6133bb604083018561333e565b81810360608301526133cd8184612f53565b905095945050505050565b60006020820190506133ed6000830184612f35565b92915050565b60006020820190506134086000830184612f44565b92915050565b600060208201905081810360008301526134288184612f8c565b905092915050565b6000602082019050818103600083015261344981612ff6565b9050919050565b6000602082019050818103600083015261346981613019565b9050919050565b600060208201905081810360008301526134898161303c565b9050919050565b600060208201905081810360008301526134a98161305f565b9050919050565b600060208201905081810360008301526134c981613082565b9050919050565b600060208201905081810360008301526134e9816130a5565b9050919050565b60006020820190508181036000830152613509816130c8565b9050919050565b60006020820190508181036000830152613529816130eb565b9050919050565b600060208201905081810360008301526135498161310e565b9050919050565b6000602082019050818103600083015261356981613131565b9050919050565b6000602082019050818103600083015261358981613154565b9050919050565b600060208201905081810360008301526135a981613177565b9050919050565b600060208201905081810360008301526135c98161319a565b9050919050565b600060208201905081810360008301526135e9816131bd565b9050919050565b60006020820190508181036000830152613609816131e0565b9050919050565b6000602082019050818103600083015261362981613203565b9050919050565b6000602082019050818103600083015261364981613226565b9050919050565b6000602082019050818103600083015261366981613249565b9050919050565b600060208201905081810360008301526136898161326c565b9050919050565b600060208201905081810360008301526136a98161328f565b9050919050565b600060208201905081810360008301526136c9816132b2565b9050919050565b600060208201905081810360008301526136e9816132d5565b9050919050565b60006020820190508181036000830152613709816132f8565b9050919050565b600060208201905081810360008301526137298161331b565b9050919050565b6000602082019050613745600083018461333e565b92915050565b6000613755613766565b90506137618282613991565b919050565b6000604051905090565b600067ffffffffffffffff82111561378b5761378a613ac9565b5b61379482613af8565b9050602081019050919050565b600081519050919050565b600081519050919050565b600082825260208201905092915050565b600082825260208201905092915050565b600081905092915050565b60006137ef82613913565b91506137fa83613913565b9250827fffffffffffffffffffffffffffffffffffffffffffffffffffffffffffffffff0382111561382f5761382e613a3c565b5b828201905092915050565b600061384582613913565b915061385083613913565b9250826138605761385f613a6b565b5b828204905092915050565b600061387682613913565b915061388183613913565b92508282101561389457613893613a3c565b5b828203905092915050565b60006138aa826138f3565b9050919050565b60008115159050919050565b6000819050919050565b60007fffffffff0000000000000000000000000000000000000000000000000000000082169050919050565b600073ffffffffffffffffffffffffffffffffffffffff82169050919050565b6000819050919050565b82818337600083830152505050565b60005b8381101561394a57808201518184015260208101905061392f565b83811115613959576000848401525b50505050565b6000600282049050600182168061397757607f821691505b6020821081141561398b5761398a613a9a565b5b50919050565b61399a82613af8565b810181811067ffffffffffffffff821117156139b9576139b8613ac9565b5b80604052505050565b60006139cd82613913565b91507fffffffffffffffffffffffffffffffffffffffffffffffffffffffffffffffff821415613a00576139ff613a3c565b5b600182019050919050565b6000613a1682613913565b9150613a2183613913565b925082613a3157613a30613a6b565b5b828206905092915050565b7f4e487b7100000000000000000000000000000000000000000000000000000000600052601160045260246000fd5b7f4e487b7100000000000000000000000000000000000000000000000000000000600052601260045260246000fd5b7f4e487b7100000000000000000000000000000000000000000000000000000000600052602260045260246000fd5b7f4e487b7100000000000000000000000000000000000000000000000000000000600052604160045260246000fd5b6000601f19601f8301169050919050565b7f456e756d657261626c655365743a20696e646578206f7574206f6620626f756e60008201527f6473000000000000000000000000000000000000000000000000000000000000602082015250565b7f4552433732315061757361626c653a20746f6b656e207472616e73666572207760008201527f68696c6520706175736564000000000000000000000000000000000000000000602082015250565b7f416363657373436f6e74726f6c3a2073656e646572206d75737420626520616e60008201527f2061646d696e20746f206772616e740000000000000000000000000000000000602082015250565b7f5061757361626c653a206e6f7420706175736564000000000000000000000000600082015250565b7f455243373231456e756d657261626c653a206f776e657220696e646578206f7560008201527f74206f6620626f756e6473000000000000000000000000000000000000000000602082015250565b7f4552433732313a207472616e7366657220746f206e6f6e20455243373231526560008201527f63656976657220696d706c656d656e7465720000000000000000000000000000602082015250565b7f4552433732315072657365744d696e7465725061757365724175746f49643a2060008201527f6d75737420686176652070617573657220726f6c6520746f2070617573650000602082015250565b7f4552433732313a207472616e7366657220746f20746865207a65726f2061646460008201527f7265737300000000000000000000000000000000000000000000000000000000602082015250565b7f4552433732313a20617070726f766520746f2063616c6c657200000000000000600082015250565b7f4552433732313a206f70657261746f7220717565727920666f72206e6f6e657860008201527f697374656e7420746f6b656e0000000000000000000000000000000000000000602082015250565b7f416363657373436f6e74726f6c3a2073656e646572206d75737420626520616e60008201527f2061646d696e20746f207265766f6b6500000000000000000000000000000000602082015250565b7f5061757361626c653a2070617573656400000000000000000000000000000000600082015250565b7f4552433732313a20617070726f76652063616c6c6572206973206e6f74206f7760008201527f6e6572206e6f7220617070726f76656420666f7220616c6c0000000000000000602082015250565b7f4552433732313a2062616c616e636520717565727920666f7220746865207a6560008201527f726f206164647265737300000000000000000000000000000000000000000000602082015250565b7f4552433732313a206f776e657220717565727920666f72206e6f6e657869737460008201527f656e7420746f6b656e0000000000000000000000000000000000000000000000602082015250565b7f4552433732313a20617070726f76656420717565727920666f72206e6f6e657860008201527f697374656e7420746f6b656e0000000000000000000000000000000000000000602082015250565b7f4552433732313a207472616e73666572206f6620746f6b656e2074686174206960008201527f73206e6f74206f776e0000000000000000000000000000000000000000000000602082015250565b7f4552433732314d657461646174613a2055524920717565727920666f72206e6f60008201527f6e6578697374656e7420746f6b656e0000000000000000000000000000000000602082015250565b7f4552433732313a20617070726f76616c20746f2063757272656e74206f776e6560008201527f7200000000000000000000000000000000000000000000000000000000000000602082015250565b7f4552433732313a207472616e736665722063616c6c6572206973206e6f74206f60008201527f776e6572206e6f7220617070726f766564000000000000000000000000000000602082015250565b7f455243373231456e756d657261626c653a20676c6f62616c20696e646578206f60008201527f7574206f6620626f756e64730000000000000000000000000000000000000000602082015250565b7f4552433732314275726e61626c653a2063616c6c6572206973206e6f74206f7760008201527f6e6572206e6f7220617070726f76656400000000000000000000000000000000602082015250565b7f4552433732315072657365744d696e7465725061757365724175746f49643a2060008201527f6d75737420686176652070617573657220726f6c6520746f20756e7061757365602082015250565b7f416363657373436f6e74726f6c3a2063616e206f6e6c792072656e6f756e636560008201527f20726f6c657320666f722073656c660000000000000000000000000000000000602082015250565b6142088161389f565b811461421357600080fd5b50565b61421f816138b1565b811461422a57600080fd5b50565b614236816138bd565b811461424157600080fd5b50565b61424d816138c7565b811461425857600080fd5b50565b61426481613913565b811461426f57600080fd5b5056fea26469706673582212208aeb24c5442eda22f2e445f865243bd3b326f2fb4c7aa706c96a1612a8e6251a64736f6c63430008030033",
  "linkReferences": {},
  "deployedLinkReferences": {}
}