{
  "_format": "hh-sol-artifact-1",
  "contractName": "ERC721PresetMinterPauserAutoId",
  "sourceName": "contracts/ERC721/presets/ERC721PresetMinterPauserAutoId.sol",
  "abi": [
    {
      "inputs": [
        {
          "internalType": "string",
          "name": "name",
          "type": "string"
        },
        {
          "internalType": "string",
          "name": "symbol",
          "type": "string"
        },
        {
          "internalType": "string",
          "name": "baseTokenURI",
          "type": "string"
        }
      ],
      "stateMutability": "nonpayable",
      "type": "constructor"
    },
    {
      "anonymous": false,
      "inputs": [
        {
          "indexed": true,
          "internalType": "address",
          "name": "owner",
          "type": "address"
        },
        {
          "indexed": true,
          "internalType": "address",
          "name": "approved",
          "type": "address"
        },
        {
          "indexed": true,
          "internalType": "uint256",
          "name": "tokenId",
          "type": "uint256"
        }
      ],
      "name": "Approval",
      "type": "event"
    },
    {
      "anonymous": false,
      "inputs": [
        {
          "indexed": true,
          "internalType": "address",
          "name": "owner",
          "type": "address"
        },
        {
          "indexed": true,
          "internalType": "address",
          "name": "operator",
          "type": "address"
        },
        {
          "indexed": false,
          "internalType": "bool",
          "name": "approved",
          "type": "bool"
        }
      ],
      "name": "ApprovalForAll",
      "type": "event"
    },
    {
      "anonymous": false,
      "inputs": [
        {
          "indexed": false,
          "internalType": "address",
          "name": "account",
          "type": "address"
        }
      ],
      "name": "Paused",
      "type": "event"
    },
    {
      "anonymous": false,
      "inputs": [
        {
          "indexed": true,
          "internalType": "bytes32",
          "name": "role",
          "type": "bytes32"
        },
        {
          "indexed": true,
          "internalType": "bytes32",
          "name": "previousAdminRole",
          "type": "bytes32"
        },
        {
          "indexed": true,
          "internalType": "bytes32",
          "name": "newAdminRole",
          "type": "bytes32"
        }
      ],
      "name": "RoleAdminChanged",
      "type": "event"
    },
    {
      "anonymous": false,
      "inputs": [
        {
          "indexed": true,
          "internalType": "bytes32",
          "name": "role",
          "type": "bytes32"
        },
        {
          "indexed": true,
          "internalType": "address",
          "name": "account",
          "type": "address"
        },
        {
          "indexed": true,
          "internalType": "address",
          "name": "sender",
          "type": "address"
        }
      ],
      "name": "RoleGranted",
      "type": "event"
    },
    {
      "anonymous": false,
      "inputs": [
        {
          "indexed": true,
          "internalType": "bytes32",
          "name": "role",
          "type": "bytes32"
        },
        {
          "indexed": true,
          "internalType": "address",
          "name": "account",
          "type": "address"
        },
        {
          "indexed": true,
          "internalType": "address",
          "name": "sender",
          "type": "address"
        }
      ],
      "name": "RoleRevoked",
      "type": "event"
    },
    {
      "anonymous": false,
      "inputs": [
        {
          "indexed": true,
          "internalType": "address",
          "name": "from",
          "type": "address"
        },
        {
          "indexed": true,
          "internalType": "address",
          "name": "to",
          "type": "address"
        },
        {
          "indexed": true,
          "internalType": "uint256",
          "name": "tokenId",
          "type": "uint256"
        }
      ],
      "name": "Transfer",
      "type": "event"
    },
    {
      "anonymous": false,
      "inputs": [
        {
          "indexed": false,
          "internalType": "address",
          "name": "account",
          "type": "address"
        }
      ],
      "name": "Unpaused",
      "type": "event"
    },
    {
      "inputs": [],
      "name": "DEFAULT_ADMIN_ROLE",
      "outputs": [
        {
          "internalType": "bytes32",
          "name": "",
          "type": "bytes32"
        }
      ],
      "stateMutability": "view",
      "type": "function"
    },
    {
      "inputs": [],
      "name": "MINTER_ROLE",
      "outputs": [
        {
          "internalType": "bytes32",
          "name": "",
          "type": "bytes32"
        }
      ],
      "stateMutability": "view",
      "type": "function"
    },
    {
      "inputs": [],
      "name": "PAUSER_ROLE",
      "outputs": [
        {
          "internalType": "bytes32",
          "name": "",
          "type": "bytes32"
        }
      ],
      "stateMutability": "view",
      "type": "function"
    },
    {
      "inputs": [
        {
          "internalType": "address",
          "name": "to",
          "type": "address"
        },
        {
          "internalType": "uint256",
          "name": "tokenId",
          "type": "uint256"
        }
      ],
      "name": "approve",
      "outputs": [],
      "stateMutability": "nonpayable",
      "type": "function"
    },
    {
      "inputs": [
        {
          "internalType": "address",
          "name": "owner",
          "type": "address"
        }
      ],
      "name": "balanceOf",
      "outputs": [
        {
          "internalType": "uint256",
          "name": "",
          "type": "uint256"
        }
      ],
      "stateMutability": "view",
      "type": "function"
    },
    {
      "inputs": [
        {
          "internalType": "uint256",
          "name": "tokenId",
          "type": "uint256"
        }
      ],
      "name": "burn",
      "outputs": [],
      "stateMutability": "nonpayable",
      "type": "function"
    },
    {
      "inputs": [
        {
          "internalType": "uint256",
          "name": "tokenId",
          "type": "uint256"
        }
      ],
      "name": "getApproved",
      "outputs": [
        {
          "internalType": "address",
          "name": "",
          "type": "address"
        }
      ],
      "stateMutability": "view",
      "type": "function"
    },
    {
      "inputs": [
        {
          "internalType": "bytes32",
          "name": "role",
          "type": "bytes32"
        }
      ],
      "name": "getRoleAdmin",
      "outputs": [
        {
          "internalType": "bytes32",
          "name": "",
          "type": "bytes32"
        }
      ],
      "stateMutability": "view",
      "type": "function"
    },
    {
      "inputs": [
        {
          "internalType": "bytes32",
          "name": "role",
          "type": "bytes32"
        },
        {
          "internalType": "uint256",
          "name": "index",
          "type": "uint256"
        }
      ],
      "name": "getRoleMember",
      "outputs": [
        {
          "internalType": "address",
          "name": "",
          "type": "address"
        }
      ],
      "stateMutability": "view",
      "type": "function"
    },
    {
      "inputs": [
        {
          "internalType": "bytes32",
          "name": "role",
          "type": "bytes32"
        }
      ],
      "name": "getRoleMemberCount",
      "outputs": [
        {
          "internalType": "uint256",
          "name": "",
          "type": "uint256"
        }
      ],
      "stateMutability": "view",
      "type": "function"
    },
    {
      "inputs": [
        {
          "internalType": "bytes32",
          "name": "role",
          "type": "bytes32"
        },
        {
          "internalType": "address",
          "name": "account",
          "type": "address"
        }
      ],
      "name": "grantRole",
      "outputs": [],
      "stateMutability": "nonpayable",
      "type": "function"
    },
    {
      "inputs": [
        {
          "internalType": "bytes32",
          "name": "role",
          "type": "bytes32"
        },
        {
          "internalType": "address",
          "name": "account",
          "type": "address"
        }
      ],
      "name": "hasRole",
      "outputs": [
        {
          "internalType": "bool",
          "name": "",
          "type": "bool"
        }
      ],
      "stateMutability": "view",
      "type": "function"
    },
    {
      "inputs": [
        {
          "internalType": "address",
          "name": "owner",
          "type": "address"
        },
        {
          "internalType": "address",
          "name": "operator",
          "type": "address"
        }
      ],
      "name": "isApprovedForAll",
      "outputs": [
        {
          "internalType": "bool",
          "name": "",
          "type": "bool"
        }
      ],
      "stateMutability": "view",
      "type": "function"
    },
    {
      "inputs": [],
      "name": "name",
      "outputs": [
        {
          "internalType": "string",
          "name": "",
          "type": "string"
        }
      ],
      "stateMutability": "view",
      "type": "function"
    },
    {
      "inputs": [
        {
          "internalType": "uint256",
          "name": "tokenId",
          "type": "uint256"
        }
      ],
      "name": "ownerOf",
      "outputs": [
        {
          "internalType": "address",
          "name": "",
          "type": "address"
        }
      ],
      "stateMutability": "view",
      "type": "function"
    },
    {
      "inputs": [],
      "name": "pause",
      "outputs": [],
      "stateMutability": "nonpayable",
      "type": "function"
    },
    {
      "inputs": [],
      "name": "paused",
      "outputs": [
        {
          "internalType": "bool",
          "name": "",
          "type": "bool"
        }
      ],
      "stateMutability": "view",
      "type": "function"
    },
    {
      "inputs": [
        {
          "internalType": "bytes32",
          "name": "role",
          "type": "bytes32"
        },
        {
          "internalType": "address",
          "name": "account",
          "type": "address"
        }
      ],
      "name": "renounceRole",
      "outputs": [],
      "stateMutability": "nonpayable",
      "type": "function"
    },
    {
      "inputs": [
        {
          "internalType": "bytes32",
          "name": "role",
          "type": "bytes32"
        },
        {
          "internalType": "address",
          "name": "account",
          "type": "address"
        }
      ],
      "name": "revokeRole",
      "outputs": [],
      "stateMutability": "nonpayable",
      "type": "function"
    },
    {
      "inputs": [
        {
          "internalType": "address",
          "name": "from",
          "type": "address"
        },
        {
          "internalType": "address",
          "name": "to",
          "type": "address"
        },
        {
          "internalType": "uint256",
          "name": "tokenId",
          "type": "uint256"
        }
      ],
      "name": "safeTransferFrom",
      "outputs": [],
      "stateMutability": "nonpayable",
      "type": "function"
    },
    {
      "inputs": [
        {
          "internalType": "address",
          "name": "from",
          "type": "address"
        },
        {
          "internalType": "address",
          "name": "to",
          "type": "address"
        },
        {
          "internalType": "uint256",
          "name": "tokenId",
          "type": "uint256"
        },
        {
          "internalType": "bytes",
          "name": "_data",
          "type": "bytes"
        }
      ],
      "name": "safeTransferFrom",
      "outputs": [],
      "stateMutability": "nonpayable",
      "type": "function"
    },
    {
      "inputs": [
        {
          "internalType": "address",
          "name": "operator",
          "type": "address"
        },
        {
          "internalType": "bool",
          "name": "approved",
          "type": "bool"
        }
      ],
      "name": "setApprovalForAll",
      "outputs": [],
      "stateMutability": "nonpayable",
      "type": "function"
    },
    {
      "inputs": [
        {
          "internalType": "bytes4",
          "name": "interfaceId",
          "type": "bytes4"
        }
      ],
      "name": "supportsInterface",
      "outputs": [
        {
          "internalType": "bool",
          "name": "",
          "type": "bool"
        }
      ],
      "stateMutability": "view",
      "type": "function"
    },
    {
      "inputs": [],
      "name": "symbol",
      "outputs": [
        {
          "internalType": "string",
          "name": "",
          "type": "string"
        }
      ],
      "stateMutability": "view",
      "type": "function"
    },
    {
      "inputs": [
        {
          "internalType": "uint256",
          "name": "index",
          "type": "uint256"
        }
      ],
      "name": "tokenByIndex",
      "outputs": [
        {
          "internalType": "uint256",
          "name": "",
          "type": "uint256"
        }
      ],
      "stateMutability": "view",
      "type": "function"
    },
    {
      "inputs": [
        {
          "internalType": "address",
          "name": "owner",
          "type": "address"
        },
        {
          "internalType": "uint256",
          "name": "index",
          "type": "uint256"
        }
      ],
      "name": "tokenOfOwnerByIndex",
      "outputs": [
        {
          "internalType": "uint256",
          "name": "",
          "type": "uint256"
        }
      ],
      "stateMutability": "view",
      "type": "function"
    },
    {
      "inputs": [
        {
          "internalType": "uint256",
          "name": "tokenId",
          "type": "uint256"
        }
      ],
      "name": "tokenURI",
      "outputs": [
        {
          "internalType": "string",
          "name": "",
          "type": "string"
        }
      ],
      "stateMutability": "view",
      "type": "function"
    },
    {
      "inputs": [],
      "name": "totalSupply",
      "outputs": [
        {
          "internalType": "uint256",
          "name": "",
          "type": "uint256"
        }
      ],
      "stateMutability": "view",
      "type": "function"
    },
    {
      "inputs": [
        {
          "internalType": "address",
          "name": "from",
          "type": "address"
        },
        {
          "internalType": "address",
          "name": "to",
          "type": "address"
        },
        {
          "internalType": "uint256",
          "name": "tokenId",
          "type": "uint256"
        }
      ],
      "name": "transferFrom",
      "outputs": [],
      "stateMutability": "nonpayable",
      "type": "function"
    },
    {
      "inputs": [],
      "name": "unpause",
      "outputs": [],
      "stateMutability": "nonpayable",
      "type": "function"
    }
  ],
  "bytecode": "0x60806040523480156200001157600080fd5b506040516200484c3803806200484c833981810160405281019062000037919062000508565b8282816002908051906020019062000051929190620003e6565b5080600390805190602001906200006a929190620003e6565b5050506000600c60006101000a81548160ff02191690831515021790555080600e9080519060200190620000a0929190620003e6565b50620000c56000801b620000b96200015060201b60201c565b6200015860201b60201c565b620001067f9f2df0fed2c77648de5860a4cc508cd0818c85b8b8a1ab4ceeef8d981c8956a6620000fa6200015060201b60201c565b6200015860201b60201c565b620001477f65d7a28e3265b37a6474929f336521b332c1681b933f6cb9f3376673440d862a6200013b6200015060201b60201c565b6200015860201b60201c565b505050620006da565b600033905090565b6200016f8282620001a060201b620012531760201c565b6200019b8160016000858152602001908152602001600020620001b660201b620012611790919060201c565b505050565b620001b28282620001ee60201b60201c565b5050565b6000620001e6836000018373ffffffffffffffffffffffffffffffffffffffff1660001b620002df60201b60201c565b905092915050565b6200020082826200035960201b60201c565b620002db57600160008084815260200190815260200160002060000160008373ffffffffffffffffffffffffffffffffffffffff1673ffffffffffffffffffffffffffffffffffffffff16815260200190815260200160002060006101000a81548160ff021916908315150217905550620002806200015060201b60201c565b73ffffffffffffffffffffffffffffffffffffffff168173ffffffffffffffffffffffffffffffffffffffff16837f2f8788117e7eff1d82e926ec794901d17c78024a50270940304540a733656f0d60405160405180910390a45b5050565b6000620002f38383620003c360201b60201c565b6200034e57826000018290806001815401808255809150506001900390600052602060002001600090919091909150558260000180549050836001016000848152602001908152602001600020819055506001905062000353565b600090505b92915050565b600080600084815260200190815260200160002060000160008373ffffffffffffffffffffffffffffffffffffffff1673ffffffffffffffffffffffffffffffffffffffff16815260200190815260200160002060009054906101000a900460ff16905092915050565b600080836001016000848152602001908152602001600020541415905092915050565b828054620003f49062000646565b90600052602060002090601f01602090048101928262000418576000855562000464565b82601f106200043357805160ff191683800117855562000464565b8280016001018555821562000464579182015b828111156200046357825182559160200191906001019062000446565b5b50905062000473919062000477565b5090565b5b808211156200049257600081600090555060010162000478565b5090565b6000620004ad620004a784620005dd565b620005a9565b905082815260208101848484011115620004c657600080fd5b620004d384828562000610565b509392505050565b600082601f830112620004ed57600080fd5b8151620004ff84826020860162000496565b91505092915050565b6000806000606084860312156200051e57600080fd5b600084015167ffffffffffffffff8111156200053957600080fd5b6200054786828701620004db565b935050602084015167ffffffffffffffff8111156200056557600080fd5b6200057386828701620004db565b925050604084015167ffffffffffffffff8111156200059157600080fd5b6200059f86828701620004db565b9150509250925092565b6000604051905081810181811067ffffffffffffffff82111715620005d357620005d2620006ab565b5b8060405250919050565b600067ffffffffffffffff821115620005fb57620005fa620006ab565b5b601f19601f8301169050602081019050919050565b60005b838110156200063057808201518184015260208101905062000613565b8381111562000640576000848401525b50505050565b600060028204905060018216806200065f57607f821691505b602082108114156200067657620006756200067c565b5b50919050565b7f4e487b7100000000000000000000000000000000000000000000000000000000600052602260045260246000fd5b7f4e487b7100000000000000000000000000000000000000000000000000000000600052604160045260246000fd5b61416280620006ea6000396000f3fe608060405234801561001057600080fd5b50600436106101da5760003560e01c80636352211e11610104578063a22cb465116100a2578063d539139311610071578063d539139314610579578063d547741f14610597578063e63ab1e9146105b3578063e985e9c5146105d1576101da565b8063a22cb465146104e1578063b88d4fde146104fd578063c87b56dd14610519578063ca15c87314610549576101da565b80639010d07c116100de5780639010d07c1461044557806391d148541461047557806395d89b41146104a5578063a217fddf146104c3576101da565b80636352211e146103db57806370a082311461040b5780638456cb591461043b576101da565b80632f2ff15d1161017c57806342842e0e1161014b57806342842e0e1461035557806342966c68146103715780634f6ccce71461038d5780635c975abb146103bd576101da565b80632f2ff15d146102e35780632f745c59146102ff57806336568abe1461032f5780633f4ba83a1461034b576101da565b8063095ea7b3116101b8578063095ea7b31461025d57806318160ddd1461027957806323b872dd14610297578063248a9ca3146102b3576101da565b806301ffc9a7146101df57806306fdde031461020f578063081812fc1461022d575b600080fd5b6101f960048036038101906101f49190612eab565b610601565b60405161020691906139ae565b60405180910390f35b610217610613565b60405161022491906139e4565b60405180910390f35b61024760048036038101906102429190612efd565b6106a5565b6040516102549190613947565b60405180910390f35b61027760048036038101906102729190612dce565b61072a565b005b610281610842565b60405161028e9190613d06565b60405180910390f35b6102b160048036038101906102ac9190612cc8565b61084f565b005b6102cd60048036038101906102c89190612e0a565b6108af565b6040516102da91906139c9565b60405180910390f35b6102fd60048036038101906102f89190612e33565b6108ce565b005b61031960048036038101906103149190612dce565b610902565b6040516103269190613d06565b60405180910390f35b61034960048036038101906103449190612e33565b6109a7565b005b6103536109db565b005b61036f600480360381019061036a9190612cc8565b610a55565b005b61038b60048036038101906103869190612efd565b610a75565b005b6103a760048036038101906103a29190612efd565b610ad1565b6040516103b49190613d06565b60405180910390f35b6103c5610b68565b6040516103d291906139ae565b60405180910390f35b6103f560048036038101906103f09190612efd565b610b7f565b6040516104029190613947565b60405180910390f35b61042560048036038101906104209190612c63565b610c31565b6040516104329190613d06565b60405180910390f35b610443610ce9565b005b61045f600480360381019061045a9190612e6f565b610d63565b60405161046c9190613947565b60405180910390f35b61048f600480360381019061048a9190612e33565b610d92565b60405161049c91906139ae565b60405180910390f35b6104ad610dfc565b6040516104ba91906139e4565b60405180910390f35b6104cb610e8e565b6040516104d891906139c9565b60405180910390f35b6104fb60048036038101906104f69190612d92565b610e95565b005b61051760048036038101906105129190612d17565b611016565b005b610533600480360381019061052e9190612efd565b611078565b60405161054091906139e4565b60405180910390f35b610563600480360381019061055e9190612e0a565b61111f565b6040516105709190613d06565b60405180910390f35b610581611143565b60405161058e91906139c9565b60405180910390f35b6105b160048036038101906105ac9190612e33565b611167565b005b6105bb61119b565b6040516105c891906139c9565b60405180910390f35b6105eb60048036038101906105e69190612c8c565b6111bf565b6040516105f891906139ae565b60405180910390f35b600061060c82611291565b9050919050565b60606002805461062290613f40565b80601f016020809104026020016040519081016040528092919081815260200182805461064e90613f40565b801561069b5780601f106106705761010080835404028352916020019161069b565b820191906000526020600020905b81548152906001019060200180831161067e57829003601f168201915b5050505050905090565b60006106b08261130b565b6106ef576040517f08c379a00000000000000000000000000000000000000000000000000000000081526004016106e690613be6565b60405180910390fd5b6006600083815260200190815260200160002060009054906101000a900473ffffffffffffffffffffffffffffffffffffffff169050919050565b600061073582610b7f565b90508073ffffffffffffffffffffffffffffffffffffffff168373ffffffffffffffffffffffffffffffffffffffff1614156107a6576040517f08c379a000000000000000000000000000000000000000000000000000000000815260040161079d90613c46565b60405180910390fd5b8073ffffffffffffffffffffffffffffffffffffffff166107c5611377565b73ffffffffffffffffffffffffffffffffffffffff1614806107f457506107f3816107ee611377565b6111bf565b5b610833576040517f08c379a000000000000000000000000000000000000000000000000000000000815260040161082a90613b86565b60405180910390fd5b61083d838361137f565b505050565b6000600a80549050905090565b61086061085a611377565b82611438565b61089f576040517f08c379a000000000000000000000000000000000000000000000000000000000815260040161089690613c66565b60405180910390fd5b6108aa838383611516565b505050565b6000806000838152602001908152602001600020600101549050919050565b6108d88282611772565b6108fd816001600085815260200190815260200160002061126190919063ffffffff16565b505050565b600061090d83610c31565b821061094e576040517f08c379a000000000000000000000000000000000000000000000000000000000815260040161094590613a86565b60405180910390fd5b600860008473ffffffffffffffffffffffffffffffffffffffff1673ffffffffffffffffffffffffffffffffffffffff168152602001908152602001600020600083815260200190815260200160002054905092915050565b6109b182826117d8565b6109d6816001600085815260200190815260200160002061185b90919063ffffffff16565b505050565b610a0c7f65d7a28e3265b37a6474929f336521b332c1681b933f6cb9f3376673440d862a610a07611377565b610d92565b610a4b576040517f08c379a0000000000000000000000000000000000000000000000000000000008152600401610a4290613cc6565b60405180910390fd5b610a5361188b565b565b610a7083838360405180602001604052806000815250611016565b505050565b610a86610a80611377565b82611438565b610ac5576040517f08c379a0000000000000000000000000000000000000000000000000000000008152600401610abc90613ca6565b60405180910390fd5b610ace8161192d565b50565b6000610adb610842565b8210610b1c576040517f08c379a0000000000000000000000000000000000000000000000000000000008152600401610b1390613c86565b60405180910390fd5b600a8281548110610b56577f4e487b7100000000000000000000000000000000000000000000000000000000600052603260045260246000fd5b90600052602060002001549050919050565b6000600c60009054906101000a900460ff16905090565b6000806004600084815260200190815260200160002060009054906101000a900473ffffffffffffffffffffffffffffffffffffffff169050600073ffffffffffffffffffffffffffffffffffffffff168173ffffffffffffffffffffffffffffffffffffffff161415610c28576040517f08c379a0000000000000000000000000000000000000000000000000000000008152600401610c1f90613bc6565b60405180910390fd5b80915050919050565b60008073ffffffffffffffffffffffffffffffffffffffff168273ffffffffffffffffffffffffffffffffffffffff161415610ca2576040517f08c379a0000000000000000000000000000000000000000000000000000000008152600401610c9990613ba6565b60405180910390fd5b600560008373ffffffffffffffffffffffffffffffffffffffff1673ffffffffffffffffffffffffffffffffffffffff168152602001908152602001600020549050919050565b610d1a7f65d7a28e3265b37a6474929f336521b332c1681b933f6cb9f3376673440d862a610d15611377565b610d92565b610d59576040517f08c379a0000000000000000000000000000000000000000000000000000000008152600401610d5090613ac6565b60405180910390fd5b610d61611a3e565b565b6000610d8a8260016000868152602001908152602001600020611ae190919063ffffffff16565b905092915050565b600080600084815260200190815260200160002060000160008373ffffffffffffffffffffffffffffffffffffffff1673ffffffffffffffffffffffffffffffffffffffff16815260200190815260200160002060009054906101000a900460ff16905092915050565b606060038054610e0b90613f40565b80601f0160208091040260200160405190810160405280929190818152602001828054610e3790613f40565b8015610e845780601f10610e5957610100808354040283529160200191610e84565b820191906000526020600020905b815481529060010190602001808311610e6757829003601f168201915b5050505050905090565b6000801b81565b610e9d611377565b73ffffffffffffffffffffffffffffffffffffffff168273ffffffffffffffffffffffffffffffffffffffff161415610f0b576040517f08c379a0000000000000000000000000000000000000000000000000000000008152600401610f0290613b06565b60405180910390fd5b8060076000610f18611377565b73ffffffffffffffffffffffffffffffffffffffff1673ffffffffffffffffffffffffffffffffffffffff16815260200190815260200160002060008473ffffffffffffffffffffffffffffffffffffffff1673ffffffffffffffffffffffffffffffffffffffff16815260200190815260200160002060006101000a81548160ff0219169083151502179055508173ffffffffffffffffffffffffffffffffffffffff16610fc5611377565b73ffffffffffffffffffffffffffffffffffffffff167f17307eab39ab6107e8899845ad3d59bd9653f200f220920489ca2b5937696c318360405161100a91906139ae565b60405180910390a35050565b611027611021611377565b83611438565b611066576040517f08c379a000000000000000000000000000000000000000000000000000000000815260040161105d90613c66565b60405180910390fd5b61107284848484611afb565b50505050565b60606110838261130b565b6110c2576040517f08c379a00000000000000000000000000000000000000000000000000000000081526004016110b990613c26565b60405180910390fd5b60006110cc611b57565b905060008151116110ec5760405180602001604052806000815250611117565b806110f684611be9565b604051602001611107929190613923565b6040516020818303038152906040525b915050919050565b600061113c60016000848152602001908152602001600020611d96565b9050919050565b7f9f2df0fed2c77648de5860a4cc508cd0818c85b8b8a1ab4ceeef8d981c8956a681565b6111718282611dab565b611196816001600085815260200190815260200160002061185b90919063ffffffff16565b505050565b7f65d7a28e3265b37a6474929f336521b332c1681b933f6cb9f3376673440d862a81565b6000600760008473ffffffffffffffffffffffffffffffffffffffff1673ffffffffffffffffffffffffffffffffffffffff16815260200190815260200160002060008373ffffffffffffffffffffffffffffffffffffffff1673ffffffffffffffffffffffffffffffffffffffff16815260200190815260200160002060009054906101000a900460ff16905092915050565b61125d8282611e11565b5050565b6000611289836000018373ffffffffffffffffffffffffffffffffffffffff1660001b611ef1565b905092915050565b60007f780e9d63000000000000000000000000000000000000000000000000000000007bffffffffffffffffffffffffffffffffffffffffffffffffffffffff1916827bffffffffffffffffffffffffffffffffffffffffffffffffffffffff19161480611304575061130382611f61565b5b9050919050565b60008073ffffffffffffffffffffffffffffffffffffffff166004600084815260200190815260200160002060009054906101000a900473ffffffffffffffffffffffffffffffffffffffff1673ffffffffffffffffffffffffffffffffffffffff1614159050919050565b600033905090565b816006600083815260200190815260200160002060006101000a81548173ffffffffffffffffffffffffffffffffffffffff021916908373ffffffffffffffffffffffffffffffffffffffff160217905550808273ffffffffffffffffffffffffffffffffffffffff166113f283610b7f565b73ffffffffffffffffffffffffffffffffffffffff167f8c5be1e5ebec7d5bd14f71427d1e84f3dd0314c0f7b2291e5b200ac8c7c3b92560405160405180910390a45050565b60006114438261130b565b611482576040517f08c379a000000000000000000000000000000000000000000000000000000000815260040161147990613b26565b60405180910390fd5b600061148d83610b7f565b90508073ffffffffffffffffffffffffffffffffffffffff168473ffffffffffffffffffffffffffffffffffffffff1614806114fc57508373ffffffffffffffffffffffffffffffffffffffff166114e4846106a5565b73ffffffffffffffffffffffffffffffffffffffff16145b8061150d575061150c81856111bf565b5b91505092915050565b8273ffffffffffffffffffffffffffffffffffffffff1661153682610b7f565b73ffffffffffffffffffffffffffffffffffffffff161461158c576040517f08c379a000000000000000000000000000000000000000000000000000000000815260040161158390613c06565b60405180910390fd5b600073ffffffffffffffffffffffffffffffffffffffff168273ffffffffffffffffffffffffffffffffffffffff1614156115fc576040517f08c379a00000000000000000000000000000000000000000000000000000000081526004016115f390613ae6565b60405180910390fd5b611607838383612043565b61161260008261137f565b6001600560008573ffffffffffffffffffffffffffffffffffffffff1673ffffffffffffffffffffffffffffffffffffffff16815260200190815260200160002060008282546116629190613e4c565b925050819055506001600560008473ffffffffffffffffffffffffffffffffffffffff1673ffffffffffffffffffffffffffffffffffffffff16815260200190815260200160002060008282546116b99190613dc5565b92505081905550816004600083815260200190815260200160002060006101000a81548173ffffffffffffffffffffffffffffffffffffffff021916908373ffffffffffffffffffffffffffffffffffffffff160217905550808273ffffffffffffffffffffffffffffffffffffffff168473ffffffffffffffffffffffffffffffffffffffff167fddf252ad1be2c89b69c2b068fc378daa952ba7f163c4a11628f55a4df523b3ef60405160405180910390a4505050565b61178b61177e836108af565b611786611377565b610d92565b6117ca576040517f08c379a00000000000000000000000000000000000000000000000000000000081526004016117c190613a46565b60405180910390fd5b6117d48282611e11565b5050565b6117e0611377565b73ffffffffffffffffffffffffffffffffffffffff168173ffffffffffffffffffffffffffffffffffffffff161461184d576040517f08c379a000000000000000000000000000000000000000000000000000000000815260040161184490613ce6565b60405180910390fd5b6118578282612053565b5050565b6000611883836000018373ffffffffffffffffffffffffffffffffffffffff1660001b612134565b905092915050565b611893610b68565b6118d2576040517f08c379a00000000000000000000000000000000000000000000000000000000081526004016118c990613a66565b60405180910390fd5b6000600c60006101000a81548160ff0219169083151502179055507f5db9ee0a495bf2e6ff9c91a7834c1ba4fdd244a5e8aa4e537bd38aeae4b073aa611916611377565b6040516119239190613947565b60405180910390a1565b600061193882610b7f565b905061194681600084612043565b61195160008361137f565b6001600560008373ffffffffffffffffffffffffffffffffffffffff1673ffffffffffffffffffffffffffffffffffffffff16815260200190815260200160002060008282546119a19190613e4c565b925050819055506004600083815260200190815260200160002060006101000a81549073ffffffffffffffffffffffffffffffffffffffff021916905581600073ffffffffffffffffffffffffffffffffffffffff168273ffffffffffffffffffffffffffffffffffffffff167fddf252ad1be2c89b69c2b068fc378daa952ba7f163c4a11628f55a4df523b3ef60405160405180910390a45050565b611a46610b68565b15611a86576040517f08c379a0000000000000000000000000000000000000000000000000000000008152600401611a7d90613b66565b60405180910390fd5b6001600c60006101000a81548160ff0219169083151502179055507f62e78cea01bee320cd4e420270b5ea74000d11b0c9f74754ebdbfc544b05a258611aca611377565b604051611ad79190613947565b60405180910390a1565b6000611af083600001836122be565b60001c905092915050565b611b06848484611516565b611b1284848484612358565b611b51576040517f08c379a0000000000000000000000000000000000000000000000000000000008152600401611b4890613aa6565b60405180910390fd5b50505050565b6060600e8054611b6690613f40565b80601f0160208091040260200160405190810160405280929190818152602001828054611b9290613f40565b8015611bdf5780601f10611bb457610100808354040283529160200191611bdf565b820191906000526020600020905b815481529060010190602001808311611bc257829003601f168201915b5050505050905090565b60606000821415611c31576040518060400160405280600181526020017f30000000000000000000000000000000000000000000000000000000000000008152509050611d91565b600082905060005b60008214611c63578080611c4c90613f72565b915050600a82611c5c9190613e1b565b9150611c39565b60008167ffffffffffffffff811115611ca5577f4e487b7100000000000000000000000000000000000000000000000000000000600052604160045260246000fd5b6040519080825280601f01601f191660200182016040528015611cd75781602001600182028036833780820191505090505b5090505b60008514611d8a57600182611cf09190613e4c565b9150600a85611cff9190613fbb565b6030611d0b9190613dc5565b60f81b818381518110611d47577f4e487b7100000000000000000000000000000000000000000000000000000000600052603260045260246000fd5b60200101907effffffffffffffffffffffffffffffffffffffffffffffffffffffffffffff1916908160001a905350600a85611d839190613e1b565b9450611cdb565b8093505050505b919050565b6000611da4826000016124ef565b9050919050565b611dc4611db7836108af565b611dbf611377565b610d92565b611e03576040517f08c379a0000000000000000000000000000000000000000000000000000000008152600401611dfa90613b46565b60405180910390fd5b611e0d8282612053565b5050565b611e1b8282610d92565b611eed57600160008084815260200190815260200160002060000160008373ffffffffffffffffffffffffffffffffffffffff1673ffffffffffffffffffffffffffffffffffffffff16815260200190815260200160002060006101000a81548160ff021916908315150217905550611e92611377565b73ffffffffffffffffffffffffffffffffffffffff168173ffffffffffffffffffffffffffffffffffffffff16837f2f8788117e7eff1d82e926ec794901d17c78024a50270940304540a733656f0d60405160405180910390a45b5050565b6000611efd8383612500565b611f56578260000182908060018154018082558091505060019003906000526020600020016000909190919091505582600001805490508360010160008481526020019081526020016000208190555060019050611f5b565b600090505b92915050565b60007f80ac58cd000000000000000000000000000000000000000000000000000000007bffffffffffffffffffffffffffffffffffffffffffffffffffffffff1916827bffffffffffffffffffffffffffffffffffffffffffffffffffffffff1916148061202c57507f5b5e139f000000000000000000000000000000000000000000000000000000007bffffffffffffffffffffffffffffffffffffffffffffffffffffffff1916827bffffffffffffffffffffffffffffffffffffffffffffffffffffffff1916145b8061203c575061203b82612523565b5b9050919050565b61204e83838361259d565b505050565b61205d8282610d92565b1561213057600080600084815260200190815260200160002060000160008373ffffffffffffffffffffffffffffffffffffffff1673ffffffffffffffffffffffffffffffffffffffff16815260200190815260200160002060006101000a81548160ff0219169083151502179055506120d5611377565b73ffffffffffffffffffffffffffffffffffffffff168173ffffffffffffffffffffffffffffffffffffffff16837ff6391f5c32d9c69d2a47ea670b442974b53935d1edc7fd64eb21e047a839171b60405160405180910390a45b5050565b600080836001016000848152602001908152602001600020549050600081146122b25760006001826121669190613e4c565b905060006001866000018054905061217e9190613e4c565b905060008660000182815481106121be577f4e487b7100000000000000000000000000000000000000000000000000000000600052603260045260246000fd5b9060005260206000200154905080876000018481548110612208577f4e487b7100000000000000000000000000000000000000000000000000000000600052603260045260246000fd5b90600052602060002001819055506001836122239190613dc5565b8760010160008381526020019081526020016000208190555086600001805480612276577f4e487b7100000000000000000000000000000000000000000000000000000000600052603160045260246000fd5b600190038181906000526020600020016000905590558660010160008781526020019081526020016000206000905560019450505050506122b8565b60009150505b92915050565b600081836000018054905011612309576040517f08c379a000000000000000000000000000000000000000000000000000000000815260040161230090613a06565b60405180910390fd5b826000018281548110612345577f4e487b7100000000000000000000000000000000000000000000000000000000600052603260045260246000fd5b9060005260206000200154905092915050565b60006123798473ffffffffffffffffffffffffffffffffffffffff166125f5565b156124e2578373ffffffffffffffffffffffffffffffffffffffff1663150b7a026123a2611377565b8786866040518563ffffffff1660e01b81526004016123c49493929190613962565b602060405180830381600087803b1580156123de57600080fd5b505af192505050801561240f57506040513d601f19601f8201168201806040525081019061240c9190612ed4565b60015b612492573d806000811461243f576040519150601f19603f3d011682016040523d82523d6000602084013e612444565b606091505b5060008151141561248a576040517f08c379a000000000000000000000000000000000000000000000000000000000815260040161248190613aa6565b60405180910390fd5b805181602001fd5b63150b7a0260e01b7bffffffffffffffffffffffffffffffffffffffffffffffffffffffff1916817bffffffffffffffffffffffffffffffffffffffffffffffffffffffff1916149150506124e7565b600190505b949350505050565b600081600001805490509050919050565b600080836001016000848152602001908152602001600020541415905092915050565b60007f5a05180f000000000000000000000000000000000000000000000000000000007bffffffffffffffffffffffffffffffffffffffffffffffffffffffff1916827bffffffffffffffffffffffffffffffffffffffffffffffffffffffff19161480612596575061259582612608565b5b9050919050565b6125a8838383612682565b6125b0610b68565b156125f0576040517f08c379a00000000000000000000000000000000000000000000000000000000081526004016125e790613a26565b60405180910390fd5b505050565b600080823b905060008111915050919050565b60007f7965db0b000000000000000000000000000000000000000000000000000000007bffffffffffffffffffffffffffffffffffffffffffffffffffffffff1916827bffffffffffffffffffffffffffffffffffffffffffffffffffffffff1916148061267b575061267a82612796565b5b9050919050565b61268d838383612800565b600073ffffffffffffffffffffffffffffffffffffffff168373ffffffffffffffffffffffffffffffffffffffff1614156126d0576126cb81612805565b61270f565b8173ffffffffffffffffffffffffffffffffffffffff168373ffffffffffffffffffffffffffffffffffffffff161461270e5761270d838261284e565b5b5b600073ffffffffffffffffffffffffffffffffffffffff168273ffffffffffffffffffffffffffffffffffffffff1614156127525761274d816129bb565b612791565b8273ffffffffffffffffffffffffffffffffffffffff168273ffffffffffffffffffffffffffffffffffffffff16146127905761278f8282612afe565b5b5b505050565b60007f01ffc9a7000000000000000000000000000000000000000000000000000000007bffffffffffffffffffffffffffffffffffffffffffffffffffffffff1916827bffffffffffffffffffffffffffffffffffffffffffffffffffffffff1916149050919050565b505050565b600a80549050600b600083815260200190815260200160002081905550600a81908060018154018082558091505060019003906000526020600020016000909190919091505550565b6000600161285b84610c31565b6128659190613e4c565b905060006009600084815260200190815260200160002054905081811461294a576000600860008673ffffffffffffffffffffffffffffffffffffffff1673ffffffffffffffffffffffffffffffffffffffff168152602001908152602001600020600084815260200190815260200160002054905080600860008773ffffffffffffffffffffffffffffffffffffffff1673ffffffffffffffffffffffffffffffffffffffff168152602001908152602001600020600084815260200190815260200160002081905550816009600083815260200190815260200160002081905550505b6009600084815260200190815260200160002060009055600860008573ffffffffffffffffffffffffffffffffffffffff1673ffffffffffffffffffffffffffffffffffffffff16815260200190815260200160002060008381526020019081526020016000206000905550505050565b60006001600a805490506129cf9190613e4c565b90506000600b60008481526020019081526020016000205490506000600a8381548110612a25577f4e487b7100000000000000000000000000000000000000000000000000000000600052603260045260246000fd5b9060005260206000200154905080600a8381548110612a6d577f4e487b7100000000000000000000000000000000000000000000000000000000600052603260045260246000fd5b906000526020600020018190555081600b600083815260200190815260200160002081905550600b600085815260200190815260200160002060009055600a805480612ae2577f4e487b7100000000000000000000000000000000000000000000000000000000600052603160045260246000fd5b6001900381819060005260206000200160009055905550505050565b6000612b0983610c31565b905081600860008573ffffffffffffffffffffffffffffffffffffffff1673ffffffffffffffffffffffffffffffffffffffff168152602001908152602001600020600083815260200190815260200160002081905550806009600084815260200190815260200160002081905550505050565b6000612b90612b8b84613d52565b613d21565b905082815260208101848484011115612ba857600080fd5b612bb3848285613efe565b509392505050565b600081359050612bca816140b9565b92915050565b600081359050612bdf816140d0565b92915050565b600081359050612bf4816140e7565b92915050565b600081359050612c09816140fe565b92915050565b600081519050612c1e816140fe565b92915050565b600082601f830112612c3557600080fd5b8135612c45848260208601612b7d565b91505092915050565b600081359050612c5d81614115565b92915050565b600060208284031215612c7557600080fd5b6000612c8384828501612bbb565b91505092915050565b60008060408385031215612c9f57600080fd5b6000612cad85828601612bbb565b9250506020612cbe85828601612bbb565b9150509250929050565b600080600060608486031215612cdd57600080fd5b6000612ceb86828701612bbb565b9350506020612cfc86828701612bbb565b9250506040612d0d86828701612c4e565b9150509250925092565b60008060008060808587031215612d2d57600080fd5b6000612d3b87828801612bbb565b9450506020612d4c87828801612bbb565b9350506040612d5d87828801612c4e565b925050606085013567ffffffffffffffff811115612d7a57600080fd5b612d8687828801612c24565b91505092959194509250565b60008060408385031215612da557600080fd5b6000612db385828601612bbb565b9250506020612dc485828601612bd0565b9150509250929050565b60008060408385031215612de157600080fd5b6000612def85828601612bbb565b9250506020612e0085828601612c4e565b9150509250929050565b600060208284031215612e1c57600080fd5b6000612e2a84828501612be5565b91505092915050565b60008060408385031215612e4657600080fd5b6000612e5485828601612be5565b9250506020612e6585828601612bbb565b9150509250929050565b60008060408385031215612e8257600080fd5b6000612e9085828601612be5565b9250506020612ea185828601612c4e565b9150509250929050565b600060208284031215612ebd57600080fd5b6000612ecb84828501612bfa565b91505092915050565b600060208284031215612ee657600080fd5b6000612ef484828501612c0f565b91505092915050565b600060208284031215612f0f57600080fd5b6000612f1d84828501612c4e565b91505092915050565b612f2f81613e80565b82525050565b612f3e81613e92565b82525050565b612f4d81613e9e565b82525050565b6000612f5e82613d82565b612f688185613d98565b9350612f78818560208601613f0d565b612f81816140a8565b840191505092915050565b6000612f9782613d8d565b612fa18185613da9565b9350612fb1818560208601613f0d565b612fba816140a8565b840191505092915050565b6000612fd082613d8d565b612fda8185613dba565b9350612fea818560208601613f0d565b80840191505092915050565b6000613003602283613da9565b91507f456e756d657261626c655365743a20696e646578206f7574206f6620626f756e60008301527f64730000000000000000000000000000000000000000000000000000000000006020830152604082019050919050565b6000613069602b83613da9565b91507f4552433732315061757361626c653a20746f6b656e207472616e73666572207760008301527f68696c65207061757365640000000000000000000000000000000000000000006020830152604082019050919050565b60006130cf602f83613da9565b91507f416363657373436f6e74726f6c3a2073656e646572206d75737420626520616e60008301527f2061646d696e20746f206772616e7400000000000000000000000000000000006020830152604082019050919050565b6000613135601483613da9565b91507f5061757361626c653a206e6f74207061757365640000000000000000000000006000830152602082019050919050565b6000613175602b83613da9565b91507f455243373231456e756d657261626c653a206f776e657220696e646578206f7560008301527f74206f6620626f756e64730000000000000000000000000000000000000000006020830152604082019050919050565b60006131db603283613da9565b91507f4552433732313a207472616e7366657220746f206e6f6e20455243373231526560008301527f63656976657220696d706c656d656e74657200000000000000000000000000006020830152604082019050919050565b6000613241603e83613da9565b91507f4552433732315072657365744d696e7465725061757365724175746f49643a2060008301527f6d75737420686176652070617573657220726f6c6520746f20706175736500006020830152604082019050919050565b60006132a7602483613da9565b91507f4552433732313a207472616e7366657220746f20746865207a65726f2061646460008301527f72657373000000000000000000000000000000000000000000000000000000006020830152604082019050919050565b600061330d601983613da9565b91507f4552433732313a20617070726f766520746f2063616c6c6572000000000000006000830152602082019050919050565b600061334d602c83613da9565b91507f4552433732313a206f70657261746f7220717565727920666f72206e6f6e657860008301527f697374656e7420746f6b656e00000000000000000000000000000000000000006020830152604082019050919050565b60006133b3603083613da9565b91507f416363657373436f6e74726f6c3a2073656e646572206d75737420626520616e60008301527f2061646d696e20746f207265766f6b65000000000000000000000000000000006020830152604082019050919050565b6000613419601083613da9565b91507f5061757361626c653a20706175736564000000000000000000000000000000006000830152602082019050919050565b6000613459603883613da9565b91507f4552433732313a20617070726f76652063616c6c6572206973206e6f74206f7760008301527f6e6572206e6f7220617070726f76656420666f7220616c6c00000000000000006020830152604082019050919050565b60006134bf602a83613da9565b91507f4552433732313a2062616c616e636520717565727920666f7220746865207a6560008301527f726f2061646472657373000000000000000000000000000000000000000000006020830152604082019050919050565b6000613525602983613da9565b91507f4552433732313a206f776e657220717565727920666f72206e6f6e657869737460008301527f656e7420746f6b656e00000000000000000000000000000000000000000000006020830152604082019050919050565b600061358b602c83613da9565b91507f4552433732313a20617070726f76656420717565727920666f72206e6f6e657860008301527f697374656e7420746f6b656e00000000000000000000000000000000000000006020830152604082019050919050565b60006135f1602983613da9565b91507f4552433732313a207472616e73666572206f6620746f6b656e2074686174206960008301527f73206e6f74206f776e00000000000000000000000000000000000000000000006020830152604082019050919050565b6000613657602f83613da9565b91507f4552433732314d657461646174613a2055524920717565727920666f72206e6f60008301527f6e6578697374656e7420746f6b656e00000000000000000000000000000000006020830152604082019050919050565b60006136bd602183613da9565b91507f4552433732313a20617070726f76616c20746f2063757272656e74206f776e6560008301527f72000000000000000000000000000000000000000000000000000000000000006020830152604082019050919050565b6000613723603183613da9565b91507f4552433732313a207472616e736665722063616c6c6572206973206e6f74206f60008301527f776e6572206e6f7220617070726f7665640000000000000000000000000000006020830152604082019050919050565b6000613789602c83613da9565b91507f455243373231456e756d657261626c653a20676c6f62616c20696e646578206f60008301527f7574206f6620626f756e647300000000000000000000000000000000000000006020830152604082019050919050565b60006137ef603083613da9565b91507f4552433732314275726e61626c653a2063616c6c6572206973206e6f74206f7760008301527f6e6572206e6f7220617070726f766564000000000000000000000000000000006020830152604082019050919050565b6000613855604083613da9565b91507f4552433732315072657365744d696e7465725061757365724175746f49643a2060008301527f6d75737420686176652070617573657220726f6c6520746f20756e70617573656020830152604082019050919050565b60006138bb602f83613da9565b91507f416363657373436f6e74726f6c3a2063616e206f6e6c792072656e6f756e636560008301527f20726f6c657320666f722073656c6600000000000000000000000000000000006020830152604082019050919050565b61391d81613ef4565b82525050565b600061392f8285612fc5565b915061393b8284612fc5565b91508190509392505050565b600060208201905061395c6000830184612f26565b92915050565b60006080820190506139776000830187612f26565b6139846020830186612f26565b6139916040830185613914565b81810360608301526139a38184612f53565b905095945050505050565b60006020820190506139c36000830184612f35565b92915050565b60006020820190506139de6000830184612f44565b92915050565b600060208201905081810360008301526139fe8184612f8c565b905092915050565b60006020820190508181036000830152613a1f81612ff6565b9050919050565b60006020820190508181036000830152613a3f8161305c565b9050919050565b60006020820190508181036000830152613a5f816130c2565b9050919050565b60006020820190508181036000830152613a7f81613128565b9050919050565b60006020820190508181036000830152613a9f81613168565b9050919050565b60006020820190508181036000830152613abf816131ce565b9050919050565b60006020820190508181036000830152613adf81613234565b9050919050565b60006020820190508181036000830152613aff8161329a565b9050919050565b60006020820190508181036000830152613b1f81613300565b9050919050565b60006020820190508181036000830152613b3f81613340565b9050919050565b60006020820190508181036000830152613b5f816133a6565b9050919050565b60006020820190508181036000830152613b7f8161340c565b9050919050565b60006020820190508181036000830152613b9f8161344c565b9050919050565b60006020820190508181036000830152613bbf816134b2565b9050919050565b60006020820190508181036000830152613bdf81613518565b9050919050565b60006020820190508181036000830152613bff8161357e565b9050919050565b60006020820190508181036000830152613c1f816135e4565b9050919050565b60006020820190508181036000830152613c3f8161364a565b9050919050565b60006020820190508181036000830152613c5f816136b0565b9050919050565b60006020820190508181036000830152613c7f81613716565b9050919050565b60006020820190508181036000830152613c9f8161377c565b9050919050565b60006020820190508181036000830152613cbf816137e2565b9050919050565b60006020820190508181036000830152613cdf81613848565b9050919050565b60006020820190508181036000830152613cff816138ae565b9050919050565b6000602082019050613d1b6000830184613914565b92915050565b6000604051905081810181811067ffffffffffffffff82111715613d4857613d47614079565b5b8060405250919050565b600067ffffffffffffffff821115613d6d57613d6c614079565b5b601f19601f8301169050602081019050919050565b600081519050919050565b600081519050919050565b600082825260208201905092915050565b600082825260208201905092915050565b600081905092915050565b6000613dd082613ef4565b9150613ddb83613ef4565b9250827fffffffffffffffffffffffffffffffffffffffffffffffffffffffffffffffff03821115613e1057613e0f613fec565b5b828201905092915050565b6000613e2682613ef4565b9150613e3183613ef4565b925082613e4157613e4061401b565b5b828204905092915050565b6000613e5782613ef4565b9150613e6283613ef4565b925082821015613e7557613e74613fec565b5b828203905092915050565b6000613e8b82613ed4565b9050919050565b60008115159050919050565b6000819050919050565b60007fffffffff0000000000000000000000000000000000000000000000000000000082169050919050565b600073ffffffffffffffffffffffffffffffffffffffff82169050919050565b6000819050919050565b82818337600083830152505050565b60005b83811015613f2b578082015181840152602081019050613f10565b83811115613f3a576000848401525b50505050565b60006002820490506001821680613f5857607f821691505b60208210811415613f6c57613f6b61404a565b5b50919050565b6000613f7d82613ef4565b91507fffffffffffffffffffffffffffffffffffffffffffffffffffffffffffffffff821415613fb057613faf613fec565b5b600182019050919050565b6000613fc682613ef4565b9150613fd183613ef4565b925082613fe157613fe061401b565b5b828206905092915050565b7f4e487b7100000000000000000000000000000000000000000000000000000000600052601160045260246000fd5b7f4e487b7100000000000000000000000000000000000000000000000000000000600052601260045260246000fd5b7f4e487b7100000000000000000000000000000000000000000000000000000000600052602260045260246000fd5b7f4e487b7100000000000000000000000000000000000000000000000000000000600052604160045260246000fd5b6000601f19601f8301169050919050565b6140c281613e80565b81146140cd57600080fd5b50565b6140d981613e92565b81146140e457600080fd5b50565b6140f081613e9e565b81146140fb57600080fd5b50565b61410781613ea8565b811461411257600080fd5b50565b61411e81613ef4565b811461412957600080fd5b5056fea2646970667358221220f9f5d1e85e70763c15eaba75cb169d5f41d345a3fdcbe9c0ae665522e1a8fa6f64736f6c63430008000033",
  "linkReferences": {},
  "deployedLinkReferences": {}
}